{
  "contractName": "AavePoolController",
  "abi": [
    {
      "constant": true,
      "inputs": [],
      "name": "VERSION",
      "outputs": [
        {
          "internalType": "string",
          "name": "",
          "type": "string"
        }
      ],
      "payable": false,
      "stateMutability": "view",
      "type": "function"
    },
    {
      "constant": true,
      "inputs": [
        {
          "internalType": "address",
          "name": "erc20Contract",
          "type": "address"
        }
      ],
      "name": "getBalance",
      "outputs": [
        {
          "internalType": "uint256",
          "name": "",
          "type": "uint256"
        }
      ],
      "payable": false,
      "stateMutability": "view",
      "type": "function"
    }
  ],
  "bytecode": "0x610e11610026600b82828239805160001a60731461001957fe5b30600052607381538281f3fe730000000000000000000000000000000000000000301460806040526004361061006c5760003560e01c8063095ea7b314610071578063d2d0e06614610093578063f3fef3a3146100b3578063f8b2cb4f146100d3578063fa09e630146100fc578063ffa1ad7414610129575b600080fd5b81801561007d57600080fd5b5061009161008c366004610925565b61013e565b005b81801561009f57600080fd5b506100916100ae36600461095f565b61025f565b8180156100bf57600080fd5b506100916100ce366004610925565b6102fa565b6100e66100e1366004610907565b610354565b6040516100f39190610d25565b60405180910390f35b81801561010857600080fd5b5061011c610117366004610907565b6103e8565b6040516100f39190610ca6565b6101316104f1565b6040516100f39190610cb4565b604051636eb1769f60e11b815282906000906001600160a01b0383169063dd62ed3e90610185903090733dfd23a6c5e8bbcfc9581d2e864a68feb6a076d390600401610c48565b60206040518083038186803b15801561019d57600080fd5b505afa1580156101b1573d6000803e3d6000fd5b505050506040513d601f19601f820116820180604052506101d591908101906109ca565b9050828114156101e657505061025b565b6000831180156101f65750600081115b1561022a5761022a6001600160a01b038316733dfd23a6c5e8bbcfc9581d2e864a68feb6a076d3600063ffffffff61051216565b6102586001600160a01b038316733dfd23a6c5e8bbcfc9581d2e864a68feb6a076d38563ffffffff61051216565b50505b5050565b600082116102885760405162461bcd60e51b815260040161027f90610cc5565b60405180910390fd5b604051636968703360e11b815273398ec7346dcd622edc5ae82352f02be94c62d1199063d2d0e066906102c390869086908690600401610c7e565b600060405180830381600087803b1580156102dd57600080fd5b505af11580156102f1573d6000803e3d6000fd5b50505050505050565b6000811161031a5760405162461bcd60e51b815260040161027f90610cc5565b600061032583610614565b60405163db006a7560e01b81529091506001600160a01b0382169063db006a75906102c3908590600401610d25565b60008061036083610614565b6040516370a0823160e01b81529091506001600160a01b038216906370a082319061038f903090600401610c3a565b60206040518083038186803b1580156103a757600080fd5b505afa1580156103bb573d6000803e3d6000fd5b505050506040513d601f19601f820116820180604052506103df91908101906109ca565b9150505b919050565b6000806103f483610614565b90506000816001600160a01b03166370a08231306040518263ffffffff1660e01b81526004016104249190610c3a565b60206040518083038186803b15801561043c57600080fd5b505afa158015610450573d6000803e3d6000fd5b505050506040513d601f19601f8201168201806040525061047491908101906109ca565b905060008111610489576000925050506103e3565b60405163db006a7560e01b81526001600160a01b0383169063db006a75906104b5908490600401610d25565b600060405180830381600087803b1580156104cf57600080fd5b505af11580156104e3573d6000803e3d6000fd5b506001979650505050505050565b604051806040016040528060058152602001640322e302e360dc1b81525081565b80158061059a5750604051636eb1769f60e11b81526001600160a01b0384169063dd62ed3e906105489030908690600401610c48565b60206040518083038186803b15801561056057600080fd5b505afa158015610574573d6000803e3d6000fd5b505050506040513d601f19601f8201168201806040525061059891908101906109ca565b155b6105b65760405162461bcd60e51b815260040161027f90610cf5565b60405161060f90849063095ea7b360e01b906105d89086908690602401610c63565b60408051601f198184030181529190526020810180516001600160e01b03166001600160e01b0319909316929092179091526107a9565b505050565b6000736b175474e89094c44da98b954eedeac495271d0f6001600160a01b0383161415610656575073fc1e690f61efd961294b3e1ce3313fbd8aa4f85d6103e3565b73a0b86991c6218b36c1d19d4a2e9eb0ce3606eb486001600160a01b03831614156106965750739ba00d6856a4edf4665bca2c2309936572473b7e6103e3565b73dac17f958d2ee523a2206206994597c13d831ec76001600160a01b03831614156106d657507371fc860f7d3a592a4a98740e39db31d25db65ae86103e3565b6e085d4780b73119b644ae5ecd22b3766001600160a01b03831614156107115750734da9b813057d04baef4e5800e36083717b4a03416103e3565b734fabb145d64652a948d72533023f6e7a623c7c536001600160a01b03831614156107515750736ee0f7bb50a54ab5253da0667b0dc2ee526c30a86103e3565b7357ab1ec28d129707052df4df418d58a2d46d5f516001600160a01b0383161415610791575073625ae63000f46200499120b906716420bd0592406103e3565b60405162461bcd60e51b815260040161027f90610d15565b6107bb826001600160a01b031661088e565b6107d75760405162461bcd60e51b815260040161027f90610d05565b60006060836001600160a01b0316836040516107f39190610c27565b6000604051808303816000865af19150503d8060008114610830576040519150601f19603f3d011682016040523d82523d6000602084013e610835565b606091505b5091509150816108575760405162461bcd60e51b815260040161027f90610cd5565b805115610258578080602001905161087291908101906109ac565b6102585760405162461bcd60e51b815260040161027f90610ce5565b6000813f7fc5d2460186f7233c927e7db2dcc703c0e500b653ca82273b7bfad8045d85a4708181148015906108c257508115155b949350505050565b80356108d581610d9c565b92915050565b80516108d581610db3565b80356108d581610dbc565b80356108d581610dc5565b80516108d581610dc5565b60006020828403121561091957600080fd5b60006108c284846108ca565b6000806040838503121561093857600080fd5b600061094485856108ca565b9250506020610955858286016108f1565b9150509250929050565b60008060006060848603121561097457600080fd5b600061098086866108ca565b9350506020610991868287016108f1565b92505060406109a2868287016108e6565b9150509250925092565b6000602082840312156109be57600080fd5b60006108c284846108db565b6000602082840312156109dc57600080fd5b60006108c284846108fc565b6109f181610d40565b82525050565b6109f181610d4b565b6000610a0b82610d33565b610a1581856103e3565b9350610a25818560208601610d66565b9290920192915050565b6000610a3a82610d33565b610a448185610d37565b9350610a54818560208601610d66565b610a5d81610d92565b9093019392505050565b6000610a74601e83610d37565b7f416d6f756e74206d7573742062652067726561746572207468616e20302e0000815260200192915050565b6000610aad602083610d37565b7f5361666545524332303a206c6f772d6c6576656c2063616c6c206661696c6564815260200192915050565b6000610ae6602a83610d37565b7f5361666545524332303a204552433230206f7065726174696f6e20646964206e8152691bdd081cdd58d8d9595960b21b602082015260400192915050565b6000610b32603683610d37565b7f5361666545524332303a20617070726f76652066726f6d206e6f6e2d7a65726f81527520746f206e6f6e2d7a65726f20616c6c6f77616e636560501b602082015260400192915050565b6000610b8a601f83610d37565b7f5361666545524332303a2063616c6c20746f206e6f6e2d636f6e747261637400815260200192915050565b6000610bc3603f83610d37565b7f537570706f7274656420416176652061546f6b656e2061646472657373206e6f81527f7420666f756e6420666f72207468697320746f6b656e20616464726573732e00602082015260400192915050565b6109f181610d50565b6109f181610d63565b6000610c338284610a00565b9392505050565b602081016108d582846109e8565b60408101610c5682856109e8565b610c3360208301846109e8565b60408101610c7182856109e8565b610c336020830184610c1e565b60608101610c8c82866109e8565b610c996020830185610c1e565b6108c26040830184610c15565b602081016108d582846109f7565b60208082528101610c338184610a2f565b602080825281016108d581610a67565b602080825281016108d581610aa0565b602080825281016108d581610ad9565b602080825281016108d581610b25565b602080825281016108d581610b7d565b602080825281016108d581610bb6565b602081016108d58284610c1e565b5190565b90815260200190565b60006108d582610d57565b151590565b61ffff1690565b6001600160a01b031690565b90565b60005b83811015610d81578181015183820152602001610d69565b838111156102585750506000910152565b601f01601f191690565b610da581610d40565b8114610db057600080fd5b50565b610da581610d4b565b610da581610d50565b610da581610d6356fea365627a7a72315820b19d368e48a5c19c6f3a3f078ee9d5d7ee5577d2ad5044ce8e00c6500e0400896c6578706572696d656e74616cf564736f6c63430005110040",
  "source": "/**\r\n * COPYRIGHT © 2020 RARI CAPITAL, INC. ALL RIGHTS RESERVED.\r\n * Anyone is free to integrate the public APIs (described in `API.md` of the `rari-contracts` package) of the official smart contract instances deployed by Rari Capital, Inc. in any application (commercial or noncommercial and under any license) benefitting Rari Capital, Inc.\r\n * Only those with explicit permission from a co-founder of Rari Capital (Jai Bhavnani, Jack Lipstone, or David Lucid) are permitted to study, review, or analyze any part of the source code contained in the `rari-contracts` package.\r\n * Reuse (including deployment of smart contracts other than private testing on a private network), modification, redistribution, or sublicensing of any source code contained in the `rari-contracts` package is not permitted without the explicit permission of David Lucid of Rari Capital, Inc.\r\n * No one is permitted to use the software for any purpose other than those allowed by this license.\r\n * This license is liable to change at any time at the sole discretion of David Lucid of Rari Capital, Inc.\r\n */\r\n\r\npragma solidity ^0.5.7;\r\npragma experimental ABIEncoderV2;\r\n\r\nimport \"@openzeppelin/contracts/math/SafeMath.sol\";\r\nimport \"@openzeppelin/contracts/token/ERC20/SafeERC20.sol\";\r\n\r\nimport \"../../external/aave/LendingPool.sol\";\r\nimport \"../../external/aave/AToken.sol\";\r\n\r\n/**\r\n * @title AavePoolController\r\n * @author David Lucid <david@rari.capital> (https://github.com/davidlucid)\r\n * @dev This library handles deposits to and withdrawals from Aave liquidity pools.\r\n */\r\nlibrary AavePoolController {\r\n    using SafeMath for uint256;\r\n    using SafeERC20 for IERC20;\r\n\r\n    /**\r\n     * @notice Package version of `rari-contracts` when this contract was deployed.\r\n     */\r\n    string public constant VERSION = \"2.0.0\";\r\n\r\n    /**\r\n     * @dev Aave LendingPool contract address.\r\n     */\r\n    address constant private LENDING_POOL_CONTRACT = 0x398eC7346DcD622eDc5ae82352F02bE94C62d119;\r\n\r\n    /**\r\n     * @dev Aave LendingPool contract object.\r\n     */\r\n    LendingPool constant private _lendingPool = LendingPool(LENDING_POOL_CONTRACT);\r\n\r\n    /**\r\n     * @dev Aave LendingPoolCore contract address.\r\n     */\r\n    address constant private LENDING_POOL_CORE_CONTRACT = 0x3dfd23A6c5E8BbcFc9581d2E864a68feb6a076d3;\r\n\r\n    /**\r\n     * @dev Returns a token's aToken contract address given its ERC20 contract address.\r\n     * @param erc20Contract The ERC20 contract address of the token.\r\n     */\r\n    function getATokenContract(address erc20Contract) private pure returns (address) {\r\n        if (erc20Contract == 0x6B175474E89094C44Da98b954EedeAC495271d0F) return 0xfC1E690f61EFd961294b3e1Ce3313fBD8aa4f85d; // DAI => aDAI\r\n        if (erc20Contract == 0xA0b86991c6218b36c1d19D4a2e9Eb0cE3606eB48) return 0x9bA00D6856a4eDF4665BcA2C2309936572473B7E; // USDC => aUSDC\r\n        if (erc20Contract == 0xdAC17F958D2ee523a2206206994597C13D831ec7) return 0x71fc860F7D3A592A4a98740e39dB31d25db65ae8; // USDT => aUSDT\r\n        if (erc20Contract == 0x0000000000085d4780B73119b644AE5ecd22b376) return 0x4DA9b813057D04BAef4e5800E36083717b4a0341; // TUSD => aTUSD\r\n        if (erc20Contract == 0x4Fabb145d64652a948d72533023f6E7A623C7C53) return 0x6Ee0f7BB50a54AB5253dA0667B0Dc2ee526C30a8; // BUSD => aBUSD\r\n        if (erc20Contract == 0x57Ab1ec28D129707052df4dF418D58a2D46d5f51) return 0x625aE63000f46200499120B906716420bd059240; // sUSD => aSUSD\r\n        else revert(\"Supported Aave aToken address not found for this token address.\");\r\n    }\r\n\r\n    /**\r\n     * @dev Returns the fund's balance of the specified currency in the Aave pool.\r\n     * @param erc20Contract The ERC20 contract address of the token.\r\n     */\r\n    function getBalance(address erc20Contract) external view returns (uint256) {\r\n        AToken aToken = AToken(getATokenContract(erc20Contract));\r\n        return aToken.balanceOf(address(this));\r\n    }\r\n\r\n    /**\r\n     * @dev Approves tokens to Aave without spending gas on every deposit.\r\n     * @param erc20Contract The ERC20 contract address of the token.\r\n     * @param amount Amount of the specified token to approve to dYdX.\r\n     */\r\n    function approve(address erc20Contract, uint256 amount) external {\r\n        IERC20 token = IERC20(erc20Contract);\r\n        uint256 allowance = token.allowance(address(this), LENDING_POOL_CORE_CONTRACT);\r\n        if (allowance == amount) return;\r\n        if (amount > 0 && allowance > 0) token.safeApprove(LENDING_POOL_CORE_CONTRACT, 0);\r\n        token.safeApprove(LENDING_POOL_CORE_CONTRACT, amount);\r\n        return;\r\n    }\r\n\r\n    /**\r\n     * @dev Deposits funds to the Aave pool. Assumes that you have already approved >= the amount to Aave.\r\n     * @param erc20Contract The ERC20 contract address of the token to be deposited.\r\n     * @param amount The amount of tokens to be deposited.\r\n     * @param referralCode Referral code.\r\n     */\r\n    function deposit(address erc20Contract, uint256 amount, uint16 referralCode) external {\r\n        require(amount > 0, \"Amount must be greater than 0.\");\r\n        _lendingPool.deposit(erc20Contract, amount, referralCode);\r\n    }\r\n\r\n    /**\r\n     * @dev Withdraws funds from the Aave pool.\r\n     * @param erc20Contract The ERC20 contract address of the token to be withdrawn.\r\n     * @param amount The amount of tokens to be withdrawn.\r\n     */\r\n    function withdraw(address erc20Contract, uint256 amount) external {\r\n        require(amount > 0, \"Amount must be greater than 0.\");\r\n        AToken aToken = AToken(getATokenContract(erc20Contract));\r\n        aToken.redeem(amount);\r\n    }\r\n\r\n    /**\r\n     * @dev Withdraws all funds from the Aave pool.\r\n     * @param erc20Contract The ERC20 contract address of the token to be withdrawn.\r\n     * @return Boolean indicating success.\r\n     */\r\n    function withdrawAll(address erc20Contract) external returns (bool) {\r\n        AToken aToken = AToken(getATokenContract(erc20Contract));\r\n        uint256 balance = aToken.balanceOf(address(this));\r\n        if (balance <= 0) return false;\r\n        aToken.redeem(balance);\r\n        return true;\r\n    }\r\n}\r\n",
  "sourcePath": "/home/david/rari-contracts-v2.0.0/contracts/lib/pools/AavePoolController.sol",
  "compiler": {
    "name": "solc",
    "version": "0.5.17+commit.d19bba13.Emscripten.clang"
  },
  "schemaVersion": "3.2.3",
  "updatedAt": "2020-08-11T17:25:25.914Z",
  "devdoc": {
    "author": "David Lucid <david@rari.capital> (https://github.com/davidlucid)",
    "details": "This library handles deposits to and withdrawals from Aave liquidity pools.",
    "methods": {
      "approve(address,uint256)": {
        "details": "Approves tokens to Aave without spending gas on every deposit.",
        "params": {
          "amount": "Amount of the specified token to approve to dYdX.",
          "erc20Contract": "The ERC20 contract address of the token."
        }
      },
      "deposit(address,uint256,uint16)": {
        "details": "Deposits funds to the Aave pool. Assumes that you have already approved >= the amount to Aave.",
        "params": {
          "amount": "The amount of tokens to be deposited.",
          "erc20Contract": "The ERC20 contract address of the token to be deposited.",
          "referralCode": "Referral code."
        }
      },
      "getBalance(address)": {
        "details": "Returns the fund's balance of the specified currency in the Aave pool.",
        "params": {
          "erc20Contract": "The ERC20 contract address of the token."
        }
      },
      "withdraw(address,uint256)": {
        "details": "Withdraws funds from the Aave pool.",
        "params": {
          "amount": "The amount of tokens to be withdrawn.",
          "erc20Contract": "The ERC20 contract address of the token to be withdrawn."
        }
      },
      "withdrawAll(address)": {
        "details": "Withdraws all funds from the Aave pool.",
        "params": {
          "erc20Contract": "The ERC20 contract address of the token to be withdrawn."
        },
        "return": "Boolean indicating success."
      }
    },
    "title": "AavePoolController"
  },
  "userdoc": {
    "methods": {}
  }
}