{
  "contractName": "AavePoolController",
  "abi": [
    {
      "constant": true,
      "inputs": [],
      "name": "VERSION",
      "outputs": [
        {
          "internalType": "string",
          "name": "",
          "type": "string"
        }
      ],
      "payable": false,
      "stateMutability": "view",
      "type": "function"
    },
    {
      "constant": true,
      "inputs": [
        {
          "internalType": "address",
          "name": "erc20Contract",
          "type": "address"
        }
      ],
      "name": "getBalance",
      "outputs": [
        {
          "internalType": "uint256",
          "name": "",
          "type": "uint256"
        }
      ],
      "payable": false,
      "stateMutability": "view",
      "type": "function"
    }
  ],
  "bytecode": "0x610c03610026600b82828239805160001a60731461001957fe5b30600052607381538281f3fe730000000000000000000000000000000000000000301460806040526004361061006c5760003560e01c8063095ea7b314610071578063d2d0e066146100ac578063f3fef3a3146100ef578063f8b2cb4f14610128578063fa09e63014610160578063ffa1ad74146101a7575b600080fd5b81801561007d57600080fd5b506100aa6004803603604081101561009457600080fd5b506001600160a01b038135169060200135610224565b005b8180156100b857600080fd5b506100aa600480360360608110156100cf57600080fd5b5080356001600160a01b0316906020810135906040013561ffff1661033f565b8180156100fb57600080fd5b506100aa6004803603604081101561011257600080fd5b506001600160a01b03813516906020013561041d565b61014e6004803603602081101561013e57600080fd5b50356001600160a01b03166104c5565b60408051918252519081900360200190f35b81801561016c57600080fd5b506101936004803603602081101561018357600080fd5b50356001600160a01b0316610550565b604080519115158252519081900360200190f35b6101af61064e565b6040805160208082528351818301528351919283929083019185019080838360005b838110156101e95781810151838201526020016101d1565b50505050905090810190601f1680156102165780820380516001836020036101000a031916815260200191505b509250505060405180910390f35b60408051636eb1769f60e11b8152306004820152733dfd23a6c5e8bbcfc9581d2e864a68feb6a076d36024820152905183916000916001600160a01b0384169163dd62ed3e916044808301926020929190829003018186803b15801561028957600080fd5b505afa15801561029d573d6000803e3d6000fd5b505050506040513d60208110156102b357600080fd5b50519050828114156102c657505061033b565b6000831180156102d65750600081115b1561030a5761030a6001600160a01b038316733dfd23a6c5e8bbcfc9581d2e864a68feb6a076d3600063ffffffff61066f16565b6103386001600160a01b038316733dfd23a6c5e8bbcfc9581d2e864a68feb6a076d38563ffffffff61066f16565b50505b5050565b60008211610394576040805162461bcd60e51b815260206004820152601e60248201527f416d6f756e74206d7573742062652067726561746572207468616e20302e0000604482015290519081900360640190fd5b60408051636968703360e11b81526001600160a01b03851660048201526024810184905261ffff83166044820152905173398ec7346dcd622edc5ae82352f02be94c62d1199163d2d0e06691606480830192600092919082900301818387803b15801561040057600080fd5b505af1158015610414573d6000803e3d6000fd5b50505050505050565b60008111610472576040805162461bcd60e51b815260206004820152601e60248201527f416d6f756e74206d7573742062652067726561746572207468616e20302e0000604482015290519081900360640190fd5b600061047d83610787565b9050806001600160a01b031663db006a75836040518263ffffffff1660e01b815260040180828152602001915050600060405180830381600087803b15801561040057600080fd5b6000806104d183610787565b604080516370a0823160e01b815230600482015290519192506001600160a01b038316916370a0823191602480820192602092909190829003018186803b15801561051b57600080fd5b505afa15801561052f573d6000803e3d6000fd5b505050506040513d602081101561054557600080fd5b50519150505b919050565b60008061055c83610787565b604080516370a0823160e01b815230600482015290519192506000916001600160a01b038416916370a08231916024808301926020929190829003018186803b1580156105a857600080fd5b505afa1580156105bc573d6000803e3d6000fd5b505050506040513d60208110156105d257600080fd5b50519050806105e65760009250505061054b565b816001600160a01b031663db006a75826040518263ffffffff1660e01b815260040180828152602001915050600060405180830381600087803b15801561062c57600080fd5b505af1158015610640573d6000803e3d6000fd5b506001979650505050505050565b604051806040016040528060058152602001640322e302e360dc1b81525081565b8015806106f5575060408051636eb1769f60e11b81523060048201526001600160a01b03848116602483015291519185169163dd62ed3e91604480820192602092909190829003018186803b1580156106c757600080fd5b505afa1580156106db573d6000803e3d6000fd5b505050506040513d60208110156106f157600080fd5b5051155b6107305760405162461bcd60e51b8152600401808060200182810382526036815260200180610b5a6036913960400191505060405180910390fd5b604080516001600160a01b038416602482015260448082018490528251808303909101815260649091019091526020810180516001600160e01b031663095ea7b360e01b17905261078290849061093b565b505050565b6000736b175474e89094c44da98b954eedeac495271d0f6001600160a01b03831614156107c9575073fc1e690f61efd961294b3e1ce3313fbd8aa4f85d61054b565b73a0b86991c6218b36c1d19d4a2e9eb0ce3606eb486001600160a01b03831614156108095750739ba00d6856a4edf4665bca2c2309936572473b7e61054b565b73dac17f958d2ee523a2206206994597c13d831ec76001600160a01b038316141561084957507371fc860f7d3a592a4a98740e39db31d25db65ae861054b565b6e085d4780b73119b644ae5ecd22b3766001600160a01b03831614156108845750734da9b813057d04baef4e5800e36083717b4a034161054b565b734fabb145d64652a948d72533023f6e7a623c7c536001600160a01b03831614156108c45750736ee0f7bb50a54ab5253da0667b0dc2ee526c30a861054b565b7357ab1ec28d129707052df4df418d58a2d46d5f516001600160a01b0383161415610904575073625ae63000f46200499120b906716420bd05924061054b565b60405162461bcd60e51b815260040180806020018281038252603f815260200180610b90603f913960400191505060405180910390fd5b61094d826001600160a01b0316610af3565b61099e576040805162461bcd60e51b815260206004820152601f60248201527f5361666545524332303a2063616c6c20746f206e6f6e2d636f6e747261637400604482015290519081900360640190fd5b60006060836001600160a01b0316836040518082805190602001908083835b602083106109dc5780518252601f1990920191602091820191016109bd565b6001836020036101000a0380198251168184511680821785525050505050509050019150506000604051808303816000865af19150503d8060008114610a3e576040519150601f19603f3d011682016040523d82523d6000602084013e610a43565b606091505b509150915081610a9a576040805162461bcd60e51b815260206004820181905260248201527f5361666545524332303a206c6f772d6c6576656c2063616c6c206661696c6564604482015290519081900360640190fd5b80511561033857808060200190516020811015610ab657600080fd5b50516103385760405162461bcd60e51b815260040180806020018281038252602a815260200180610b30602a913960400191505060405180910390fd5b6000813f7fc5d2460186f7233c927e7db2dcc703c0e500b653ca82273b7bfad8045d85a470818114801590610b2757508115155b94935050505056fe5361666545524332303a204552433230206f7065726174696f6e20646964206e6f7420737563636565645361666545524332303a20617070726f76652066726f6d206e6f6e2d7a65726f20746f206e6f6e2d7a65726f20616c6c6f77616e6365537570706f7274656420416176652061546f6b656e2061646472657373206e6f7420666f756e6420666f72207468697320746f6b656e20616464726573732ea265627a7a723158202e3d5e003cc376bc41e419f3935f4f12d66aadcced41a79731244902b6daabad64736f6c63430005110032",
  "source": "/**\r\n * COPYRIGHT © 2020 RARI CAPITAL, INC. ALL RIGHTS RESERVED.\r\n * Anyone is free to integrate the public APIs (described in `API.md` of the `rari-contracts` package) of the official smart contract instances deployed by Rari Capital, Inc. in any application (commercial or noncommercial and under any license) benefitting Rari Capital, Inc.\r\n * Only those with explicit permission from a co-founder of Rari Capital (Jai Bhavnani, Jack Lipstone, or David Lucid) are permitted to study, review, or analyze any part of the source code contained in the `rari-contracts` package.\r\n * Reuse (including deployment of smart contracts other than private testing on a private network), modification, redistribution, or sublicensing of any source code contained in the `rari-contracts` package is not permitted without the explicit permission of David Lucid of Rari Capital, Inc.\r\n * No one is permitted to use the software for any purpose other than those allowed by this license.\r\n * This license is liable to change at any time at the sole discretion of David Lucid of Rari Capital, Inc.\r\n */\r\n\r\npragma solidity ^0.5.7;\r\n\r\nimport \"@openzeppelin/contracts/math/SafeMath.sol\";\r\nimport \"@openzeppelin/contracts/token/ERC20/SafeERC20.sol\";\r\n\r\nimport \"../../external/aave/LendingPool.sol\";\r\nimport \"../../external/aave/AToken.sol\";\r\n\r\n/**\r\n * @title AavePoolController\r\n * @author David Lucid <david@rari.capital> (https://github.com/davidlucid)\r\n * @dev This library handles deposits to and withdrawals from Aave liquidity pools.\r\n */\r\nlibrary AavePoolController {\r\n    using SafeMath for uint256;\r\n    using SafeERC20 for IERC20;\r\n\r\n    /**\r\n     * @notice Package version of `rari-contracts` when this contract was deployed.\r\n     */\r\n    string public constant VERSION = \"2.0.0\";\r\n\r\n    /**\r\n     * @dev Aave LendingPool contract address.\r\n     */\r\n    address constant private LENDING_POOL_CONTRACT = 0x398eC7346DcD622eDc5ae82352F02bE94C62d119;\r\n\r\n    /**\r\n     * @dev Aave LendingPool contract object.\r\n     */\r\n    LendingPool constant private _lendingPool = LendingPool(LENDING_POOL_CONTRACT);\r\n\r\n    /**\r\n     * @dev Aave LendingPoolCore contract address.\r\n     */\r\n    address constant private LENDING_POOL_CORE_CONTRACT = 0x3dfd23A6c5E8BbcFc9581d2E864a68feb6a076d3;\r\n\r\n    /**\r\n     * @dev Returns a token's aToken contract address given its ERC20 contract address.\r\n     * @param erc20Contract The ERC20 contract address of the token.\r\n     */\r\n    function getATokenContract(address erc20Contract) private pure returns (address) {\r\n        if (erc20Contract == 0x6B175474E89094C44Da98b954EedeAC495271d0F) return 0xfC1E690f61EFd961294b3e1Ce3313fBD8aa4f85d; // DAI => aDAI\r\n        if (erc20Contract == 0xA0b86991c6218b36c1d19D4a2e9Eb0cE3606eB48) return 0x9bA00D6856a4eDF4665BcA2C2309936572473B7E; // USDC => aUSDC\r\n        if (erc20Contract == 0xdAC17F958D2ee523a2206206994597C13D831ec7) return 0x71fc860F7D3A592A4a98740e39dB31d25db65ae8; // USDT => aUSDT\r\n        if (erc20Contract == 0x0000000000085d4780B73119b644AE5ecd22b376) return 0x4DA9b813057D04BAef4e5800E36083717b4a0341; // TUSD => aTUSD\r\n        if (erc20Contract == 0x4Fabb145d64652a948d72533023f6E7A623C7C53) return 0x6Ee0f7BB50a54AB5253dA0667B0Dc2ee526C30a8; // BUSD => aBUSD\r\n        if (erc20Contract == 0x57Ab1ec28D129707052df4dF418D58a2D46d5f51) return 0x625aE63000f46200499120B906716420bd059240; // sUSD => aSUSD\r\n        else revert(\"Supported Aave aToken address not found for this token address.\");\r\n    }\r\n\r\n    /**\r\n     * @dev Returns the fund's balance of the specified currency in the Aave pool.\r\n     * @param erc20Contract The ERC20 contract address of the token.\r\n     */\r\n    function getBalance(address erc20Contract) external view returns (uint256) {\r\n        AToken aToken = AToken(getATokenContract(erc20Contract));\r\n        return aToken.balanceOf(address(this));\r\n    }\r\n\r\n    /**\r\n     * @dev Approves tokens to Aave without spending gas on every deposit.\r\n     * @param erc20Contract The ERC20 contract address of the token.\r\n     * @param amount Amount of the specified token to approve to Aave.\r\n     */\r\n    function approve(address erc20Contract, uint256 amount) external {\r\n        IERC20 token = IERC20(erc20Contract);\r\n        uint256 allowance = token.allowance(address(this), LENDING_POOL_CORE_CONTRACT);\r\n        if (allowance == amount) return;\r\n        if (amount > 0 && allowance > 0) token.safeApprove(LENDING_POOL_CORE_CONTRACT, 0);\r\n        token.safeApprove(LENDING_POOL_CORE_CONTRACT, amount);\r\n        return;\r\n    }\r\n\r\n    /**\r\n     * @dev Deposits funds to the Aave pool. Assumes that you have already approved >= the amount to Aave.\r\n     * @param erc20Contract The ERC20 contract address of the token to be deposited.\r\n     * @param amount The amount of tokens to be deposited.\r\n     * @param referralCode Referral code.\r\n     */\r\n    function deposit(address erc20Contract, uint256 amount, uint16 referralCode) external {\r\n        require(amount > 0, \"Amount must be greater than 0.\");\r\n        _lendingPool.deposit(erc20Contract, amount, referralCode);\r\n    }\r\n\r\n    /**\r\n     * @dev Withdraws funds from the Aave pool.\r\n     * @param erc20Contract The ERC20 contract address of the token to be withdrawn.\r\n     * @param amount The amount of tokens to be withdrawn.\r\n     */\r\n    function withdraw(address erc20Contract, uint256 amount) external {\r\n        require(amount > 0, \"Amount must be greater than 0.\");\r\n        AToken aToken = AToken(getATokenContract(erc20Contract));\r\n        aToken.redeem(amount);\r\n    }\r\n\r\n    /**\r\n     * @dev Withdraws all funds from the Aave pool.\r\n     * @param erc20Contract The ERC20 contract address of the token to be withdrawn.\r\n     * @return Boolean indicating success.\r\n     */\r\n    function withdrawAll(address erc20Contract) external returns (bool) {\r\n        AToken aToken = AToken(getATokenContract(erc20Contract));\r\n        uint256 balance = aToken.balanceOf(address(this));\r\n        if (balance <= 0) return false;\r\n        aToken.redeem(balance);\r\n        return true;\r\n    }\r\n}\r\n",
  "sourcePath": "/home/david/rari-contracts-mstable/contracts/lib/pools/AavePoolController.sol",
  "compiler": {
    "name": "solc",
    "version": "0.5.17+commit.d19bba13.Emscripten.clang"
  },
  "schemaVersion": "3.2.3",
  "updatedAt": "2020-09-03T21:18:00.626Z",
  "networkType": "ethereum",
  "devdoc": {
    "author": "David Lucid <david@rari.capital> (https://github.com/davidlucid)",
    "details": "This library handles deposits to and withdrawals from Aave liquidity pools.",
    "methods": {
      "approve(address,uint256)": {
        "details": "Approves tokens to Aave without spending gas on every deposit.",
        "params": {
          "amount": "Amount of the specified token to approve to Aave.",
          "erc20Contract": "The ERC20 contract address of the token."
        }
      },
      "deposit(address,uint256,uint16)": {
        "details": "Deposits funds to the Aave pool. Assumes that you have already approved >= the amount to Aave.",
        "params": {
          "amount": "The amount of tokens to be deposited.",
          "erc20Contract": "The ERC20 contract address of the token to be deposited.",
          "referralCode": "Referral code."
        }
      },
      "getBalance(address)": {
        "details": "Returns the fund's balance of the specified currency in the Aave pool.",
        "params": {
          "erc20Contract": "The ERC20 contract address of the token."
        }
      },
      "withdraw(address,uint256)": {
        "details": "Withdraws funds from the Aave pool.",
        "params": {
          "amount": "The amount of tokens to be withdrawn.",
          "erc20Contract": "The ERC20 contract address of the token to be withdrawn."
        }
      },
      "withdrawAll(address)": {
        "details": "Withdraws all funds from the Aave pool.",
        "params": {
          "erc20Contract": "The ERC20 contract address of the token to be withdrawn."
        },
        "return": "Boolean indicating success."
      }
    },
    "title": "AavePoolController"
  },
  "userdoc": {
    "methods": {}
  }
}