{
  "contractName": "CompoundPoolController",
  "abi": [
    {
      "constant": true,
      "inputs": [],
      "name": "VERSION",
      "outputs": [
        {
          "internalType": "string",
          "name": "",
          "type": "string"
        }
      ],
      "payable": false,
      "stateMutability": "view",
      "type": "function"
    }
  ],
  "bytecode": "0x610f64610026600b82828239805160001a60731461001957fe5b30600052607381538281f3fe730000000000000000000000000000000000000000301460806040526004361061006c5760003560e01c8063095ea7b31461007157806347e7ef24146100ac578063f3fef3a3146100e5578063f8b2cb4f1461011e578063fa09e63014610163578063ffa1ad74146101aa575b600080fd5b81801561007d57600080fd5b506100aa6004803603604081101561009457600080fd5b506001600160a01b038135169060200135610227565b005b8180156100b857600080fd5b506100aa600480360360408110156100cf57600080fd5b506001600160a01b038135169060200135610318565b8180156100f157600080fd5b506100aa6004803603604081101561010857600080fd5b506001600160a01b038135169060200135610433565b81801561012a57600080fd5b506101516004803603602081101561014157600080fd5b50356001600160a01b0316610532565b60408051918252519081900360200190f35b81801561016f57600080fd5b506101966004803603602081101561018657600080fd5b50356001600160a01b03166106b9565b604080519115158252519081900360200190f35b6101b261080d565b6040805160208082528351818301528351919283929083019185019080838360005b838110156101ec5781810151838201526020016101d4565b50505050905090810190601f1680156102195780820380516001836020036101000a031916815260200191505b509250505060405180910390f35b60006102328361082e565b60408051636eb1769f60e11b81523060048201526001600160a01b0380841660248301529151929350859260009284169163dd62ed3e916044808301926020929190829003018186803b15801561028857600080fd5b505afa15801561029c573d6000803e3d6000fd5b505050506040513d60208110156102b257600080fd5b50519050838114156102c657505050610314565b6000841180156102d65750600081115b156102f6576102f66001600160a01b03831684600063ffffffff61092716565b6103106001600160a01b038316848663ffffffff61092716565b5050505b5050565b6000811161036d576040805162461bcd60e51b815260206004820152601e60248201527f416d6f756e74206d7573742062652067726561746572207468616e20302e0000604482015290519081900360640190fd5b60006103788361082e565b90506000816001600160a01b031663a0712d68846040518263ffffffff1660e01b815260040180828152602001915050602060405180830381600087803b1580156103c257600080fd5b505af11580156103d6573d6000803e3d6000fd5b505050506040513d60208110156103ec57600080fd5b50519050801561042d5760405162461bcd60e51b8152600401808060200182810382526041815260200180610dbd6041913960600191505060405180910390fd5b50505050565b600081116104725760405162461bcd60e51b8152600401808060200182810382526021815260200180610e8e6021913960400191505060405180910390fd5b600061047d8361082e565b90506000816001600160a01b031663852a12e3846040518263ffffffff1660e01b815260040180828152602001915050602060405180830381600087803b1580156104c757600080fd5b505af11580156104db573d6000803e3d6000fd5b505050506040513d60208110156104f157600080fd5b50519050801561042d5760405162461bcd60e51b815260040180806020018281038252604d815260200180610dfe604d913960600191505060405180910390fd5b60008061053e8361082e565b9050806001600160a01b031663a6afed956040518163ffffffff1660e01b8152600401602060405180830381600087803b15801561057b57600080fd5b505af115801561058f573d6000803e3d6000fd5b505050506040513d60208110156105a557600080fd5b50506040805163182df0f560e01b815290516106b091670de0b6b3a7640000916106a4916001600160a01b0386169163182df0f591600480820192602092909190829003018186803b1580156105fa57600080fd5b505afa15801561060e573d6000803e3d6000fd5b505050506040513d602081101561062457600080fd5b5051604080516370a0823160e01b815230600482015290516001600160a01b038716916370a08231916024808301926020929190829003018186803b15801561066c57600080fd5b505afa158015610680573d6000803e3d6000fd5b505050506040513d602081101561069657600080fd5b50519063ffffffff610a3f16565b9063ffffffff610aa116565b9150505b919050565b6000806106c58361082e565b604080516370a0823160e01b815230600482015290519192506000916001600160a01b038416916370a08231916024808301926020929190829003018186803b15801561071157600080fd5b505afa158015610725573d6000803e3d6000fd5b505050506040513d602081101561073b57600080fd5b505190508061074f576000925050506106b4565b6000826001600160a01b031663db006a75836040518263ffffffff1660e01b815260040180828152602001915050602060405180830381600087803b15801561079757600080fd5b505af11580156107ab573d6000803e3d6000fd5b505050506040513d60208110156107c157600080fd5b5051905080156108025760405162461bcd60e51b8152600401808060200182810382526043815260200180610d7a6043913960600191505060405180910390fd5b506001949350505050565b604051806040016040528060058152602001640322e302e360dc1b81525081565b6000736b175474e89094c44da98b954eedeac495271d0f6001600160a01b03831614156108705750735d3a536e4d6dbd6114cc1ead35777bab948e36436106b4565b73a0b86991c6218b36c1d19d4a2e9eb0ce3606eb486001600160a01b03831614156108b057507339aa39c021dfbae8fac545936693ac917d5e75636106b4565b73dac17f958d2ee523a2206206994597c13d831ec76001600160a01b03831614156108f0575073f650c3d88d12db855b8bf7d11be6c55a4e07dcc96106b4565b60405162461bcd60e51b8152600401808060200182810382526043815260200180610e4b6043913960600191505060405180910390fd5b8015806109ad575060408051636eb1769f60e11b81523060048201526001600160a01b03848116602483015291519185169163dd62ed3e91604480820192602092909190829003018186803b15801561097f57600080fd5b505afa158015610993573d6000803e3d6000fd5b505050506040513d60208110156109a957600080fd5b5051155b6109e85760405162461bcd60e51b8152600401808060200182810382526036815260200180610efa6036913960400191505060405180910390fd5b604080516001600160a01b038416602482015260448082018490528251808303909101815260649091019091526020810180516001600160e01b031663095ea7b360e01b179052610a3a908490610ae3565b505050565b600082610a4e57506000610a9b565b82820282848281610a5b57fe5b0414610a985760405162461bcd60e51b8152600401808060200182810382526021815260200180610eaf6021913960400191505060405180910390fd5b90505b92915050565b6000610a9883836040518060400160405280601a81526020017f536166654d6174683a206469766973696f6e206279207a65726f000000000000815250610c9b565b610af5826001600160a01b0316610d3d565b610b46576040805162461bcd60e51b815260206004820152601f60248201527f5361666545524332303a2063616c6c20746f206e6f6e2d636f6e747261637400604482015290519081900360640190fd5b60006060836001600160a01b0316836040518082805190602001908083835b60208310610b845780518252601f199092019160209182019101610b65565b6001836020036101000a0380198251168184511680821785525050505050509050019150506000604051808303816000865af19150503d8060008114610be6576040519150601f19603f3d011682016040523d82523d6000602084013e610beb565b606091505b509150915081610c42576040805162461bcd60e51b815260206004820181905260248201527f5361666545524332303a206c6f772d6c6576656c2063616c6c206661696c6564604482015290519081900360640190fd5b80511561042d57808060200190516020811015610c5e57600080fd5b505161042d5760405162461bcd60e51b815260040180806020018281038252602a815260200180610ed0602a913960400191505060405180910390fd5b60008183610d275760405162461bcd60e51b81526004018080602001828103825283818151815260200191508051906020019080838360005b83811015610cec578181015183820152602001610cd4565b50505050905090810190601f168015610d195780820380516001836020036101000a031916815260200191505b509250505060405180910390fd5b506000838581610d3357fe5b0495945050505050565b6000813f7fc5d2460186f7233c927e7db2dcc703c0e500b653ca82273b7bfad8045d85a470818114801590610d7157508115155b94935050505056fe4572726f722063616c6c696e672072656465656d206f6e20436f6d706f756e642063546f6b656e3a206572726f7220636f6465206e6f7420657175616c20746f20302e4572726f722063616c6c696e67206d696e74206f6e20436f6d706f756e642063546f6b656e3a206572726f7220636f6465206e6f7420657175616c20746f20302e4572726f722063616c6c696e672072656465656d556e6465726c79696e67206f6e20436f6d706f756e642063546f6b656e3a206572726f7220636f6465206e6f7420657175616c20746f20302e537570706f7274656420436f6d706f756e642063546f6b656e2061646472657373206e6f7420666f756e6420666f72207468697320746f6b656e20616464726573732e416d6f756e74206d7573742062652067726561746572207468616e20746f20302e536166654d6174683a206d756c7469706c69636174696f6e206f766572666c6f775361666545524332303a204552433230206f7065726174696f6e20646964206e6f7420737563636565645361666545524332303a20617070726f76652066726f6d206e6f6e2d7a65726f20746f206e6f6e2d7a65726f20616c6c6f77616e6365a265627a7a723158208fddf1057c39c4cfd1a43fe19442d27e0ab8d7adbbec01db0e298e32987e0c7e64736f6c63430005110032",
  "source": "/**\n * COPYRIGHT © 2020 RARI CAPITAL, INC. ALL RIGHTS RESERVED.\n * Anyone is free to integrate the public APIs (described in `API.md` of the `rari-contracts` package) of the official smart contract instances deployed by Rari Capital, Inc. in any application (commercial or noncommercial and under any license) benefitting Rari Capital, Inc.\n * Only those with explicit permission from a co-founder of Rari Capital (Jai Bhavnani, Jack Lipstone, or David Lucid) are permitted to study, review, or analyze any part of the source code contained in the `rari-contracts` package.\n * Reuse (including deployment of smart contracts other than private testing on a private network), modification, redistribution, or sublicensing of any source code contained in the `rari-contracts` package is not permitted without the explicit permission of David Lucid of Rari Capital, Inc.\n * No one is permitted to use the software for any purpose other than those allowed by this license.\n * This license is liable to change at any time at the sole discretion of David Lucid of Rari Capital, Inc.\n */\n\npragma solidity ^0.5.7;\n\nimport \"@openzeppelin/contracts/math/SafeMath.sol\";\nimport \"@openzeppelin/contracts/token/ERC20/SafeERC20.sol\";\n\nimport \"../../external/compound/CErc20.sol\";\n\n/**\n * @title CompoundPoolController\n * @author David Lucid <david@rari.capital> (https://github.com/davidlucid)\n * @dev This library handles deposits to and withdrawals from dYdX liquidity pools.\n */\nlibrary CompoundPoolController {\n    using SafeMath for uint256;\n    using SafeERC20 for IERC20;\n\n    /**\n     * @notice Package version of `rari-contracts` when this contract was deployed.\n     */\n    string public constant VERSION = \"2.0.0\";\n\n    /**\n     * @dev Returns a token's cToken contract address given its ERC20 contract address.\n     * @param erc20Contract The ERC20 contract address of the token.\n     */\n    function getCErc20Contract(address erc20Contract) private pure returns (address) {\n        if (erc20Contract == 0x6B175474E89094C44Da98b954EedeAC495271d0F) return 0x5d3a536E4D6DbD6114cc1Ead35777bAB948E3643; // DAI => cDAI\n        if (erc20Contract == 0xA0b86991c6218b36c1d19D4a2e9Eb0cE3606eB48) return 0x39AA39c021dfbaE8faC545936693aC917d5E7563; // USDC => cUSDC\n        if (erc20Contract == 0xdAC17F958D2ee523a2206206994597C13D831ec7) return 0xf650C3d88D12dB855b8bf7D11Be6C55A4e07dCC9; // USDT => cUSDT\n        else revert(\"Supported Compound cToken address not found for this token address.\");\n    }\n\n    /**\n     * @dev Returns the fund's balance of the specified currency in the Compound pool.\n     * We would simply be using balanceOfUnderlying, but exchangeRateCurrent is nonReentrant, which causes us issues.\n     * @param erc20Contract The ERC20 contract address of the token.\n     */\n    function getBalance(address erc20Contract) external returns (uint256) {\n        CErc20 cErc20 = CErc20(getCErc20Contract(erc20Contract));\n        cErc20.accrueInterest();\n        return cErc20.balanceOf(address(this)).mul(cErc20.exchangeRateStored()).div(1e18);\n    }\n\n    /**\n     * @dev Approves tokens to Compound without spending gas on every deposit.\n     * @param erc20Contract The ERC20 contract address of the token.\n     * @param amount Amount of the specified token to approve to Compound.\n     */\n    function approve(address erc20Contract, uint256 amount) external {\n        address cErc20Contract = getCErc20Contract(erc20Contract);\n        IERC20 token = IERC20(erc20Contract);\n        uint256 allowance = token.allowance(address(this), cErc20Contract);\n        if (allowance == amount) return;\n        if (amount > 0 && allowance > 0) token.safeApprove(cErc20Contract, 0);\n        token.safeApprove(cErc20Contract, amount);\n        return;\n    }\n\n    /**\n     * @dev Deposits funds to the Compound pool. Assumes that you have already approved >= the amount to Compound.\n     * @param erc20Contract The ERC20 contract address of the token to be deposited.\n     * @param amount The amount of tokens to be deposited.\n     */\n    function deposit(address erc20Contract, uint256 amount) external {\n        require(amount > 0, \"Amount must be greater than 0.\");\n        CErc20 cErc20 = CErc20(getCErc20Contract(erc20Contract));\n        uint256 mintResult = cErc20.mint(amount);\n        require(mintResult == 0, \"Error calling mint on Compound cToken: error code not equal to 0.\");\n    }\n\n    /**\n     * @dev Withdraws funds from the Compound pool.\n     * @param erc20Contract The ERC20 contract address of the token to be withdrawn.\n     * @param amount The amount of tokens to be withdrawn.\n     */\n    function withdraw(address erc20Contract, uint256 amount) external {\n        require(amount > 0, \"Amount must be greater than to 0.\");\n        CErc20 cErc20 = CErc20(getCErc20Contract(erc20Contract));\n        uint256 redeemResult = cErc20.redeemUnderlying(amount);\n        require(redeemResult == 0, \"Error calling redeemUnderlying on Compound cToken: error code not equal to 0.\");\n    }\n\n    /**\n     * @dev Withdraws all funds from the Compound pool.\n     * @param erc20Contract The ERC20 contract address of the token to be withdrawn.\n     * @return Boolean indicating success.\n     */\n    function withdrawAll(address erc20Contract) external returns (bool) {\n        CErc20 cErc20 = CErc20(getCErc20Contract(erc20Contract));\n        uint256 balance = cErc20.balanceOf(address(this));\n        if (balance <= 0) return false; // TODO: Or revert(\"No funds available to redeem from Compound cToken.\")\n        uint256 redeemResult = cErc20.redeem(balance);\n        require(redeemResult == 0, \"Error calling redeem on Compound cToken: error code not equal to 0.\");\n        return true;\n    }\n}\n",
  "sourcePath": "/home/david/rari-contracts-bc12f7443b0601788bfda8125d6d3c0923ee2655/contracts/lib/pools/CompoundPoolController.sol",
  "compiler": {
    "name": "solc",
    "version": "0.5.17+commit.d19bba13.Emscripten.clang"
  },
  "schemaVersion": "3.2.3",
  "updatedAt": "2020-08-16T22:40:58.953Z",
  "devdoc": {
    "author": "David Lucid <david@rari.capital> (https://github.com/davidlucid)",
    "details": "This library handles deposits to and withdrawals from dYdX liquidity pools.",
    "methods": {
      "approve(address,uint256)": {
        "details": "Approves tokens to Compound without spending gas on every deposit.",
        "params": {
          "amount": "Amount of the specified token to approve to Compound.",
          "erc20Contract": "The ERC20 contract address of the token."
        }
      },
      "deposit(address,uint256)": {
        "details": "Deposits funds to the Compound pool. Assumes that you have already approved >= the amount to Compound.",
        "params": {
          "amount": "The amount of tokens to be deposited.",
          "erc20Contract": "The ERC20 contract address of the token to be deposited."
        }
      },
      "getBalance(address)": {
        "details": "Returns the fund's balance of the specified currency in the Compound pool. We would simply be using balanceOfUnderlying, but exchangeRateCurrent is nonReentrant, which causes us issues.",
        "params": {
          "erc20Contract": "The ERC20 contract address of the token."
        }
      },
      "withdraw(address,uint256)": {
        "details": "Withdraws funds from the Compound pool.",
        "params": {
          "amount": "The amount of tokens to be withdrawn.",
          "erc20Contract": "The ERC20 contract address of the token to be withdrawn."
        }
      },
      "withdrawAll(address)": {
        "details": "Withdraws all funds from the Compound pool.",
        "params": {
          "erc20Contract": "The ERC20 contract address of the token to be withdrawn."
        },
        "return": "Boolean indicating success."
      }
    },
    "title": "CompoundPoolController"
  },
  "userdoc": {
    "methods": {}
  }
}