{
  "contractName": "CompoundPoolController",
  "abi": [
    {
      "constant": true,
      "inputs": [],
      "name": "VERSION",
      "outputs": [
        {
          "internalType": "string",
          "name": "",
          "type": "string"
        }
      ],
      "payable": false,
      "stateMutability": "view",
      "type": "function"
    }
  ],
  "bytecode": "0x610f6d610026600b82828239805160001a60731461001957fe5b30600052607381538281f3fe730000000000000000000000000000000000000000301460806040526004361061006c5760003560e01c8063095ea7b31461007157806347e7ef24146100be578063f3fef3a3146100f7578063f8b2cb4f14610130578063fa09e63014610175578063ffa1ad74146101a8575b600080fd5b81801561007d57600080fd5b506100aa6004803603604081101561009457600080fd5b506001600160a01b038135169060200135610225565b604080519115158252519081900360200190f35b8180156100ca57600080fd5b506100aa600480360360408110156100e157600080fd5b506001600160a01b038135169060200135610321565b81801561010357600080fd5b506100aa6004803603604081101561011a57600080fd5b506001600160a01b038135169060200135610442565b81801561013c57600080fd5b506101636004803603602081101561015357600080fd5b50356001600160a01b0316610542565b60408051918252519081900360200190f35b81801561018157600080fd5b506100aa6004803603602081101561019857600080fd5b50356001600160a01b03166106c9565b6101b0610812565b6040805160208082528351818301528351919283929083019185019080838360005b838110156101ea5781810151838201526020016101d2565b50505050905090810190601f1680156102175780820380516001836020036101000a031916815260200191505b509250505060405180910390f35b60008061023184610833565b60408051636eb1769f60e11b81523060048201526001600160a01b0380841660248301529151929350869260009284169163dd62ed3e916044808301926020929190829003018186803b15801561028757600080fd5b505afa15801561029b573d6000803e3d6000fd5b505050506040513d60208110156102b157600080fd5b50519050848114156102c9576001935050505061031b565b6000851180156102d95750600081115b156102f9576102f96001600160a01b03831684600063ffffffff61092c16565b6103136001600160a01b038316848763ffffffff61092c16565b600193505050505b92915050565b6000808211610377576040805162461bcd60e51b815260206004820152601e60248201527f416d6f756e74206d7573742062652067726561746572207468616e20302e0000604482015290519081900360640190fd5b600061038284610833565b90506000816001600160a01b031663a0712d68856040518263ffffffff1660e01b815260040180828152602001915050602060405180830381600087803b1580156103cc57600080fd5b505af11580156103e0573d6000803e3d6000fd5b505050506040513d60208110156103f657600080fd5b5051905080156104375760405162461bcd60e51b8152600401808060200182810382526041815260200180610dc66041913960600191505060405180910390fd5b506001949350505050565b60008082116104825760405162461bcd60e51b8152600401808060200182810382526021815260200180610e976021913960400191505060405180910390fd5b600061048d84610833565b90506000816001600160a01b031663852a12e3856040518263ffffffff1660e01b815260040180828152602001915050602060405180830381600087803b1580156104d757600080fd5b505af11580156104eb573d6000803e3d6000fd5b505050506040513d602081101561050157600080fd5b5051905080156104375760405162461bcd60e51b815260040180806020018281038252604d815260200180610e07604d913960600191505060405180910390fd5b60008061054e83610833565b9050806001600160a01b031663a6afed956040518163ffffffff1660e01b8152600401602060405180830381600087803b15801561058b57600080fd5b505af115801561059f573d6000803e3d6000fd5b505050506040513d60208110156105b557600080fd5b50506040805163182df0f560e01b815290516106c091670de0b6b3a7640000916106b4916001600160a01b0386169163182df0f591600480820192602092909190829003018186803b15801561060a57600080fd5b505afa15801561061e573d6000803e3d6000fd5b505050506040513d602081101561063457600080fd5b5051604080516370a0823160e01b815230600482015290516001600160a01b038716916370a08231916024808301926020929190829003018186803b15801561067c57600080fd5b505afa158015610690573d6000803e3d6000fd5b505050506040513d60208110156106a657600080fd5b50519063ffffffff610a4416565b9063ffffffff610aa416565b9150505b919050565b6000806106d583610833565b604080516370a0823160e01b815230600482015290519192506000916001600160a01b038416916370a08231916024808301926020929190829003018186803b15801561072157600080fd5b505afa158015610735573d6000803e3d6000fd5b505050506040513d602081101561074b57600080fd5b505190508061075f576000925050506106c4565b6000826001600160a01b031663db006a75836040518263ffffffff1660e01b815260040180828152602001915050602060405180830381600087803b1580156107a757600080fd5b505af11580156107bb573d6000803e3d6000fd5b505050506040513d60208110156107d157600080fd5b5051905080156104375760405162461bcd60e51b8152600401808060200182810382526043815260200180610d836043913960600191505060405180910390fd5b604051806040016040528060058152602001640322e302e360dc1b81525081565b6000736b175474e89094c44da98b954eedeac495271d0f6001600160a01b03831614156108755750735d3a536e4d6dbd6114cc1ead35777bab948e36436106c4565b73a0b86991c6218b36c1d19d4a2e9eb0ce3606eb486001600160a01b03831614156108b557507339aa39c021dfbae8fac545936693ac917d5e75636106c4565b73dac17f958d2ee523a2206206994597c13d831ec76001600160a01b03831614156108f5575073f650c3d88d12db855b8bf7d11be6c55a4e07dcc96106c4565b60405162461bcd60e51b8152600401808060200182810382526043815260200180610e546043913960600191505060405180910390fd5b8015806109b2575060408051636eb1769f60e11b81523060048201526001600160a01b03848116602483015291519185169163dd62ed3e91604480820192602092909190829003018186803b15801561098457600080fd5b505afa158015610998573d6000803e3d6000fd5b505050506040513d60208110156109ae57600080fd5b5051155b6109ed5760405162461bcd60e51b8152600401808060200182810382526036815260200180610f036036913960400191505060405180910390fd5b604080516001600160a01b038416602482015260448082018490528251808303909101815260649091019091526020810180516001600160e01b031663095ea7b360e01b179052610a3f908490610ae6565b505050565b600082610a535750600061031b565b82820282848281610a6057fe5b0414610a9d5760405162461bcd60e51b8152600401808060200182810382526021815260200180610eb86021913960400191505060405180910390fd5b9392505050565b6000610a9d83836040518060400160405280601a81526020017f536166654d6174683a206469766973696f6e206279207a65726f000000000000815250610ca4565b610af8826001600160a01b0316610d46565b610b49576040805162461bcd60e51b815260206004820152601f60248201527f5361666545524332303a2063616c6c20746f206e6f6e2d636f6e747261637400604482015290519081900360640190fd5b60006060836001600160a01b0316836040518082805190602001908083835b60208310610b875780518252601f199092019160209182019101610b68565b6001836020036101000a0380198251168184511680821785525050505050509050019150506000604051808303816000865af19150503d8060008114610be9576040519150601f19603f3d011682016040523d82523d6000602084013e610bee565b606091505b509150915081610c45576040805162461bcd60e51b815260206004820181905260248201527f5361666545524332303a206c6f772d6c6576656c2063616c6c206661696c6564604482015290519081900360640190fd5b805115610c9e57808060200190516020811015610c6157600080fd5b5051610c9e5760405162461bcd60e51b815260040180806020018281038252602a815260200180610ed9602a913960400191505060405180910390fd5b50505050565b60008183610d305760405162461bcd60e51b81526004018080602001828103825283818151815260200191508051906020019080838360005b83811015610cf5578181015183820152602001610cdd565b50505050905090810190601f168015610d225780820380516001836020036101000a031916815260200191505b509250505060405180910390fd5b506000838581610d3c57fe5b0495945050505050565b6000813f7fc5d2460186f7233c927e7db2dcc703c0e500b653ca82273b7bfad8045d85a470818114801590610d7a57508115155b94935050505056fe4572726f722063616c6c696e672072656465656d206f6e20436f6d706f756e642063546f6b656e3a206572726f7220636f6465206e6f7420657175616c20746f20302e4572726f722063616c6c696e67206d696e74206f6e20436f6d706f756e642063546f6b656e3a206572726f7220636f6465206e6f7420657175616c20746f20302e4572726f722063616c6c696e672072656465656d556e6465726c79696e67206f6e20436f6d706f756e642063546f6b656e3a206572726f7220636f6465206e6f7420657175616c20746f20302e537570706f7274656420436f6d706f756e642063546f6b656e2061646472657373206e6f7420666f756e6420666f72207468697320746f6b656e20616464726573732e416d6f756e74206d7573742062652067726561746572207468616e20746f20302e536166654d6174683a206d756c7469706c69636174696f6e206f766572666c6f775361666545524332303a204552433230206f7065726174696f6e20646964206e6f7420737563636565645361666545524332303a20617070726f76652066726f6d206e6f6e2d7a65726f20746f206e6f6e2d7a65726f20616c6c6f77616e6365a265627a7a72315820ab7f4ff90fe67aca30f096dcc762b2e64720ff65505d295f490fe63082f4f8f064736f6c63430005110032",
  "source": "/**\r\n * COPYRIGHT © 2020 RARI CAPITAL, INC. ALL RIGHTS RESERVED.\r\n * Anyone is free to integrate the public APIs (described in `API.md` of the `rari-contracts` package) of the official smart contract instances deployed by Rari Capital, Inc. in any application (commercial or noncommercial and under any license) benefitting Rari Capital, Inc.\r\n * Only those with explicit permission from a co-founder of Rari Capital (Jai Bhavnani, Jack Lipstone, or David Lucid) are permitted to study, review, or analyze any part of the source code contained in the `rari-contracts` package.\r\n * Reuse (including deployment of smart contracts other than private testing on a private network), modification, redistribution, or sublicensing of any source code contained in the `rari-contracts` package is not permitted without the explicit permission of David Lucid of Rari Capital, Inc.\r\n * No one is permitted to use the software for any purpose other than those allowed by this license.\r\n * This license is liable to change at any time at the sole discretion of David Lucid of Rari Capital, Inc.\r\n */\r\n\r\npragma solidity ^0.5.7;\r\n\r\nimport \"@openzeppelin/contracts/math/SafeMath.sol\";\r\nimport \"@openzeppelin/contracts/token/ERC20/SafeERC20.sol\";\r\n\r\nimport \"../../external/compound/CErc20.sol\";\r\n\r\n/**\r\n * @title CompoundPoolController\r\n * @author David Lucid <david@rari.capital> (https://github.com/davidlucid)\r\n * @dev This library handles deposits to and withdrawals from dYdX liquidity pools.\r\n */\r\nlibrary CompoundPoolController {\r\n    using SafeMath for uint256;\r\n    using SafeERC20 for IERC20;\r\n\r\n    /**\r\n     * @notice Package version of `rari-contracts` when this contract was deployed.\r\n     */\r\n    string public constant VERSION = \"2.0.0\";\r\n\r\n    /**\r\n     * @dev Returns a token's cToken contract address given its ERC20 contract address.\r\n     * @param erc20Contract The ERC20 contract address of the token.\r\n     */\r\n    function getCErc20Contract(address erc20Contract) private pure returns (address) {\r\n        if (erc20Contract == 0x6B175474E89094C44Da98b954EedeAC495271d0F) return 0x5d3a536E4D6DbD6114cc1Ead35777bAB948E3643; // DAI => cDAI\r\n        if (erc20Contract == 0xA0b86991c6218b36c1d19D4a2e9Eb0cE3606eB48) return 0x39AA39c021dfbaE8faC545936693aC917d5E7563; // USDC => cUSDC\r\n        if (erc20Contract == 0xdAC17F958D2ee523a2206206994597C13D831ec7) return 0xf650C3d88D12dB855b8bf7D11Be6C55A4e07dCC9; // USDT => cUSDT\r\n        else revert(\"Supported Compound cToken address not found for this token address.\");\r\n    }\r\n\r\n    /**\r\n     * @dev Returns the fund's balance of the specified currency in the Compound pool.\r\n     * We would simply be using balanceOfUnderlying, but exchangeRateCurrent is nonReentrant, which causes us issues.\r\n     * @param erc20Contract The ERC20 contract address of the token.\r\n     */\r\n    function getBalance(address erc20Contract) external returns (uint256) {\r\n        CErc20 cErc20 = CErc20(getCErc20Contract(erc20Contract));\r\n        cErc20.accrueInterest();\r\n        return cErc20.balanceOf(address(this)).mul(cErc20.exchangeRateStored()).div(1e18);\r\n    }\r\n\r\n    /**\r\n     * @dev Approves tokens to Compound without spending gas on every deposit.\r\n     * @param erc20Contract The ERC20 contract address of the token.\r\n     * @param amount Amount of the specified token to approve to Compound.\r\n     * @return Boolean indicating success.\r\n     */\r\n    function approve(address erc20Contract, uint256 amount) external returns (bool) {\r\n        address cErc20Contract = getCErc20Contract(erc20Contract);\r\n        IERC20 token = IERC20(erc20Contract);\r\n        uint256 allowance = token.allowance(address(this), cErc20Contract);\r\n        if (allowance == amount) return true;\r\n        if (amount > 0 && allowance > 0) token.safeApprove(cErc20Contract, 0);\r\n        token.safeApprove(cErc20Contract, amount);\r\n        return true;\r\n    }\r\n\r\n    /**\r\n     * @dev Deposits funds to the Compound pool. Assumes that you have already approved >= the amount to Compound.\r\n     * @param erc20Contract The ERC20 contract address of the token to be deposited.\r\n     * @param amount The amount of tokens to be deposited.\r\n     * @return Boolean indicating success.\r\n     */\r\n    function deposit(address erc20Contract, uint256 amount) external returns (bool) {\r\n        require(amount > 0, \"Amount must be greater than 0.\");\r\n        CErc20 cErc20 = CErc20(getCErc20Contract(erc20Contract));\r\n        uint256 mintResult = cErc20.mint(amount);\r\n        require(mintResult == 0, \"Error calling mint on Compound cToken: error code not equal to 0.\");\r\n        return true;\r\n    }\r\n\r\n    /**\r\n     * @dev Withdraws funds from the Compound pool.\r\n     * @param erc20Contract The ERC20 contract address of the token to be withdrawn.\r\n     * @param amount The amount of tokens to be withdrawn.\r\n     * @return Boolean indicating success.\r\n     */\r\n    function withdraw(address erc20Contract, uint256 amount) external returns (bool) {\r\n        require(amount > 0, \"Amount must be greater than to 0.\");\r\n        CErc20 cErc20 = CErc20(getCErc20Contract(erc20Contract));\r\n        uint256 redeemResult = cErc20.redeemUnderlying(amount);\r\n        require(redeemResult == 0, \"Error calling redeemUnderlying on Compound cToken: error code not equal to 0.\");\r\n        return true;\r\n    }\r\n\r\n    /**\r\n     * @dev Withdraws all funds from the Compound pool.\r\n     * @param erc20Contract The ERC20 contract address of the token to be withdrawn.\r\n     * @return Boolean indicating success.\r\n     */\r\n    function withdrawAll(address erc20Contract) external returns (bool) {\r\n        CErc20 cErc20 = CErc20(getCErc20Contract(erc20Contract));\r\n        uint256 balance = cErc20.balanceOf(address(this));\r\n        if (balance <= 0) return false; // TODO: Or revert(\"No funds available to redeem from Compound cToken.\")\r\n        uint256 redeemResult = cErc20.redeem(balance);\r\n        require(redeemResult == 0, \"Error calling redeem on Compound cToken: error code not equal to 0.\");\r\n        return true;\r\n    }\r\n}\r\n",
  "sourcePath": "/home/david/rari-contracts-v2.0.0/contracts/lib/pools/CompoundPoolController.sol",
  "compiler": {
    "name": "solc",
    "version": "0.5.17+commit.d19bba13.Emscripten.clang"
  },
  "schemaVersion": "3.2.3",
  "updatedAt": "2020-08-11T13:51:04.214Z",
  "devdoc": {
    "author": "David Lucid <david@rari.capital> (https://github.com/davidlucid)",
    "details": "This library handles deposits to and withdrawals from dYdX liquidity pools.",
    "methods": {
      "approve(address,uint256)": {
        "details": "Approves tokens to Compound without spending gas on every deposit.",
        "params": {
          "amount": "Amount of the specified token to approve to Compound.",
          "erc20Contract": "The ERC20 contract address of the token."
        },
        "return": "Boolean indicating success."
      },
      "deposit(address,uint256)": {
        "details": "Deposits funds to the Compound pool. Assumes that you have already approved >= the amount to Compound.",
        "params": {
          "amount": "The amount of tokens to be deposited.",
          "erc20Contract": "The ERC20 contract address of the token to be deposited."
        },
        "return": "Boolean indicating success."
      },
      "getBalance(address)": {
        "details": "Returns the fund's balance of the specified currency in the Compound pool. We would simply be using balanceOfUnderlying, but exchangeRateCurrent is nonReentrant, which causes us issues.",
        "params": {
          "erc20Contract": "The ERC20 contract address of the token."
        }
      },
      "withdraw(address,uint256)": {
        "details": "Withdraws funds from the Compound pool.",
        "params": {
          "amount": "The amount of tokens to be withdrawn.",
          "erc20Contract": "The ERC20 contract address of the token to be withdrawn."
        },
        "return": "Boolean indicating success."
      },
      "withdrawAll(address)": {
        "details": "Withdraws all funds from the Compound pool.",
        "params": {
          "erc20Contract": "The ERC20 contract address of the token to be withdrawn."
        },
        "return": "Boolean indicating success."
      }
    },
    "title": "CompoundPoolController"
  },
  "userdoc": {
    "methods": {}
  }
}