{
  "contractName": "DydxPoolController",
  "abi": [
    {
      "constant": true,
      "inputs": [],
      "name": "VERSION",
      "outputs": [
        {
          "internalType": "string",
          "name": "",
          "type": "string"
        }
      ],
      "payable": false,
      "stateMutability": "view",
      "type": "function"
    },
    {
      "constant": true,
      "inputs": [],
      "name": "getBalances",
      "outputs": [
        {
          "internalType": "address[]",
          "name": "",
          "type": "address[]"
        },
        {
          "internalType": "uint256[]",
          "name": "",
          "type": "uint256[]"
        }
      ],
      "payable": false,
      "stateMutability": "view",
      "type": "function"
    },
    {
      "constant": true,
      "inputs": [
        {
          "internalType": "address",
          "name": "erc20Contract",
          "type": "address"
        }
      ],
      "name": "getBalance",
      "outputs": [
        {
          "internalType": "uint256",
          "name": "",
          "type": "uint256"
        }
      ],
      "payable": false,
      "stateMutability": "view",
      "type": "function"
    }
  ],
  "bytecode": "0x611825610026600b82828239805160001a60731461001957fe5b30600052607381538281f3fe73000000000000000000000000000000000000000030146080604052600436106100865760003560e01c8063f3fef3a311610065578063f3fef3a3146100f7578063f8b2cb4f14610117578063fa09e63014610137578063ffa1ad741461015757610086565b8062113e081461008b578063095ea7b3146100aa57806347e7ef24146100d7575b600080fd5b61009361016c565b6040516100a19291906115c8565b60405180910390f35b8180156100b657600080fd5b506100ca6100c5366004610f75565b6102c3565b6040516100a19190611612565b8180156100e357600080fd5b506100ca6100f2366004610f75565b6103f0565b81801561010357600080fd5b506100ca610112366004610f75565b6105d3565b61012a610125366004610f57565b610725565b6040516100a1919061169f565b81801561014357600080fd5b506100ca610152366004610f57565b610827565b61015f6109e0565b6040516100a19190611620565b606080610177610c9e565b50604080518082018252308152600060208201529051636a8194e760e01b81526060908190731e0447b19bb6ecfdae1e4ae1694b0c3659614e4e90636a8194e7906101c6908690600401611691565b60006040518083038186803b1580156101de57600080fd5b505afa1580156101f2573d6000803e3d6000fd5b505050506040513d6000823e601f3d908101601f1916820160405261021a9190810190610faf565b92505091506060815160405190808252806020026020018201604052801561024c578160200160208202803883390190505b50905060005b82518110156102b65782818151811061026757fe5b60200260200101516000015161027e576000610297565b82818151811061028a57fe5b6020026020010151602001515b8282815181106102a357fe5b6020908102919091010152600101610252565b5091945090925050509091565b604051636eb1769f60e11b8152600090839082906001600160a01b0383169063dd62ed3e9061030c903090731e0447b19bb6ecfdae1e4ae1694b0c3659614e4e90600401611592565b60206040518083038186803b15801561032457600080fd5b505afa158015610338573d6000803e3d6000fd5b505050506040513d601f19601f8201168201806040525061035c9190810190611061565b905083811415610371576001925050506103ea565b6000841180156103815750600081115b156103b5576103b56001600160a01b038316731e0447b19bb6ecfdae1e4ae1694b0c3659614e4e600063ffffffff610a0116565b6103e36001600160a01b038316731e0447b19bb6ecfdae1e4ae1694b0c3659614e4e8663ffffffff610a0116565b6001925050505b92915050565b600080821161041a5760405162461bcd60e51b815260040161041190611631565b60405180910390fd5b600061042584610b03565b905061042f610c9e565b506040805180820182523081526000602082015281516001808252818401909352909160609190816020015b610463610c9e565b81526020019060019003908161045b579050509050818160008151811061048657fe5b6020026020010181905250610499610cb5565b604080516080810190915260018152602081016000815260200160008152602001879052905060606104c9610cde565b5060408051610100810182526000808252602082018190528183018590526060808301899052608083018290523060a084015260c083019190915260e08201849052825160018082528185019094529192909190816020015b61052a610cde565b815260200190600190039081610522579050509050818160008151811061054d57fe5b602090810291909101015260405163a67a6a4560e01b8152731e0447b19bb6ecfdae1e4ae1694b0c3659614e4e9063a67a6a459061059190889085906004016115ed565b600060405180830381600087803b1580156105ab57600080fd5b505af11580156105bf573d6000803e3d6000fd5b5060019d9c50505050505050505050505050565b60008082116105f45760405162461bcd60e51b815260040161041190611631565b60006105ff84610b03565b9050610609610c9e565b506040805180820182523081526000602082015281516001808252818401909352909160609190816020015b61063d610c9e565b815260200190600190039081610635579050509050818160008151811061066057fe5b6020026020010181905250610673610cb5565b604080516080810190915260008082526020820190815260200160008152602001879052905060606106a3610cde565b506040805161010081018252600180825260006020830181905282840186905260608084018a9052608084018290523060a085015260c084019190915260e083018590528351828152808501909452919290816020015b610702610cde565b8152602001906001900390816106fa579050509050818160008151811061054d57fe5b60008061073183610b03565b905061073b610c9e565b50604080518082018252308152600060208201529051636a8194e760e01b8152606090731e0447b19bb6ecfdae1e4ae1694b0c3659614e4e90636a8194e790610788908590600401611691565b60006040518083038186803b1580156107a057600080fd5b505afa1580156107b4573d6000803e3d6000fd5b505050506040513d6000823e601f3d908101601f191682016040526107dc9190810190610faf565b925050508083815181106107ec57fe5b60200260200101516000015161080357600061081c565b80838151811061080f57fe5b6020026020010151602001515b93505050505b919050565b60008061083383610b03565b905061083d610c9e565b506040805180820182523081526000602082015281516001808252818401909352909160609190816020015b610871610c9e565b815260200190600190039081610869579050509050818160008151811061089457fe5b60200260200101819052506108a7610cb5565b6040805160808101909152600180825260208201908152602001600181526020016000815250905060606108d9610cde565b506040805161010081018252600180825260006020830181905282840186905260608084018a9052608084018290523060a085015260c084019190915260e083018590528351828152808501909452919290816020015b610938610cde565b815260200190600190039081610930579050509050818160008151811061095b57fe5b602090810291909101015260405163a67a6a4560e01b8152731e0447b19bb6ecfdae1e4ae1694b0c3659614e4e9063a67a6a459061099f90889085906004016115ed565b600060405180830381600087803b1580156109b957600080fd5b505af11580156109cd573d6000803e3d6000fd5b5060019c9b505050505050505050505050565b604051806040016040528060058152602001640322e302e360dc1b81525081565b801580610a895750604051636eb1769f60e11b81526001600160a01b0384169063dd62ed3e90610a379030908690600401611592565b60206040518083038186803b158015610a4f57600080fd5b505afa158015610a63573d6000803e3d6000fd5b505050506040513d601f19601f82011682018060405250610a879190810190611061565b155b610aa55760405162461bcd60e51b815260040161041190611671565b604051610afe90849063095ea7b360e01b90610ac790869086906024016115ad565b60408051601f198184030181529190526020810180516001600160e01b03166001600160e01b031990931692909217909152610b77565b505050565b600073a0b86991c6218b36c1d19d4a2e9eb0ce3606eb486001600160a01b0383161415610b3257506002610822565b736b175474e89094c44da98b954eedeac495271d0f6001600160a01b0383161415610b5f57506003610822565b60405162461bcd60e51b815260040161041190611651565b610b89826001600160a01b0316610c62565b610ba55760405162461bcd60e51b815260040161041190611681565b60006060836001600160a01b031683604051610bc19190611586565b6000604051808303816000865af19150503d8060008114610bfe576040519150601f19603f3d011682016040523d82523d6000602084013e610c03565b606091505b509150915081610c255760405162461bcd60e51b815260040161041190611641565b805115610c5c5780806020019051610c409190810190611043565b610c5c5760405162461bcd60e51b815260040161041190611661565b50505050565b6000813f7fc5d2460186f7233c927e7db2dcc703c0e500b653ca82273b7bfad8045d85a470818114801590610c9657508115155b949350505050565b604080518082019091526000808252602082015290565b604080516080810190915260008082526020820190815260200160008152602001600081525090565b604080516101008101825260008082526020820152908101610cfe610cb5565b8152602001600081526020016000815260200160006001600160a01b0316815260200160008152602001606081525090565b80356103ea816117b3565b80516103ea816117b3565b600082601f830112610d5757600080fd5b8151610d6a610d65826116d4565b6116ad565b91508181835260208401935060208101905083856020840282011115610d8f57600080fd5b60005b83811015610dbb5781610da58882610d3b565b8452506020928301929190910190600101610d92565b5050505092915050565b600082601f830112610dd657600080fd5b8151610de4610d65826116d4565b91508181835260208401935060208101905083856040840282011115610e0957600080fd5b60005b83811015610dbb5781610e1f8882610eb4565b84525060209092019160409190910190600101610e0c565b600082601f830112610e4857600080fd5b8151610e56610d65826116d4565b91508181835260208401935060208101905083856040840282011115610e7b57600080fd5b60005b83811015610dbb5781610e918882610efb565b84525060209092019160409190910190600101610e7e565b80516103ea816117c7565b600060408284031215610ec657600080fd5b610ed060406116ad565b90506000610ede8484610ea9565b8252506020610eef84848301610f36565b60208301525092915050565b600060408284031215610f0d57600080fd5b610f1760406116ad565b90506000610f258484610ea9565b8252506020610eef84848301610f4c565b80516103ea816117d0565b80356103ea816117d9565b80516103ea816117d9565b600060208284031215610f6957600080fd5b6000610c968484610d30565b60008060408385031215610f8857600080fd5b6000610f948585610d30565b9250506020610fa585828601610f41565b9150509250929050565b600080600060608486031215610fc457600080fd5b835167ffffffffffffffff811115610fdb57600080fd5b610fe786828701610d46565b935050602084015167ffffffffffffffff81111561100457600080fd5b61101086828701610dc5565b925050604084015167ffffffffffffffff81111561102d57600080fd5b61103986828701610e37565b9150509250925092565b60006020828403121561105557600080fd5b6000610c968484610ea9565b60006020828403121561107357600080fd5b6000610c968484610f4c565b600061108b83836110c6565b505060200190565b600061109f8383611468565b9392505050565b60006110b2838361155d565b505060400190565b600061108b838361157d565b6110cf81611708565b82525050565b60006110e0826116fb565b6110ea81856116ff565b93506110f5836116f5565b8060005b8381101561112357815161110d888261107f565b9750611118836116f5565b9250506001016110f9565b509495945050505050565b6000611139826116fb565b61114381856116ff565b935083602082028501611155856116f5565b8060005b8581101561118f57848403895281516111728582611093565b945061117d836116f5565b60209a909a0199925050600101611159565b5091979650505050505050565b60006111a7826116fb565b6111b181856116ff565b93506111bc836116f5565b8060005b838110156111235781516111d488826110a6565b97506111df836116f5565b9250506001016111c0565b60006111f5826116fb565b6111ff81856116ff565b935061120a836116f5565b8060005b8381101561112357815161122288826110ba565b975061122d836116f5565b92505060010161120e565b6110cf81611713565b600061124c826116fb565b6112568185610822565b9350611266818560208601611766565b9290920192915050565b600061127b826116fb565b61128581856116ff565b9350611295818560208601611766565b61129e81611792565b9093019392505050565b6110cf81611750565b6110cf8161175b565b60006112c7601e836116ff565b7f416d6f756e74206d7573742062652067726561746572207468616e20302e0000815260200192915050565b60006113006020836116ff565b7f5361666545524332303a206c6f772d6c6576656c2063616c6c206661696c6564815260200192915050565b60006113396037836116ff565b7f537570706f727465642064596458206d61726b6574206e6f7420666f756e642081527f666f72207468697320746f6b656e20616464726573732e000000000000000000602082015260400192915050565b6000611398602a836116ff565b7f5361666545524332303a204552433230206f7065726174696f6e20646964206e8152691bdd081cdd58d8d9595960b21b602082015260400192915050565b60006113e46036836116ff565b7f5361666545524332303a20617070726f76652066726f6d206e6f6e2d7a65726f81527520746f206e6f6e2d7a65726f20616c6c6f77616e636560501b602082015260400192915050565b600061143c601f836116ff565b7f5361666545524332303a2063616c6c20746f206e6f6e2d636f6e747261637400815260200192915050565b805160009061016084019061147d85826112a8565b506020830151611490602086018261157d565b5060408301516114a36040860182611513565b5060608301516114b660c086018261157d565b5060808301516114c960e086018261157d565b5060a08301516114dd6101008601826110c6565b5060c08301516114f161012086018261157d565b5060e083015184820361014086015261150a8282611270565b95945050505050565b805160808301906115248482611238565b50602082015161153760208501826112b1565b50604082015161154a60408501826112b1565b506060820151610c5c606085018261157d565b8051604083019061156e84826110c6565b506020820151610c5c60208501825b6110cf8161174d565b600061109f8284611241565b604081016115a082856110c6565b61109f60208301846110c6565b604081016115bb82856110c6565b61109f602083018461157d565b604080825281016115d981856110d5565b90508181036020830152610c9681846111ea565b604080825281016115fe818561119c565b90508181036020830152610c96818461112e565b602081016103ea8284611238565b6020808252810161109f8184611270565b602080825281016103ea816112ba565b602080825281016103ea816112f3565b602080825281016103ea8161132c565b602080825281016103ea8161138b565b602080825281016103ea816113d7565b602080825281016103ea8161142f565b604081016103ea828461155d565b602081016103ea828461157d565b60405181810167ffffffffffffffff811182821017156116cc57600080fd5b604052919050565b600067ffffffffffffffff8211156116eb57600080fd5b5060209081020190565b60200190565b5190565b90815260200190565b60006103ea82611741565b151590565b806108228161179c565b80610822816117a9565b6fffffffffffffffffffffffffffffffff1690565b6001600160a01b031690565b90565b60006103ea82611718565b60006103ea82611722565b60005b83811015611781578181015183820152602001611769565b83811115610c5c5750506000910152565b601f01601f191690565b600981106117a657fe5b50565b600281106117a657fe5b6117bc81611708565b81146117a657600080fd5b6117bc81611713565b6117bc8161172c565b6117bc8161174d56fea365627a7a72315820b1b1d7cf9d0a154e52e1a5e73228827249511386a048a08b10133318d10ca8d26c6578706572696d656e74616cf564736f6c63430005110040",
  "source": "/**\r\n * COPYRIGHT  2020 RARI CAPITAL, INC. ALL RIGHTS RESERVED.\r\n * Anyone is free to integrate the public APIs (described in `API.md` of the `rari-contracts` package) of the official smart contract instances deployed by Rari Capital, Inc. in any application (commercial or noncommercial and under any license) benefitting Rari Capital, Inc.\r\n * Only those with explicit permission from a co-founder of Rari Capital (Jai Bhavnani, Jack Lipstone, or David Lucid) are permitted to study, review, or analyze any part of the source code contained in the `rari-contracts` package.\r\n * Reuse (including deployment of smart contracts other than private testing on a private network), modification, redistribution, or sublicensing of any source code contained in the `rari-contracts` package is not permitted without the explicit permission of David Lucid of Rari Capital, Inc.\r\n * No one is permitted to use the software for any purpose other than those allowed by this license.\r\n * This license is liable to change at any time at the sole discretion of David Lucid of Rari Capital, Inc.\r\n */\r\n\r\npragma solidity ^0.5.7;\r\npragma experimental ABIEncoderV2;\r\n\r\nimport \"@openzeppelin/contracts/math/SafeMath.sol\";\r\nimport \"@openzeppelin/contracts/token/ERC20/SafeERC20.sol\";\r\n\r\nimport \"../../external/dydx/SoloMargin.sol\";\r\nimport \"../../external/dydx/lib/Account.sol\";\r\nimport \"../../external/dydx/lib/Actions.sol\";\r\nimport \"../../external/dydx/lib/Types.sol\";\r\n\r\n/**\r\n * @title DydxPoolController\r\n * @author David Lucid <david@rari.capital> (https://github.com/davidlucid)\r\n * @dev This library handles deposits to and withdrawals from dYdX liquidity pools.\r\n */\r\nlibrary DydxPoolController {\r\n    using SafeMath for uint256;\r\n    using SafeERC20 for IERC20;\r\n\r\n    /**\r\n     * @notice Package version of `rari-contracts` when this contract was deployed.\r\n     */\r\n    string public constant VERSION = \"2.0.0\";\r\n\r\n    /**\r\n     * @dev dYdX SoloMargin contract address.\r\n     */\r\n    address constant private SOLO_MARGIN_CONTRACT = 0x1E0447b19BB6EcFdAe1e4AE1694b0C3659614e4e;\r\n\r\n    /**\r\n     * @dev dYdX SoloMargin contract object.\r\n     */\r\n    SoloMargin constant private _soloMargin = SoloMargin(SOLO_MARGIN_CONTRACT);\r\n\r\n    /**\r\n     * @dev Returns a token's dYdX market ID given its ERC20 contract address.\r\n     * @param erc20Contract The ERC20 contract address of the token.\r\n     */\r\n    function getMarketId(address erc20Contract) private pure returns (uint256) {\r\n        if (erc20Contract == 0xA0b86991c6218b36c1d19D4a2e9Eb0cE3606eB48) return 2; // USDC\r\n        if (erc20Contract == 0x6B175474E89094C44Da98b954EedeAC495271d0F) return 3; // DAI\r\n        else revert(\"Supported dYdX market not found for this token address.\");\r\n    }\r\n\r\n    /**\r\n     * @dev Returns the fund's balances of all currencies supported by dYdX.\r\n     * @return An array of ERC20 token contract addresses and a corresponding array of balances.\r\n     */\r\n    function getBalances() external view returns (address[] memory, uint256[] memory) {\r\n        Account.Info memory account = Account.Info(address(this), 0);\r\n        (address[] memory tokens, , Types.Wei[] memory weis) = _soloMargin.getAccountBalances(account);\r\n        uint256[] memory balances = new uint256[](weis.length);\r\n        for (uint256 i = 0; i < weis.length; i++) balances[i] = weis[i].sign ? weis[i].value : 0;\r\n        return (tokens, balances);\r\n    }\r\n\r\n    /**\r\n     * @dev Returns the fund's balance of the specified currency in the dYdX pool.\r\n     * @param erc20Contract The ERC20 contract address of the token.\r\n     */\r\n    function getBalance(address erc20Contract) external view returns (uint256) {\r\n        uint256 marketId = getMarketId(erc20Contract);\r\n        Account.Info memory account = Account.Info(address(this), 0);\r\n        (, , Types.Wei[] memory weis) = _soloMargin.getAccountBalances(account);\r\n        return weis[marketId].sign ? weis[marketId].value : 0;\r\n    }\r\n\r\n    /**\r\n     * @dev Approves tokens to dYdX without spending gas on every deposit.\r\n     * @param erc20Contract The ERC20 contract address of the token.\r\n     * @param amount Amount of the specified token to approve to dYdX.\r\n     * @return Boolean indicating success.\r\n     */\r\n    function approve(address erc20Contract, uint256 amount) external returns (bool) {\r\n        IERC20 token = IERC20(erc20Contract);\r\n        uint256 allowance = token.allowance(address(this), SOLO_MARGIN_CONTRACT);\r\n        if (allowance == amount) return true;\r\n        if (amount > 0 && allowance > 0) token.safeApprove(SOLO_MARGIN_CONTRACT, 0);\r\n        token.safeApprove(SOLO_MARGIN_CONTRACT, amount);\r\n        return true;\r\n    }\r\n\r\n    /**\r\n     * @dev Deposits funds to the dYdX pool. Assumes that you have already approved >= the amount to dYdX.\r\n     * @param erc20Contract The ERC20 contract address of the token to be deposited.\r\n     * @param amount The amount of tokens to be deposited.\r\n     * @return Boolean indicating success.\r\n     */\r\n    function deposit(address erc20Contract, uint256 amount) external returns (bool) {\r\n        require(amount > 0, \"Amount must be greater than 0.\");\r\n        uint256 marketId = getMarketId(erc20Contract);\r\n\r\n        Account.Info memory account = Account.Info(address(this), 0);\r\n        Account.Info[] memory accounts = new Account.Info[](1);\r\n        accounts[0] = account;\r\n\r\n        Types.AssetAmount memory assetAmount = Types.AssetAmount(true, Types.AssetDenomination.Wei, Types.AssetReference.Delta, amount);\r\n        bytes memory emptyData;\r\n\r\n        Actions.ActionArgs memory action = Actions.ActionArgs(\r\n            Actions.ActionType.Deposit,\r\n            0,\r\n            assetAmount,\r\n            marketId,\r\n            0,\r\n            address(this),\r\n            0,\r\n            emptyData\r\n        );\r\n\r\n        Actions.ActionArgs[] memory actions = new Actions.ActionArgs[](1);\r\n        actions[0] = action;\r\n\r\n        _soloMargin.operate(accounts, actions);\r\n\r\n        return true;\r\n    }\r\n\r\n    /**\r\n     * @dev Withdraws funds from the dYdX pool.\r\n     * @param erc20Contract The ERC20 contract address of the token to be withdrawn.\r\n     * @param amount The amount of tokens to be withdrawn.\r\n     * @return Boolean indicating success.\r\n     */\r\n    function withdraw(address erc20Contract, uint256 amount) external returns (bool) {\r\n        require(amount > 0, \"Amount must be greater than 0.\");\r\n        uint256 marketId = getMarketId(erc20Contract);\r\n\r\n        Account.Info memory account = Account.Info(address(this), 0);\r\n        Account.Info[] memory accounts = new Account.Info[](1);\r\n        accounts[0] = account;\r\n\r\n        Types.AssetAmount memory assetAmount = Types.AssetAmount(false, Types.AssetDenomination.Wei, Types.AssetReference.Delta, amount);\r\n        bytes memory emptyData;\r\n\r\n        Actions.ActionArgs memory action = Actions.ActionArgs(\r\n            Actions.ActionType.Withdraw,\r\n            0,\r\n            assetAmount,\r\n            marketId,\r\n            0,\r\n            address(this),\r\n            0,\r\n            emptyData\r\n        );\r\n\r\n        Actions.ActionArgs[] memory actions = new Actions.ActionArgs[](1);\r\n        actions[0] = action;\r\n\r\n        _soloMargin.operate(accounts, actions);\r\n\r\n        return true;\r\n    }\r\n\r\n    /**\r\n     * @dev Withdraws all funds from the dYdX pool.\r\n     * @param erc20Contract The ERC20 contract address of the token to be withdrawn.\r\n     * @return Boolean indicating success.\r\n     */\r\n    function withdrawAll(address erc20Contract) external returns (bool) {\r\n        uint256 marketId = getMarketId(erc20Contract);\r\n\r\n        Account.Info memory account = Account.Info(address(this), 0);\r\n        Account.Info[] memory accounts = new Account.Info[](1);\r\n        accounts[0] = account;\r\n\r\n        Types.AssetAmount memory assetAmount = Types.AssetAmount(true, Types.AssetDenomination.Par, Types.AssetReference.Target, 0);\r\n        bytes memory emptyData;\r\n\r\n        Actions.ActionArgs memory action = Actions.ActionArgs(\r\n            Actions.ActionType.Withdraw,\r\n            0,\r\n            assetAmount,\r\n            marketId,\r\n            0,\r\n            address(this),\r\n            0,\r\n            emptyData\r\n        );\r\n\r\n        Actions.ActionArgs[] memory actions = new Actions.ActionArgs[](1);\r\n        actions[0] = action;\r\n\r\n        _soloMargin.operate(accounts, actions);\r\n\r\n        return true;\r\n    }\r\n}\r\n",
  "sourcePath": "/home/david/rari-contracts-v2.0.0/contracts/lib/pools/DydxPoolController.sol",
  "compiler": {
    "name": "solc",
    "version": "0.5.17+commit.d19bba13.Emscripten.clang"
  },
  "schemaVersion": "3.2.3",
  "updatedAt": "2020-08-11T13:51:04.217Z",
  "devdoc": {
    "author": "David Lucid <david@rari.capital> (https://github.com/davidlucid)",
    "details": "This library handles deposits to and withdrawals from dYdX liquidity pools.",
    "methods": {
      "approve(address,uint256)": {
        "details": "Approves tokens to dYdX without spending gas on every deposit.",
        "params": {
          "amount": "Amount of the specified token to approve to dYdX.",
          "erc20Contract": "The ERC20 contract address of the token."
        },
        "return": "Boolean indicating success."
      },
      "deposit(address,uint256)": {
        "details": "Deposits funds to the dYdX pool. Assumes that you have already approved >= the amount to dYdX.",
        "params": {
          "amount": "The amount of tokens to be deposited.",
          "erc20Contract": "The ERC20 contract address of the token to be deposited."
        },
        "return": "Boolean indicating success."
      },
      "getBalance(address)": {
        "details": "Returns the fund's balance of the specified currency in the dYdX pool.",
        "params": {
          "erc20Contract": "The ERC20 contract address of the token."
        }
      },
      "getBalances()": {
        "details": "Returns the fund's balances of all currencies supported by dYdX.",
        "return": "An array of ERC20 token contract addresses and a corresponding array of balances."
      },
      "withdraw(address,uint256)": {
        "details": "Withdraws funds from the dYdX pool.",
        "params": {
          "amount": "The amount of tokens to be withdrawn.",
          "erc20Contract": "The ERC20 contract address of the token to be withdrawn."
        },
        "return": "Boolean indicating success."
      },
      "withdrawAll(address)": {
        "details": "Withdraws all funds from the dYdX pool.",
        "params": {
          "erc20Contract": "The ERC20 contract address of the token to be withdrawn."
        },
        "return": "Boolean indicating success."
      }
    },
    "title": "DydxPoolController"
  },
  "userdoc": {
    "methods": {}
  }
}