{
  "contractName": "DydxPoolController",
  "abi": [
    {
      "constant": true,
      "inputs": [],
      "name": "VERSION",
      "outputs": [
        {
          "internalType": "string",
          "name": "",
          "type": "string"
        }
      ],
      "payable": false,
      "stateMutability": "view",
      "type": "function"
    },
    {
      "constant": true,
      "inputs": [],
      "name": "getBalances",
      "outputs": [
        {
          "internalType": "address[]",
          "name": "",
          "type": "address[]"
        },
        {
          "internalType": "uint256[]",
          "name": "",
          "type": "uint256[]"
        }
      ],
      "payable": false,
      "stateMutability": "view",
      "type": "function"
    },
    {
      "constant": true,
      "inputs": [
        {
          "internalType": "address",
          "name": "erc20Contract",
          "type": "address"
        }
      ],
      "name": "getBalance",
      "outputs": [
        {
          "internalType": "uint256",
          "name": "",
          "type": "uint256"
        }
      ],
      "payable": false,
      "stateMutability": "view",
      "type": "function"
    }
  ],
  "bytecode": "0x6117f3610026600b82828239805160001a60731461001957fe5b30600052607381538281f3fe73000000000000000000000000000000000000000030146080604052600436106100865760003560e01c8063f3fef3a311610065578063f3fef3a3146100ec578063f8b2cb4f1461010c578063fa09e6301461012c578063ffa1ad741461014c57610086565b8062113e081461008b578063095ea7b3146100aa57806347e7ef24146100cc575b600080fd5b610093610161565b6040516100a19291906115a4565b60405180910390f35b8180156100b657600080fd5b506100ca6100c5366004610f51565b6102b8565b005b8180156100d857600080fd5b506100ca6100e7366004610f51565b6103d9565b8180156100f857600080fd5b506100ca610107366004610f51565b6105b6565b61011f61011a366004610f33565b610707565b6040516100a1919061166d565b81801561013857600080fd5b506100ca610147366004610f33565b610809565b6101546109bc565b6040516100a191906115ee565b60608061016c610c74565b50604080518082018252308152600060208201529051636a8194e760e01b81526060908190731e0447b19bb6ecfdae1e4ae1694b0c3659614e4e90636a8194e7906101bb90869060040161165f565b60006040518083038186803b1580156101d357600080fd5b505afa1580156101e7573d6000803e3d6000fd5b505050506040513d6000823e601f3d908101601f1916820160405261020f9190810190610f8b565b925050915060608151604051908082528060200260200182016040528015610241578160200160208202803883390190505b50905060005b82518110156102ab5782818151811061025c57fe5b60200260200101516000015161027357600061028c565b82818151811061027f57fe5b6020026020010151602001515b82828151811061029857fe5b6020908102919091010152600101610247565b5091945090925050509091565b604051636eb1769f60e11b815282906000906001600160a01b0383169063dd62ed3e906102ff903090731e0447b19bb6ecfdae1e4ae1694b0c3659614e4e9060040161156e565b60206040518083038186803b15801561031757600080fd5b505afa15801561032b573d6000803e3d6000fd5b505050506040513d601f19601f8201168201806040525061034f919081019061103d565b9050828114156103605750506103d5565b6000831180156103705750600081115b156103a4576103a46001600160a01b038316731e0447b19bb6ecfdae1e4ae1694b0c3659614e4e600063ffffffff6109dd16565b6103d26001600160a01b038316731e0447b19bb6ecfdae1e4ae1694b0c3659614e4e8563ffffffff6109dd16565b50505b5050565b600081116104025760405162461bcd60e51b81526004016103f9906115ff565b60405180910390fd5b600061040d83610adf565b9050610417610c74565b506040805180820182523081526000602082015281516001808252818401909352909160609190816020015b61044b610c74565b815260200190600190039081610443579050509050818160008151811061046e57fe5b6020026020010181905250610481610c8b565b604080516080810190915260018152602081016000815260200160008152602001869052905060606104b1610cb4565b5060408051610100810182526000808252602082018190528183018590526060808301899052608083018290523060a084015260c083019190915260e08201849052825160018082528185019094529192909190816020015b610512610cb4565b81526020019060019003908161050a579050509050818160008151811061053557fe5b602090810291909101015260405163a67a6a4560e01b8152731e0447b19bb6ecfdae1e4ae1694b0c3659614e4e9063a67a6a459061057990889085906004016115c9565b600060405180830381600087803b15801561059357600080fd5b505af11580156105a7573d6000803e3d6000fd5b50505050505050505050505050565b600081116105d65760405162461bcd60e51b81526004016103f9906115ff565b60006105e183610adf565b90506105eb610c74565b506040805180820182523081526000602082015281516001808252818401909352909160609190816020015b61061f610c74565b815260200190600190039081610617579050509050818160008151811061064257fe5b6020026020010181905250610655610c8b565b60408051608081019091526000808252602082019081526020016000815260200186905290506060610685610cb4565b506040805161010081018252600180825260006020830181905282840186905260608084018a9052608084018290523060a085015260c084019190915260e083018590528351828152808501909452919290816020015b6106e4610cb4565b8152602001906001900390816106dc579050509050818160008151811061053557fe5b60008061071383610adf565b905061071d610c74565b50604080518082018252308152600060208201529051636a8194e760e01b8152606090731e0447b19bb6ecfdae1e4ae1694b0c3659614e4e90636a8194e79061076a90859060040161165f565b60006040518083038186803b15801561078257600080fd5b505afa158015610796573d6000803e3d6000fd5b505050506040513d6000823e601f3d908101601f191682016040526107be9190810190610f8b565b925050508083815181106107ce57fe5b6020026020010151600001516107e55760006107fe565b8083815181106107f157fe5b6020026020010151602001515b93505050505b919050565b600061081482610adf565b905061081e610c74565b506040805180820182523081526000602082015281516001808252818401909352909160609190816020015b610852610c74565b81526020019060019003908161084a579050509050818160008151811061087557fe5b6020026020010181905250610888610c8b565b6040805160808101909152600180825260208201908152602001600181526020016000815250905060606108ba610cb4565b506040805161010081018252600180825260006020830181905282840186905260608084018a9052608084018290523060a085015260c084019190915260e083018590528351828152808501909452919290816020015b610919610cb4565b815260200190600190039081610911579050509050818160008151811061093c57fe5b602090810291909101015260405163a67a6a4560e01b8152731e0447b19bb6ecfdae1e4ae1694b0c3659614e4e9063a67a6a459061098090889085906004016115c9565b600060405180830381600087803b15801561099a57600080fd5b505af11580156109ae573d6000803e3d6000fd5b505050505050505050505050565b604051806040016040528060058152602001640322e302e360dc1b81525081565b801580610a655750604051636eb1769f60e11b81526001600160a01b0384169063dd62ed3e90610a13903090869060040161156e565b60206040518083038186803b158015610a2b57600080fd5b505afa158015610a3f573d6000803e3d6000fd5b505050506040513d601f19601f82011682018060405250610a63919081019061103d565b155b610a815760405162461bcd60e51b81526004016103f99061163f565b604051610ada90849063095ea7b360e01b90610aa39086908690602401611589565b60408051601f198184030181529190526020810180516001600160e01b03166001600160e01b031990931692909217909152610b53565b505050565b600073a0b86991c6218b36c1d19d4a2e9eb0ce3606eb486001600160a01b0383161415610b0e57506002610804565b736b175474e89094c44da98b954eedeac495271d0f6001600160a01b0383161415610b3b57506003610804565b60405162461bcd60e51b81526004016103f99061161f565b610b65826001600160a01b0316610c38565b610b815760405162461bcd60e51b81526004016103f99061164f565b60006060836001600160a01b031683604051610b9d9190611562565b6000604051808303816000865af19150503d8060008114610bda576040519150601f19603f3d011682016040523d82523d6000602084013e610bdf565b606091505b509150915081610c015760405162461bcd60e51b81526004016103f99061160f565b8051156103d25780806020019051610c1c919081019061101f565b6103d25760405162461bcd60e51b81526004016103f99061162f565b6000813f7fc5d2460186f7233c927e7db2dcc703c0e500b653ca82273b7bfad8045d85a470818114801590610c6c57508115155b949350505050565b604080518082019091526000808252602082015290565b604080516080810190915260008082526020820190815260200160008152602001600081525090565b604080516101008101825260008082526020820152908101610cd4610c8b565b8152602001600081526020016000815260200160006001600160a01b0316815260200160008152602001606081525090565b8035610d1181611781565b92915050565b8051610d1181611781565b600082601f830112610d3357600080fd5b8151610d46610d41826116a2565b61167b565b91508181835260208401935060208101905083856020840282011115610d6b57600080fd5b60005b83811015610d975781610d818882610d17565b8452506020928301929190910190600101610d6e565b5050505092915050565b600082601f830112610db257600080fd5b8151610dc0610d41826116a2565b91508181835260208401935060208101905083856040840282011115610de557600080fd5b60005b83811015610d975781610dfb8882610e90565b84525060209092019160409190910190600101610de8565b600082601f830112610e2457600080fd5b8151610e32610d41826116a2565b91508181835260208401935060208101905083856040840282011115610e5757600080fd5b60005b83811015610d975781610e6d8882610ed7565b84525060209092019160409190910190600101610e5a565b8051610d1181611795565b600060408284031215610ea257600080fd5b610eac604061167b565b90506000610eba8484610e85565b8252506020610ecb84848301610f12565b60208301525092915050565b600060408284031215610ee957600080fd5b610ef3604061167b565b90506000610f018484610e85565b8252506020610ecb84848301610f28565b8051610d118161179e565b8035610d11816117a7565b8051610d11816117a7565b600060208284031215610f4557600080fd5b6000610c6c8484610d06565b60008060408385031215610f6457600080fd5b6000610f708585610d06565b9250506020610f8185828601610f1d565b9150509250929050565b600080600060608486031215610fa057600080fd5b835167ffffffffffffffff811115610fb757600080fd5b610fc386828701610d22565b935050602084015167ffffffffffffffff811115610fe057600080fd5b610fec86828701610da1565b925050604084015167ffffffffffffffff81111561100957600080fd5b61101586828701610e13565b9150509250925092565b60006020828403121561103157600080fd5b6000610c6c8484610e85565b60006020828403121561104f57600080fd5b6000610c6c8484610f28565b600061106783836110a2565b505060200190565b600061107b8383611444565b9392505050565b600061108e8383611539565b505060400190565b60006110678383611559565b6110ab816116d6565b82525050565b60006110bc826116c9565b6110c681856116cd565b93506110d1836116c3565b8060005b838110156110ff5781516110e9888261105b565b97506110f4836116c3565b9250506001016110d5565b509495945050505050565b6000611115826116c9565b61111f81856116cd565b935083602082028501611131856116c3565b8060005b8581101561116b578484038952815161114e858261106f565b9450611159836116c3565b60209a909a0199925050600101611135565b5091979650505050505050565b6000611183826116c9565b61118d81856116cd565b9350611198836116c3565b8060005b838110156110ff5781516111b08882611082565b97506111bb836116c3565b92505060010161119c565b60006111d1826116c9565b6111db81856116cd565b93506111e6836116c3565b8060005b838110156110ff5781516111fe8882611096565b9750611209836116c3565b9250506001016111ea565b6110ab816116e1565b6000611228826116c9565b6112328185610804565b9350611242818560208601611734565b9290920192915050565b6000611257826116c9565b61126181856116cd565b9350611271818560208601611734565b61127a81611760565b9093019392505050565b6110ab8161171e565b6110ab81611729565b60006112a3601e836116cd565b7f416d6f756e74206d7573742062652067726561746572207468616e20302e0000815260200192915050565b60006112dc6020836116cd565b7f5361666545524332303a206c6f772d6c6576656c2063616c6c206661696c6564815260200192915050565b60006113156037836116cd565b7f537570706f727465642064596458206d61726b6574206e6f7420666f756e642081527f666f72207468697320746f6b656e20616464726573732e000000000000000000602082015260400192915050565b6000611374602a836116cd565b7f5361666545524332303a204552433230206f7065726174696f6e20646964206e8152691bdd081cdd58d8d9595960b21b602082015260400192915050565b60006113c06036836116cd565b7f5361666545524332303a20617070726f76652066726f6d206e6f6e2d7a65726f81527520746f206e6f6e2d7a65726f20616c6c6f77616e636560501b602082015260400192915050565b6000611418601f836116cd565b7f5361666545524332303a2063616c6c20746f206e6f6e2d636f6e747261637400815260200192915050565b80516000906101608401906114598582611284565b50602083015161146c6020860182611559565b50604083015161147f60408601826114ef565b50606083015161149260c0860182611559565b5060808301516114a560e0860182611559565b5060a08301516114b96101008601826110a2565b5060c08301516114cd610120860182611559565b5060e08301518482036101408601526114e6828261124c565b95945050505050565b805160808301906115008482611214565b506020820151611513602085018261128d565b506040820151611526604085018261128d565b5060608201516103d26060850182611559565b8051604083019061154a84826110a2565b5060208201516103d260208501825b6110ab8161171b565b600061107b828461121d565b6040810161157c82856110a2565b61107b60208301846110a2565b6040810161159782856110a2565b61107b6020830184611559565b604080825281016115b581856110b1565b90508181036020830152610c6c81846111c6565b604080825281016115da8185611178565b90508181036020830152610c6c818461110a565b6020808252810161107b818461124c565b60208082528101610d1181611296565b60208082528101610d11816112cf565b60208082528101610d1181611308565b60208082528101610d1181611367565b60208082528101610d11816113b3565b60208082528101610d118161140b565b60408101610d118284611539565b60208101610d118284611559565b60405181810167ffffffffffffffff8111828210171561169a57600080fd5b604052919050565b600067ffffffffffffffff8211156116b957600080fd5b5060209081020190565b60200190565b5190565b90815260200190565b6000610d118261170f565b151590565b806108048161176a565b8061080481611777565b6fffffffffffffffffffffffffffffffff1690565b6001600160a01b031690565b90565b6000610d11826116e6565b6000610d11826116f0565b60005b8381101561174f578181015183820152602001611737565b838111156103d25750506000910152565b601f01601f191690565b6009811061177457fe5b50565b6002811061177457fe5b61178a816116d6565b811461177457600080fd5b61178a816116e1565b61178a816116fa565b61178a8161171b56fea365627a7a72315820c2897f71097f7ee80cab86501f376d902a5c45e0d882107af7da7c3178e3d9506c6578706572696d656e74616cf564736f6c63430005110040",
  "source": "/**\r\n * COPYRIGHT © 2020 RARI CAPITAL, INC. ALL RIGHTS RESERVED.\r\n * Anyone is free to integrate the public APIs (described in `API.md` of the `rari-contracts` package) of the official smart contract instances deployed by Rari Capital, Inc. in any application (commercial or noncommercial and under any license) benefitting Rari Capital, Inc.\r\n * Only those with explicit permission from a co-founder of Rari Capital (Jai Bhavnani, Jack Lipstone, or David Lucid) are permitted to study, review, or analyze any part of the source code contained in the `rari-contracts` package.\r\n * Reuse (including deployment of smart contracts other than private testing on a private network), modification, redistribution, or sublicensing of any source code contained in the `rari-contracts` package is not permitted without the explicit permission of David Lucid of Rari Capital, Inc.\r\n * No one is permitted to use the software for any purpose other than those allowed by this license.\r\n * This license is liable to change at any time at the sole discretion of David Lucid of Rari Capital, Inc.\r\n */\r\n\r\npragma solidity ^0.5.7;\r\npragma experimental ABIEncoderV2;\r\n\r\nimport \"@openzeppelin/contracts/math/SafeMath.sol\";\r\nimport \"@openzeppelin/contracts/token/ERC20/SafeERC20.sol\";\r\n\r\nimport \"../../external/dydx/SoloMargin.sol\";\r\nimport \"../../external/dydx/lib/Account.sol\";\r\nimport \"../../external/dydx/lib/Actions.sol\";\r\nimport \"../../external/dydx/lib/Types.sol\";\r\n\r\n/**\r\n * @title DydxPoolController\r\n * @author David Lucid <david@rari.capital> (https://github.com/davidlucid)\r\n * @dev This library handles deposits to and withdrawals from dYdX liquidity pools.\r\n */\r\nlibrary DydxPoolController {\r\n    using SafeMath for uint256;\r\n    using SafeERC20 for IERC20;\r\n\r\n    /**\r\n     * @notice Package version of `rari-contracts` when this contract was deployed.\r\n     */\r\n    string public constant VERSION = \"2.0.0\";\r\n\r\n    /**\r\n     * @dev dYdX SoloMargin contract address.\r\n     */\r\n    address constant private SOLO_MARGIN_CONTRACT = 0x1E0447b19BB6EcFdAe1e4AE1694b0C3659614e4e;\r\n\r\n    /**\r\n     * @dev dYdX SoloMargin contract object.\r\n     */\r\n    SoloMargin constant private _soloMargin = SoloMargin(SOLO_MARGIN_CONTRACT);\r\n\r\n    /**\r\n     * @dev Returns a token's dYdX market ID given its ERC20 contract address.\r\n     * @param erc20Contract The ERC20 contract address of the token.\r\n     */\r\n    function getMarketId(address erc20Contract) private pure returns (uint256) {\r\n        if (erc20Contract == 0xA0b86991c6218b36c1d19D4a2e9Eb0cE3606eB48) return 2; // USDC\r\n        if (erc20Contract == 0x6B175474E89094C44Da98b954EedeAC495271d0F) return 3; // DAI\r\n        else revert(\"Supported dYdX market not found for this token address.\");\r\n    }\r\n\r\n    /**\r\n     * @dev Returns the fund's balances of all currencies supported by dYdX.\r\n     * @return An array of ERC20 token contract addresses and a corresponding array of balances.\r\n     */\r\n    function getBalances() external view returns (address[] memory, uint256[] memory) {\r\n        Account.Info memory account = Account.Info(address(this), 0);\r\n        (address[] memory tokens, , Types.Wei[] memory weis) = _soloMargin.getAccountBalances(account);\r\n        uint256[] memory balances = new uint256[](weis.length);\r\n        for (uint256 i = 0; i < weis.length; i++) balances[i] = weis[i].sign ? weis[i].value : 0;\r\n        return (tokens, balances);\r\n    }\r\n\r\n    /**\r\n     * @dev Returns the fund's balance of the specified currency in the dYdX pool.\r\n     * @param erc20Contract The ERC20 contract address of the token.\r\n     */\r\n    function getBalance(address erc20Contract) external view returns (uint256) {\r\n        uint256 marketId = getMarketId(erc20Contract);\r\n        Account.Info memory account = Account.Info(address(this), 0);\r\n        (, , Types.Wei[] memory weis) = _soloMargin.getAccountBalances(account);\r\n        return weis[marketId].sign ? weis[marketId].value : 0;\r\n    }\r\n\r\n    /**\r\n     * @dev Approves tokens to dYdX without spending gas on every deposit.\r\n     * @param erc20Contract The ERC20 contract address of the token.\r\n     * @param amount Amount of the specified token to approve to dYdX.\r\n     */\r\n    function approve(address erc20Contract, uint256 amount) external {\r\n        IERC20 token = IERC20(erc20Contract);\r\n        uint256 allowance = token.allowance(address(this), SOLO_MARGIN_CONTRACT);\r\n        if (allowance == amount) return;\r\n        if (amount > 0 && allowance > 0) token.safeApprove(SOLO_MARGIN_CONTRACT, 0);\r\n        token.safeApprove(SOLO_MARGIN_CONTRACT, amount);\r\n        return;\r\n    }\r\n\r\n    /**\r\n     * @dev Deposits funds to the dYdX pool. Assumes that you have already approved >= the amount to dYdX.\r\n     * @param erc20Contract The ERC20 contract address of the token to be deposited.\r\n     * @param amount The amount of tokens to be deposited.\r\n     */\r\n    function deposit(address erc20Contract, uint256 amount) external {\r\n        require(amount > 0, \"Amount must be greater than 0.\");\r\n        uint256 marketId = getMarketId(erc20Contract);\r\n\r\n        Account.Info memory account = Account.Info(address(this), 0);\r\n        Account.Info[] memory accounts = new Account.Info[](1);\r\n        accounts[0] = account;\r\n\r\n        Types.AssetAmount memory assetAmount = Types.AssetAmount(true, Types.AssetDenomination.Wei, Types.AssetReference.Delta, amount);\r\n        bytes memory emptyData;\r\n\r\n        Actions.ActionArgs memory action = Actions.ActionArgs(\r\n            Actions.ActionType.Deposit,\r\n            0,\r\n            assetAmount,\r\n            marketId,\r\n            0,\r\n            address(this),\r\n            0,\r\n            emptyData\r\n        );\r\n\r\n        Actions.ActionArgs[] memory actions = new Actions.ActionArgs[](1);\r\n        actions[0] = action;\r\n\r\n        _soloMargin.operate(accounts, actions);\r\n    }\r\n\r\n    /**\r\n     * @dev Withdraws funds from the dYdX pool.\r\n     * @param erc20Contract The ERC20 contract address of the token to be withdrawn.\r\n     * @param amount The amount of tokens to be withdrawn.\r\n     */\r\n    function withdraw(address erc20Contract, uint256 amount) external {\r\n        require(amount > 0, \"Amount must be greater than 0.\");\r\n        uint256 marketId = getMarketId(erc20Contract);\r\n\r\n        Account.Info memory account = Account.Info(address(this), 0);\r\n        Account.Info[] memory accounts = new Account.Info[](1);\r\n        accounts[0] = account;\r\n\r\n        Types.AssetAmount memory assetAmount = Types.AssetAmount(false, Types.AssetDenomination.Wei, Types.AssetReference.Delta, amount);\r\n        bytes memory emptyData;\r\n\r\n        Actions.ActionArgs memory action = Actions.ActionArgs(\r\n            Actions.ActionType.Withdraw,\r\n            0,\r\n            assetAmount,\r\n            marketId,\r\n            0,\r\n            address(this),\r\n            0,\r\n            emptyData\r\n        );\r\n\r\n        Actions.ActionArgs[] memory actions = new Actions.ActionArgs[](1);\r\n        actions[0] = action;\r\n\r\n        _soloMargin.operate(accounts, actions);\r\n    }\r\n\r\n    /**\r\n     * @dev Withdraws all funds from the dYdX pool.\r\n     * @param erc20Contract The ERC20 contract address of the token to be withdrawn.\r\n     */\r\n    function withdrawAll(address erc20Contract) external {\r\n        uint256 marketId = getMarketId(erc20Contract);\r\n\r\n        Account.Info memory account = Account.Info(address(this), 0);\r\n        Account.Info[] memory accounts = new Account.Info[](1);\r\n        accounts[0] = account;\r\n\r\n        Types.AssetAmount memory assetAmount = Types.AssetAmount(true, Types.AssetDenomination.Par, Types.AssetReference.Target, 0);\r\n        bytes memory emptyData;\r\n\r\n        Actions.ActionArgs memory action = Actions.ActionArgs(\r\n            Actions.ActionType.Withdraw,\r\n            0,\r\n            assetAmount,\r\n            marketId,\r\n            0,\r\n            address(this),\r\n            0,\r\n            emptyData\r\n        );\r\n\r\n        Actions.ActionArgs[] memory actions = new Actions.ActionArgs[](1);\r\n        actions[0] = action;\r\n\r\n        _soloMargin.operate(accounts, actions);\r\n    }\r\n}\r\n",
  "sourcePath": "/home/david/rari-contracts-mstable/contracts/lib/pools/DydxPoolController.sol",
  "compiler": {
    "name": "solc",
    "version": "0.5.17+commit.d19bba13.Emscripten.clang"
  },
  "schemaVersion": "3.2.3",
  "updatedAt": "2020-09-03T21:18:00.602Z",
  "networkType": "ethereum",
  "devdoc": {
    "author": "David Lucid <david@rari.capital> (https://github.com/davidlucid)",
    "details": "This library handles deposits to and withdrawals from dYdX liquidity pools.",
    "methods": {
      "approve(address,uint256)": {
        "details": "Approves tokens to dYdX without spending gas on every deposit.",
        "params": {
          "amount": "Amount of the specified token to approve to dYdX.",
          "erc20Contract": "The ERC20 contract address of the token."
        }
      },
      "deposit(address,uint256)": {
        "details": "Deposits funds to the dYdX pool. Assumes that you have already approved >= the amount to dYdX.",
        "params": {
          "amount": "The amount of tokens to be deposited.",
          "erc20Contract": "The ERC20 contract address of the token to be deposited."
        }
      },
      "getBalance(address)": {
        "details": "Returns the fund's balance of the specified currency in the dYdX pool.",
        "params": {
          "erc20Contract": "The ERC20 contract address of the token."
        }
      },
      "getBalances()": {
        "details": "Returns the fund's balances of all currencies supported by dYdX.",
        "return": "An array of ERC20 token contract addresses and a corresponding array of balances."
      },
      "withdraw(address,uint256)": {
        "details": "Withdraws funds from the dYdX pool.",
        "params": {
          "amount": "The amount of tokens to be withdrawn.",
          "erc20Contract": "The ERC20 contract address of the token to be withdrawn."
        }
      },
      "withdrawAll(address)": {
        "details": "Withdraws all funds from the dYdX pool.",
        "params": {
          "erc20Contract": "The ERC20 contract address of the token to be withdrawn."
        }
      }
    },
    "title": "DydxPoolController"
  },
  "userdoc": {
    "methods": {}
  }
}