{
  "contractName": "ERC20RFTMintable",
  "abi": [
    {
      "anonymous": false,
      "inputs": [
        {
          "indexed": true,
          "internalType": "address",
          "name": "owner",
          "type": "address"
        },
        {
          "indexed": true,
          "internalType": "address",
          "name": "spender",
          "type": "address"
        },
        {
          "indexed": false,
          "internalType": "uint256",
          "name": "value",
          "type": "uint256"
        }
      ],
      "name": "Approval",
      "type": "event"
    },
    {
      "anonymous": false,
      "inputs": [
        {
          "indexed": false,
          "internalType": "address",
          "name": "newContract",
          "type": "address"
        }
      ],
      "name": "FundManagerSet",
      "type": "event"
    },
    {
      "anonymous": false,
      "inputs": [
        {
          "indexed": true,
          "internalType": "address",
          "name": "account",
          "type": "address"
        }
      ],
      "name": "MinterAdded",
      "type": "event"
    },
    {
      "anonymous": false,
      "inputs": [
        {
          "indexed": true,
          "internalType": "address",
          "name": "account",
          "type": "address"
        }
      ],
      "name": "MinterRemoved",
      "type": "event"
    },
    {
      "anonymous": false,
      "inputs": [
        {
          "indexed": true,
          "internalType": "address",
          "name": "previousOwner",
          "type": "address"
        },
        {
          "indexed": true,
          "internalType": "address",
          "name": "newOwner",
          "type": "address"
        }
      ],
      "name": "OwnershipTransferred",
      "type": "event"
    },
    {
      "anonymous": false,
      "inputs": [
        {
          "indexed": true,
          "internalType": "address",
          "name": "from",
          "type": "address"
        },
        {
          "indexed": true,
          "internalType": "address",
          "name": "to",
          "type": "address"
        },
        {
          "indexed": false,
          "internalType": "uint256",
          "name": "value",
          "type": "uint256"
        }
      ],
      "name": "Transfer",
      "type": "event"
    },
    {
      "constant": false,
      "inputs": [
        {
          "internalType": "address",
          "name": "account",
          "type": "address"
        }
      ],
      "name": "addMinter",
      "outputs": [],
      "payable": false,
      "stateMutability": "nonpayable",
      "type": "function"
    },
    {
      "constant": true,
      "inputs": [
        {
          "internalType": "address",
          "name": "owner",
          "type": "address"
        },
        {
          "internalType": "address",
          "name": "spender",
          "type": "address"
        }
      ],
      "name": "allowance",
      "outputs": [
        {
          "internalType": "uint256",
          "name": "",
          "type": "uint256"
        }
      ],
      "payable": false,
      "stateMutability": "view",
      "type": "function"
    },
    {
      "constant": false,
      "inputs": [
        {
          "internalType": "address",
          "name": "spender",
          "type": "address"
        },
        {
          "internalType": "uint256",
          "name": "amount",
          "type": "uint256"
        }
      ],
      "name": "approve",
      "outputs": [
        {
          "internalType": "bool",
          "name": "",
          "type": "bool"
        }
      ],
      "payable": false,
      "stateMutability": "nonpayable",
      "type": "function"
    },
    {
      "constant": true,
      "inputs": [
        {
          "internalType": "address",
          "name": "account",
          "type": "address"
        }
      ],
      "name": "balanceOf",
      "outputs": [
        {
          "internalType": "uint256",
          "name": "",
          "type": "uint256"
        }
      ],
      "payable": false,
      "stateMutability": "view",
      "type": "function"
    },
    {
      "constant": false,
      "inputs": [
        {
          "internalType": "address",
          "name": "spender",
          "type": "address"
        },
        {
          "internalType": "uint256",
          "name": "subtractedValue",
          "type": "uint256"
        }
      ],
      "name": "decreaseAllowance",
      "outputs": [
        {
          "internalType": "bool",
          "name": "",
          "type": "bool"
        }
      ],
      "payable": false,
      "stateMutability": "nonpayable",
      "type": "function"
    },
    {
      "constant": false,
      "inputs": [
        {
          "internalType": "address",
          "name": "spender",
          "type": "address"
        },
        {
          "internalType": "uint256",
          "name": "addedValue",
          "type": "uint256"
        }
      ],
      "name": "increaseAllowance",
      "outputs": [
        {
          "internalType": "bool",
          "name": "",
          "type": "bool"
        }
      ],
      "payable": false,
      "stateMutability": "nonpayable",
      "type": "function"
    },
    {
      "constant": true,
      "inputs": [
        {
          "internalType": "address",
          "name": "account",
          "type": "address"
        }
      ],
      "name": "isMinter",
      "outputs": [
        {
          "internalType": "bool",
          "name": "",
          "type": "bool"
        }
      ],
      "payable": false,
      "stateMutability": "view",
      "type": "function"
    },
    {
      "constant": true,
      "inputs": [],
      "name": "isOwner",
      "outputs": [
        {
          "internalType": "bool",
          "name": "",
          "type": "bool"
        }
      ],
      "payable": false,
      "stateMutability": "view",
      "type": "function"
    },
    {
      "constant": true,
      "inputs": [],
      "name": "owner",
      "outputs": [
        {
          "internalType": "address",
          "name": "",
          "type": "address"
        }
      ],
      "payable": false,
      "stateMutability": "view",
      "type": "function"
    },
    {
      "constant": false,
      "inputs": [],
      "name": "renounceMinter",
      "outputs": [],
      "payable": false,
      "stateMutability": "nonpayable",
      "type": "function"
    },
    {
      "constant": false,
      "inputs": [],
      "name": "renounceOwnership",
      "outputs": [],
      "payable": false,
      "stateMutability": "nonpayable",
      "type": "function"
    },
    {
      "constant": false,
      "inputs": [
        {
          "internalType": "address",
          "name": "newContract",
          "type": "address"
        }
      ],
      "name": "setFundManager",
      "outputs": [],
      "payable": false,
      "stateMutability": "nonpayable",
      "type": "function"
    },
    {
      "constant": true,
      "inputs": [],
      "name": "totalSupply",
      "outputs": [
        {
          "internalType": "uint256",
          "name": "",
          "type": "uint256"
        }
      ],
      "payable": false,
      "stateMutability": "view",
      "type": "function"
    },
    {
      "constant": false,
      "inputs": [
        {
          "internalType": "address",
          "name": "recipient",
          "type": "address"
        },
        {
          "internalType": "uint256",
          "name": "amount",
          "type": "uint256"
        }
      ],
      "name": "transfer",
      "outputs": [
        {
          "internalType": "bool",
          "name": "",
          "type": "bool"
        }
      ],
      "payable": false,
      "stateMutability": "nonpayable",
      "type": "function"
    },
    {
      "constant": false,
      "inputs": [
        {
          "internalType": "address",
          "name": "sender",
          "type": "address"
        },
        {
          "internalType": "address",
          "name": "recipient",
          "type": "address"
        },
        {
          "internalType": "uint256",
          "name": "amount",
          "type": "uint256"
        }
      ],
      "name": "transferFrom",
      "outputs": [
        {
          "internalType": "bool",
          "name": "",
          "type": "bool"
        }
      ],
      "payable": false,
      "stateMutability": "nonpayable",
      "type": "function"
    },
    {
      "constant": false,
      "inputs": [
        {
          "internalType": "address",
          "name": "newOwner",
          "type": "address"
        }
      ],
      "name": "transferOwnership",
      "outputs": [],
      "payable": false,
      "stateMutability": "nonpayable",
      "type": "function"
    },
    {
      "constant": false,
      "inputs": [
        {
          "internalType": "address",
          "name": "account",
          "type": "address"
        },
        {
          "internalType": "uint256",
          "name": "amount",
          "type": "uint256"
        }
      ],
      "name": "mint",
      "outputs": [
        {
          "internalType": "bool",
          "name": "",
          "type": "bool"
        }
      ],
      "payable": false,
      "stateMutability": "nonpayable",
      "type": "function"
    }
  ],
  "bytecode": "0x608060405260006100176001600160e01b0361008816565b600080546001600160a01b0319166001600160a01b0383169081178255604051929350917f8be0079c531659141344cd1fd0a4f28419497f9722a3daafe3b4186f6b6457e0908290a3506100836100756001600160e01b0361008816565b6001600160e01b0361008c16565b6101cd565b3390565b6100a48160066100db60201b610ea81790919060201c565b6040516001600160a01b038216907f6ae172837ea30b801fbfcdd4108aa1d5bf8ff775444fd70256b44e6bf3dfc3f690600090a250565b6100ee82826001600160e01b0361016516565b15610140576040805162461bcd60e51b815260206004820152601f60248201527f526f6c65733a206163636f756e7420616c72656164792068617320726f6c6500604482015290519081900360640190fd5b6001600160a01b0316600090815260209190915260409020805460ff19166001179055565b60006001600160a01b0382166101ad5760405162461bcd60e51b8152600401808060200182810382526022815260200180620013906022913960400191505060405180910390fd5b506001600160a01b03166000908152602091909152604090205460ff1690565b6111b380620001dd6000396000f3fe608060405234801561001057600080fd5b506004361061010b5760003560e01c80638da5cb5b116100a2578063a457c2d711610071578063a457c2d7146102a8578063a9059cbb146102d4578063aa271e1a14610300578063dd62ed3e14610326578063f2fde38b146103545761010b565b80638da5cb5b1461024e5780638f32d59b14610272578063983b2d561461027a57806398650275146102a05761010b565b806339509351116100de57806339509351146101c857806340c10f19146101f457806370a0823114610220578063715018a6146102465761010b565b8063095ea7b31461011057806318160ddd14610150578063232a30601461016a57806323b872dd14610192575b600080fd5b61013c6004803603604081101561012657600080fd5b506001600160a01b03813516906020013561037a565b604080519115158252519081900360200190f35b610158610397565b60408051918252519081900360200190f35b6101906004803603602081101561018057600080fd5b50356001600160a01b031661039d565b005b61013c600480360360608110156101a857600080fd5b506001600160a01b0381358116916020810135909116906040013561045d565b61013c600480360360408110156101de57600080fd5b506001600160a01b0381351690602001356104ea565b61013c6004803603604081101561020a57600080fd5b506001600160a01b03813516906020013561053e565b6101586004803603602081101561023657600080fd5b50356001600160a01b0316610595565b6101906105b0565b610256610653565b604080516001600160a01b039092168252519081900360200190f35b61013c610662565b6101906004803603602081101561029057600080fd5b50356001600160a01b0316610686565b6101906106d8565b61013c600480360360408110156102be57600080fd5b506001600160a01b0381351690602001356106ea565b61013c600480360360408110156102ea57600080fd5b506001600160a01b038135169060200135610758565b61013c6004803603602081101561031657600080fd5b50356001600160a01b031661076c565b6101586004803603604081101561033c57600080fd5b506001600160a01b0381358116916020013516610785565b6101906004803603602081101561036a57600080fd5b50356001600160a01b03166107b0565b600061038e610387610812565b8484610816565b50600192915050565b60035490565b6103a5610662565b6103f6576040805162461bcd60e51b815260206004820181905260248201527f4f776e61626c653a2063616c6c6572206973206e6f7420746865206f776e6572604482015290519081900360640190fd5b600480546001600160a01b038084166001600160a01b0319928316811793849055600580549093169390911692909217905560408051918252517ff980c1430e55b1867cd9337a1f20246ab3b7255032486d0b71c24e820eebf3ab9181900360200190a150565b600061046a848484610902565b6104e084610476610812565b6104db856040518060600160405280602881526020016110c7602891396001600160a01b038a166000908152600260205260408120906104b4610812565b6001600160a01b03168152602081019190915260400160002054919063ffffffff610b2716565b610816565b5060019392505050565b600061038e6104f7610812565b846104db8560026000610508610812565b6001600160a01b03908116825260208083019390935260409182016000908120918c16815292529020549063ffffffff610bbe16565b600061055061054b610812565b61076c565b61058b5760405162461bcd60e51b81526004018080602001828103825260308152602001806110226030913960400191505060405180910390fd5b61038e8383610c1f565b6001600160a01b031660009081526001602052604090205490565b6105b8610662565b610609576040805162461bcd60e51b815260206004820181905260248201527f4f776e61626c653a2063616c6c6572206973206e6f7420746865206f776e6572604482015290519081900360640190fd5b600080546040516001600160a01b03909116907f8be0079c531659141344cd1fd0a4f28419497f9722a3daafe3b4186f6b6457e0908390a3600080546001600160a01b0319169055565b6000546001600160a01b031690565b600080546001600160a01b0316610677610812565b6001600160a01b031614905090565b61069161054b610812565b6106cc5760405162461bcd60e51b81526004018080602001828103825260308152602001806110226030913960400191505060405180910390fd5b6106d581610d11565b50565b6106e86106e3610812565b610d59565b565b600061038e6106f7610812565b846104db8560405180606001604052806025815260200161115a6025913960026000610721610812565b6001600160a01b03908116825260208083019390935260409182016000908120918d1681529252902054919063ffffffff610b2716565b600061038e610765610812565b8484610902565b600061077f60068363ffffffff610da116565b92915050565b6001600160a01b03918216600090815260026020908152604080832093909416825291909152205490565b6107b8610662565b610809576040805162461bcd60e51b815260206004820181905260248201527f4f776e61626c653a2063616c6c6572206973206e6f7420746865206f776e6572604482015290519081900360640190fd5b6106d581610e08565b3390565b6001600160a01b03831661085b5760405162461bcd60e51b81526004018080602001828103825260248152602001806111366024913960400191505060405180910390fd5b6001600160a01b0382166108a05760405162461bcd60e51b8152600401808060200182810382526022815260200180610fda6022913960400191505060405180910390fd5b6001600160a01b03808416600081815260026020908152604080832094871680845294825291829020859055815185815291517f8c5be1e5ebec7d5bd14f71427d1e84f3dd0314c0f7b2291e5b200ac8c7c3b9259281900390910190a3505050565b6001600160a01b0383166109475760405162461bcd60e51b81526004018080602001828103825260258152602001806111116025913960400191505060405180910390fd5b6001600160a01b03821661098c5760405162461bcd60e51b8152600401808060200182810382526023815260200180610f916023913960400191505060405180910390fd5b6109cf81604051806060016040528060268152602001610ffc602691396001600160a01b038616600090815260016020526040902054919063ffffffff610b2716565b6001600160a01b038085166000908152600160205260408082209390935590841681522054610a04908263ffffffff610bbe16565b6001600160a01b0380841660008181526001602090815260409182902094909455805185815290519193928716927fddf252ad1be2c89b69c2b068fc378daa952ba7f163c4a11628f55a4df523b3ef92918290030190a36004546001600160a01b0316610aa25760405162461bcd60e51b81526004018080602001828103825260548152602001806110736054913960600191505060405180910390fd5b60055460035460408051632f20186760e01b81526001600160a01b038781166004830152868116602483015260448201869052606482019390935290519190921691632f20186791608480830192600092919082900301818387803b158015610b0a57600080fd5b505af1158015610b1e573d6000803e3d6000fd5b50505050505050565b60008184841115610bb65760405162461bcd60e51b81526004018080602001828103825283818151815260200191508051906020019080838360005b83811015610b7b578181015183820152602001610b63565b50505050905090810190601f168015610ba85780820380516001836020036101000a031916815260200191505b509250505060405180910390fd5b505050900390565b600082820183811015610c18576040805162461bcd60e51b815260206004820152601b60248201527f536166654d6174683a206164646974696f6e206f766572666c6f770000000000604482015290519081900360640190fd5b9392505050565b6001600160a01b038216610c7a576040805162461bcd60e51b815260206004820152601f60248201527f45524332303a206d696e7420746f20746865207a65726f206164647265737300604482015290519081900360640190fd5b600354610c8d908263ffffffff610bbe16565b6003556001600160a01b038216600090815260016020526040902054610cb9908263ffffffff610bbe16565b6001600160a01b03831660008181526001602090815260408083209490945583518581529351929391927fddf252ad1be2c89b69c2b068fc378daa952ba7f163c4a11628f55a4df523b3ef9281900390910190a35050565b610d2260068263ffffffff610ea816565b6040516001600160a01b038216907f6ae172837ea30b801fbfcdd4108aa1d5bf8ff775444fd70256b44e6bf3dfc3f690600090a250565b610d6a60068263ffffffff610f2916565b6040516001600160a01b038216907fe94479a9f7e1952cc78f2d6baab678adc1b772d936c6583def489e524cb6669290600090a250565b60006001600160a01b038216610de85760405162461bcd60e51b81526004018080602001828103825260228152602001806110ef6022913960400191505060405180910390fd5b506001600160a01b03166000908152602091909152604090205460ff1690565b6001600160a01b038116610e4d5760405162461bcd60e51b8152600401808060200182810382526026815260200180610fb46026913960400191505060405180910390fd5b600080546040516001600160a01b03808516939216917f8be0079c531659141344cd1fd0a4f28419497f9722a3daafe3b4186f6b6457e091a3600080546001600160a01b0319166001600160a01b0392909216919091179055565b610eb28282610da1565b15610f04576040805162461bcd60e51b815260206004820152601f60248201527f526f6c65733a206163636f756e7420616c72656164792068617320726f6c6500604482015290519081900360640190fd5b6001600160a01b0316600090815260209190915260409020805460ff19166001179055565b610f338282610da1565b610f6e5760405162461bcd60e51b81526004018080602001828103825260218152602001806110526021913960400191505060405180910390fd5b6001600160a01b0316600090815260209190915260409020805460ff1916905556fe45524332303a207472616e7366657220746f20746865207a65726f20616464726573734f776e61626c653a206e6577206f776e657220697320746865207a65726f206164647265737345524332303a20617070726f766520746f20746865207a65726f206164647265737345524332303a207472616e7366657220616d6f756e7420657863656564732062616c616e63654d696e746572526f6c653a2063616c6c657220646f6573206e6f74206861766520746865204d696e74657220726f6c65526f6c65733a206163636f756e7420646f6573206e6f74206861766520726f6c6546756e64206d616e6167657220636f6e7472616374206e6f74207365742e2054686973206d61792062652064756520746f20616e2075706772616465206f66207468697320746f6b656e20636f6e74726163742e45524332303a207472616e7366657220616d6f756e74206578636565647320616c6c6f77616e6365526f6c65733a206163636f756e7420697320746865207a65726f206164647265737345524332303a207472616e736665722066726f6d20746865207a65726f206164647265737345524332303a20617070726f76652066726f6d20746865207a65726f206164647265737345524332303a2064656372656173656420616c6c6f77616e63652062656c6f77207a65726fa265627a7a72315820cf3657fb8b31b7d68c346a0f96e4c00e57198b95960579513731ebe2206c52fc64736f6c63430005110032526f6c65733a206163636f756e7420697320746865207a65726f2061646472657373",
  "source": "/**\r\n * COPYRIGHT  2020 RARI CAPITAL, INC. ALL RIGHTS RESERVED.\r\n * Anyone is free to integrate the public APIs (described in `API.md` of the `rari-contracts` package) of the official smart contract instances deployed by Rari Capital, Inc. in any application (commercial or noncommercial and under any license) benefitting Rari Capital, Inc.\r\n * Only those with explicit permission from a co-founder of Rari Capital (Jai Bhavnani, Jack Lipstone, or David Lucid) are permitted to study, review, or analyze any part of the source code contained in the `rari-contracts` package.\r\n * Reuse (including deployment of smart contracts other than private testing on a private network), modification, redistribution, or sublicensing of any source code contained in the `rari-contracts` package is not permitted without the explicit permission of David Lucid of Rari Capital, Inc.\r\n * No one is permitted to use the software for any purpose other than those allowed by this license.\r\n * This license is liable to change at any time at the sole discretion of David Lucid of Rari Capital, Inc.\r\n */\r\n\r\npragma solidity ^0.5.7;\r\n\r\nimport \"./ERC20RFT.sol\";\r\nimport \"@openzeppelin/contracts/access/roles/MinterRole.sol\";\r\n\r\n/**\r\n * @dev Extension of {ERC20} that adds a set of accounts with the {MinterRole},\r\n * which have permission to mint (create) new tokens as they see fit.\r\n *\r\n * At construction, the deployer of the contract is the only minter.\r\n */\r\ncontract ERC20RFTMintable is ERC20RFT, MinterRole {\r\n    /**\r\n     * @dev See {ERC20-_mint}.\r\n     *\r\n     * Requirements:\r\n     *\r\n     * - the caller must have the {MinterRole}.\r\n     */\r\n    function mint(address account, uint256 amount) public onlyMinter returns (bool) {\r\n        _mint(account, amount);\r\n        return true;\r\n    }\r\n}\r\n",
  "sourcePath": "/home/david/rari-contracts-mstable/contracts/rft/ERC20RFTMintable.sol",
  "compiler": {
    "name": "solc",
    "version": "0.5.17+commit.d19bba13.Emscripten.clang"
  },
  "schemaVersion": "3.2.4",
  "updatedAt": "2020-09-03T21:13:58.824Z",
  "devdoc": {
    "details": "Extension of {ERC20} that adds a set of accounts with the {MinterRole}, which have permission to mint (create) new tokens as they see fit.  * At construction, the deployer of the contract is the only minter.",
    "methods": {
      "allowance(address,address)": {
        "details": "See {IERC20-allowance}."
      },
      "approve(address,uint256)": {
        "details": "See {IERC20-approve}.      * Requirements:      * - `spender` cannot be the zero address."
      },
      "balanceOf(address)": {
        "details": "See {IERC20-balanceOf}."
      },
      "decreaseAllowance(address,uint256)": {
        "details": "Atomically decreases the allowance granted to `spender` by the caller.      * This is an alternative to {approve} that can be used as a mitigation for problems described in {IERC20-approve}.      * Emits an {Approval} event indicating the updated allowance.      * Requirements:      * - `spender` cannot be the zero address. - `spender` must have allowance for the caller of at least `subtractedValue`."
      },
      "increaseAllowance(address,uint256)": {
        "details": "Atomically increases the allowance granted to `spender` by the caller.      * This is an alternative to {approve} that can be used as a mitigation for problems described in {IERC20-approve}.      * Emits an {Approval} event indicating the updated allowance.      * Requirements:      * - `spender` cannot be the zero address."
      },
      "isOwner()": {
        "details": "Returns true if the caller is the current owner."
      },
      "mint(address,uint256)": {
        "details": "See {ERC20-_mint}.      * Requirements:      * - the caller must have the {MinterRole}."
      },
      "owner()": {
        "details": "Returns the address of the current owner."
      },
      "renounceOwnership()": {
        "details": "Leaves the contract without owner. It will not be possible to call `onlyOwner` functions anymore. Can only be called by the current owner.     * NOTE: Renouncing ownership will leave the contract without an owner, thereby removing any functionality that is only available to the owner."
      },
      "setFundManager(address)": {
        "details": "Sets or upgrades the RariFundManager of the RariFundToken.",
        "params": {
          "newContract": "The address of the new RariFundManager contract."
        }
      },
      "totalSupply()": {
        "details": "See {IERC20-totalSupply}."
      },
      "transfer(address,uint256)": {
        "details": "See {IERC20-transfer}.      * Requirements:      * - `recipient` cannot be the zero address. - the caller must have a balance of at least `amount`."
      },
      "transferFrom(address,address,uint256)": {
        "details": "See {IERC20-transferFrom}.      * Emits an {Approval} event indicating the updated allowance. This is not required by the EIP. See the note at the beginning of {ERC20};      * Requirements: - `sender` and `recipient` cannot be the zero address. - `sender` must have a balance of at least `amount`. - the caller must have allowance for `sender`'s tokens of at least `amount`."
      },
      "transferOwnership(address)": {
        "details": "Transfers ownership of the contract to a new account (`newOwner`). Can only be called by the current owner."
      }
    }
  },
  "userdoc": {
    "methods": {}
  }
}