{
  "contractName": "ERC20RFTBurnable",
  "abi": [
    {
      "anonymous": false,
      "inputs": [
        {
          "indexed": true,
          "internalType": "address",
          "name": "owner",
          "type": "address"
        },
        {
          "indexed": true,
          "internalType": "address",
          "name": "spender",
          "type": "address"
        },
        {
          "indexed": false,
          "internalType": "uint256",
          "name": "value",
          "type": "uint256"
        }
      ],
      "name": "Approval",
      "type": "event"
    },
    {
      "anonymous": false,
      "inputs": [
        {
          "indexed": false,
          "internalType": "address",
          "name": "newContract",
          "type": "address"
        }
      ],
      "name": "FundManagerSet",
      "type": "event"
    },
    {
      "anonymous": false,
      "inputs": [
        {
          "indexed": true,
          "internalType": "address",
          "name": "previousOwner",
          "type": "address"
        },
        {
          "indexed": true,
          "internalType": "address",
          "name": "newOwner",
          "type": "address"
        }
      ],
      "name": "OwnershipTransferred",
      "type": "event"
    },
    {
      "anonymous": false,
      "inputs": [
        {
          "indexed": true,
          "internalType": "address",
          "name": "from",
          "type": "address"
        },
        {
          "indexed": true,
          "internalType": "address",
          "name": "to",
          "type": "address"
        },
        {
          "indexed": false,
          "internalType": "uint256",
          "name": "value",
          "type": "uint256"
        }
      ],
      "name": "Transfer",
      "type": "event"
    },
    {
      "constant": true,
      "inputs": [
        {
          "internalType": "address",
          "name": "owner",
          "type": "address"
        },
        {
          "internalType": "address",
          "name": "spender",
          "type": "address"
        }
      ],
      "name": "allowance",
      "outputs": [
        {
          "internalType": "uint256",
          "name": "",
          "type": "uint256"
        }
      ],
      "payable": false,
      "stateMutability": "view",
      "type": "function"
    },
    {
      "constant": false,
      "inputs": [
        {
          "internalType": "address",
          "name": "spender",
          "type": "address"
        },
        {
          "internalType": "uint256",
          "name": "amount",
          "type": "uint256"
        }
      ],
      "name": "approve",
      "outputs": [
        {
          "internalType": "bool",
          "name": "",
          "type": "bool"
        }
      ],
      "payable": false,
      "stateMutability": "nonpayable",
      "type": "function"
    },
    {
      "constant": true,
      "inputs": [
        {
          "internalType": "address",
          "name": "account",
          "type": "address"
        }
      ],
      "name": "balanceOf",
      "outputs": [
        {
          "internalType": "uint256",
          "name": "",
          "type": "uint256"
        }
      ],
      "payable": false,
      "stateMutability": "view",
      "type": "function"
    },
    {
      "constant": false,
      "inputs": [
        {
          "internalType": "address",
          "name": "spender",
          "type": "address"
        },
        {
          "internalType": "uint256",
          "name": "subtractedValue",
          "type": "uint256"
        }
      ],
      "name": "decreaseAllowance",
      "outputs": [
        {
          "internalType": "bool",
          "name": "",
          "type": "bool"
        }
      ],
      "payable": false,
      "stateMutability": "nonpayable",
      "type": "function"
    },
    {
      "constant": false,
      "inputs": [
        {
          "internalType": "address",
          "name": "spender",
          "type": "address"
        },
        {
          "internalType": "uint256",
          "name": "addedValue",
          "type": "uint256"
        }
      ],
      "name": "increaseAllowance",
      "outputs": [
        {
          "internalType": "bool",
          "name": "",
          "type": "bool"
        }
      ],
      "payable": false,
      "stateMutability": "nonpayable",
      "type": "function"
    },
    {
      "constant": true,
      "inputs": [],
      "name": "isOwner",
      "outputs": [
        {
          "internalType": "bool",
          "name": "",
          "type": "bool"
        }
      ],
      "payable": false,
      "stateMutability": "view",
      "type": "function"
    },
    {
      "constant": true,
      "inputs": [],
      "name": "owner",
      "outputs": [
        {
          "internalType": "address",
          "name": "",
          "type": "address"
        }
      ],
      "payable": false,
      "stateMutability": "view",
      "type": "function"
    },
    {
      "constant": false,
      "inputs": [],
      "name": "renounceOwnership",
      "outputs": [],
      "payable": false,
      "stateMutability": "nonpayable",
      "type": "function"
    },
    {
      "constant": false,
      "inputs": [
        {
          "internalType": "address",
          "name": "newContract",
          "type": "address"
        }
      ],
      "name": "setFundManager",
      "outputs": [],
      "payable": false,
      "stateMutability": "nonpayable",
      "type": "function"
    },
    {
      "constant": true,
      "inputs": [],
      "name": "totalSupply",
      "outputs": [
        {
          "internalType": "uint256",
          "name": "",
          "type": "uint256"
        }
      ],
      "payable": false,
      "stateMutability": "view",
      "type": "function"
    },
    {
      "constant": false,
      "inputs": [
        {
          "internalType": "address",
          "name": "recipient",
          "type": "address"
        },
        {
          "internalType": "uint256",
          "name": "amount",
          "type": "uint256"
        }
      ],
      "name": "transfer",
      "outputs": [
        {
          "internalType": "bool",
          "name": "",
          "type": "bool"
        }
      ],
      "payable": false,
      "stateMutability": "nonpayable",
      "type": "function"
    },
    {
      "constant": false,
      "inputs": [
        {
          "internalType": "address",
          "name": "sender",
          "type": "address"
        },
        {
          "internalType": "address",
          "name": "recipient",
          "type": "address"
        },
        {
          "internalType": "uint256",
          "name": "amount",
          "type": "uint256"
        }
      ],
      "name": "transferFrom",
      "outputs": [
        {
          "internalType": "bool",
          "name": "",
          "type": "bool"
        }
      ],
      "payable": false,
      "stateMutability": "nonpayable",
      "type": "function"
    },
    {
      "constant": false,
      "inputs": [
        {
          "internalType": "address",
          "name": "newOwner",
          "type": "address"
        }
      ],
      "name": "transferOwnership",
      "outputs": [],
      "payable": false,
      "stateMutability": "nonpayable",
      "type": "function"
    },
    {
      "constant": false,
      "inputs": [
        {
          "internalType": "uint256",
          "name": "amount",
          "type": "uint256"
        }
      ],
      "name": "burn",
      "outputs": [],
      "payable": false,
      "stateMutability": "nonpayable",
      "type": "function"
    },
    {
      "constant": false,
      "inputs": [
        {
          "internalType": "address",
          "name": "account",
          "type": "address"
        },
        {
          "internalType": "uint256",
          "name": "amount",
          "type": "uint256"
        }
      ],
      "name": "burnFrom",
      "outputs": [],
      "payable": false,
      "stateMutability": "nonpayable",
      "type": "function"
    }
  ],
  "bytecode": "0x608060405260006100176001600160e01b0361006616565b600080546001600160a01b0319166001600160a01b0383169081178255604051929350917f8be0079c531659141344cd1fd0a4f28419497f9722a3daafe3b4186f6b6457e0908290a35061006a565b3390565b611053806100796000396000f3fe608060405234801561001057600080fd5b50600436106100f55760003560e01c8063715018a611610097578063a457c2d711610066578063a457c2d714610281578063a9059cbb146102ad578063dd62ed3e146102d9578063f2fde38b14610307576100f5565b8063715018a61461022157806379cc6790146102295780638da5cb5b146102555780638f32d59b14610279576100f5565b806323b872dd116100d357806323b872dd1461017c57806339509351146101b257806342966c68146101de57806370a08231146101fb576100f5565b8063095ea7b3146100fa57806318160ddd1461013a578063232a306014610154575b600080fd5b6101266004803603604081101561011057600080fd5b506001600160a01b03813516906020013561032d565b604080519115158252519081900360200190f35b61014261034a565b60408051918252519081900360200190f35b61017a6004803603602081101561016a57600080fd5b50356001600160a01b0316610350565b005b6101266004803603606081101561019257600080fd5b506001600160a01b03813581169160208101359091169060400135610410565b610126600480360360408110156101c857600080fd5b506001600160a01b03813516906020013561049d565b61017a600480360360208110156101f457600080fd5b50356104f1565b6101426004803603602081101561021157600080fd5b50356001600160a01b0316610505565b61017a610520565b61017a6004803603604081101561023f57600080fd5b506001600160a01b0381351690602001356105c3565b61025d6105d1565b604080516001600160a01b039092168252519081900360200190f35b6101266105e0565b6101266004803603604081101561029757600080fd5b506001600160a01b038135169060200135610604565b610126600480360360408110156102c357600080fd5b506001600160a01b038135169060200135610672565b610142600480360360408110156102ef57600080fd5b506001600160a01b0381358116916020013516610686565b61017a6004803603602081101561031d57600080fd5b50356001600160a01b03166106b1565b600061034161033a610713565b8484610717565b50600192915050565b60035490565b6103586105e0565b6103a9576040805162461bcd60e51b815260206004820181905260248201527f4f776e61626c653a2063616c6c6572206973206e6f7420746865206f776e6572604482015290519081900360640190fd5b600480546001600160a01b038084166001600160a01b0319928316811793849055600580549093169390911692909217905560408051918252517ff980c1430e55b1867cd9337a1f20246ab3b7255032486d0b71c24e820eebf3ab9181900360200190a150565b600061041d848484610803565b61049384610429610713565b61048e85604051806060016040528060288152602001610f44602891396001600160a01b038a16600090815260026020526040812090610467610713565b6001600160a01b03168152602081019190915260400160002054919063ffffffff610a2816565b610717565b5060019392505050565b60006103416104aa610713565b8461048e85600260006104bb610713565b6001600160a01b03908116825260208083019390935260409182016000908120918c16815292529020549063ffffffff610abf16565b6105026104fc610713565b82610b20565b50565b6001600160a01b031660009081526001602052604090205490565b6105286105e0565b610579576040805162461bcd60e51b815260206004820181905260248201527f4f776e61626c653a2063616c6c6572206973206e6f7420746865206f776e6572604482015290519081900360640190fd5b600080546040516001600160a01b03909116907f8be0079c531659141344cd1fd0a4f28419497f9722a3daafe3b4186f6b6457e0908390a3600080546001600160a01b0319169055565b6105cd8282610d06565b5050565b6000546001600160a01b031690565b600080546001600160a01b03166105f5610713565b6001600160a01b031614905090565b6000610341610611610713565b8461048e85604051806060016040528060258152602001610ffa602591396002600061063b610713565b6001600160a01b03908116825260208083019390935260409182016000908120918d1681529252902054919063ffffffff610a2816565b600061034161067f610713565b8484610803565b6001600160a01b03918216600090815260026020908152604080832093909416825291909152205490565b6106b96105e0565b61070a576040805162461bcd60e51b815260206004820181905260248201527f4f776e61626c653a2063616c6c6572206973206e6f7420746865206f776e6572604482015290519081900360640190fd5b61050281610d5a565b3390565b6001600160a01b03831661075c5760405162461bcd60e51b8152600401808060200182810382526024815260200180610fd66024913960400191505060405180910390fd5b6001600160a01b0382166107a15760405162461bcd60e51b8152600401808060200182810382526022815260200180610ea86022913960400191505060405180910390fd5b6001600160a01b03808416600081815260026020908152604080832094871680845294825291829020859055815185815291517f8c5be1e5ebec7d5bd14f71427d1e84f3dd0314c0f7b2291e5b200ac8c7c3b9259281900390910190a3505050565b6001600160a01b0383166108485760405162461bcd60e51b8152600401808060200182810382526025815260200180610fb16025913960400191505060405180910390fd5b6001600160a01b03821661088d5760405162461bcd60e51b8152600401808060200182810382526023815260200180610e3d6023913960400191505060405180910390fd5b6108d081604051806060016040528060268152602001610eca602691396001600160a01b038616600090815260016020526040902054919063ffffffff610a2816565b6001600160a01b038085166000908152600160205260408082209390935590841681522054610905908263ffffffff610abf16565b6001600160a01b0380841660008181526001602090815260409182902094909455805185815290519193928716927fddf252ad1be2c89b69c2b068fc378daa952ba7f163c4a11628f55a4df523b3ef92918290030190a36004546001600160a01b03166109a35760405162461bcd60e51b8152600401808060200182810382526054815260200180610ef06054913960600191505060405180910390fd5b60055460035460408051632f20186760e01b81526001600160a01b038781166004830152868116602483015260448201869052606482019390935290519190921691632f20186791608480830192600092919082900301818387803b158015610a0b57600080fd5b505af1158015610a1f573d6000803e3d6000fd5b50505050505050565b60008184841115610ab75760405162461bcd60e51b81526004018080602001828103825283818151815260200191508051906020019080838360005b83811015610a7c578181015183820152602001610a64565b50505050905090810190601f168015610aa95780820380516001836020036101000a031916815260200191505b509250505060405180910390fd5b505050900390565b600082820183811015610b19576040805162461bcd60e51b815260206004820152601b60248201527f536166654d6174683a206164646974696f6e206f766572666c6f770000000000604482015290519081900360640190fd5b9392505050565b6001600160a01b038216610b655760405162461bcd60e51b8152600401808060200182810382526021815260200180610f906021913960400191505060405180910390fd5b610ba881604051806060016040528060228152602001610e60602291396001600160a01b038516600090815260016020526040902054919063ffffffff610a2816565b6001600160a01b038316600090815260016020526040902055600354610bd4908263ffffffff610dfa16565b6003556040805182815290516000916001600160a01b038516917fddf252ad1be2c89b69c2b068fc378daa952ba7f163c4a11628f55a4df523b3ef9181900360200190a36004546001600160a01b0316610c5f5760405162461bcd60e51b8152600401808060200182810382526054815260200180610ef06054913960600191505060405180910390fd5b6004546001600160a01b0316610c73610713565b6001600160a01b0316146105cd576004805460035460408051632f20186760e01b81526001600160a01b038781169582019590955260006024820181905260448201879052606482019390935290519390921692632f20186792608480820193929182900301818387803b158015610cea57600080fd5b505af1158015610cfe573d6000803e3d6000fd5b505050505050565b610d108282610b20565b6105cd82610d1c610713565b61048e84604051806060016040528060248152602001610f6c602491396001600160a01b038816600090815260026020526040812090610467610713565b6001600160a01b038116610d9f5760405162461bcd60e51b8152600401808060200182810382526026815260200180610e826026913960400191505060405180910390fd5b600080546040516001600160a01b03808516939216917f8be0079c531659141344cd1fd0a4f28419497f9722a3daafe3b4186f6b6457e091a3600080546001600160a01b0319166001600160a01b0392909216919091179055565b6000610b1983836040518060400160405280601e81526020017f536166654d6174683a207375627472616374696f6e206f766572666c6f770000815250610a2856fe45524332303a207472616e7366657220746f20746865207a65726f206164647265737345524332303a206275726e20616d6f756e7420657863656564732062616c616e63654f776e61626c653a206e6577206f776e657220697320746865207a65726f206164647265737345524332303a20617070726f766520746f20746865207a65726f206164647265737345524332303a207472616e7366657220616d6f756e7420657863656564732062616c616e636546756e64206d616e6167657220636f6e7472616374206e6f74207365742e2054686973206d61792062652064756520746f20616e2075706772616465206f66207468697320746f6b656e20636f6e74726163742e45524332303a207472616e7366657220616d6f756e74206578636565647320616c6c6f77616e636545524332303a206275726e20616d6f756e74206578636565647320616c6c6f77616e636545524332303a206275726e2066726f6d20746865207a65726f206164647265737345524332303a207472616e736665722066726f6d20746865207a65726f206164647265737345524332303a20617070726f76652066726f6d20746865207a65726f206164647265737345524332303a2064656372656173656420616c6c6f77616e63652062656c6f77207a65726fa265627a7a72315820545b92dd21141b559fb4d6ac425b5d8a067b8cf5c9aa116e1732c6fd71b7854b64736f6c63430005110032",
  "source": "/**\n * COPYRIGHT  2020 RARI CAPITAL, INC. ALL RIGHTS RESERVED.\n * Anyone is free to integrate the public APIs (described in `API.md` of the `rari-contracts` package) of the official smart contract instances deployed by Rari Capital, Inc. in any application (commercial or noncommercial and under any license) benefitting Rari Capital, Inc.\n * Only those with explicit permission from a co-founder of Rari Capital (Jai Bhavnani, Jack Lipstone, or David Lucid) are permitted to study, review, or analyze any part of the source code contained in the `rari-contracts` package.\n * Reuse (including deployment of smart contracts other than private testing on a private network), modification, redistribution, or sublicensing of any source code contained in the `rari-contracts` package is not permitted without the explicit permission of David Lucid of Rari Capital, Inc.\n * No one is permitted to use the software for any purpose other than those allowed by this license.\n * This license is liable to change at any time at the sole discretion of David Lucid of Rari Capital, Inc.\n */\n\npragma solidity ^0.5.7;\n\nimport \"@openzeppelin/contracts/GSN/Context.sol\";\nimport \"./ERC20RFT.sol\";\n\n/**\n * @dev Extension of {ERC20} that allows token holders to destroy both their own\n * tokens and those that they have an allowance for, in a way that can be\n * recognized off-chain (via event analysis).\n */\ncontract ERC20RFTBurnable is Context, ERC20RFT {\n    /**\n     * @dev Destroys `amount` tokens from the caller.\n     *\n     * See {ERC20-_burn}.\n     */\n    function burn(uint256 amount) public {\n        _burn(_msgSender(), amount);\n    }\n\n    /**\n     * @dev See {ERC20-_burnFrom}.\n     */\n    function burnFrom(address account, uint256 amount) public {\n        _burnFrom(account, amount);\n    }\n}\n",
  "sourcePath": "/home/david/rari-contracts-bc12f7443b0601788bfda8125d6d3c0923ee2655/contracts/rft/ERC20RFTBurnable.sol",
  "compiler": {
    "name": "solc",
    "version": "0.5.17+commit.d19bba13.Emscripten.clang"
  },
  "schemaVersion": "3.2.3",
  "updatedAt": "2020-08-16T22:40:59.006Z",
  "devdoc": {
    "details": "Extension of {ERC20} that allows token holders to destroy both their own tokens and those that they have an allowance for, in a way that can be recognized off-chain (via event analysis).",
    "methods": {
      "allowance(address,address)": {
        "details": "See {IERC20-allowance}."
      },
      "approve(address,uint256)": {
        "details": "See {IERC20-approve}.      * Requirements:      * - `spender` cannot be the zero address."
      },
      "balanceOf(address)": {
        "details": "See {IERC20-balanceOf}."
      },
      "burn(uint256)": {
        "details": "Destroys `amount` tokens from the caller.     * See {ERC20-_burn}."
      },
      "burnFrom(address,uint256)": {
        "details": "See {ERC20-_burnFrom}."
      },
      "decreaseAllowance(address,uint256)": {
        "details": "Atomically decreases the allowance granted to `spender` by the caller.      * This is an alternative to {approve} that can be used as a mitigation for problems described in {IERC20-approve}.      * Emits an {Approval} event indicating the updated allowance.      * Requirements:      * - `spender` cannot be the zero address. - `spender` must have allowance for the caller of at least `subtractedValue`."
      },
      "increaseAllowance(address,uint256)": {
        "details": "Atomically increases the allowance granted to `spender` by the caller.      * This is an alternative to {approve} that can be used as a mitigation for problems described in {IERC20-approve}.      * Emits an {Approval} event indicating the updated allowance.      * Requirements:      * - `spender` cannot be the zero address."
      },
      "isOwner()": {
        "details": "Returns true if the caller is the current owner."
      },
      "owner()": {
        "details": "Returns the address of the current owner."
      },
      "renounceOwnership()": {
        "details": "Leaves the contract without owner. It will not be possible to call `onlyOwner` functions anymore. Can only be called by the current owner.     * NOTE: Renouncing ownership will leave the contract without an owner, thereby removing any functionality that is only available to the owner."
      },
      "setFundManager(address)": {
        "details": "Sets or upgrades the RariFundManager of the RariFundToken.",
        "params": {
          "newContract": "The address of the new RariFundManager contract."
        }
      },
      "totalSupply()": {
        "details": "See {IERC20-totalSupply}."
      },
      "transfer(address,uint256)": {
        "details": "See {IERC20-transfer}.      * Requirements:      * - `recipient` cannot be the zero address. - the caller must have a balance of at least `amount`."
      },
      "transferFrom(address,address,uint256)": {
        "details": "See {IERC20-transferFrom}.      * Emits an {Approval} event indicating the updated allowance. This is not required by the EIP. See the note at the beginning of {ERC20};      * Requirements: - `sender` and `recipient` cannot be the zero address. - `sender` must have a balance of at least `amount`. - the caller must have allowance for `sender`'s tokens of at least `amount`."
      },
      "transferOwnership(address)": {
        "details": "Transfers ownership of the contract to a new account (`newOwner`). Can only be called by the current owner."
      }
    }
  },
  "userdoc": {
    "methods": {}
  }
}