{
  "contractName": "MStableExchangeController",
  "abi": [
    {
      "constant": true,
      "inputs": [],
      "name": "getSwapFee",
      "outputs": [
        {
          "internalType": "uint256",
          "name": "",
          "type": "uint256"
        }
      ],
      "payable": false,
      "stateMutability": "view",
      "type": "function"
    }
  ],
  "bytecode": "0x610b2c610026600b82828239805160001a60731461001957fe5b30600052607381538281f3fe73000000000000000000000000000000000000000030146080604052600436106100615760003560e01c8063095ea7b3146100665780631e9a6950146100a157806340c10f19146100ec578063d4cadf6814610125578063df791e501461012d575b600080fd5b81801561007257600080fd5b5061009f6004803603604081101561008957600080fd5b506001600160a01b038135169060200135610170565b005b8180156100ad57600080fd5b506100da600480360360408110156100c457600080fd5b506001600160a01b03813516906020013561028b565b60408051918252519081900360200190f35b8180156100f857600080fd5b506100da6004803603604081101561010f57600080fd5b506001600160a01b0381351690602001356103a2565b6100da6104b2565b81801561013957600080fd5b506100da6004803603606081101561015057600080fd5b506001600160a01b03813581169160208101359091169060400135610532565b60408051636eb1769f60e11b815230600482015273e2f2a5c287993345a840db3b0845fbc70f5935a56024820152905183916000916001600160a01b0384169163dd62ed3e916044808301926020929190829003018186803b1580156101d557600080fd5b505afa1580156101e9573d6000803e3d6000fd5b505050506040513d60208110156101ff57600080fd5b5051905082811415610212575050610287565b6000831180156102225750600081115b15610256576102566001600160a01b03831673e2f2a5c287993345a840db3b0845fbc70f5935a5600063ffffffff61065816565b6102846001600160a01b03831673e2f2a5c287993345a840db3b0845fbc70f5935a58563ffffffff61065816565b50505b5050565b60008082116102cb5760405162461bcd60e51b8152600401808060200182810382526028815260200180610a9a6028913960400191505060405180910390fd5b604080516301e9a69560e41b81526001600160a01b038516600482015260248101849052905160009173e2f2a5c287993345a840db3b0845fbc70f5935a591631e9a69509160448082019260209290919082900301818787803b15801561033157600080fd5b505af1158015610345573d6000803e3d6000fd5b505050506040513d602081101561035b57600080fd5b505190508061039b5760405162461bcd60e51b815260040180806020018281038252603d815260200180610a33603d913960400191505060405180910390fd5b9392505050565b60008082116103e25760405162461bcd60e51b81526004018080602001828103825260248152602001806109626024913960400191505060405180910390fd5b604080516340c10f1960e01b81526001600160a01b038516600482015260248101849052905160009173e2f2a5c287993345a840db3b0845fbc70f5935a5916340c10f199160448082019260209290919082900301818787803b15801561044857600080fd5b505af115801561045c573d6000803e3d6000fd5b505050506040513d602081101561047257600080fd5b505190508061039b5760405162461bcd60e51b81526004018080602001828103825260398152602001806109fa6039913960400191505060405180910390fd5b600073e2f2a5c287993345a840db3b0845fbc70f5935a56001600160a01b03166354cf2aeb6040518163ffffffff1660e01b815260040160206040518083038186803b15801561050157600080fd5b505afa158015610515573d6000803e3d6000fd5b505050506040513d602081101561052b57600080fd5b5051905090565b60008082116105725760405162461bcd60e51b81526004018080602001828103825260278152602001806109866027913960400191505060405180910390fd5b60408051631ba0488760e21b81526001600160a01b0386811660048301528516602482015260448101849052306064820152905160009173e2f2a5c287993345a840db3b0845fbc70f5935a591636e81221c9160848082019260209290919082900301818787803b1580156105e657600080fd5b505af11580156105fa573d6000803e3d6000fd5b505050506040513d602081101561061057600080fd5b50519050806106505760405162461bcd60e51b815260040180806020018281038252604d8152602001806109ad604d913960600191505060405180910390fd5b949350505050565b8015806106de575060408051636eb1769f60e11b81523060048201526001600160a01b03848116602483015291519185169163dd62ed3e91604480820192602092909190829003018186803b1580156106b057600080fd5b505afa1580156106c4573d6000803e3d6000fd5b505050506040513d60208110156106da57600080fd5b5051155b6107195760405162461bcd60e51b8152600401808060200182810382526036815260200180610ac26036913960400191505060405180910390fd5b604080516001600160a01b038416602482015260448082018490528251808303909101815260649091019091526020810180516001600160e01b031663095ea7b360e01b17905261076b908490610770565b505050565b610782826001600160a01b0316610928565b6107d3576040805162461bcd60e51b815260206004820152601f60248201527f5361666545524332303a2063616c6c20746f206e6f6e2d636f6e747261637400604482015290519081900360640190fd5b60006060836001600160a01b0316836040518082805190602001908083835b602083106108115780518252601f1990920191602091820191016107f2565b6001836020036101000a0380198251168184511680821785525050505050509050019150506000604051808303816000865af19150503d8060008114610873576040519150601f19603f3d011682016040523d82523d6000602084013e610878565b606091505b5091509150816108cf576040805162461bcd60e51b815260206004820181905260248201527f5361666545524332303a206c6f772d6c6576656c2063616c6c206661696c6564604482015290519081900360640190fd5b805115610284578080602001905160208110156108eb57600080fd5b50516102845760405162461bcd60e51b815260040180806020018281038252602a815260200180610a70602a913960400191505060405180910390fd5b6000813f7fc5d2460186f7233c927e7db2dcc703c0e500b653ca82273b7bfad8045d85a47081811480159061065057505015159291505056fe496e70757420616d6f756e74206d7573742062652067726561746572207468616e20302e496e70757420616d6f756e74206d7573742062652067726561746572207468616e20746f20302e4572726f722063616c6c696e672072656465656d206f6e206d537461626c65206d55534420746f6b656e3a206f757470757420616d6f756e74206e6f742067726561746572207468616e20302e4572726f722063616c6c696e67206d696e74206f6e206d537461626c65206d55534420746f6b656e3a206e6f206d555344206d696e7465642e4572726f722063616c6c696e672072656465656d206f6e206d537461626c65206d55534420746f6b656e3a206e6f206d5553442072656465656d65642e5361666545524332303a204552433230206f7065726174696f6e20646964206e6f7420737563636565644f757470757420616d6f756e74206d7573742062652067726561746572207468616e20746f20302e5361666545524332303a20617070726f76652066726f6d206e6f6e2d7a65726f20746f206e6f6e2d7a65726f20616c6c6f77616e6365a265627a7a72315820176ca92af5d09f31ce854c64e0ac8092d47fe35701d77353cde78f7f14b5990764736f6c63430005110032",
  "source": "/**\r\n * COPYRIGHT © 2020 RARI CAPITAL, INC. ALL RIGHTS RESERVED.\r\n * Anyone is free to integrate the public APIs (described in `API.md` of the `rari-contracts` package) of the official smart contract instances deployed by Rari Capital, Inc. in any application (commercial or noncommercial and under any license) benefitting Rari Capital, Inc.\r\n * Only those with explicit permission from a co-founder of Rari Capital (Jai Bhavnani, Jack Lipstone, or David Lucid) are permitted to study, review, or analyze any part of the source code contained in the `rari-contracts` package.\r\n * Reuse (including deployment of smart contracts other than private testing on a private network), modification, redistribution, or sublicensing of any source code contained in the `rari-contracts` package is not permitted without the explicit permission of David Lucid of Rari Capital, Inc.\r\n * No one is permitted to use the software for any purpose other than those allowed by this license.\r\n * This license is liable to change at any time at the sole discretion of David Lucid of Rari Capital, Inc.\r\n */\r\n\r\npragma solidity ^0.5.7;\r\n\r\nimport \"@openzeppelin/contracts/math/SafeMath.sol\";\r\nimport \"@openzeppelin/contracts/token/ERC20/IERC20.sol\";\r\nimport \"@openzeppelin/contracts/token/ERC20/SafeERC20.sol\";\r\n\r\nimport \"../../external/mstable/IMasset.sol\";\r\n\r\n/**\r\n * @title MStableExchangeController\r\n * @author David Lucid <david@rari.capital> (https://github.com/davidlucid)\r\n * @dev This library handles minting and redeeming of mStable's mUSD token.\r\n */\r\nlibrary MStableExchangeController {\r\n    using SafeMath for uint256;\r\n    using SafeERC20 for IERC20;\r\n\r\n    address constant private MUSD_TOKEN_CONTRACT = 0xe2f2a5C287993345a840Db3B0845fbC70f5935a5;\r\n    IMasset constant private _mUsdToken = IMasset(MUSD_TOKEN_CONTRACT);\r\n\r\n    /**\r\n     * @dev Returns the mUSD swap fee (scaled by 1e18).\r\n     */\r\n    function getSwapFee() external view returns (uint256) {\r\n        return _mUsdToken.swapFee();\r\n    }\r\n\r\n    /**\r\n     * @dev Approves tokens to the mUSD token contract without spending gas on every deposit.\r\n     * @param erc20Contract The ERC20 contract address of the token.\r\n     * @param amount Amount of the specified token to approve to the mUSD token contract.\r\n     */\r\n    function approve(address erc20Contract, uint256 amount) external {\r\n        IERC20 token = IERC20(erc20Contract);\r\n        uint256 allowance = token.allowance(address(this), MUSD_TOKEN_CONTRACT);\r\n        if (allowance == amount) return;\r\n        if (amount > 0 && allowance > 0) token.safeApprove(MUSD_TOKEN_CONTRACT, 0);\r\n        token.safeApprove(MUSD_TOKEN_CONTRACT, amount);\r\n        return;\r\n    }\r\n\r\n    /**\r\n     * @dev Mints mUSD tokens in exchange for the specified amount of the specified token.\r\n     * @param erc20Contract The ERC20 contract address of the token to be exchanged.\r\n     * @param inputAmount The amount of input tokens to be exchanged for mUSD.\r\n     * @return The amount of mUSD tokens minted.\r\n     */\r\n    function mint(address erc20Contract, uint256 inputAmount) external returns (uint256) {\r\n        require(inputAmount > 0, \"Input amount must be greater than 0.\");\r\n        uint256 mAssetMinted = _mUsdToken.mint(erc20Contract, inputAmount);\r\n        require(mAssetMinted > 0, \"Error calling mint on mStable mUSD token: no mUSD minted.\");\r\n        return mAssetMinted;\r\n    }\r\n\r\n    /**\r\n     * @dev Redeems mUSD tokens in exchange for the specified amount of the specified token.\r\n     * @param erc20Contract The ERC20 contract address of the token to be withdrawn.\r\n     * @param outputAmount The amount of output tokens to be exchanged from mUSD.\r\n     * @return The amount of mUSD tokens redeemed.\r\n     */\r\n    function redeem(address erc20Contract, uint256 outputAmount) external returns (uint256) {\r\n        require(outputAmount > 0, \"Output amount must be greater than to 0.\");\r\n        uint256 mAssetRedeemed = _mUsdToken.redeem(erc20Contract, outputAmount);\r\n        require(mAssetRedeemed > 0, \"Error calling redeem on mStable mUSD token: no mUSD redeemed.\");\r\n        return mAssetRedeemed;\r\n    }\r\n\r\n    /**\r\n     * @dev Redeems mUSD tokens in exchange for the specified amount of the specified token.\r\n     * @param inputErc20Contract The ERC20 contract address of the token to be exchanged for mUSD.\r\n     * @param outputErc20Contract The ERC20 contract address of the token to be exchanged from mUSD.\r\n     * @param inputAmount The amount of input tokens to be exchanged for mUSD.\r\n     * @return The amount of output tokens.\r\n     */\r\n    function swap(address inputErc20Contract, address outputErc20Contract, uint256 inputAmount) external returns (uint256) {\r\n        require(inputAmount > 0, \"Input amount must be greater than to 0.\");\r\n        uint256 outputAmount = _mUsdToken.swap(inputErc20Contract, outputErc20Contract, inputAmount, address(this));\r\n        require(outputAmount > 0, \"Error calling redeem on mStable mUSD token: output amount not greater than 0.\");\r\n        return outputAmount;\r\n    }\r\n}\r\n",
  "sourcePath": "/home/david/rari-contracts-mstable/contracts/lib/exchanges/MStableExchangeController.sol",
  "compiler": {
    "name": "solc",
    "version": "0.5.17+commit.d19bba13.Emscripten.clang"
  },
  "schemaVersion": "3.2.3",
  "updatedAt": "2020-09-03T21:18:00.658Z",
  "networkType": "ethereum",
  "devdoc": {
    "author": "David Lucid <david@rari.capital> (https://github.com/davidlucid)",
    "details": "This library handles minting and redeeming of mStable's mUSD token.",
    "methods": {
      "approve(address,uint256)": {
        "details": "Approves tokens to the mUSD token contract without spending gas on every deposit.",
        "params": {
          "amount": "Amount of the specified token to approve to the mUSD token contract.",
          "erc20Contract": "The ERC20 contract address of the token."
        }
      },
      "getSwapFee()": {
        "details": "Returns the mUSD swap fee (scaled by 1e18)."
      },
      "mint(address,uint256)": {
        "details": "Mints mUSD tokens in exchange for the specified amount of the specified token.",
        "params": {
          "erc20Contract": "The ERC20 contract address of the token to be exchanged.",
          "inputAmount": "The amount of input tokens to be exchanged for mUSD."
        },
        "return": "The amount of mUSD tokens minted."
      },
      "redeem(address,uint256)": {
        "details": "Redeems mUSD tokens in exchange for the specified amount of the specified token.",
        "params": {
          "erc20Contract": "The ERC20 contract address of the token to be withdrawn.",
          "outputAmount": "The amount of output tokens to be exchanged from mUSD."
        },
        "return": "The amount of mUSD tokens redeemed."
      },
      "swap(address,address,uint256)": {
        "details": "Redeems mUSD tokens in exchange for the specified amount of the specified token.",
        "params": {
          "inputAmount": "The amount of input tokens to be exchanged for mUSD.",
          "inputErc20Contract": "The ERC20 contract address of the token to be exchanged for mUSD.",
          "outputErc20Contract": "The ERC20 contract address of the token to be exchanged from mUSD."
        },
        "return": "The amount of output tokens."
      }
    },
    "title": "MStableExchangeController"
  },
  "userdoc": {
    "methods": {}
  }
}