{
  "contractName": "MStablePoolController",
  "abi": [
    {
      "constant": true,
      "inputs": [],
      "name": "VERSION",
      "outputs": [
        {
          "internalType": "string",
          "name": "",
          "type": "string"
        }
      ],
      "payable": false,
      "stateMutability": "view",
      "type": "function"
    },
    {
      "constant": true,
      "inputs": [],
      "name": "getBalance",
      "outputs": [
        {
          "internalType": "uint256",
          "name": "",
          "type": "uint256"
        }
      ],
      "payable": false,
      "stateMutability": "view",
      "type": "function"
    }
  ],
  "bytecode": "0x610e1f610026600b82828239805160001a60731461001957fe5b30600052607381538281f3fe730000000000000000000000000000000000000000301460806040526004361061006c5760003560e01c806312065fe0146100715780632e1a7d4d1461008b578063853828b6146100b7578063b6b55f25146100e0578063b759f9541461010a578063ffa1ad7414610134575b600080fd5b6100796101b1565b60408051918252519081900360200190f35b81801561009757600080fd5b506100b5600480360360208110156100ae57600080fd5b50356102d6565b005b8180156100c357600080fd5b506100cc6104a5565b604080519115158252519081900360200190f35b8180156100ec57600080fd5b506100b56004803603602081101561010357600080fd5b5035610607565b81801561011657600080fd5b506100b56004803603602081101561012d57600080fd5b5035610726565b61013c61084b565b6040805160208082528351818301528351919283929083019185019080838360005b8381101561017657818101518382015260200161015e565b50505050905090810190601f1680156101a35780820380516001836020036101000a031916815260200191505b509250505060405180910390f35b60006102d0670de0b6b3a76400006102c473cf3f73290803fc04425bee135a4caeb2bab2c2a16001600160a01b0316633ba0b9a96040518163ffffffff1660e01b815260040160206040518083038186803b15801561020f57600080fd5b505afa158015610223573d6000803e3d6000fd5b505050506040513d602081101561023957600080fd5b505160408051630c01345b60e31b8152306004820152905173cf3f73290803fc04425bee135a4caeb2bab2c2a191636009a2d8916024808301926020929190829003018186803b15801561028c57600080fd5b505afa1580156102a0573d6000803e3d6000fd5b505050506040513d60208110156102b657600080fd5b50519063ffffffff61086c16565b9063ffffffff6108ce16565b90505b90565b600081116103155760405162461bcd60e51b8152600401808060200182810382526021815260200180610cba6021913960400191505060405180910390fd5b600073cf3f73290803fc04425bee135a4caeb2bab2c2a16001600160a01b0316633ba0b9a96040518163ffffffff1660e01b815260040160206040518083038186803b15801561036457600080fd5b505afa158015610378573d6000803e3d6000fd5b505050506040513d602081101561038e57600080fd5b5051905060006103b0826102c485670de0b6b3a764000063ffffffff61086c16565b9050826103cf670de0b6b3a76400006102c4848663ffffffff61086c16565b10156103d9576001015b600073cf3f73290803fc04425bee135a4caeb2bab2c2a16001600160a01b031663db006a75836040518263ffffffff1660e01b815260040180828152602001915050602060405180830381600087803b15801561043557600080fd5b505af1158015610449573d6000803e3d6000fd5b505050506040513d602081101561045f57600080fd5b505190508061049f5760405162461bcd60e51b8152600401808060200182810382526043815260200180610cdb6043913960600191505060405180910390fd5b50505050565b60408051630c01345b60e31b81523060048201529051600091829173cf3f73290803fc04425bee135a4caeb2bab2c2a191636009a2d8916024808301926020929190829003018186803b1580156104fb57600080fd5b505afa15801561050f573d6000803e3d6000fd5b505050506040513d602081101561052557600080fd5b50519050806105385760009150506102d3565b600073cf3f73290803fc04425bee135a4caeb2bab2c2a16001600160a01b031663db006a75836040518263ffffffff1660e01b815260040180828152602001915050602060405180830381600087803b15801561059457600080fd5b505af11580156105a8573d6000803e3d6000fd5b505050506040513d60208110156105be57600080fd5b50519050806105fe5760405162461bcd60e51b8152600401808060200182810382526043815260200180610cdb6043913960600191505060405180910390fd5b60019250505090565b6000811161065c576040805162461bcd60e51b815260206004820152601e60248201527f416d6f756e74206d7573742062652067726561746572207468616e20302e0000604482015290519081900360640190fd5b600073cf3f73290803fc04425bee135a4caeb2bab2c2a16001600160a01b031663a453b6cf836040518263ffffffff1660e01b815260040180828152602001915050602060405180830381600087803b1580156106b857600080fd5b505af11580156106cc573d6000803e3d6000fd5b505050506040513d60208110156106e257600080fd5b50519050806107225760405162461bcd60e51b815260040180806020018281038252604c815260200180610d1e604c913960600191505060405180910390fd5b5050565b60408051636eb1769f60e11b815230600482015273cf3f73290803fc04425bee135a4caeb2bab2c2a16024820152905173e2f2a5c287993345a840db3b0845fbc70f5935a591600091839163dd62ed3e916044808301926020929190829003018186803b15801561079657600080fd5b505afa1580156107aa573d6000803e3d6000fd5b505050506040513d60208110156107c057600080fd5b50519050828114156107d3575050610848565b6000831180156107e35750600081115b15610817576108176001600160a01b03831673cf3f73290803fc04425bee135a4caeb2bab2c2a1600063ffffffff61091016565b6108456001600160a01b03831673cf3f73290803fc04425bee135a4caeb2bab2c2a18563ffffffff61091016565b50505b50565b604051806040016040528060058152602001640322e302e360dc1b81525081565b60008261087b575060006108c8565b8282028284828161088857fe5b04146108c55760405162461bcd60e51b8152600401808060200182810382526021815260200180610d6a6021913960400191505060405180910390fd5b90505b92915050565b60006108c583836040518060400160405280601a81526020017f536166654d6174683a206469766973696f6e206279207a65726f000000000000815250610a23565b801580610996575060408051636eb1769f60e11b81523060048201526001600160a01b03848116602483015291519185169163dd62ed3e91604480820192602092909190829003018186803b15801561096857600080fd5b505afa15801561097c573d6000803e3d6000fd5b505050506040513d602081101561099257600080fd5b5051155b6109d15760405162461bcd60e51b8152600401808060200182810382526036815260200180610db56036913960400191505060405180910390fd5b604080516001600160a01b038416602482015260448082018490528251808303909101815260649091019091526020810180516001600160e01b031663095ea7b360e01b179052610845908490610ac5565b60008183610aaf5760405162461bcd60e51b81526004018080602001828103825283818151815260200191508051906020019080838360005b83811015610a74578181015183820152602001610a5c565b50505050905090810190601f168015610aa15780820380516001836020036101000a031916815260200191505b509250505060405180910390fd5b506000838581610abb57fe5b0495945050505050565b610ad7826001600160a01b0316610c7d565b610b28576040805162461bcd60e51b815260206004820152601f60248201527f5361666545524332303a2063616c6c20746f206e6f6e2d636f6e747261637400604482015290519081900360640190fd5b60006060836001600160a01b0316836040518082805190602001908083835b60208310610b665780518252601f199092019160209182019101610b47565b6001836020036101000a0380198251168184511680821785525050505050509050019150506000604051808303816000865af19150503d8060008114610bc8576040519150601f19603f3d011682016040523d82523d6000602084013e610bcd565b606091505b509150915081610c24576040805162461bcd60e51b815260206004820181905260248201527f5361666545524332303a206c6f772d6c6576656c2063616c6c206661696c6564604482015290519081900360640190fd5b80511561049f57808060200190516020811015610c4057600080fd5b505161049f5760405162461bcd60e51b815260040180806020018281038252602a815260200180610d8b602a913960400191505060405180910390fd5b6000813f7fc5d2460186f7233c927e7db2dcc703c0e500b653ca82273b7bfad8045d85a470818114801590610cb157508115155b94935050505056fe416d6f756e74206d7573742062652067726561746572207468616e20746f20302e4572726f722063616c6c696e672072656465656d206f6e206d537461626c6520736176696e677320636f6e74726163743a206e6f206d5553442072657475726e65642e4572726f722063616c6c696e67206465706f736974536176696e6773206f6e206d537461626c6520736176696e677320636f6e74726163743a206e6f2063726564697473206973737565642e536166654d6174683a206d756c7469706c69636174696f6e206f766572666c6f775361666545524332303a204552433230206f7065726174696f6e20646964206e6f7420737563636565645361666545524332303a20617070726f76652066726f6d206e6f6e2d7a65726f20746f206e6f6e2d7a65726f20616c6c6f77616e6365a265627a7a72315820ecd6afb3d07a86ce8f8d8640585c0cbbcfaada285ed4158fbf0b3e0d8290ec0a64736f6c63430005110032",
  "source": "/**\r\n * COPYRIGHT © 2020 RARI CAPITAL, INC. ALL RIGHTS RESERVED.\r\n * Anyone is free to integrate the public APIs (described in `API.md` of the `rari-contracts` package) of the official smart contract instances deployed by Rari Capital, Inc. in any application (commercial or noncommercial and under any license) benefitting Rari Capital, Inc.\r\n * Only those with explicit permission from a co-founder of Rari Capital (Jai Bhavnani, Jack Lipstone, or David Lucid) are permitted to study, review, or analyze any part of the source code contained in the `rari-contracts` package.\r\n * Reuse (including deployment of smart contracts other than private testing on a private network), modification, redistribution, or sublicensing of any source code contained in the `rari-contracts` package is not permitted without the explicit permission of David Lucid of Rari Capital, Inc.\r\n * No one is permitted to use the software for any purpose other than those allowed by this license.\r\n * This license is liable to change at any time at the sole discretion of David Lucid of Rari Capital, Inc.\r\n */\r\n\r\npragma solidity ^0.5.7;\r\n\r\nimport \"@openzeppelin/contracts/math/SafeMath.sol\";\r\nimport \"@openzeppelin/contracts/token/ERC20/IERC20.sol\";\r\nimport \"@openzeppelin/contracts/token/ERC20/SafeERC20.sol\";\r\n\r\nimport \"../../external/mstable/ISavingsContract.sol\";\r\n\r\n/**\r\n * @title MStablePoolController\r\n * @author David Lucid <david@rari.capital> (https://github.com/davidlucid)\r\n * @dev This library handles deposits to and withdrawals from mStable liquidity pools.\r\n */\r\nlibrary MStablePoolController {\r\n    using SafeMath for uint256;\r\n    using SafeERC20 for IERC20;\r\n\r\n    /**\r\n     * @notice Package version of `rari-contracts` when this contract was deployed.\r\n     */\r\n    string public constant VERSION = \"2.0.0\";\r\n\r\n    /**\r\n     * @dev mStable mUSD ERC20 token contract address.\r\n     */\r\n    address constant private MUSD_TOKEN_CONTRACT = 0xe2f2a5C287993345a840Db3B0845fbC70f5935a5;\r\n\r\n    /**\r\n     * @dev mStable SavingsContract contract address.\r\n     */\r\n    address constant private SAVINGS_CONTRACT = 0xcf3F73290803Fc04425BEE135a4Caeb2BaB2C2A1;\r\n\r\n    /**\r\n     * @dev mStable SavingsContract contract object.\r\n     */\r\n    ISavingsContract constant private _savingsContract = ISavingsContract(SAVINGS_CONTRACT);\r\n\r\n    /**\r\n     * @dev Returns the fund's mUSD token balance supplied to the mStable savings contract.\r\n     */\r\n    function getBalance() external view returns (uint256) {\r\n        return _savingsContract.creditBalances(address(this)).mul(_savingsContract.exchangeRate()).div(1e18);\r\n    }\r\n\r\n    /**\r\n     * @dev Approves mUSD tokens to the mStable savings contract without spending gas on every deposit.\r\n     * @param amount Amount of mUSD tokens to approve to the mStable savings contract.\r\n     */\r\n    function approve(uint256 amount) external {\r\n        IERC20 token = IERC20(MUSD_TOKEN_CONTRACT);\r\n        uint256 allowance = token.allowance(address(this), SAVINGS_CONTRACT);\r\n        if (allowance == amount) return;\r\n        if (amount > 0 && allowance > 0) token.safeApprove(SAVINGS_CONTRACT, 0);\r\n        token.safeApprove(SAVINGS_CONTRACT, amount);\r\n        return;\r\n    }\r\n\r\n    /**\r\n     * @dev Deposits mUSD tokens to the mStable savings contract.\r\n     * @param amount The amount of mUSD tokens to be deposited.\r\n     */\r\n    function deposit(uint256 amount) external {\r\n        require(amount > 0, \"Amount must be greater than 0.\");\r\n        uint256 creditsIssued = _savingsContract.depositSavings(amount);\r\n        require(creditsIssued > 0, \"Error calling depositSavings on mStable savings contract: no credits issued.\");\r\n    }\r\n\r\n    /**\r\n     * @dev Withdraws mUSD tokens from the mStable savings contract.\r\n     * May withdraw slightly more than `amount` due to imperfect precision.\r\n     * @param amount The amount of mUSD tokens to be withdrawn.\r\n     */\r\n    function withdraw(uint256 amount) external {\r\n        require(amount > 0, \"Amount must be greater than to 0.\");\r\n        uint256 exchangeRate = _savingsContract.exchangeRate();\r\n        uint256 credits = amount.mul(1e18).div(exchangeRate);\r\n        if (credits.mul(exchangeRate).div(1e18) < amount) credits++; // Round up if necessary (i.e., if the division above left a remainder)\r\n        uint256 mAssetReturned = _savingsContract.redeem(credits);\r\n        require(mAssetReturned > 0, \"Error calling redeem on mStable savings contract: no mUSD returned.\");\r\n    }\r\n\r\n    /**\r\n     * @dev Withdraws all funds from the mStable savings contract.\r\n     */\r\n    function withdrawAll() external returns (bool) {\r\n        uint256 creditBalance = _savingsContract.creditBalances(address(this));\r\n        if (creditBalance <= 0) return false; // TODO: Or revert(\"No funds available to withdraw from the mStable savings contract.\")\r\n        uint256 mAssetReturned = _savingsContract.redeem(creditBalance);\r\n        require(mAssetReturned > 0, \"Error calling redeem on mStable savings contract: no mUSD returned.\");\r\n        return true;\r\n    }\r\n}\r\n",
  "sourcePath": "/home/david/rari-contracts-mstable/contracts/lib/pools/MStablePoolController.sol",
  "compiler": {
    "name": "solc",
    "version": "0.5.17+commit.d19bba13.Emscripten.clang"
  },
  "schemaVersion": "3.2.3",
  "updatedAt": "2020-09-03T21:18:00.637Z",
  "networkType": "ethereum",
  "devdoc": {
    "author": "David Lucid <david@rari.capital> (https://github.com/davidlucid)",
    "details": "This library handles deposits to and withdrawals from mStable liquidity pools.",
    "methods": {
      "approve(uint256)": {
        "details": "Approves mUSD tokens to the mStable savings contract without spending gas on every deposit.",
        "params": {
          "amount": "Amount of mUSD tokens to approve to the mStable savings contract."
        }
      },
      "deposit(uint256)": {
        "details": "Deposits mUSD tokens to the mStable savings contract.",
        "params": {
          "amount": "The amount of mUSD tokens to be deposited."
        }
      },
      "getBalance()": {
        "details": "Returns the fund's mUSD token balance supplied to the mStable savings contract."
      },
      "withdraw(uint256)": {
        "details": "Withdraws mUSD tokens from the mStable savings contract. May withdraw slightly more than `amount` due to imperfect precision.",
        "params": {
          "amount": "The amount of mUSD tokens to be withdrawn."
        }
      },
      "withdrawAll()": {
        "details": "Withdraws all funds from the mStable savings contract."
      }
    },
    "title": "MStablePoolController"
  },
  "userdoc": {
    "methods": {}
  }
}