{
  "contractName": "RariFundProxy",
  "abi": [
    {
      "inputs": [],
      "payable": false,
      "stateMutability": "nonpayable",
      "type": "constructor"
    },
    {
      "anonymous": false,
      "inputs": [
        {
          "indexed": false,
          "internalType": "address",
          "name": "newContract",
          "type": "address"
        }
      ],
      "name": "FundManagerSet",
      "type": "event"
    },
    {
      "anonymous": false,
      "inputs": [
        {
          "indexed": false,
          "internalType": "address",
          "name": "newAddress",
          "type": "address"
        }
      ],
      "name": "GsnTrustedSignerSet",
      "type": "event"
    },
    {
      "anonymous": false,
      "inputs": [
        {
          "indexed": true,
          "internalType": "address",
          "name": "previousOwner",
          "type": "address"
        },
        {
          "indexed": true,
          "internalType": "address",
          "name": "newOwner",
          "type": "address"
        }
      ],
      "name": "OwnershipTransferred",
      "type": "event"
    },
    {
      "anonymous": false,
      "inputs": [
        {
          "indexed": true,
          "internalType": "string",
          "name": "inputCurrencyCode",
          "type": "string"
        },
        {
          "indexed": true,
          "internalType": "address",
          "name": "outputErc20Contract",
          "type": "address"
        },
        {
          "indexed": true,
          "internalType": "address",
          "name": "payee",
          "type": "address"
        },
        {
          "indexed": false,
          "internalType": "uint256",
          "name": "withdrawalAmount",
          "type": "uint256"
        },
        {
          "indexed": false,
          "internalType": "uint256",
          "name": "takerAssetFilledAmount",
          "type": "uint256"
        }
      ],
      "name": "PostWithdrawalExchange",
      "type": "event"
    },
    {
      "anonymous": false,
      "inputs": [
        {
          "indexed": true,
          "internalType": "address",
          "name": "inputErc20Contract",
          "type": "address"
        },
        {
          "indexed": true,
          "internalType": "string",
          "name": "outputCurrencyCode",
          "type": "string"
        },
        {
          "indexed": true,
          "internalType": "address",
          "name": "payee",
          "type": "address"
        },
        {
          "indexed": false,
          "internalType": "uint256",
          "name": "makerAssetFilledAmount",
          "type": "uint256"
        },
        {
          "indexed": false,
          "internalType": "uint256",
          "name": "depositAmount",
          "type": "uint256"
        }
      ],
      "name": "PreDepositExchange",
      "type": "event"
    },
    {
      "anonymous": false,
      "inputs": [
        {
          "indexed": true,
          "internalType": "address",
          "name": "oldRelayHub",
          "type": "address"
        },
        {
          "indexed": true,
          "internalType": "address",
          "name": "newRelayHub",
          "type": "address"
        }
      ],
      "name": "RelayHubChanged",
      "type": "event"
    },
    {
      "payable": true,
      "stateMutability": "payable",
      "type": "fallback"
    },
    {
      "constant": true,
      "inputs": [],
      "name": "VERSION",
      "outputs": [
        {
          "internalType": "string",
          "name": "",
          "type": "string"
        }
      ],
      "payable": false,
      "stateMutability": "view",
      "type": "function"
    },
    {
      "constant": true,
      "inputs": [],
      "name": "getHubAddr",
      "outputs": [
        {
          "internalType": "address",
          "name": "",
          "type": "address"
        }
      ],
      "payable": false,
      "stateMutability": "view",
      "type": "function"
    },
    {
      "constant": true,
      "inputs": [],
      "name": "isOwner",
      "outputs": [
        {
          "internalType": "bool",
          "name": "",
          "type": "bool"
        }
      ],
      "payable": false,
      "stateMutability": "view",
      "type": "function"
    },
    {
      "constant": true,
      "inputs": [],
      "name": "owner",
      "outputs": [
        {
          "internalType": "address",
          "name": "",
          "type": "address"
        }
      ],
      "payable": false,
      "stateMutability": "view",
      "type": "function"
    },
    {
      "constant": false,
      "inputs": [
        {
          "internalType": "bytes",
          "name": "context",
          "type": "bytes"
        },
        {
          "internalType": "bool",
          "name": "success",
          "type": "bool"
        },
        {
          "internalType": "uint256",
          "name": "actualCharge",
          "type": "uint256"
        },
        {
          "internalType": "bytes32",
          "name": "preRetVal",
          "type": "bytes32"
        }
      ],
      "name": "postRelayedCall",
      "outputs": [],
      "payable": false,
      "stateMutability": "nonpayable",
      "type": "function"
    },
    {
      "constant": false,
      "inputs": [
        {
          "internalType": "bytes",
          "name": "context",
          "type": "bytes"
        }
      ],
      "name": "preRelayedCall",
      "outputs": [
        {
          "internalType": "bytes32",
          "name": "",
          "type": "bytes32"
        }
      ],
      "payable": false,
      "stateMutability": "nonpayable",
      "type": "function"
    },
    {
      "constant": true,
      "inputs": [],
      "name": "relayHubVersion",
      "outputs": [
        {
          "internalType": "string",
          "name": "",
          "type": "string"
        }
      ],
      "payable": false,
      "stateMutability": "view",
      "type": "function"
    },
    {
      "constant": false,
      "inputs": [],
      "name": "renounceOwnership",
      "outputs": [],
      "payable": false,
      "stateMutability": "nonpayable",
      "type": "function"
    },
    {
      "constant": false,
      "inputs": [
        {
          "internalType": "address",
          "name": "newOwner",
          "type": "address"
        }
      ],
      "name": "transferOwnership",
      "outputs": [],
      "payable": false,
      "stateMutability": "nonpayable",
      "type": "function"
    },
    {
      "constant": false,
      "inputs": [
        {
          "internalType": "address",
          "name": "newContract",
          "type": "address"
        }
      ],
      "name": "setFundManager",
      "outputs": [],
      "payable": false,
      "stateMutability": "nonpayable",
      "type": "function"
    },
    {
      "constant": false,
      "inputs": [
        {
          "internalType": "address",
          "name": "newAddress",
          "type": "address"
        }
      ],
      "name": "setGsnTrustedSigner",
      "outputs": [],
      "payable": false,
      "stateMutability": "nonpayable",
      "type": "function"
    },
    {
      "constant": false,
      "inputs": [
        {
          "internalType": "string",
          "name": "inputCurrencyCode",
          "type": "string"
        },
        {
          "internalType": "uint256",
          "name": "inputAmount",
          "type": "uint256"
        },
        {
          "internalType": "string",
          "name": "outputCurrencyCode",
          "type": "string"
        }
      ],
      "name": "exchangeAndDeposit",
      "outputs": [],
      "payable": true,
      "stateMutability": "payable",
      "type": "function"
    },
    {
      "constant": false,
      "inputs": [
        {
          "internalType": "address",
          "name": "inputErc20Contract",
          "type": "address"
        },
        {
          "internalType": "uint256",
          "name": "inputAmount",
          "type": "uint256"
        },
        {
          "internalType": "string",
          "name": "outputCurrencyCode",
          "type": "string"
        },
        {
          "components": [
            {
              "internalType": "address",
              "name": "makerAddress",
              "type": "address"
            },
            {
              "internalType": "address",
              "name": "takerAddress",
              "type": "address"
            },
            {
              "internalType": "address",
              "name": "feeRecipientAddress",
              "type": "address"
            },
            {
              "internalType": "address",
              "name": "senderAddress",
              "type": "address"
            },
            {
              "internalType": "uint256",
              "name": "makerAssetAmount",
              "type": "uint256"
            },
            {
              "internalType": "uint256",
              "name": "takerAssetAmount",
              "type": "uint256"
            },
            {
              "internalType": "uint256",
              "name": "makerFee",
              "type": "uint256"
            },
            {
              "internalType": "uint256",
              "name": "takerFee",
              "type": "uint256"
            },
            {
              "internalType": "uint256",
              "name": "expirationTimeSeconds",
              "type": "uint256"
            },
            {
              "internalType": "uint256",
              "name": "salt",
              "type": "uint256"
            },
            {
              "internalType": "bytes",
              "name": "makerAssetData",
              "type": "bytes"
            },
            {
              "internalType": "bytes",
              "name": "takerAssetData",
              "type": "bytes"
            },
            {
              "internalType": "bytes",
              "name": "makerFeeAssetData",
              "type": "bytes"
            },
            {
              "internalType": "bytes",
              "name": "takerFeeAssetData",
              "type": "bytes"
            }
          ],
          "internalType": "struct LibOrder.Order[]",
          "name": "orders",
          "type": "tuple[]"
        },
        {
          "internalType": "bytes[]",
          "name": "signatures",
          "type": "bytes[]"
        },
        {
          "internalType": "uint256",
          "name": "takerAssetFillAmount",
          "type": "uint256"
        }
      ],
      "name": "exchangeAndDeposit",
      "outputs": [],
      "payable": true,
      "stateMutability": "payable",
      "type": "function"
    },
    {
      "constant": false,
      "inputs": [
        {
          "internalType": "string[]",
          "name": "inputCurrencyCodes",
          "type": "string[]"
        },
        {
          "internalType": "uint256[]",
          "name": "inputAmounts",
          "type": "uint256[]"
        },
        {
          "internalType": "address",
          "name": "outputErc20Contract",
          "type": "address"
        },
        {
          "components": [
            {
              "internalType": "address",
              "name": "makerAddress",
              "type": "address"
            },
            {
              "internalType": "address",
              "name": "takerAddress",
              "type": "address"
            },
            {
              "internalType": "address",
              "name": "feeRecipientAddress",
              "type": "address"
            },
            {
              "internalType": "address",
              "name": "senderAddress",
              "type": "address"
            },
            {
              "internalType": "uint256",
              "name": "makerAssetAmount",
              "type": "uint256"
            },
            {
              "internalType": "uint256",
              "name": "takerAssetAmount",
              "type": "uint256"
            },
            {
              "internalType": "uint256",
              "name": "makerFee",
              "type": "uint256"
            },
            {
              "internalType": "uint256",
              "name": "takerFee",
              "type": "uint256"
            },
            {
              "internalType": "uint256",
              "name": "expirationTimeSeconds",
              "type": "uint256"
            },
            {
              "internalType": "uint256",
              "name": "salt",
              "type": "uint256"
            },
            {
              "internalType": "bytes",
              "name": "makerAssetData",
              "type": "bytes"
            },
            {
              "internalType": "bytes",
              "name": "takerAssetData",
              "type": "bytes"
            },
            {
              "internalType": "bytes",
              "name": "makerFeeAssetData",
              "type": "bytes"
            },
            {
              "internalType": "bytes",
              "name": "takerFeeAssetData",
              "type": "bytes"
            }
          ],
          "internalType": "struct LibOrder.Order[][]",
          "name": "orders",
          "type": "tuple[][]"
        },
        {
          "internalType": "bytes[][]",
          "name": "signatures",
          "type": "bytes[][]"
        },
        {
          "internalType": "uint256[]",
          "name": "makerAssetFillAmounts",
          "type": "uint256[]"
        },
        {
          "internalType": "uint256[]",
          "name": "protocolFees",
          "type": "uint256[]"
        }
      ],
      "name": "withdrawAndExchange",
      "outputs": [],
      "payable": true,
      "stateMutability": "payable",
      "type": "function"
    },
    {
      "constant": false,
      "inputs": [
        {
          "internalType": "string",
          "name": "currencyCode",
          "type": "string"
        },
        {
          "internalType": "uint256",
          "name": "amount",
          "type": "uint256"
        }
      ],
      "name": "deposit",
      "outputs": [],
      "payable": false,
      "stateMutability": "nonpayable",
      "type": "function"
    },
    {
      "constant": true,
      "inputs": [
        {
          "internalType": "address",
          "name": "relay",
          "type": "address"
        },
        {
          "internalType": "address",
          "name": "from",
          "type": "address"
        },
        {
          "internalType": "bytes",
          "name": "encodedFunction",
          "type": "bytes"
        },
        {
          "internalType": "uint256",
          "name": "transactionFee",
          "type": "uint256"
        },
        {
          "internalType": "uint256",
          "name": "gasPrice",
          "type": "uint256"
        },
        {
          "internalType": "uint256",
          "name": "gasLimit",
          "type": "uint256"
        },
        {
          "internalType": "uint256",
          "name": "nonce",
          "type": "uint256"
        },
        {
          "internalType": "bytes",
          "name": "approvalData",
          "type": "bytes"
        },
        {
          "internalType": "uint256",
          "name": "",
          "type": "uint256"
        }
      ],
      "name": "acceptRelayedCall",
      "outputs": [
        {
          "internalType": "uint256",
          "name": "",
          "type": "uint256"
        },
        {
          "internalType": "bytes",
          "name": "",
          "type": "bytes"
        }
      ],
      "payable": false,
      "stateMutability": "view",
      "type": "function"
    },
    {
      "constant": false,
      "inputs": [
        {
          "internalType": "address",
          "name": "erc20Contract",
          "type": "address"
        },
        {
          "internalType": "address",
          "name": "to",
          "type": "address"
        }
      ],
      "name": "forwardLostFunds",
      "outputs": [
        {
          "internalType": "bool",
          "name": "",
          "type": "bool"
        }
      ],
      "payable": false,
      "stateMutability": "nonpayable",
      "type": "function"
    }
  ],
  "bytecode": "0x6080604052600180546001600160a01b03191673d216153c06e857cd7f72665e0af1d7d82172f4941790553480156200003757600080fd5b5060006200004d6001600160e01b036200031c16565b600080546001600160a01b0319166001600160a01b0383169081178255604051929350917f8be0079c531659141344cd1fd0a4f28419497f9722a3daafe3b4186f6b6457e0908290a35060408051808201909152600381526244414960e81b6020820152620000dc90736b175474e89094c44da98b954eedeac495271d0f60126001600160e01b036200035316565b6040805180820190915260048152635553444360e01b6020820152620001229073a0b86991c6218b36c1d19d4a2e9eb0ce3606eb4860066001600160e01b036200035316565b6040805180820190915260048152631554d11560e21b6020820152620001689073dac17f958d2ee523a2206206994597c13d831ec760066001600160e01b036200035316565b604080518082019091526004815263151554d160e21b6020820152620001a9906e085d4780b73119b644ae5ecd22b37660126001600160e01b036200035316565b604080518082019091526004815263109554d160e21b6020820152620001ef90734fabb145d64652a948d72533023f6e7a623c7c5360126001600160e01b036200035316565b6040805180820190915260048152631cd554d160e21b602082015262000235907357ab1ec28d129707052df4df418d58a2d46d5f5160126001600160e01b036200035316565b6040805180820190915260048152631b5554d160e21b60208201526200027b9073e2f2a5c287993345a840db3b0845fbc70f5935a560126001600160e01b036200035316565b620002a3736b175474e89094c44da98b954eedeac495271d0f6001600160e01b036200045a16565b620002cb73a0b86991c6218b36c1d19d4a2e9eb0ce3606eb486001600160e01b036200045a16565b620002f373dac17f958d2ee523a2206206994597c13d831ec76001600160e01b036200045a16565b620003166e085d4780b73119b644ae5ecd22b3766001600160e01b036200045a16565b620006be565b6001546000906001600160a01b031633146200033a57503362000350565b6200034d6001600160e01b03620004ef16565b90505b90565b6002805460018101808355600092909252845162000399917f405787fa12a823e0f2b7631cc41b3ba8828b3321ca811111fa75cd3aa3bb5ace019060208701906200053c565b505081600384604051620003ae91906200062f565b908152604080516020928190038301812080546001600160a01b0319166001600160a01b0395861617905592851660009081526004928390522083905563095ea7b360e01b825273__ZeroExExchangeController______________9163095ea7b39162000423918691600019910162000644565b60006040518083038186803b1580156200043c57600080fd5b505af415801562000451573d6000803e3d6000fd5b50505050505050565b6001600160a01b03811660009081526005602052604090819020805460ff191660011790555163095ea7b360e01b815273__MStableExchangeController_____________9063095ea7b390620004ba9084906000199060040162000644565b60006040518083038186803b158015620004d357600080fd5b505af4158015620004e8573d6000803e3d6000fd5b5050505050565b600060606000368080601f0160208091040260200160405190810160405280939291908181526020018383808284376000920191909152505050503601516001600160a01b031692915050565b828054600181600116156101000203166002900490600052602060002090601f016020900481019282601f106200057f57805160ff1916838001178555620005af565b82800160010185558215620005af579182015b82811115620005af57825182559160200191906001019062000592565b50620005bd929150620005c1565b5090565b6200035091905b80821115620005bd5760008155600101620005c8565b620005e9816200066c565b82525050565b6000620005fc8262000663565b62000608818562000667565b93506200061a8185602086016200068b565b9290920192915050565b620005e98162000350565b60006200063d8284620005ef565b9392505050565b60408101620006548285620005de565b6200063d602083018462000624565b5190565b919050565b600062000679826200067f565b92915050565b6001600160a01b031690565b60005b83811015620006a85781810151838201526020016200068e565b83811115620006b8576000848401525b50505050565b61431180620006ce6000396000f3fe6080604052600436106100fe5760003560e01c80638da5cb5b11610095578063b51c573811610064578063b51c573814610287578063ddf29a071461029a578063e06e0e22146102ad578063f2fde38b146102cd578063ffa1ad74146102ed576100fe565b80638da5cb5b1461021b5780638e27d719146102305780638f32d59b14610250578063ad61ccd514610265576100fe565b8063715018a6116100d1578063715018a61461018957806374e861d61461019e57806380274db7146101c057806383947ea0146101ed576100fe565b8063232a306014610100578063385f0aad146101205780634086b960146101565780634434ac3d14610169575b005b34801561010c57600080fd5b506100fe61011b366004612cb3565b610302565b34801561012c57600080fd5b5061014061013b366004612cd1565b61044a565b60405161014d9190613f7b565b60405180910390f35b6100fe610164366004613145565b61052d565b34801561017557600080fd5b506100fe610184366004612cb3565b610ab0565b34801561019557600080fd5b506100fe610b1f565b3480156101aa57600080fd5b506101b3610b8d565b60405161014d9190613e3c565b3480156101cc57600080fd5b506101e06101db366004613034565b610b9d565b60405161014d9190613f89565b3480156101f957600080fd5b5061020d610208366004612d0b565b610c1d565b60405161014d929190614140565b34801561022757600080fd5b506101b3610d13565b34801561023c57600080fd5b506100fe61024b3660046130f1565b610d22565b34801561025c57600080fd5b50610140610e04565b34801561027157600080fd5b5061027a610e28565b60405161014d9190613fbf565b6100fe610295366004612ed3565b610e47565b6100fe6102a8366004612e07565b611983565b3480156102b957600080fd5b506100fe6102c8366004613075565b61200b565b3480156102d957600080fd5b506100fe6102e8366004612cb3565b61208e565b3480156102f957600080fd5b5061027a6120be565b61030a610e04565b61032f5760405162461bcd60e51b8152600401610326906140a0565b60405180910390fd5b60005b6002548110156103df57600060036002838154811061034d57fe5b906000526020600020016040516103649190613e10565b908152604051908190036020019020546006546001600160a01b03918216925016156103ab576006546103ab906001600160a01b038381169116600063ffffffff6120df16565b6001600160a01b038316156103d6576103d66001600160a01b0382168460001963ffffffff6120df16565b50600101610332565b50600680546001600160a01b038084166001600160a01b031992831617928390556007805490921692169190911790556040517ff980c1430e55b1867cd9337a1f20246ab3b7255032486d0b71c24e820eebf3ab9061043f908390613e3c565b60405180910390a150565b6000610454610e04565b6104705760405162461bcd60e51b8152600401610326906140a0565b6040516370a0823160e01b815283906000906001600160a01b038316906370a08231906104a1903090600401613e4a565b60206040518083038186803b1580156104b957600080fd5b505afa1580156104cd573d6000803e3d6000fd5b505050506040513d601f19601f820116820180604052506104f191908101906131c9565b90506000811161050657600092505050610527565b6105206001600160a01b038316858363ffffffff6121e116565b6001925050505b92915050565b6006546001600160a01b03166105555760405162461bcd60e51b8152600401610326906140b0565b600083116105755760405162461bcd60e51b815260040161032690613fe0565b600060038686604051610589929190613e03565b9081526040805160209281900383019020546001600160a01b03166000818152600590935291205490915060ff16806105de575073e2f2a5c287993345a840db3b0845fbc70f5935a56001600160a01b038216145b6105fa5760405162461bcd60e51b815260040161032690613fd0565b60006003848460405161060e929190613e03565b9081526040805160209281900383019020546001600160a01b03166000818152600590935291205490915060ff1680610663575073e2f2a5c287993345a840db3b0845fbc70f5935a56001600160a01b038216145b61067f5760405162461bcd60e51b815260040161032690613fd0565b806001600160a01b0316826001600160a01b031614156106b15760405162461bcd60e51b8152600401610326906140d0565b6106cc6001600160a01b03831633308863ffffffff61220316565b73e2f2a5c287993345a840db3b0845fbc70f5935a56001600160a01b0383161415610817576001600160a01b03811660009081526004602052604081205490601282111561073d5761073861072883601263ffffffff61222d16565b8890600a0a63ffffffff61226f16565b610761565b61076161075160128463ffffffff61222d16565b8890600a0a63ffffffff6122a916565b9050600073__MStableExchangeController_____________631e9a695085846040518363ffffffff1660e01b815260040161079e929190613efa565b60206040518083038186803b1580156107b657600080fd5b505af41580156107ca573d6000803e3d6000fd5b505050506040513d601f19601f820116820180604052506107ee91908101906131c9565b905080881461080f5760405162461bcd60e51b815260040161032690614010565b505050610958565b73e2f2a5c287993345a840db3b0845fbc70f5935a56001600160a01b03821614156108cb576040516340c10f1960e01b815273__MStableExchangeController_____________906340c10f19906108759085908990600401613efa565b60206040518083038186803b15801561088d57600080fd5b505af41580156108a1573d6000803e3d6000fd5b505050506040513d601f19601f820116820180604052506108c591908101906131c9565b50610958565b604051630df791e560e41b815273__MStableExchangeController_____________9063df791e509061090690859085908a90600401613ed2565b60206040518083038186803b15801561091e57600080fd5b505af4158015610932573d6000803e3d6000fd5b505050506040513d601f19601f8201168201806040525061095691908101906131c9565b505b6040516370a0823160e01b81526000906001600160a01b038316906370a0823190610987903090600401613e4a565b60206040518083038186803b15801561099f57600080fd5b505afa1580156109b3573d6000803e3d6000fd5b505050506040513d601f19601f820116820180604052506109d791908101906131c9565b9050336001600160a01b031685856040516109f3929190613e03565b6040518091039020846001600160a01b03167f28784a5e1360937cd93c35bfd5f7425fd500dd7721d4db798b878c787aa5d2478985604051610a36929190614160565b60405180910390a4600754604051634ef446b960e11b81526001600160a01b0390911690639de88d7290610a74903390899089908790600401613e58565b600060405180830381600087803b158015610a8e57600080fd5b505af1158015610aa2573d6000803e3d6000fd5b505050505050505050505050565b610ab8610e04565b610ad45760405162461bcd60e51b8152600401610326906140a0565b600880546001600160a01b0319166001600160a01b0383161790556040517feb58b3605dc4b57dbf9dbd3db2d10cea4dd28005a4d8310f298e16d63b2047619061043f908390613e3c565b610b27610e04565b610b435760405162461bcd60e51b8152600401610326906140a0565b600080546040516001600160a01b03909116907f8be0079c531659141344cd1fd0a4f28419497f9722a3daafe3b4186f6b6457e0908390a3600080546001600160a01b0319169055565b6001546001600160a01b03165b90565b6000610ba7610b8d565b6001600160a01b0316336001600160a01b031614610bd75760405162461bcd60e51b8152600401610326906140c0565b610c1683838080601f0160208091040260200160405190810160405280939291908181526020018383808284376000920191909152506122eb92505050565b9392505050565b60006060808d8d8d8d8d8d8d8d610c32610b8d565b30604051602001610c4c9a99989796959493929190613d5c565b60408051601f198184030181526008546020601f8a018190048102850181019093528884529093506001600160a01b031691610cb99189908990819084018382808284376000920191909152505085516020870120610cad925090506122f1565b9063ffffffff61232116565b6001600160a01b031614610cdb57610cd160006123fd565b9250925050610d03565b6008546001600160a01b0316610cf557610cd160016123fd565b610cfd612415565b92509250505b9b509b9950505050505050505050565b6000546001600160a01b031690565b600060038484604051610d36929190613e03565b908152604051908190036020019020546001600160a01b0316905080610d6e5760405162461bcd60e51b815260040161032690614070565b610d91610d79612439565b6001600160a01b03831690308563ffffffff61220316565b6007546001600160a01b0316639de88d72610daa612439565b8686866040518563ffffffff1660e01b8152600401610dcc9493929190613e58565b600060405180830381600087803b158015610de657600080fd5b505af1158015610dfa573d6000803e3d6000fd5b5050505050505050565b600080546001600160a01b0316610e19612439565b6001600160a01b031614905090565b6040805180820190915260058152640312e302e360dc1b602082015290565b6006546001600160a01b0316610e6f5760405162461bcd60e51b8152600401610326906140b0565b85518751148015610e81575083518751145b8015610e8e575082518751145b8015610e9b575081518751145b8015610ea8575080518751145b610ec45760405162461bcd60e51b815260040161032690614000565b60005b87518110156117935760006003898381518110610ee057fe5b6020026020010151604051610ef59190613df7565b908152604051908190036020019020546001600160a01b0316905080610f2d5760405162461bcd60e51b8152600401610326906140f0565b6000888381518110610f3b57fe5b602002602001015111610f605760405162461bcd60e51b815260040161032690614060565b60075489516001600160a01b039091169063c23e5e819033908c9086908110610f8557fe5b60200260200101518b8681518110610f9957fe5b60200260200101516040518463ffffffff1660e01b8152600401610fbf93929190613e88565b600060405180830381600087803b158015610fd957600080fd5b505af1158015610fed573d6000803e3d6000fd5b50505050866001600160a01b0316816001600160a01b03161461178a57600086838151811061101857fe5b6020026020010151511180156110425750600085838151811061103757fe5b602002602001015151115b80156110615750600084838151811061105757fe5b6020026020010151115b156112095784518651146110875760405162461bcd60e51b815260040161032690614110565b61108f6126bb565b73__ZeroExExchangeController______________63bf0555408885815181106110b557fe5b60200260200101518886815181106110c957fe5b60200260200101518887815181106110dd57fe5b60200260200101518888815181106110f157fe5b60200260200101516040518563ffffffff1660e01b81526004016111189493929190613f56565b604080518083038186803b15801561112f57600080fd5b505af4158015611143573d6000803e3d6000fd5b505050506040513d601f19601f820116820180604052506111679190810190612ff8565b9050336001600160a01b0316886001600160a01b03168b858151811061118957fe5b602002602001015160405161119e9190613df7565b60405180910390207f62e482b58c21799e527c0bf559d385ef3cefdcbfe572b563b37b2b64d3e0d9178c87815181106111d357fe5b6020026020010151856001600281106111e857fe5b60200201516040516111fb929190614160565b60405180910390a45061178a565b6001600160a01b03811660009081526005602052604090205460ff168061124c575073e2f2a5c287993345a840db3b0845fbc70f5935a56001600160a01b038216145b801561129657506001600160a01b03871660009081526005602052604090205460ff1680611296575073e2f2a5c287993345a840db3b0845fbc70f5935a56001600160a01b038816145b1561177257600073e2f2a5c287993345a840db3b0845fbc70f5935a56001600160a01b03831614156114db576001600160a01b0388166000908152600460205260408120549060128211156113235761131e6112f983601263ffffffff61222d16565b600a0a8c878151811061130857fe5b602002602001015161226f90919063ffffffff16565b61135c565b61135c61133760128463ffffffff61222d16565b600a0a8c878151811061134657fe5b60200260200101516122a990919063ffffffff16565b9050600073__MStableExchangeController_____________631e9a69508c846040518363ffffffff1660e01b8152600401611399929190613efa565b60206040518083038186803b1580156113b157600080fd5b505af41580156113c5573d6000803e3d6000fd5b505050506040513d601f19601f820116820180604052506113e991908101906131c9565b9050808c87815181106113f857fe5b60200260200101511461141d5760405162461bcd60e51b815260040161032690614010565b6114d16114c4670de0b6b3a76400006114b873__MStableExchangeController_____________63d4cadf686040518163ffffffff1660e01b815260040160206040518083038186803b15801561147357600080fd5b505af4158015611487573d6000803e3d6000fd5b505050506040513d601f19601f820116820180604052506114ab91908101906131c9565b869063ffffffff61226f16565b9063ffffffff6122a916565b839063ffffffff61222d16565b93505050506116f1565b73e2f2a5c287993345a840db3b0845fbc70f5935a56001600160a01b03891614156115a35773__MStableExchangeController_____________6340c10f19838b868151811061152757fe5b60200260200101516040518363ffffffff1660e01b815260040161154c929190613efa565b60206040518083038186803b15801561156457600080fd5b505af4158015611578573d6000803e3d6000fd5b505050506040513d601f19601f8201168201806040525061159c91908101906131c9565b90506116f1565b600073__MStableExchangeController_____________63df791e50848b8d88815181106115cd57fe5b60200260200101516040518463ffffffff1660e01b81526004016115f393929190613ed2565b60206040518083038186803b15801561160b57600080fd5b505af415801561161f573d6000803e3d6000fd5b505050506040513d601f19601f8201168201806040525061164391908101906131c9565b90506116ed6116e0670de0b6b3a76400006114b873__MStableExchangeController_____________63d4cadf686040518163ffffffff1660e01b815260040160206040518083038186803b15801561169b57600080fd5b505af41580156116af573d6000803e3d6000fd5b505050506040513d601f19601f820116820180604052506116d391908101906131c9565b859063ffffffff61226f16565b829063ffffffff61222d16565b9150505b336001600160a01b0316886001600160a01b03168b858151811061171157fe5b60200260200101516040516117269190613df7565b60405180910390207f62e482b58c21799e527c0bf559d385ef3cefdcbfe572b563b37b2b64d3e0d9178c878151811061175b57fe5b6020026020010151856040516111fb929190614160565b60405162461bcd60e51b815260040161032690614030565b50600101610ec7565b506001600160a01b03851661189e576040516370a0823160e01b815260009073c02aaa39b223fe8d0a0e5c4f27ead9083c756cc2906370a08231906117dc903090600401613e4a565b60206040518083038186803b1580156117f457600080fd5b505afa158015611808573d6000803e3d6000fd5b505050506040513d601f19601f8201168201806040525061182c91908101906131c9565b604051632e1a7d4d60e01b815290915073c02aaa39b223fe8d0a0e5c4f27ead9083c756cc290632e1a7d4d90611866908490600401613f89565b600060405180830381600087803b15801561188057600080fd5b505af1158015611894573d6000803e3d6000fd5b5050505050611944565b6040516370a0823160e01b815285906000906001600160a01b038316906370a08231906118cf903090600401613e4a565b60206040518083038186803b1580156118e757600080fd5b505afa1580156118fb573d6000803e3d6000fd5b505050506040513d601f19601f8201168201806040525061191f91908101906131c9565b90508015611941576119416001600160a01b038316338363ffffffff6121e116565b50505b478015610dfa57604051339082156108fc029083906000818181858888f19350505050158015611978573d6000803e3d6000fd5b505050505050505050565b6006546001600160a01b03166119ab5760405162461bcd60e51b8152600401610326906140b0565b600085116119cb5760405162461bcd60e51b815260040161032690613fe0565b60006003856040516119dd9190613df7565b908152604051908190036020019020546001600160a01b0316905080611a155760405162461bcd60e51b815260040161032690614080565b806001600160a01b0316876001600160a01b03161415611a475760405162461bcd60e51b8152600401610326906140d0565b6000845111611a685760405162461bcd60e51b815260040161032690614050565b8251845114611a895760405162461bcd60e51b815260040161032690614040565b60008211611aa95760405162461bcd60e51b8152600401610326906140e0565b6001600160a01b038716611b245773c02aaa39b223fe8d0a0e5c4f27ead9083c756cc26001600160a01b031663d0e30db0876040518263ffffffff1660e01b81526004016000604051808303818588803b158015611b0657600080fd5b505af1158015611b1a573d6000803e3d6000fd5b5050505050611b3f565b611b3f6001600160a01b03881633308963ffffffff61220316565b73__ZeroExExchangeController______________633e5beab96001600160a01b03891615611b6e5788611b84565b73c02aaa39b223fe8d0a0e5c4f27ead9083c756cc25b6040518263ffffffff1660e01b8152600401611ba09190613e3c565b60206040518083038186803b158015611bb857600080fd5b505af4158015611bcc573d6000803e3d6000fd5b505050506040513d601f19601f82011682018060405250611bf091908101906131c9565b861115611c8d5773__ZeroExExchangeController______________63095ea7b36001600160a01b03891615611c265788611c3c565b73c02aaa39b223fe8d0a0e5c4f27ead9083c756cc25b6000196040518363ffffffff1660e01b8152600401611c5c929190613efa565b60006040518083038186803b158015611c7457600080fd5b505af4158015611c88573d6000803e3d6000fd5b505050505b611c956126bb565b73__ZeroExExchangeController______________637a8c15f18686866001600160a01b038d1615611cc75734611cd7565b611cd7348d63ffffffff61222d16565b6040518563ffffffff1660e01b8152600401611cf69493929190613f15565b604080518083038186803b158015611d0d57600080fd5b505af4158015611d21573d6000803e3d6000fd5b505050506040513d601f19601f82011682018060405250611d459190810190612ff8565b90506001600160a01b038816611e57576040516370a0823160e01b815260009073c02aaa39b223fe8d0a0e5c4f27ead9083c756cc2906370a0823190611d8f903090600401613e4a565b60206040518083038186803b158015611da757600080fd5b505afa158015611dbb573d6000803e3d6000fd5b505050506040513d601f19601f82011682018060405250611ddf91908101906131c9565b90508015611e5157604051632e1a7d4d60e01b815273c02aaa39b223fe8d0a0e5c4f27ead9083c756cc290632e1a7d4d90611e1e908490600401613f89565b600060405180830381600087803b158015611e3857600080fd5b505af1158015611e4c573d6000803e3d6000fd5b505050505b50611efd565b6040516370a0823160e01b815288906000906001600160a01b038316906370a0823190611e88903090600401613e4a565b60206040518083038186803b158015611ea057600080fd5b505afa158015611eb4573d6000803e3d6000fd5b505050506040513d601f19601f82011682018060405250611ed891908101906131c9565b90508015611efa57611efa6001600160a01b038316338363ffffffff6121e116565b50505b6040513390611f0d908890613df7565b6040519081900381208351602085015191926001600160a01b038d16927f28784a5e1360937cd93c35bfd5f7425fd500dd7721d4db798b878c787aa5d24792611f5892909190614160565b60405180910390a46007546020820151604051634ef446b960e11b81526001600160a01b0390921691639de88d7291611f979133918b91600401613e88565b600060405180830381600087803b158015611fb157600080fd5b505af1158015611fc5573d6000803e3d6000fd5b50479250508115905061197857604051339082156108fc029083906000818181858888f19350505050158015611fff573d6000803e3d6000fd5b50505050505050505050565b612013610b8d565b6001600160a01b0316336001600160a01b0316146120435760405162461bcd60e51b8152600401610326906140c0565b61208785858080601f016020809104026020016040519081016040528093929190818152602001838380828437600092019190915250879250869150859050612227565b5050505050565b612096610e04565b6120b25760405162461bcd60e51b8152600401610326906140a0565b6120bb81612464565b50565b604051806040016040528060058152602001640322e302e360dc1b81525081565b8015806121675750604051636eb1769f60e11b81526001600160a01b0384169063dd62ed3e906121159030908690600401613eb7565b60206040518083038186803b15801561212d57600080fd5b505afa158015612141573d6000803e3d6000fd5b505050506040513d601f19601f8201168201806040525061216591908101906131c9565b155b6121835760405162461bcd60e51b815260040161032690614120565b6040516121dc90849063095ea7b360e01b906121a59086908690602401613efa565b60408051601f198184030181529190526020810180516001600160e01b03166001600160e01b0319909316929092179091526124e5565b505050565b6040516121dc90849063a9059cbb60e01b906121a59086908690602401613efa565b6040516122279085906323b872dd60e01b906121a590879087908790602401613ed2565b50505050565b6000610c1683836040518060400160405280601e81526020017f536166654d6174683a207375627472616374696f6e206f766572666c6f7700008152506125ca565b60008261227e57506000610527565b8282028284828161228b57fe5b0414610c165760405162461bcd60e51b815260040161032690614090565b6000610c1683836040518060400160405280601a81526020017f536166654d6174683a206469766973696f6e206279207a65726f0000000000008152506125f6565b50600090565b6000816040516020016123049190613e1c565b604051602081830303815290604052805190602001209050919050565b6000815160411461233457506000610527565b60208201516040830151606084015160001a7f7fffffffffffffffffffffffffffffff5d576e7357a4501ddfe92f46681b20a082111561237a5760009350505050610527565b8060ff16601b1415801561239257508060ff16601c14155b156123a35760009350505050610527565b600186828585604051600081526020016040526040516123c69493929190613f97565b6020604051602081039080840390855afa1580156123e8573d6000803e3d6000fd5b5050604051601f190151979650505050505050565b604080516020810190915260008152600b9190910191565b600060606124316040518060200160405280600081525061262d565b915091509091565b6001546000906001600160a01b03163314612455575033610b9a565b61245d612632565b9050610b9a565b6001600160a01b03811661248a5760405162461bcd60e51b815260040161032690613ff0565b600080546040516001600160a01b03808516939216917f8be0079c531659141344cd1fd0a4f28419497f9722a3daafe3b4186f6b6457e091a3600080546001600160a01b0319166001600160a01b0392909216919091179055565b6124f7826001600160a01b031661267f565b6125135760405162461bcd60e51b815260040161032690614130565b60006060836001600160a01b03168360405161252f9190613df7565b6000604051808303816000865af19150503d806000811461256c576040519150601f19603f3d011682016040523d82523d6000602084013e612571565b606091505b5091509150816125935760405162461bcd60e51b815260040161032690614020565b80511561222757808060200190516125ae9190810190613016565b6122275760405162461bcd60e51b815260040161032690614100565b600081848411156125ee5760405162461bcd60e51b81526004016103269190613fbf565b505050900390565b600081836126175760405162461bcd60e51b81526004016103269190613fbf565b50600083858161262357fe5b0495945050505050565b600091565b600060606000368080601f0160208091040260200160405190810160405280939291908181526020018383808284376000920191909152505050503601516001600160a01b031692915050565b6000813f7fc5d2460186f7233c927e7db2dcc703c0e500b653ca82273b7bfad8045d85a4708181148015906126b357508115155b949350505050565b60405180604001604052806002906020820280388339509192915050565b8035610527816142a8565b600082601f8301126126f557600080fd5b813561270861270382614194565b61416e565b81815260209384019390925082018360005b83811015612746578135860161273088826127ad565b845250602092830192919091019060010161271a565b5050505092915050565b600082601f83011261276157600080fd5b813561276f61270382614194565b81815260209384019390925082018360005b83811015612746578135860161279788826128c4565b8452506020928301929190910190600101612781565b600082601f8301126127be57600080fd5b81356127cc61270382614194565b81815260209384019390925082018360005b8381101561274657813586016127f48882612ab8565b84525060209283019291909101906001016127de565b600082601f83011261281b57600080fd5b813561282961270382614194565b81815260209384019390925082018360005b8381101561274657813586016128518882612ab8565b845250602092830192919091019060010161283b565b600082601f83011261287857600080fd5b813561288661270382614194565b81815260209384019390925082018360005b8381101561274657813586016128ae8882612ab8565b8452506020928301929190910190600101612898565b600082601f8301126128d557600080fd5b81356128e361270382614194565b81815260209384019390925082018360005b83811015612746578135860161290b8882612b07565b84525060209283019291909101906001016128f5565b600082601f83011261293257600080fd5b813561294061270382614194565b81815260209384019390925082018360005b8381101561274657813586016129688882612b07565b8452506020928301929190910190600101612952565b600082601f83011261298f57600080fd5b600261299d612703826141b4565b915081838560208402820111156129b357600080fd5b60005b8381101561274657816129c98882612ca8565b84525060209283019291909101906001016129b6565b600082601f8301126129f057600080fd5b81356129fe61270382614194565b91508181835260208401935060208101905083856020840282011115612a2357600080fd5b60005b838110156127465781612a398882612a65565b8452506020928301929190910190600101612a26565b8035610527816142bc565b8051610527816142bc565b8035610527816142c5565b60008083601f840112612a8257600080fd5b5081356001600160401b03811115612a9957600080fd5b602083019150836001820283011115612ab157600080fd5b9250929050565b600082601f830112612ac957600080fd5b8135612ad7612703826141d1565b91508082526020830160208301858383011115612af357600080fd5b612afe83828461424f565b50505092915050565b60006101c08284031215612b1a57600080fd5b612b256101c061416e565b90506000612b3384846126d9565b8252506020612b44848483016126d9565b6020830152506040612b58848285016126d9565b6040830152506060612b6c848285016126d9565b6060830152506080612b8084828501612a65565b60808301525060a0612b9484828501612a65565b60a08301525060c0612ba884828501612a65565b60c08301525060e0612bbc84828501612a65565b60e083015250610100612bd184828501612a65565b61010083015250610120612be784828501612a65565b610120830152506101408201356001600160401b03811115612c0857600080fd5b612c1484828501612ab8565b610140830152506101608201356001600160401b03811115612c3557600080fd5b612c4184828501612ab8565b610160830152506101808201356001600160401b03811115612c6257600080fd5b612c6e84828501612ab8565b610180830152506101a08201356001600160401b03811115612c8f57600080fd5b612c9b84828501612ab8565b6101a08301525092915050565b8051610527816142c5565b600060208284031215612cc557600080fd5b60006126b384846126d9565b60008060408385031215612ce457600080fd5b6000612cf085856126d9565b9250506020612d01858286016126d9565b9150509250929050565b60008060008060008060008060008060006101208c8e031215612d2d57600080fd5b6000612d398e8e6126d9565b9b50506020612d4a8e828f016126d9565b9a505060408c01356001600160401b03811115612d6657600080fd5b612d728e828f01612a70565b99509950506060612d858e828f01612a65565b9750506080612d968e828f01612a65565b96505060a0612da78e828f01612a65565b95505060c0612db88e828f01612a65565b94505060e08c01356001600160401b03811115612dd457600080fd5b612de08e828f01612a70565b9350935050610100612df48e828f01612a65565b9150509295989b509295989b9093969950565b60008060008060008060c08789031215612e2057600080fd5b6000612e2c89896126d9565b9650506020612e3d89828a01612a65565b95505060408701356001600160401b03811115612e5957600080fd5b612e6589828a01612ab8565b94505060608701356001600160401b03811115612e8157600080fd5b612e8d89828a01612921565b93505060808701356001600160401b03811115612ea957600080fd5b612eb589828a0161280a565b92505060a0612ec689828a01612a65565b9150509295509295509295565b600080600080600080600060e0888a031215612eee57600080fd5b87356001600160401b03811115612f0457600080fd5b612f108a828b01612867565b97505060208801356001600160401b03811115612f2c57600080fd5b612f388a828b016129df565b9650506040612f498a828b016126d9565b95505060608801356001600160401b03811115612f6557600080fd5b612f718a828b01612750565b94505060808801356001600160401b03811115612f8d57600080fd5b612f998a828b016126e4565b93505060a08801356001600160401b03811115612fb557600080fd5b612fc18a828b016129df565b92505060c08801356001600160401b03811115612fdd57600080fd5b612fe98a828b016129df565b91505092959891949750929550565b60006040828403121561300a57600080fd5b60006126b3848461297e565b60006020828403121561302857600080fd5b60006126b38484612a5a565b6000806020838503121561304757600080fd5b82356001600160401b0381111561305d57600080fd5b61306985828601612a70565b92509250509250929050565b60008060008060006080868803121561308d57600080fd5b85356001600160401b038111156130a357600080fd5b6130af88828901612a70565b955095505060206130c288828901612a4f565b93505060406130d388828901612a65565b92505060606130e488828901612a65565b9150509295509295909350565b60008060006040848603121561310657600080fd5b83356001600160401b0381111561311c57600080fd5b61312886828701612a70565b9350935050602061313b86828701612a65565b9150509250925092565b60008060008060006060868803121561315d57600080fd5b85356001600160401b0381111561317357600080fd5b61317f88828901612a70565b9550955050602061319288828901612a65565b93505060408601356001600160401b038111156131ae57600080fd5b6131ba88828901612a70565b92509250509295509295909350565b6000602082840312156131db57600080fd5b60006126b38484612ca8565b6000610c1683836133fb565b6000610c168383613c18565b6132088161423e565b82525050565b61320861321a8261421c565b614287565b6132088161421c565b60006132338261420a565b61323d818561420e565b93508360208202850161324f856141f8565b8060005b85811015613289578484038952815161326c85826131e7565b9450613277836141f8565b60209a909a0199925050600101613253565b5091979650505050505050565b60006132a18261420a565b6132ab818561420e565b9350836020820285016132bd856141f8565b8060005b8581101561328957848403895281516132da85826131e7565b94506132e5836141f8565b60209a909a01999250506001016132c1565b60006133028261420a565b61330c818561420e565b93508360208202850161331e856141f8565b8060005b85811015613289578484038952815161333b85826131f3565b9450613346836141f8565b60209a909a0199925050600101613322565b60006133638261420a565b61336d818561420e565b93508360208202850161337f856141f8565b8060005b85811015613289578484038952815161339c85826131f3565b94506133a7836141f8565b60209a909a0199925050600101613383565b61320881614227565b61320881610b9a565b6132086133d782610b9a565b610b9a565b60006133e88385614217565b93506133f583858461424f565b50500190565b60006134068261420a565b613410818561420e565b935061342081856020860161425b565b61342981614298565b9093019392505050565b600061343e8261420a565b6134488185614217565b935061345881856020860161425b565b9290920192915050565b600061346e838561420e565b935061347b83858461424f565b61342983614298565b6000815460018116600081146134a157600181146134c457613503565b607f60028304166134b28187614217565b60ff1984168152955085019250613503565b600282046134d28187614217565b95506134dd856141fe565b60005b828110156134fc578154888201526001909101906020016134e0565b5050850192505b505092915050565b6000613518601c8361420e565b7f496e76616c696420696e7075742063757272656e637920636f64652e00000000815260200192915050565b600061355160248361420e565b7f496e70757420616d6f756e74206d7573742062652067726561746572207468618152633710181760e11b602082015260400192915050565b6000613597601c83614217565b7f19457468657265756d205369676e6564204d6573736167653a0a3332000000008152601c0192915050565b60006135d060268361420e565b7f4f776e61626c653a206e6577206f776e657220697320746865207a65726f206181526564647265737360d01b602082015260400192915050565b6000613618602d8361420e565b7f417272617920706172616d657465727320617265206e6f7420616c6c2074686581526c1039b0b6b2903632b733ba341760991b602082015260400192915050565b600061366760348361420e565b7f52656465656d6564206d55534420616d6f756e74206e6f7420657175616c2074815273379034b7383aba1036aaa9a21030b6b7bab73a1760611b602082015260400192915050565b60006136bd60208361420e565b7f5361666545524332303a206c6f772d6c6576656c2063616c6c206661696c6564815260200192915050565b60006136f6605c8361420e565b7f4e6f203078206f726465727320737570706c69656420616e642065786368616e81527f6765206e6f7420737570706f7274656420766961206d537461626c6520666f7260208201527f206174206c65617374206f6e652063757272656e637920706169722e00000000604082015260600192915050565b600061377b60358361420e565b7f4c656e677468206f66206f726465727320616e64207369676e6174757265732081527430b93930bcb99036bab9ba1031329032b8bab0b61760591b602082015260400192915050565b60006137d260168361420e565b7527b93232b9399030b93930bc9034b99032b6b83a3c9760511b815260200192915050565b600061380460298361420e565b7f416c6c20696e70757420616d6f756e7473206d7573742062652067726561746581526839103a3430b710181760b91b602082015260400192915050565b600061384f60168361420e565b7524b73b30b634b21031bab93932b731bc9031b7b2329760511b815260200192915050565b6000613881601d8361420e565b7f496e76616c6964206f75747075742063757272656e637920636f64652e000000815260200192915050565b60006138ba60218361420e565b7f536166654d6174683a206d756c7469706c69636174696f6e206f766572666c6f8152607760f81b602082015260400192915050565b60006138fd60208361420e565b7f4f776e61626c653a2063616c6c6572206973206e6f7420746865206f776e6572815260200192915050565b600061393660548361420e565b7f46756e64206d616e6167657220636f6e7472616374206e6f74207365742e205481527f686973206d61792062652064756520746f20616e2075706772616465206f66206020820152733a3434b990383937bc3c9031b7b73a3930b1ba1760611b604082015260600192915050565b60006139b260248361420e565b7f47534e526563697069656e743a2063616c6c6572206973206e6f742052656c618152633ca43ab160e11b602082015260400192915050565b60006139f8602f8361420e565b7f496e70757420616e64206f75747075742063757272656e636965732063616e6e81526e37ba103132903a34329039b0b6b29760891b602082015260400192915050565b6000613a49602f8361420e565b7f54616b65722061737365742066696c6c20616d6f756e74206d7573742062652081526e33b932b0ba32b9103a3430b710181760891b602082015260400192915050565b6000613a9a602d8361420e565b7f4f6e65206f72206d6f726520696e7075742063757272656e637920636f64657381526c1030b9329034b73b30b634b21760991b602082015260400192915050565b6000613ae9602a8361420e565b7f5361666545524332303a204552433230206f7065726174696f6e20646964206e8152691bdd081cdd58d8d9595960b21b602082015260400192915050565b6000613b3560398361420e565b7f4c656e677468206f6620616c6c206f726465727320616e64207369676e61747581527f72657320617272617973206d75737420626520657175616c2e00000000000000602082015260400192915050565b6000613b9460368361420e565b7f5361666545524332303a20617070726f76652066726f6d206e6f6e2d7a65726f81527520746f206e6f6e2d7a65726f20616c6c6f77616e636560501b602082015260400192915050565b6000613bec601f8361420e565b7f5361666545524332303a2063616c6c20746f206e6f6e2d636f6e747261637400815260200192915050565b80516000906101c0840190613c2d858261321f565b506020830151613c40602086018261321f565b506040830151613c53604086018261321f565b506060830151613c66606086018261321f565b506080830151613c7960808601826133c2565b5060a0830151613c8c60a08601826133c2565b5060c0830151613c9f60c08601826133c2565b5060e0830151613cb260e08601826133c2565b50610100830151613cc76101008601826133c2565b50610120830151613cdc6101208601826133c2565b50610140830151848203610140860152613cf682826133fb565b915050610160830151848203610160860152613d1282826133fb565b915050610180830151848203610180860152613d2e82826133fb565b9150506101a08301518482036101a0860152613d4a82826133fb565b95945050505050565b61320881614238565b6000613d68828d61320e565b601482019150613d78828c61320e565b601482019150613d89828a8c6133dc565b9150613d9582896133cb565b602082019150613da582886133cb565b602082019150613db582876133cb565b602082019150613dc582866133cb565b602082019150613dd5828561320e565b601482019150613de5828461320e565b506014019a9950505050505050505050565b6000610c168284613433565b60006126b38284866133dc565b6000610c168284613484565b6000613e278261358a565b9150613e3382846133cb565b50602001919050565b60208101610527828461321f565b6020810161052782846131ff565b60608101613e6682876131ff565b8181036020830152613e79818587613462565b9050613d4a60408301846133c2565b60608101613e9682866131ff565b8181036020830152613ea881856133fb565b90506126b360408301846133c2565b60408101613ec5828561321f565b610c16602083018461321f565b60608101613ee0828661321f565b613eed602083018561321f565b6126b360408301846133c2565b60408101613f08828561321f565b610c1660208301846133c2565b60808082528101613f2681876132f7565b90508181036020830152613f3a8186613228565b9050613f4960408301856133c2565b613d4a60608301846133c2565b60808082528101613f678187613358565b90508181036020830152613f3a8186613296565b6020810161052782846133b9565b6020810161052782846133c2565b60808101613fa582876133c2565b613fb26020830186613d53565b613f4960408301856133c2565b60208082528101610c1681846133fb565b602080825281016105278161350b565b6020808252810161052781613544565b60208082528101610527816135c3565b602080825281016105278161360b565b602080825281016105278161365a565b60208082528101610527816136b0565b60208082528101610527816136e9565b602080825281016105278161376e565b60208082528101610527816137c5565b60208082528101610527816137f7565b6020808252810161052781613842565b6020808252810161052781613874565b60208082528101610527816138ad565b60208082528101610527816138f0565b6020808252810161052781613929565b60208082528101610527816139a5565b60208082528101610527816139eb565b6020808252810161052781613a3c565b6020808252810161052781613a8d565b6020808252810161052781613adc565b6020808252810161052781613b28565b6020808252810161052781613b87565b6020808252810161052781613bdf565b6040810161414e82856133c2565b81810360208301526126b381846133fb565b60408101613f0882856133c2565b6040518181016001600160401b038111828210171561418c57600080fd5b604052919050565b60006001600160401b038211156141aa57600080fd5b5060209081020190565b60006001600160401b038211156141ca57600080fd5b5060200290565b60006001600160401b038211156141e757600080fd5b506020601f91909101601f19160190565b60200190565b60009081526020902090565b5190565b90815260200190565b919050565b60006105278261422c565b151590565b6001600160a01b031690565b60ff1690565b60006105278260006105278261421c565b82818337506000910152565b60005b8381101561427657818101518382015260200161425e565b838111156122275750506000910152565b6000610527826000610527826142a2565b601f01601f191690565b60601b90565b6142b18161421c565b81146120bb57600080fd5b6142b181614227565b6142b181610b9a56fea365627a7a723158204b8bc5c96eb2e5db8608808ae9210d7b0406c1456d5e09efc299b18d152f8f2d6c6578706572696d656e74616cf564736f6c63430005110040",
  "source": "/**\r\n * COPYRIGHT  2020 RARI CAPITAL, INC. ALL RIGHTS RESERVED.\r\n * Anyone is free to integrate the public APIs (described in `API.md` of the `rari-contracts` package) of the official smart contract instances deployed by Rari Capital, Inc. in any application (commercial or noncommercial and under any license) benefitting Rari Capital, Inc.\r\n * Only those with explicit permission from a co-founder of Rari Capital (Jai Bhavnani, Jack Lipstone, or David Lucid) are permitted to study, review, or analyze any part of the source code contained in the `rari-contracts` package.\r\n * Reuse (including deployment of smart contracts other than private testing on a private network), modification, redistribution, or sublicensing of any source code contained in the `rari-contracts` package is not permitted without the explicit permission of David Lucid of Rari Capital, Inc.\r\n * No one is permitted to use the software for any purpose other than those allowed by this license.\r\n * This license is liable to change at any time at the sole discretion of David Lucid of Rari Capital, Inc.\r\n */\r\n\r\npragma solidity ^0.5.7;\r\npragma experimental ABIEncoderV2;\r\n\r\nimport \"@openzeppelin/contracts/math/SafeMath.sol\";\r\nimport \"@openzeppelin/contracts/drafts/SignedSafeMath.sol\";\r\nimport \"@openzeppelin/contracts/ownership/Ownable.sol\";\r\nimport \"@openzeppelin/contracts/token/ERC20/IERC20.sol\";\r\nimport \"@openzeppelin/contracts/token/ERC20/SafeERC20.sol\";\r\nimport \"@openzeppelin/contracts/GSN/GSNRecipient.sol\";\r\nimport \"@openzeppelin/contracts/cryptography/ECDSA.sol\";\r\n\r\nimport \"@0x/contracts-exchange-libs/contracts/src/LibOrder.sol\";\r\nimport \"@0x/contracts-erc20/contracts/src/interfaces/IEtherToken.sol\";\r\n\r\nimport \"./lib/exchanges/ZeroExExchangeController.sol\";\r\nimport \"./lib/exchanges/MStableExchangeController.sol\";\r\nimport \"./RariFundManager.sol\";\r\n\r\n/**\r\n * @title RariFundProxy\r\n * @author David Lucid <david@rari.capital> (https://github.com/davidlucid)\r\n * @notice This contract faciliates deposits to RariFundManager from exchanges and withdrawals from RariFundManager for exchanges.\r\n */\r\ncontract RariFundProxy is Ownable, GSNRecipient {\r\n    using SafeMath for uint256;\r\n    using SignedSafeMath for int256;\r\n    using ECDSA for bytes32;\r\n    using SafeERC20 for IERC20;\r\n\r\n    /**\r\n     * @notice Package version of `rari-contracts` when this contract was deployed.\r\n     */\r\n    string public constant VERSION = \"2.0.0\";\r\n\r\n    /**\r\n     * @dev Array of currencies supported by the fund.\r\n     */\r\n    string[] private _supportedCurrencies;\r\n\r\n    /**\r\n     * @dev Maps ERC20 token contract addresses to supported currency codes.\r\n     */\r\n    mapping(string => address) private _erc20Contracts;\r\n\r\n    /**\r\n     * @dev Maps decimal precisions (number of digits after the decimal point) to ERC20 token contract addresses.\r\n     */\r\n    mapping(address => uint256) private _erc20Decimals;\r\n\r\n    /**\r\n     * @dev Maps booleans indicating support for mStable mUSD minting and redeeming to ERC20 token contract addresses.\r\n     */\r\n    mapping(address => bool) private _mStableExchangeErc20Contracts;\r\n\r\n    /**\r\n     * @dev Constructor that sets supported ERC20 token contract addresses.\r\n     */\r\n    constructor () public {\r\n        // Add supported currencies\r\n        addSupportedCurrency(\"DAI\", 0x6B175474E89094C44Da98b954EedeAC495271d0F, 18);\r\n        addSupportedCurrency(\"USDC\", 0xA0b86991c6218b36c1d19D4a2e9Eb0cE3606eB48, 6);\r\n        addSupportedCurrency(\"USDT\", 0xdAC17F958D2ee523a2206206994597C13D831ec7, 6);\r\n        addSupportedCurrency(\"TUSD\", 0x0000000000085d4780B73119b644AE5ecd22b376, 18);\r\n        addSupportedCurrency(\"BUSD\", 0x4Fabb145d64652a948d72533023f6E7A623C7C53, 18);\r\n        addSupportedCurrency(\"sUSD\", 0x57Ab1ec28D129707052df4dF418D58a2D46d5f51, 18);\r\n        addSupportedCurrency(\"mUSD\", 0xe2f2a5C287993345a840Db3B0845fbC70f5935a5, 18);\r\n        addMStableExchangeErc20Contract(0x6B175474E89094C44Da98b954EedeAC495271d0F);\r\n        addMStableExchangeErc20Contract(0xA0b86991c6218b36c1d19D4a2e9Eb0cE3606eB48);\r\n        addMStableExchangeErc20Contract(0xdAC17F958D2ee523a2206206994597C13D831ec7);\r\n        addMStableExchangeErc20Contract(0x0000000000085d4780B73119b644AE5ecd22b376);\r\n    }\r\n\r\n    /**\r\n     * @dev Marks a token as supported by the fund, stores its decimal precision and ERC20 contract address, and approves the maximum amount to 0x.\r\n     * @param currencyCode The currency code of the token.\r\n     * @param erc20Contract The ERC20 contract address of the token.\r\n     * @param decimals The decimal precision (number of digits after the decimal point) of the token.\r\n     */\r\n    function addSupportedCurrency(string memory currencyCode, address erc20Contract, uint256 decimals) internal {\r\n        _supportedCurrencies.push(currencyCode);\r\n        _erc20Contracts[currencyCode] = erc20Contract;\r\n        _erc20Decimals[erc20Contract] = decimals;\r\n        ZeroExExchangeController.approve(erc20Contract, uint256(-1));\r\n    }\r\n\r\n    /**\r\n     * @dev Marks a token ERC20 contract address as supported by mStable, and approves the maximum amount to the mUSD token contract.\r\n     * @param erc20Contract The ERC20 contract address of the token.\r\n     */\r\n    function addMStableExchangeErc20Contract(address erc20Contract) internal {\r\n        _mStableExchangeErc20Contracts[erc20Contract] = true;\r\n        MStableExchangeController.approve(erc20Contract, uint256(-1));\r\n    }\r\n\r\n    /**\r\n     * @dev Address of the RariFundManager.\r\n     */\r\n    address private _rariFundManagerContract;\r\n\r\n    /**\r\n     * @dev Contract of the RariFundManager.\r\n     */\r\n    RariFundManager private _rariFundManager;\r\n\r\n    /**\r\n     * @dev Address of the trusted GSN signer.\r\n     */\r\n    address private _gsnTrustedSigner;\r\n\r\n    /**\r\n     * @dev Emitted when the RariFundManager of the RariFundProxy is set.\r\n     */\r\n    event FundManagerSet(address newContract);\r\n\r\n    /**\r\n     * @dev Sets or upgrades the RariFundManager of the RariFundProxy.\r\n     * @param newContract The address of the new RariFundManager contract.\r\n     */\r\n    function setFundManager(address newContract) external onlyOwner {\r\n        // Approve maximum output tokens to RariFundManager for deposit\r\n        for (uint256 i = 0; i < _supportedCurrencies.length; i++) {\r\n            IERC20 token = IERC20(_erc20Contracts[_supportedCurrencies[i]]);\r\n            if (_rariFundManagerContract != address(0)) token.safeApprove(_rariFundManagerContract, 0);\r\n            if (newContract != address(0)) token.safeApprove(newContract, uint256(-1));\r\n        }\r\n\r\n        _rariFundManagerContract = newContract;\r\n        _rariFundManager = RariFundManager(_rariFundManagerContract);\r\n        emit FundManagerSet(newContract);\r\n    }\r\n\r\n    address constant private WETH_CONTRACT = 0xC02aaA39b223FE8D0A0e5C4F27eAD9083C756Cc2;\r\n    IEtherToken constant private _weth = IEtherToken(WETH_CONTRACT);\r\n\r\n    /**\r\n     * @dev Emitted when the trusted GSN signer of the RariFundProxy is set.\r\n     */\r\n    event GsnTrustedSignerSet(address newAddress);\r\n\r\n    /**\r\n     * @dev Sets or upgrades the trusted GSN signer of the RariFundProxy.\r\n     * @param newAddress The Ethereum address of the new trusted GSN signer.\r\n     */\r\n    function setGsnTrustedSigner(address newAddress) external onlyOwner {\r\n        _gsnTrustedSigner = newAddress;\r\n        emit GsnTrustedSignerSet(newAddress);\r\n    }\r\n\r\n    /**\r\n     * @dev Payable fallback function called by 0x exchange to refund unspent protocol fee.\r\n     */\r\n    function () external payable { }\r\n\r\n    /**\r\n     * @dev Emitted when funds have been exchanged before being deposited via RariFundManager.\r\n     * If exchanging from ETH, `inputErc20Contract` = address(0).\r\n     */\r\n    event PreDepositExchange(address indexed inputErc20Contract, string indexed outputCurrencyCode, address indexed payee, uint256 makerAssetFilledAmount, uint256 depositAmount);\r\n\r\n    /**\r\n     * @dev Emitted when funds have been exchanged after being withdrawn via RariFundManager.\r\n     * If exchanging from ETH, `outputErc20Contract` = address(0).\r\n     */\r\n    event PostWithdrawalExchange(string indexed inputCurrencyCode, address indexed outputErc20Contract, address indexed payee, uint256 withdrawalAmount, uint256 takerAssetFilledAmount);\r\n\r\n    /**\r\n     * @notice Exchanges and deposits funds to RariFund in exchange for RFT (via 0x).\r\n     * You can retrieve orders from the 0x swap API (https://0x.org/docs/api#get-swapv0quote). See the web client for implementation.\r\n     * Please note that you must approve RariFundProxy to transfer at least `inputAmount` unless you are inputting ETH.\r\n     * You also must input at least enough ETH to cover the protocol fee (and enough to cover `orders` if you are inputting ETH).\r\n     * @dev We should be able to make this function external and use calldata for all parameters, but Solidity does not support calldata structs (https://github.com/ethereum/solidity/issues/5479).\r\n     * @param inputErc20Contract The ERC20 contract address of the token to be exchanged. Set to address(0) to input ETH.\r\n     * @param inputAmount The amount of tokens to be exchanged (including taker fees).\r\n     * @param outputCurrencyCode The currency code of the token to be deposited after exchange.\r\n     * @param orders The limit orders to be filled in ascending order of the price you pay.\r\n     * @param signatures The signatures for the orders.\r\n     * @param takerAssetFillAmount The amount of the taker asset to sell (excluding taker fees).\r\n     */\r\n    function exchangeAndDeposit(address inputErc20Contract, uint256 inputAmount, string memory outputCurrencyCode, LibOrder.Order[] memory orders, bytes[] memory signatures, uint256 takerAssetFillAmount) public payable {\r\n        // Input validation\r\n        require(_rariFundManagerContract != address(0), \"Fund manager contract not set. This may be due to an upgrade of this proxy contract.\");\r\n        require(inputAmount > 0, \"Input amount must be greater than 0.\");\r\n        address outputErc20Contract = _erc20Contracts[outputCurrencyCode];\r\n        require(outputErc20Contract != address(0), \"Invalid output currency code.\");\r\n        require(inputErc20Contract != outputErc20Contract, \"Input and output currencies cannot be the same.\");\r\n        require(orders.length > 0, \"Orders array is empty.\");\r\n        require(orders.length == signatures.length, \"Length of orders and signatures arrays must be equal.\");\r\n        require(takerAssetFillAmount > 0, \"Taker asset fill amount must be greater than 0.\");\r\n\r\n        if (inputErc20Contract == address(0)) {\r\n            // Wrap ETH\r\n            _weth.deposit.value(inputAmount)();\r\n        } else {\r\n            // Transfer input tokens from msg.sender if not inputting ETH\r\n            IERC20(inputErc20Contract).safeTransferFrom(msg.sender, address(this), inputAmount); // The user must approve the transfer of tokens beforehand\r\n        }\r\n\r\n        // Approve and exchange tokens\r\n        if (inputAmount > ZeroExExchangeController.allowance(inputErc20Contract == address(0) ? WETH_CONTRACT : inputErc20Contract)) ZeroExExchangeController.approve(inputErc20Contract == address(0) ? WETH_CONTRACT : inputErc20Contract, uint256(-1));\r\n        uint256[2] memory filledAmounts = ZeroExExchangeController.marketSellOrdersFillOrKill(orders, signatures, takerAssetFillAmount, inputErc20Contract == address(0) ? msg.value.sub(inputAmount) : msg.value);\r\n\r\n        if (inputErc20Contract == address(0)) {\r\n            // Unwrap unused ETH\r\n            uint256 wethBalance = _weth.balanceOf(address(this));\r\n            if (wethBalance > 0) _weth.withdraw(wethBalance);\r\n        } else {\r\n            // Refund unused input tokens\r\n            IERC20 inputToken = IERC20(inputErc20Contract);\r\n            uint256 inputTokenBalance = inputToken.balanceOf(address(this));\r\n            if (inputTokenBalance > 0) inputToken.safeTransfer(msg.sender, inputTokenBalance);\r\n        }\r\n\r\n        // Emit event\r\n        emit PreDepositExchange(inputErc20Contract, outputCurrencyCode, msg.sender, filledAmounts[0], filledAmounts[1]);\r\n\r\n        // Deposit output tokens\r\n        _rariFundManager.depositTo(msg.sender, outputCurrencyCode, filledAmounts[1]);\r\n\r\n        // Refund unused ETH\r\n        uint256 ethBalance = address(this).balance;\r\n        if (ethBalance > 0) msg.sender.transfer(ethBalance);\r\n    }\r\n\r\n    /**\r\n     * @notice Exchanges and deposits funds to RariFund in exchange for RFT (no slippage and low fees via mStable, but only supports DAI, USDC, USDT, TUSD, and mUSD).\r\n     * Please note that you must approve RariFundProxy to transfer at least `inputAmount`.\r\n     * @param inputCurrencyCode The currency code of the token to be exchanged.\r\n     * @param inputAmount The amount of tokens to be exchanged (including taker fees).\r\n     * @param outputCurrencyCode The currency code of the token to be deposited after exchange.\r\n     */\r\n    function exchangeAndDeposit(string calldata inputCurrencyCode, uint256 inputAmount, string calldata outputCurrencyCode) external payable {\r\n        // Input validation\r\n        require(_rariFundManagerContract != address(0), \"Fund manager contract not set. This may be due to an upgrade of this proxy contract.\");\r\n        require(inputAmount > 0, \"Input amount must be greater than 0.\");\r\n        address inputErc20Contract = _erc20Contracts[inputCurrencyCode];\r\n        require(_mStableExchangeErc20Contracts[inputErc20Contract] || inputErc20Contract == 0xe2f2a5C287993345a840Db3B0845fbC70f5935a5, \"Invalid input currency code.\");\r\n        address outputErc20Contract = _erc20Contracts[outputCurrencyCode];\r\n        require(_mStableExchangeErc20Contracts[outputErc20Contract] || outputErc20Contract == 0xe2f2a5C287993345a840Db3B0845fbC70f5935a5, \"Invalid input currency code.\");\r\n        require(inputErc20Contract != outputErc20Contract, \"Input and output currencies cannot be the same.\");\r\n\r\n        // Transfer input tokens from msg.sender\r\n        IERC20(inputErc20Contract).safeTransferFrom(msg.sender, address(this), inputAmount); // The user must approve the transfer of tokens beforehand\r\n\r\n        // Mint mUSD and redeem mUSD for output token\r\n        if (inputErc20Contract == 0xe2f2a5C287993345a840Db3B0845fbC70f5935a5) {\r\n            uint256 outputDecimals = _erc20Decimals[outputErc20Contract];\r\n            uint256 outputAmount = 18 >= outputDecimals ? inputAmount.div(10 ** (uint256(18).sub(outputDecimals))) : inputAmount.mul(10 ** (outputDecimals.sub(18)));\r\n            uint256 mUsdRedeemed = MStableExchangeController.redeem(outputErc20Contract, outputAmount);\r\n            require(inputAmount == mUsdRedeemed, \"Redeemed mUSD amount not equal to input mUSD amount.\");\r\n        } else if (outputErc20Contract == 0xe2f2a5C287993345a840Db3B0845fbC70f5935a5) MStableExchangeController.mint(inputErc20Contract, inputAmount);\r\n        else MStableExchangeController.swap(inputErc20Contract, outputErc20Contract, inputAmount);\r\n\r\n        // Get real output amount\r\n        uint256 realOutputAmount = IERC20(outputErc20Contract).balanceOf(address(this));\r\n\r\n        // Emit event\r\n        emit PreDepositExchange(inputErc20Contract, outputCurrencyCode, msg.sender, inputAmount, realOutputAmount);\r\n\r\n        // Deposit output tokens\r\n        _rariFundManager.depositTo(msg.sender, outputCurrencyCode, realOutputAmount);\r\n    }\r\n\r\n    /**\r\n     * @notice Withdraws funds from RariFund in exchange for RFT and exchanges to them to the desired currency (if no 0x orders are supplied, exchanges DAI, USDC, USDT, TUSD, and mUSD via mStable).\r\n     * You can retrieve orders from the 0x swap API (https://0x.org/docs/api#get-swapv0quote). See the web client for implementation.\r\n     * Please note that you must approve RariFundManager to burn of the necessary amount of RFT.\r\n     * You also must input at least enough ETH to cover the protocol fees.\r\n     * @dev We should be able to make this function external and use calldata for all parameters, but Solidity does not support calldata structs (https://github.com/ethereum/solidity/issues/5479).\r\n     * @param inputCurrencyCodes The currency codes of the tokens to be withdrawn and exchanged.\r\n     * @param inputAmounts The amounts of tokens to be withdrawn and exchanged (including taker fees).\r\n     * @param outputErc20Contract The ERC20 contract address of the token to be outputted by the exchange. Set to address(0) to output ETH.\r\n     * @param orders The limit orders to be filled in ascending order of the price you pay.\r\n     * @param signatures The signatures for the orders.\r\n     * @param makerAssetFillAmounts The amounts of the maker assets to buy.\r\n     * @param protocolFees The protocol fees to pay to 0x in ETH for each order.\r\n     */\r\n    function withdrawAndExchange(string[] memory inputCurrencyCodes, uint256[] memory inputAmounts, address outputErc20Contract, LibOrder.Order[][] memory orders, bytes[][] memory signatures, uint256[] memory makerAssetFillAmounts, uint256[] memory protocolFees) public payable {\r\n        // Input validation\r\n        require(_rariFundManagerContract != address(0), \"Fund manager contract not set. This may be due to an upgrade of this proxy contract.\");\r\n        require(inputCurrencyCodes.length == inputAmounts.length && inputCurrencyCodes.length == orders.length && inputCurrencyCodes.length == signatures.length && inputCurrencyCodes.length == makerAssetFillAmounts.length && inputCurrencyCodes.length == protocolFees.length, \"Array parameters are not all the same length.\");\r\n\r\n        // For each input currency\r\n        for (uint256 i = 0; i < inputCurrencyCodes.length; i++) {\r\n            address inputErc20Contract = _erc20Contracts[inputCurrencyCodes[i]];\r\n            require(inputErc20Contract != address(0), \"One or more input currency codes are invalid.\");\r\n            require(inputAmounts[i] > 0, \"All input amounts must be greater than 0.\");\r\n\r\n            // Withdraw input tokens\r\n            _rariFundManager.withdrawFrom(msg.sender, inputCurrencyCodes[i], inputAmounts[i]);\r\n\r\n            if (inputErc20Contract != outputErc20Contract) {\r\n                // Exchange input tokens for output tokens\r\n                if (orders[i].length > 0 && signatures[i].length > 0 && makerAssetFillAmounts[i] > 0) {\r\n                    // Input validation\r\n                    require(orders.length == signatures.length, \"Length of all orders and signatures arrays must be equal.\");\r\n\r\n                    // Exchange tokens and emit event\r\n                    uint256[2] memory filledAmounts = ZeroExExchangeController.marketBuyOrdersFillOrKill(orders[i], signatures[i], makerAssetFillAmounts[i], protocolFees[i]);\r\n                    emit PostWithdrawalExchange(inputCurrencyCodes[i], outputErc20Contract, msg.sender, inputAmounts[i], filledAmounts[1]);\r\n                } else if ((_mStableExchangeErc20Contracts[inputErc20Contract] || inputErc20Contract == 0xe2f2a5C287993345a840Db3B0845fbC70f5935a5) && (_mStableExchangeErc20Contracts[outputErc20Contract] || outputErc20Contract == 0xe2f2a5C287993345a840Db3B0845fbC70f5935a5)) {\r\n                    // Mint, redeem, or swap via mUSD\r\n                    uint256 realOutputAmount;\r\n\r\n                    if (inputErc20Contract == 0xe2f2a5C287993345a840Db3B0845fbC70f5935a5) {\r\n                        uint256 outputDecimals = _erc20Decimals[outputErc20Contract];\r\n                        uint256 outputAmount = 18 >= outputDecimals ? inputAmounts[i].div(10 ** (uint256(18).sub(outputDecimals))) : inputAmounts[i].mul(10 ** (outputDecimals.sub(18)));\r\n                        uint256 mUsdRedeemed = MStableExchangeController.redeem(outputErc20Contract, outputAmount);\r\n                        require(inputAmounts[i] == mUsdRedeemed, \"Redeemed mUSD amount not equal to input mUSD amount.\");\r\n                        realOutputAmount = outputAmount.sub(outputAmount.mul(MStableExchangeController.getSwapFee()).div(1e18));\r\n                    } else if (outputErc20Contract == 0xe2f2a5C287993345a840Db3B0845fbC70f5935a5) {\r\n                        realOutputAmount = MStableExchangeController.mint(inputErc20Contract, inputAmounts[i]);\r\n                    } else {\r\n                        uint256 outputAmount = MStableExchangeController.swap(inputErc20Contract, outputErc20Contract, inputAmounts[i]);\r\n                        realOutputAmount = outputAmount.sub(outputAmount.mul(MStableExchangeController.getSwapFee()).div(1e18));\r\n                    }\r\n\r\n                    emit PostWithdrawalExchange(inputCurrencyCodes[i], outputErc20Contract, msg.sender, inputAmounts[i], realOutputAmount);\r\n                } else revert(\"No 0x orders supplied and exchange not supported via mStable for at least one currency pair.\");\r\n            }\r\n        }\r\n\r\n        if (outputErc20Contract == address(0)) {\r\n            // Unwrap WETH if output currency is ETH\r\n            uint256 wethBalance = _weth.balanceOf(address(this));\r\n            _weth.withdraw(wethBalance);\r\n        } else {\r\n            // Forward tokens if output currency is a token\r\n            IERC20 outputToken = IERC20(outputErc20Contract);\r\n            uint256 outputTokenBalance = outputToken.balanceOf(address(this));\r\n            if (outputTokenBalance > 0) outputToken.safeTransfer(msg.sender, outputTokenBalance);\r\n        }\r\n\r\n        // Forward all ETH\r\n        uint256 ethBalance = address(this).balance;\r\n        if (ethBalance > 0) msg.sender.transfer(ethBalance);\r\n    }\r\n\r\n    /**\r\n     * @notice Deposits funds to RariFund in exchange for RFT (with GSN support).\r\n     * You may only deposit currencies accepted by the fund (see `RariFundManager.isCurrencyAccepted(string currencyCode)`).\r\n     * Please note that you must approve RariFundProxy to transfer at least `amount`.\r\n     * @param currencyCode The currency code of the token to be deposited.\r\n     * @param amount The amount of tokens to be deposited.\r\n     */\r\n    function deposit(string calldata currencyCode, uint256 amount) external {\r\n        address erc20Contract = _erc20Contracts[currencyCode];\r\n        require(erc20Contract != address(0), \"Invalid currency code.\");\r\n        IERC20(erc20Contract).safeTransferFrom(_msgSender(), address(this), amount); // The user must approve the transfer of tokens beforehand\r\n        _rariFundManager.depositTo(_msgSender(), currencyCode, amount);\r\n    }\r\n\r\n    /**\r\n     * @dev Ensures that only transactions with a trusted signature can be relayed through the GSN.\r\n     */\r\n    function acceptRelayedCall(\r\n        address relay,\r\n        address from,\r\n        bytes calldata encodedFunction,\r\n        uint256 transactionFee,\r\n        uint256 gasPrice,\r\n        uint256 gasLimit,\r\n        uint256 nonce,\r\n        bytes calldata approvalData,\r\n        uint256\r\n    ) external view returns (uint256, bytes memory) {\r\n        bytes memory blob = abi.encodePacked(\r\n            relay,\r\n            from,\r\n            encodedFunction,\r\n            transactionFee,\r\n            gasPrice,\r\n            gasLimit,\r\n            nonce, // Prevents replays on RelayHub\r\n            getHubAddr(), // Prevents replays in multiple RelayHubs\r\n            address(this) // Prevents replays in multiple recipients\r\n        );\r\n        if (keccak256(blob).toEthSignedMessageHash().recover(approvalData) != _gsnTrustedSigner) return _rejectRelayedCall(0);\r\n        if (_gsnTrustedSigner == address(0)) return _rejectRelayedCall(1);\r\n        return _approveRelayedCall();\r\n    }\r\n\r\n    /**\r\n     * @dev Code executed before processing a call relayed through the GSN.\r\n     */\r\n    function _preRelayedCall(bytes memory) internal returns (bytes32) {\r\n        // solhint-disable-previous-line no-empty-blocks\r\n    }\r\n\r\n    /**\r\n     * @dev Code executed after processing a call relayed through the GSN.\r\n     */\r\n    function _postRelayedCall(bytes memory, bool, uint256, bytes32) internal {\r\n        // solhint-disable-previous-line no-empty-blocks\r\n    }\r\n\r\n    /**\r\n     * @dev Forwards tokens lost in the fund proxy (in case of accidental transfer of funds to this contract).\r\n     * @param erc20Contract The ERC20 contract address of the token to forward.\r\n     * @param to The destination address to which the funds will be forwarded.\r\n     * @return Boolean indicating success.\r\n     */\r\n    function forwardLostFunds(address erc20Contract, address to) external onlyOwner returns (bool) {\r\n        IERC20 token = IERC20(erc20Contract);\r\n        uint256 balance = token.balanceOf(address(this));\r\n        if (balance <= 0) return false;\r\n        token.safeTransfer(to, balance);\r\n        return true;\r\n    }\r\n}\r\n",
  "sourcePath": "/home/david/rari-contracts-mstable/contracts/RariFundProxy.sol",
  "compiler": {
    "name": "solc",
    "version": "0.5.17+commit.d19bba13.Emscripten.clang"
  },
  "schemaVersion": "3.2.3",
  "updatedAt": "2020-09-03T21:18:00.911Z",
  "networkType": "ethereum",
  "devdoc": {
    "author": "David Lucid <david@rari.capital> (https://github.com/davidlucid)",
    "methods": {
      "acceptRelayedCall(address,address,bytes,uint256,uint256,uint256,uint256,bytes,uint256)": {
        "details": "Ensures that only transactions with a trusted signature can be relayed through the GSN."
      },
      "constructor": {
        "details": "Constructor that sets supported ERC20 token contract addresses."
      },
      "deposit(string,uint256)": {
        "params": {
          "amount": "The amount of tokens to be deposited.",
          "currencyCode": "The currency code of the token to be deposited."
        }
      },
      "exchangeAndDeposit(address,uint256,string,(address,address,address,address,uint256,uint256,uint256,uint256,uint256,uint256,bytes,bytes,bytes,bytes)[],bytes[],uint256)": {
        "details": "We should be able to make this function external and use calldata for all parameters, but Solidity does not support calldata structs (https://github.com/ethereum/solidity/issues/5479).",
        "params": {
          "inputAmount": "The amount of tokens to be exchanged (including taker fees).",
          "inputErc20Contract": "The ERC20 contract address of the token to be exchanged. Set to address(0) to input ETH.",
          "orders": "The limit orders to be filled in ascending order of the price you pay.",
          "outputCurrencyCode": "The currency code of the token to be deposited after exchange.",
          "signatures": "The signatures for the orders.",
          "takerAssetFillAmount": "The amount of the taker asset to sell (excluding taker fees)."
        }
      },
      "exchangeAndDeposit(string,uint256,string)": {
        "params": {
          "inputAmount": "The amount of tokens to be exchanged (including taker fees).",
          "inputCurrencyCode": "The currency code of the token to be exchanged.",
          "outputCurrencyCode": "The currency code of the token to be deposited after exchange."
        }
      },
      "forwardLostFunds(address,address)": {
        "details": "Forwards tokens lost in the fund proxy (in case of accidental transfer of funds to this contract).",
        "params": {
          "erc20Contract": "The ERC20 contract address of the token to forward.",
          "to": "The destination address to which the funds will be forwarded."
        },
        "return": "Boolean indicating success."
      },
      "getHubAddr()": {
        "details": "Returns the address of the {IRelayHub} contract for this recipient."
      },
      "isOwner()": {
        "details": "Returns true if the caller is the current owner."
      },
      "owner()": {
        "details": "Returns the address of the current owner."
      },
      "postRelayedCall(bytes,bool,uint256,bytes32)": {
        "details": "See `IRelayRecipient.postRelayedCall`.     * This function should not be overriden directly, use `_postRelayedCall` instead.     * * Requirements:     * - the caller must be the `RelayHub` contract."
      },
      "preRelayedCall(bytes)": {
        "details": "See `IRelayRecipient.preRelayedCall`.     * This function should not be overriden directly, use `_preRelayedCall` instead.     * * Requirements:     * - the caller must be the `RelayHub` contract."
      },
      "relayHubVersion()": {
        "details": "Returns the version string of the {IRelayHub} for which this recipient implementation was built. If {_upgradeRelayHub} is used, the new {IRelayHub} instance should be compatible with this version."
      },
      "renounceOwnership()": {
        "details": "Leaves the contract without owner. It will not be possible to call `onlyOwner` functions anymore. Can only be called by the current owner.     * NOTE: Renouncing ownership will leave the contract without an owner, thereby removing any functionality that is only available to the owner."
      },
      "setFundManager(address)": {
        "details": "Sets or upgrades the RariFundManager of the RariFundProxy.",
        "params": {
          "newContract": "The address of the new RariFundManager contract."
        }
      },
      "setGsnTrustedSigner(address)": {
        "details": "Sets or upgrades the trusted GSN signer of the RariFundProxy.",
        "params": {
          "newAddress": "The Ethereum address of the new trusted GSN signer."
        }
      },
      "transferOwnership(address)": {
        "details": "Transfers ownership of the contract to a new account (`newOwner`). Can only be called by the current owner."
      },
      "withdrawAndExchange(string[],uint256[],address,(address,address,address,address,uint256,uint256,uint256,uint256,uint256,uint256,bytes,bytes,bytes,bytes)[][],bytes[][],uint256[],uint256[])": {
        "details": "We should be able to make this function external and use calldata for all parameters, but Solidity does not support calldata structs (https://github.com/ethereum/solidity/issues/5479).",
        "params": {
          "inputAmounts": "The amounts of tokens to be withdrawn and exchanged (including taker fees).",
          "inputCurrencyCodes": "The currency codes of the tokens to be withdrawn and exchanged.",
          "makerAssetFillAmounts": "The amounts of the maker assets to buy.",
          "orders": "The limit orders to be filled in ascending order of the price you pay.",
          "outputErc20Contract": "The ERC20 contract address of the token to be outputted by the exchange. Set to address(0) to output ETH.",
          "protocolFees": "The protocol fees to pay to 0x in ETH for each order.",
          "signatures": "The signatures for the orders."
        }
      }
    },
    "title": "RariFundProxy"
  },
  "userdoc": {
    "methods": {
      "deposit(string,uint256)": {
        "notice": "Deposits funds to RariFund in exchange for RFT (with GSN support). You may only deposit currencies accepted by the fund (see `RariFundManager.isCurrencyAccepted(string currencyCode)`). Please note that you must approve RariFundProxy to transfer at least `amount`."
      },
      "exchangeAndDeposit(address,uint256,string,(address,address,address,address,uint256,uint256,uint256,uint256,uint256,uint256,bytes,bytes,bytes,bytes)[],bytes[],uint256)": {
        "notice": "Exchanges and deposits funds to RariFund in exchange for RFT (via 0x). You can retrieve orders from the 0x swap API (https://0x.org/docs/api#get-swapv0quote). See the web client for implementation. Please note that you must approve RariFundProxy to transfer at least `inputAmount` unless you are inputting ETH. You also must input at least enough ETH to cover the protocol fee (and enough to cover `orders` if you are inputting ETH)."
      },
      "exchangeAndDeposit(string,uint256,string)": {
        "notice": "Exchanges and deposits funds to RariFund in exchange for RFT (no slippage and low fees via mStable, but only supports DAI, USDC, USDT, TUSD, and mUSD). Please note that you must approve RariFundProxy to transfer at least `inputAmount`."
      },
      "withdrawAndExchange(string[],uint256[],address,(address,address,address,address,uint256,uint256,uint256,uint256,uint256,uint256,bytes,bytes,bytes,bytes)[][],bytes[][],uint256[],uint256[])": {
        "notice": "Withdraws funds from RariFund in exchange for RFT and exchanges to them to the desired currency (if no 0x orders are supplied, exchanges DAI, USDC, USDT, TUSD, and mUSD via mStable). You can retrieve orders from the 0x swap API (https://0x.org/docs/api#get-swapv0quote). See the web client for implementation. Please note that you must approve RariFundManager to burn of the necessary amount of RFT. You also must input at least enough ETH to cover the protocol fees."
      }
    },
    "notice": "This contract faciliates deposits to RariFundManager from exchanges and withdrawals from RariFundManager for exchanges."
  }
}