{
  "contractName": "RariFundController",
  "abi": [
    {
      "inputs": [],
      "payable": false,
      "stateMutability": "nonpayable",
      "type": "constructor"
    },
    {
      "anonymous": false,
      "inputs": [],
      "name": "FundDisabled",
      "type": "event"
    },
    {
      "anonymous": false,
      "inputs": [],
      "name": "FundEnabled",
      "type": "event"
    },
    {
      "anonymous": false,
      "inputs": [
        {
          "indexed": false,
          "internalType": "address",
          "name": "newAddress",
          "type": "address"
        }
      ],
      "name": "FundManagerSet",
      "type": "event"
    },
    {
      "anonymous": false,
      "inputs": [
        {
          "indexed": false,
          "internalType": "address",
          "name": "newAddress",
          "type": "address"
        }
      ],
      "name": "FundRebalancerSet",
      "type": "event"
    },
    {
      "anonymous": false,
      "inputs": [
        {
          "indexed": true,
          "internalType": "address",
          "name": "previousOwner",
          "type": "address"
        },
        {
          "indexed": true,
          "internalType": "address",
          "name": "newOwner",
          "type": "address"
        }
      ],
      "name": "OwnershipTransferred",
      "type": "event"
    },
    {
      "payable": true,
      "stateMutability": "payable",
      "type": "fallback"
    },
    {
      "constant": true,
      "inputs": [],
      "name": "isOwner",
      "outputs": [
        {
          "internalType": "bool",
          "name": "",
          "type": "bool"
        }
      ],
      "payable": false,
      "stateMutability": "view",
      "type": "function"
    },
    {
      "constant": true,
      "inputs": [],
      "name": "owner",
      "outputs": [
        {
          "internalType": "address",
          "name": "",
          "type": "address"
        }
      ],
      "payable": false,
      "stateMutability": "view",
      "type": "function"
    },
    {
      "constant": false,
      "inputs": [],
      "name": "renounceOwnership",
      "outputs": [],
      "payable": false,
      "stateMutability": "nonpayable",
      "type": "function"
    },
    {
      "constant": false,
      "inputs": [
        {
          "internalType": "address",
          "name": "newOwner",
          "type": "address"
        }
      ],
      "name": "transferOwnership",
      "outputs": [],
      "payable": false,
      "stateMutability": "nonpayable",
      "type": "function"
    },
    {
      "constant": false,
      "inputs": [
        {
          "internalType": "address",
          "name": "newContract",
          "type": "address"
        }
      ],
      "name": "setFundManager",
      "outputs": [],
      "payable": false,
      "stateMutability": "nonpayable",
      "type": "function"
    },
    {
      "constant": false,
      "inputs": [
        {
          "internalType": "address",
          "name": "newAddress",
          "type": "address"
        }
      ],
      "name": "setFundRebalancer",
      "outputs": [],
      "payable": false,
      "stateMutability": "nonpayable",
      "type": "function"
    },
    {
      "constant": false,
      "inputs": [],
      "name": "disableFund",
      "outputs": [],
      "payable": false,
      "stateMutability": "nonpayable",
      "type": "function"
    },
    {
      "constant": false,
      "inputs": [],
      "name": "enableFund",
      "outputs": [],
      "payable": false,
      "stateMutability": "nonpayable",
      "type": "function"
    },
    {
      "constant": true,
      "inputs": [],
      "name": "getDydxBalances",
      "outputs": [
        {
          "internalType": "address[]",
          "name": "",
          "type": "address[]"
        },
        {
          "internalType": "uint256[]",
          "name": "",
          "type": "uint256[]"
        }
      ],
      "payable": false,
      "stateMutability": "view",
      "type": "function"
    },
    {
      "constant": false,
      "inputs": [
        {
          "internalType": "uint8",
          "name": "pool",
          "type": "uint8"
        },
        {
          "internalType": "string",
          "name": "currencyCode",
          "type": "string"
        }
      ],
      "name": "_getPoolBalance",
      "outputs": [
        {
          "internalType": "uint256",
          "name": "",
          "type": "uint256"
        }
      ],
      "payable": false,
      "stateMutability": "nonpayable",
      "type": "function"
    },
    {
      "constant": false,
      "inputs": [
        {
          "internalType": "uint8",
          "name": "pool",
          "type": "uint8"
        },
        {
          "internalType": "string",
          "name": "currencyCode",
          "type": "string"
        }
      ],
      "name": "getPoolBalance",
      "outputs": [
        {
          "internalType": "uint256",
          "name": "",
          "type": "uint256"
        }
      ],
      "payable": false,
      "stateMutability": "nonpayable",
      "type": "function"
    },
    {
      "constant": false,
      "inputs": [
        {
          "internalType": "string",
          "name": "currencyCode",
          "type": "string"
        }
      ],
      "name": "getPoolBalances",
      "outputs": [
        {
          "internalType": "uint8[]",
          "name": "",
          "type": "uint8[]"
        },
        {
          "internalType": "uint256[]",
          "name": "",
          "type": "uint256[]"
        }
      ],
      "payable": false,
      "stateMutability": "nonpayable",
      "type": "function"
    },
    {
      "constant": false,
      "inputs": [
        {
          "internalType": "uint8",
          "name": "pool",
          "type": "uint8"
        },
        {
          "internalType": "string",
          "name": "currencyCode",
          "type": "string"
        },
        {
          "internalType": "uint256",
          "name": "amount",
          "type": "uint256"
        }
      ],
      "name": "approveToPool",
      "outputs": [
        {
          "internalType": "bool",
          "name": "",
          "type": "bool"
        }
      ],
      "payable": false,
      "stateMutability": "nonpayable",
      "type": "function"
    },
    {
      "constant": true,
      "inputs": [
        {
          "internalType": "uint8",
          "name": "pool",
          "type": "uint8"
        },
        {
          "internalType": "string",
          "name": "currencyCode",
          "type": "string"
        }
      ],
      "name": "hasCurrencyInPool",
      "outputs": [
        {
          "internalType": "bool",
          "name": "",
          "type": "bool"
        }
      ],
      "payable": false,
      "stateMutability": "view",
      "type": "function"
    },
    {
      "constant": false,
      "inputs": [
        {
          "internalType": "uint8",
          "name": "pool",
          "type": "uint8"
        },
        {
          "internalType": "string",
          "name": "currencyCode",
          "type": "string"
        },
        {
          "internalType": "uint256",
          "name": "amount",
          "type": "uint256"
        }
      ],
      "name": "depositToPool",
      "outputs": [
        {
          "internalType": "bool",
          "name": "",
          "type": "bool"
        }
      ],
      "payable": false,
      "stateMutability": "nonpayable",
      "type": "function"
    },
    {
      "constant": false,
      "inputs": [
        {
          "internalType": "uint8",
          "name": "pool",
          "type": "uint8"
        },
        {
          "internalType": "string",
          "name": "currencyCode",
          "type": "string"
        },
        {
          "internalType": "uint256",
          "name": "amount",
          "type": "uint256"
        }
      ],
      "name": "withdrawFromPool",
      "outputs": [
        {
          "internalType": "bool",
          "name": "",
          "type": "bool"
        }
      ],
      "payable": false,
      "stateMutability": "nonpayable",
      "type": "function"
    },
    {
      "constant": false,
      "inputs": [
        {
          "internalType": "uint8",
          "name": "pool",
          "type": "uint8"
        },
        {
          "internalType": "string",
          "name": "currencyCode",
          "type": "string"
        },
        {
          "internalType": "uint256",
          "name": "amount",
          "type": "uint256"
        },
        {
          "internalType": "uint256",
          "name": "initialBalance",
          "type": "uint256"
        }
      ],
      "name": "withdrawFromPoolKnowingBalance",
      "outputs": [
        {
          "internalType": "bool",
          "name": "",
          "type": "bool"
        }
      ],
      "payable": false,
      "stateMutability": "nonpayable",
      "type": "function"
    },
    {
      "constant": false,
      "inputs": [
        {
          "internalType": "uint8",
          "name": "pool",
          "type": "uint8"
        },
        {
          "internalType": "string",
          "name": "currencyCode",
          "type": "string"
        }
      ],
      "name": "withdrawAllFromPool",
      "outputs": [
        {
          "internalType": "bool",
          "name": "",
          "type": "bool"
        }
      ],
      "payable": false,
      "stateMutability": "nonpayable",
      "type": "function"
    },
    {
      "constant": false,
      "inputs": [
        {
          "internalType": "uint8",
          "name": "pool",
          "type": "uint8"
        },
        {
          "internalType": "string",
          "name": "currencyCode",
          "type": "string"
        }
      ],
      "name": "withdrawAllFromPoolOnUpgrade",
      "outputs": [
        {
          "internalType": "bool",
          "name": "",
          "type": "bool"
        }
      ],
      "payable": false,
      "stateMutability": "nonpayable",
      "type": "function"
    },
    {
      "constant": false,
      "inputs": [
        {
          "internalType": "address",
          "name": "erc20Contract",
          "type": "address"
        },
        {
          "internalType": "uint256",
          "name": "amount",
          "type": "uint256"
        }
      ],
      "name": "approveTo0x",
      "outputs": [
        {
          "internalType": "bool",
          "name": "",
          "type": "bool"
        }
      ],
      "payable": false,
      "stateMutability": "nonpayable",
      "type": "function"
    },
    {
      "constant": false,
      "inputs": [
        {
          "components": [
            {
              "internalType": "address",
              "name": "makerAddress",
              "type": "address"
            },
            {
              "internalType": "address",
              "name": "takerAddress",
              "type": "address"
            },
            {
              "internalType": "address",
              "name": "feeRecipientAddress",
              "type": "address"
            },
            {
              "internalType": "address",
              "name": "senderAddress",
              "type": "address"
            },
            {
              "internalType": "uint256",
              "name": "makerAssetAmount",
              "type": "uint256"
            },
            {
              "internalType": "uint256",
              "name": "takerAssetAmount",
              "type": "uint256"
            },
            {
              "internalType": "uint256",
              "name": "makerFee",
              "type": "uint256"
            },
            {
              "internalType": "uint256",
              "name": "takerFee",
              "type": "uint256"
            },
            {
              "internalType": "uint256",
              "name": "expirationTimeSeconds",
              "type": "uint256"
            },
            {
              "internalType": "uint256",
              "name": "salt",
              "type": "uint256"
            },
            {
              "internalType": "bytes",
              "name": "makerAssetData",
              "type": "bytes"
            },
            {
              "internalType": "bytes",
              "name": "takerAssetData",
              "type": "bytes"
            },
            {
              "internalType": "bytes",
              "name": "makerFeeAssetData",
              "type": "bytes"
            },
            {
              "internalType": "bytes",
              "name": "takerFeeAssetData",
              "type": "bytes"
            }
          ],
          "internalType": "struct LibOrder.Order[]",
          "name": "orders",
          "type": "tuple[]"
        },
        {
          "internalType": "bytes[]",
          "name": "signatures",
          "type": "bytes[]"
        },
        {
          "internalType": "uint256",
          "name": "takerAssetFillAmount",
          "type": "uint256"
        }
      ],
      "name": "marketSell0xOrdersFillOrKill",
      "outputs": [
        {
          "internalType": "bool",
          "name": "",
          "type": "bool"
        }
      ],
      "payable": true,
      "stateMutability": "payable",
      "type": "function"
    }
  ],
  "bytecode": "0x60806040523480156200001157600080fd5b506000620000276001600160e01b036200023516565b600080546001600160a01b0319166001600160a01b0383169081178255604051929350917f8be0079c531659141344cd1fd0a4f28419497f9722a3daafe3b4186f6b6457e0908290a35060408051808201909152600381526244414960e81b6020820152620000b490736b175474e89094c44da98b954eedeac495271d0f6001600160e01b036200023a16565b60408051808201909152600381526244414960e81b6020820152620000e49060006001600160e01b03620002c816565b60408051808201909152600381526244414960e81b6020820152620001149060016001600160e01b03620002c816565b6040805180820190915260048152635553444360e01b6020820152620001589073a0b86991c6218b36c1d19d4a2e9eb0ce3606eb486001600160e01b036200023a16565b6040805180820190915260048152635553444360e01b6020820152620001899060006001600160e01b03620002c816565b6040805180820190915260048152635553444360e01b6020820152620001ba9060016001600160e01b03620002c816565b6040805180820190915260048152631554d11560e21b6020820152620001fe9073dac17f958d2ee523a2206206994597c13d831ec76001600160e01b036200023a16565b6040805180820190915260048152631554d11560e21b60208201526200022f9060016001600160e01b03620002c816565b6200044e565b335b90565b6003805460018101808355600092909252835162000280917fc2575a0e9e593c00f959f8c92f12db2869c3395a3b0502d05e2516446f71f85b0190602086019062000326565b505080600483604051620002959190620003fd565b90815260405190819003602001902080546001600160a01b03929092166001600160a01b03199092169190911790555050565b600582604051620002da9190620003fd565b9081526040516020918190038201902080546001810182556000918252908290209181049091018054601f9092166101000a60ff81810219909316939092169190910291909117905550565b828054600181600116156101000203166002900490600052602060002090601f016020900481019282601f106200036957805160ff191683800117855562000399565b8280016001018555821562000399579182015b82811115620003995782518255916020019190600101906200037c565b50620003a7929150620003ab565b5090565b6200023791905b80821115620003a75760008155600101620003b2565b6000620003d58262000412565b620003e1818562000416565b9350620003f38185602086016200041b565b9290920192915050565b60006200040b8284620003c8565b9392505050565b5190565b919050565b60005b83811015620004385781810151838201526020016200041e565b8381111562000448576000848401525b50505050565b6144fe806200045e6000396000f3fe60806040526004361061012a5760003560e01c8063715018a6116100ab5780639f39de061161006f5780639f39de0614610314578063a906558114610334578063d42ec3fe14610354578063e3b62e3014610374578063f2fde38b14610394578063f3b43386146103b45761012a565b8063715018a6146102955780637bdee09c146102aa5780638da5cb5b146102bd5780638f32d59b146102df5780638fe6b38d146102f45761012a565b8063516fb422116100f2578063516fb422146101f357806357582d38146102205780635bb2860a1461024057806365df291814610260578063670c61a2146102755761012a565b806308035dfd1461012c5780630e04073914610162578063232a3060146101825780632afcef9e146101a25780633dbc063d146101d0575b005b34801561013857600080fd5b5061014c610147366004613044565b6103c9565b6040516101599190614112565b60405180910390f35b34801561016e57600080fd5b5061014c61017d366004612fdb565b6104bf565b34801561018e57600080fd5b5061012a61019d366004612d92565b6105e7565b3480156101ae57600080fd5b506101c26101bd366004612f09565b610712565b604051610159929190614101565b3480156101dc57600080fd5b506101e5610928565b604051610159929190614085565b3480156101ff57600080fd5b5061021361020e3660046130c1565b61093b565b604051610159919061432f565b34801561022c57600080fd5b5061014c61023b366004612f86565b6109d2565b34801561024c57600080fd5b5061014c61025b366004612fdb565b610b24565b34801561026c57600080fd5b5061012a610c2a565b34801561028157600080fd5b5061014c610290366004612f86565b610cad565b3480156102a157600080fd5b5061012a610cda565b61014c6102b8366004612e7b565b610d48565b3480156102c957600080fd5b506102d2610deb565b6040516101599190614041565b3480156102eb57600080fd5b5061014c610dfa565b34801561030057600080fd5b5061014c61030f366004612db0565b610e1e565b34801561032057600080fd5b5061021361032f3660046130c1565b610ea2565b34801561034057600080fd5b5061012a61034f366004612d92565b610eec565b34801561036057600080fd5b5061014c61036f366004612fdb565b610f5b565b34801561038057600080fd5b5061014c61038f366004612f86565b6110b3565b3480156103a057600080fd5b5061012a6103af366004612d92565b6110f1565b3480156103c057600080fd5b5061012a611121565b60008054600160a01b900460ff16156103fd5760405162461bcd60e51b81526004016103f490614151565b60405180910390fd5b6001546001600160a01b031633146104275760405162461bcd60e51b81526004016103f4906141e1565b6104698686868080601f0160208091040260200160405190810160405280939291908181526020018383808284376000920191909152508892506111ab915050565b818314156104b357600060068686604051610485929190614028565b908152604080516020928190038301902060ff8a16600090815292529020805460ff19169115159190911790555b50600195945050505050565b60008054600160a01b900460ff16156104ea5760405162461bcd60e51b81526004016103f490614151565b6002546001600160a01b031633146105145760405162461bcd60e51b81526004016103f490614131565b6105568585858080601f0160208091040260200160405190810160405280939291908181526020018383808284376000920191909152508792506111ab915050565b60006105988686868080601f01602080910402602001604051908101604052809392919081815260200183838082843760009201919091525061093b92505050565b11600685856040516105ab929190614028565b9081526040805191829003602090810190922060ff8916600090815292529020805491151560ff19909216919091179055506001949350505050565b6105ef610dfa565b61060b5760405162461bcd60e51b81526004016103f490614271565b60005b6003548110156106bb57600060046003838154811061062957fe5b906000526020600020016040516106409190614035565b908152604051908190036020019020546001546001600160a01b039182169250161561068757600154610687906001600160a01b038381169116600063ffffffff61126016565b6001600160a01b038316156106b2576106b26001600160a01b0382168460001963ffffffff61126016565b5060010161060e565b50600180546001600160a01b0319166001600160a01b0383161790556040517ff980c1430e55b1867cd9337a1f20246ab3b7255032486d0b71c24e820eebf3ab90610707908390614041565b60405180910390a150565b606080600060048585604051610729929190614028565b908152604051908190036020019020546001600160a01b03169050806107615760405162461bcd60e51b81526004016103f490614221565b606060058686604051610775929190614028565b9081526020016040518091039020805490506040519080825280602002602001820160405280156107b0578160200160208202803883390190505b50905060005b600587876040516107c8929190614028565b9081526040519081900360200190205481101561088857610869600588886040516107f4929190614028565b9081526020016040518091039020828154811061080d57fe5b90600052602060002090602091828204019190069054906101000a900460ff1688888080601f016020809104026020016040519081016040528093929190818152602001838380828437600092019190915250610ea292505050565b82828151811061087557fe5b60209081029190910101526001016107b6565b506005868660405161089b929190614028565b9081526020016040518091039020818180548060200260200160405190810160405280929190818152602001828054801561091357602002820191906000526020600020906000905b825461010083900a900460ff168152602060019283018181049485019490930390920291018084116108e45790505b505050505091509350935050505b9250929050565b606080610933611362565b915091509091565b60008060048360405161094e919061401c565b908152604051908190036020019020546001600160a01b03169050806109865760405162461bcd60e51b81526004016103f490614221565b60ff841661099f57610997816114b9565b9150506109cc565b8360ff16600114156109b457610997816115bb565b60405162461bcd60e51b81526004016103f490614301565b92915050565b60008054600160a01b900460ff16156109fd5760405162461bcd60e51b81526004016103f490614151565b6002546001600160a01b03163314610a275760405162461bcd60e51b81526004016103f490614131565b600060048484604051610a3b929190614028565b908152604051908190036020019020546001600160a01b0316905080610a735760405162461bcd60e51b81526004016103f490614221565b60ff8516610aa557610a8481611751565b610aa05760405162461bcd60e51b81526004016103f490614231565b610ad6565b8460ff16600114156109b457610aba8161190a565b610aa05760405162461bcd60e51b81526004016103f4906142e1565b600060068585604051610aea929190614028565b908152604080516020928190038301902060ff8916600090815292529020805460ff191691151591909117905550600190505b9392505050565b60008054600160a01b900460ff1615610b4f5760405162461bcd60e51b81526004016103f490614151565b6002546001600160a01b03163314610b795760405162461bcd60e51b81526004016103f490614131565b600060048585604051610b8d929190614028565b908152604051908190036020019020546001600160a01b0316905080610bc55760405162461bcd60e51b81526004016103f490614221565b60ff8616610bf857610bd78184611a4c565b610bf35760405162461bcd60e51b81526004016103f490614181565b6104b3565b8560ff16600114156109b457610c0e8184611b6c565b610bf35760405162461bcd60e51b81526004016103f490614201565b610c32610dfa565b610c4e5760405162461bcd60e51b81526004016103f490614271565b600054600160a01b900460ff16610c775760405162461bcd60e51b81526004016103f4906141c1565b6000805460ff60a01b191681556040517f8e1c35fbf7cd686deedf8310574cf4ad038a00a86d3317c831afaeec58f1eeae9190a1565b6001546000906001600160a01b03163314610a275760405162461bcd60e51b81526004016103f4906141e1565b610ce2610dfa565b610cfe5760405162461bcd60e51b81526004016103f490614271565b600080546040516001600160a01b03909116907f8be0079c531659141344cd1fd0a4f28419497f9722a3daafe3b4186f6b6457e0908390a3600080546001600160a01b0319169055565b60008054600160a01b900460ff1615610d735760405162461bcd60e51b81526004016103f490614151565b6002546001600160a01b03163314610d9d5760405162461bcd60e51b81526004016103f490614131565b610da984848434611c5e565b50478015610de057604051339082156108fc029083906000818181858888f19350505050158015610dde573d6000803e3d6000fd5b505b506001949350505050565b6000546001600160a01b031690565b600080546001600160a01b0316610e0f611d84565b6001600160a01b031614905090565b60008054600160a01b900460ff1615610e495760405162461bcd60e51b81526004016103f490614151565b6002546001600160a01b03163314610e735760405162461bcd60e51b81526004016103f490614131565b610e7d8383611d88565b610e995760405162461bcd60e51b81526004016103f490614241565b50600192915050565b6000600682604051610eb4919061401c565b908152604080516020928190038301902060ff868116600090815291909352205416610ee2575060006109cc565b610b1d838361093b565b610ef4610dfa565b610f105760405162461bcd60e51b81526004016103f490614271565b600280546001600160a01b0319166001600160a01b0383161790556040517feb9b68c1cca2a0c5d180f75c6324fad517a04867907b0f3bee85d98fdf57ee9490610707908390614041565b60008054600160a01b900460ff1615610f865760405162461bcd60e51b81526004016103f490614151565b6002546001600160a01b03163314610fb05760405162461bcd60e51b81526004016103f490614131565b600060048585604051610fc4929190614028565b908152604051908190036020019020546001600160a01b0316905080610ffc5760405162461bcd60e51b81526004016103f490614221565b60ff861661102f5761100e8184611ea8565b61102a5760405162461bcd60e51b81526004016103f4906141d1565b611061565b8560ff16600114156109b4576110458184612082565b61102a5760405162461bcd60e51b81526004016103f490614211565b600160068686604051611075929190614028565b9081526040805191829003602090810190922060ff8a16600090815292529020805491151560ff199092169190911790555060019050949350505050565b6000600683836040516110c7929190614028565b908152604080516020928190038301902060ff968716600090815292529020549093169392505050565b6110f9610dfa565b6111155760405162461bcd60e51b81526004016103f490614271565b61111e81612150565b50565b611129610dfa565b6111455760405162461bcd60e51b81526004016103f490614271565b600054600160a01b900460ff161561116f5760405162461bcd60e51b81526004016103f490614291565b6000805460ff60a01b1916600160a01b1781556040517f0a6b9c6c74d93f230c4346c52ac415dd7dda5a0efb4f7394c0bfb5baa87d32659190a1565b60006004836040516111bd919061401c565b908152604051908190036020019020546001600160a01b03169050806111f55760405162461bcd60e51b81526004016103f490614221565b60ff84166112285761120781836121d1565b6112235760405162461bcd60e51b81526004016103f490614231565b61125a565b8360ff16600114156109b45761123e8183612323565b6112235760405162461bcd60e51b81526004016103f4906142e1565b50505050565b8015806112e85750604051636eb1769f60e11b81526001600160a01b0384169063dd62ed3e90611296903090869060040161404f565b60206040518083038186803b1580156112ae57600080fd5b505afa1580156112c2573d6000803e3d6000fd5b505050506040513d601f19601f820116820180604052506112e69190810190612f68565b155b6113045760405162461bcd60e51b81526004016103f4906142f1565b60405161135d90849063095ea7b360e01b90611326908690869060240161406a565b60408051601f198184030181529190526020810180516001600160e01b03166001600160e01b0319909316929092179091526123f1565b505050565b60608061136d612713565b50604080518082018252308152600060208201529051636a8194e760e01b81526060908190731e0447b19bb6ecfdae1e4ae1694b0c3659614e4e90636a8194e7906113bc908690600401614321565b60006040518083038186803b1580156113d457600080fd5b505afa1580156113e8573d6000803e3d6000fd5b505050506040513d6000823e601f3d908101601f191682016040526114109190810190612dea565b925050915060608151604051908082528060200260200182016040528015611442578160200160208202803883390190505b50905060005b82518110156114ac5782818151811061145d57fe5b60200260200101516000015161147457600061148d565b82818151811061148057fe5b6020026020010151602001515b82828151811061149957fe5b6020908102919091010152600101611448565b5091945090925050509091565b6000806114c5836124d6565b90506114cf612713565b50604080518082018252308152600060208201529051636a8194e760e01b8152606090731e0447b19bb6ecfdae1e4ae1694b0c3659614e4e90636a8194e79061151c908590600401614321565b60006040518083038186803b15801561153457600080fd5b505afa158015611548573d6000803e3d6000fd5b505050506040513d6000823e601f3d908101601f191682016040526115709190810190612dea565b9250505080838151811061158057fe5b6020026020010151600001516115975760006115b0565b8083815181106115a357fe5b6020026020010151602001515b93505050505b919050565b6000806115c78361254a565b9050806001600160a01b031663a6afed956040518163ffffffff1660e01b8152600401602060405180830381600087803b15801561160457600080fd5b505af1158015611618573d6000803e3d6000fd5b505050506040513d601f19601f8201168201806040525061163c9190810190612f68565b50610b1d670de0b6b3a7640000611745836001600160a01b031663182df0f56040518163ffffffff1660e01b815260040160206040518083038186803b15801561168557600080fd5b505afa158015611699573d6000803e3d6000fd5b505050506040513d601f19601f820116820180604052506116bd9190810190612f68565b6040516370a0823160e01b81526001600160a01b038616906370a08231906116e9903090600401614041565b60206040518083038186803b15801561170157600080fd5b505afa158015611715573d6000803e3d6000fd5b505050506040513d601f19601f820116820180604052506117399190810190612f68565b9063ffffffff61262416565b9063ffffffff61265e16565b60008061175d836124d6565b9050611767612713565b506040805180820182523081526000602082015281516001808252818401909352909160609190816020015b61179b612713565b81526020019060019003908161179357905050905081816000815181106117be57fe5b60200260200101819052506117d161272a565b604080516080810190915260018082526020820190815260200160018152602001600081525090506060611803612753565b506040805161010081018252600180825260006020830181905282840186905260608084018a9052608084018290523060a085015260c084019190915260e083018590528351828152808501909452919290816020015b611862612753565b81526020019060019003908161185a579050509050818160008151811061188557fe5b602090810291909101015260405163a67a6a4560e01b8152731e0447b19bb6ecfdae1e4ae1694b0c3659614e4e9063a67a6a45906118c990889085906004016140aa565b600060405180830381600087803b1580156118e357600080fd5b505af11580156118f7573d6000803e3d6000fd5b5060019c9b505050505050505050505050565b6000806119168361254a565b90506000816001600160a01b03166370a08231306040518263ffffffff1660e01b81526004016119469190614041565b60206040518083038186803b15801561195e57600080fd5b505afa158015611972573d6000803e3d6000fd5b505050506040513d601f19601f820116820180604052506119969190810190612f68565b9050600081116119ab576000925050506115b6565b60405163db006a7560e01b81526000906001600160a01b0384169063db006a75906119da90859060040161432f565b602060405180830381600087803b1580156119f457600080fd5b505af1158015611a08573d6000803e3d6000fd5b505050506040513d601f19601f82011682018060405250611a2c9190810190612f68565b90508015610de05760405162461bcd60e51b81526004016103f4906142a1565b604051636eb1769f60e11b8152600090839082906001600160a01b0383169063dd62ed3e90611a95903090731e0447b19bb6ecfdae1e4ae1694b0c3659614e4e9060040161404f565b60206040518083038186803b158015611aad57600080fd5b505afa158015611ac1573d6000803e3d6000fd5b505050506040513d601f19601f82011682018060405250611ae59190810190612f68565b905083811415611afa576001925050506109cc565b600084118015611b0a5750600081115b15611b3e57611b3e6001600160a01b038316731e0447b19bb6ecfdae1e4ae1694b0c3659614e4e600063ffffffff61126016565b610de06001600160a01b038316731e0447b19bb6ecfdae1e4ae1694b0c3659614e4e8663ffffffff61126016565b600080611b788461254a565b604051636eb1769f60e11b815290915084906000906001600160a01b0383169063dd62ed3e90611bae903090879060040161404f565b60206040518083038186803b158015611bc657600080fd5b505afa158015611bda573d6000803e3d6000fd5b505050506040513d601f19601f82011682018060405250611bfe9190810190612f68565b905084811415611c1457600193505050506109cc565b600085118015611c245750600081115b15611c4457611c446001600160a01b03831684600063ffffffff61126016565b6104b36001600160a01b038316848763ffffffff61126016565b611c666127a5565b6000855111611c875760405162461bcd60e51b81526004016103f490614161565b8351855114611ca85760405162461bcd60e51b81526004016103f490614281565b60008311611cc85760405162461bcd60e51b81526004016103f4906142c1565b611cd06127c3565b60405163a6c3bf3360e01b81527361935cbdd02287b511119ddb11aeb42f1593b7ef9063a6c3bf33908590611d0d908a9089908b906004016140cf565b60a0604051808303818588803b158015611d2657600080fd5b505af1158015611d3a573d6000803e3d6000fd5b50505050506040513d601f19601f82011682018060405250611d5f9190810190612f4a565b6040805180820190915260208083015182529151918101919091529695505050505050565b3390565b604051636eb1769f60e11b8152600090839082906001600160a01b0383169063dd62ed3e90611dd19030907395e6f48254609a6ee006f7d493c8e5fb97094cef9060040161404f565b60206040518083038186803b158015611de957600080fd5b505afa158015611dfd573d6000803e3d6000fd5b505050506040513d601f19601f82011682018060405250611e219190810190612f68565b905083811415611e36576001925050506109cc565b600084118015611e465750600081115b15611e7a57611e7a6001600160a01b0383167395e6f48254609a6ee006f7d493c8e5fb97094cef600063ffffffff61126016565b610de06001600160a01b0383167395e6f48254609a6ee006f7d493c8e5fb97094cef8663ffffffff61126016565b6000808211611ec95760405162461bcd60e51b81526004016103f490614141565b6000611ed4846124d6565b9050611ede612713565b506040805180820182523081526000602082015281516001808252818401909352909160609190816020015b611f12612713565b815260200190600190039081611f0a5790505090508181600081518110611f3557fe5b6020026020010181905250611f4861272a565b60408051608081019091526001815260208101600081526020016000815260200187905290506060611f78612753565b5060408051610100810182526000808252602082018190528183018590526060808301899052608083018290523060a084015260c083019190915260e08201849052825160018082528185019094529192909190816020015b611fd9612753565b815260200190600190039081611fd15790505090508181600081518110611ffc57fe5b602090810291909101015260405163a67a6a4560e01b8152731e0447b19bb6ecfdae1e4ae1694b0c3659614e4e9063a67a6a459061204090889085906004016140aa565b600060405180830381600087803b15801561205a57600080fd5b505af115801561206e573d6000803e3d6000fd5b5060019d9c50505050505050505050505050565b60008082116120a35760405162461bcd60e51b81526004016103f490614141565b60006120ae8461254a565b90506000816001600160a01b031663a0712d68856040518263ffffffff1660e01b81526004016120de919061432f565b602060405180830381600087803b1580156120f857600080fd5b505af115801561210c573d6000803e3d6000fd5b505050506040513d601f19601f820116820180604052506121309190810190612f68565b90508015610de05760405162461bcd60e51b81526004016103f4906142b1565b6001600160a01b0381166121765760405162461bcd60e51b81526004016103f490614191565b600080546040516001600160a01b03808516939216917f8be0079c531659141344cd1fd0a4f28419497f9722a3daafe3b4186f6b6457e091a3600080546001600160a01b0319166001600160a01b0392909216919091179055565b60008082116121f25760405162461bcd60e51b81526004016103f490614141565b60006121fd846124d6565b9050612207612713565b506040805180820182523081526000602082015281516001808252818401909352909160609190816020015b61223b612713565b815260200190600190039081612233579050509050818160008151811061225e57fe5b602002602001018190525061227161272a565b604080516080810190915260008082526020820190815260200160008152602001879052905060606122a1612753565b506040805161010081018252600180825260006020830181905282840186905260608084018a9052608084018290523060a085015260c084019190915260e083018590528351828152808501909452919290816020015b612300612753565b8152602001906001900390816122f85790505090508181600081518110611ffc57fe5b60008082116123445760405162461bcd60e51b81526004016103f4906141a1565b600061234f8461254a565b90506000816001600160a01b031663852a12e3856040518263ffffffff1660e01b815260040161237f919061432f565b602060405180830381600087803b15801561239957600080fd5b505af11580156123ad573d6000803e3d6000fd5b505050506040513d601f19601f820116820180604052506123d19190810190612f68565b90508015610de05760405162461bcd60e51b81526004016103f4906141b1565b612403826001600160a01b03166126a0565b61241f5760405162461bcd60e51b81526004016103f490614311565b60006060836001600160a01b03168360405161243b919061401c565b6000604051808303816000865af19150503d8060008114612478576040519150601f19603f3d011682016040523d82523d6000602084013e61247d565b606091505b50915091508161249f5760405162461bcd60e51b81526004016103f4906141f1565b80511561125a57808060200190516124ba9190810190612eeb565b61125a5760405162461bcd60e51b81526004016103f4906142d1565b600073a0b86991c6218b36c1d19d4a2e9eb0ce3606eb486001600160a01b0383161415612505575060026115b6565b736b175474e89094c44da98b954eedeac495271d0f6001600160a01b0383161415612532575060036115b6565b60405162461bcd60e51b81526004016103f490614251565b6000736b175474e89094c44da98b954eedeac495271d0f6001600160a01b038316141561258c5750735d3a536e4d6dbd6114cc1ead35777bab948e36436115b6565b73a0b86991c6218b36c1d19d4a2e9eb0ce3606eb486001600160a01b03831614156125cc57507339aa39c021dfbae8fac545936693ac917d5e75636115b6565b73dac17f958d2ee523a2206206994597c13d831ec76001600160a01b038316141561260c575073f650c3d88d12db855b8bf7d11be6c55a4e07dcc96115b6565b60405162461bcd60e51b81526004016103f490614171565b600082612633575060006109cc565b8282028284828161264057fe5b0414610b1d5760405162461bcd60e51b81526004016103f490614261565b6000610b1d83836040518060400160405280601a81526020017f536166654d6174683a206469766973696f6e206279207a65726f0000000000008152506126dc565b6000813f7fc5d2460186f7233c927e7db2dcc703c0e500b653ca82273b7bfad8045d85a4708181148015906126d457508115155b949350505050565b600081836126fd5760405162461bcd60e51b81526004016103f49190614120565b50600083858161270957fe5b0495945050505050565b604080518082019091526000808252602082015290565b604080516080810190915260008082526020820190815260200160008152602001600081525090565b60408051610100810182526000808252602082015290810161277361272a565b8152602001600081526020016000815260200160006001600160a01b0316815260200160008152602001606081525090565b60405180604001604052806002906020820280388339509192915050565b6040518060a0016040528060008152602001600081526020016000815260200160008152602001600081525090565b80356109cc81614483565b80516109cc81614483565b600082601f83011261281957600080fd5b815161282c61282782614363565b61433d565b9150818183526020840193506020810190508385602084028201111561285157600080fd5b60005b8381101561287d578161286788826127fd565b8452506020928301929190910190600101612854565b5050505092915050565b600082601f83011261289857600080fd5b81356128a661282782614363565b81815260209384019390925082018360005b8381101561287d57813586016128ce8882612a30565b84525060209283019291909101906001016128b8565b600082601f8301126128f557600080fd5b813561290361282782614363565b81815260209384019390925082018360005b8381101561287d578135860161292b8882612b43565b8452506020928301929190910190600101612915565b600082601f83011261295257600080fd5b815161296061282782614363565b9150818183526020840193506020810190508385604084028201111561298557600080fd5b60005b8381101561287d578161299b8882612ce4565b84525060209092019160409190910190600101612988565b600082601f8301126129c457600080fd5b81516129d261282782614363565b915081818352602084019350602081019050838560408402820111156129f757600080fd5b60005b8381101561287d5781612a0d8882612d2b565b845250602090920191604091909101906001016129fa565b80516109cc81614497565b600082601f830112612a4157600080fd5b8135612a4f61282782614383565b91508082526020830160208301858383011115612a6b57600080fd5b612a7683828461442d565b50505092915050565b60008083601f840112612a9157600080fd5b5081356001600160401b03811115612aa857600080fd5b60208301915083600182028301111561092157600080fd5b600060a08284031215612ad257600080fd5b612adc60a061433d565b90506000612aea8484612d7c565b8252506020612afb84848301612d7c565b6020830152506040612b0f84828501612d7c565b6040830152506060612b2384828501612d7c565b6060830152506080612b3784828501612d7c565b60808301525092915050565b60006101c08284031215612b5657600080fd5b612b616101c061433d565b90506000612b6f84846127f2565b8252506020612b80848483016127f2565b6020830152506040612b94848285016127f2565b6040830152506060612ba8848285016127f2565b6060830152506080612bbc84828501612d71565b60808301525060a0612bd084828501612d71565b60a08301525060c0612be484828501612d71565b60c08301525060e0612bf884828501612d71565b60e083015250610100612c0d84828501612d71565b61010083015250610120612c2384828501612d71565b610120830152506101408201356001600160401b03811115612c4457600080fd5b612c5084828501612a30565b610140830152506101608201356001600160401b03811115612c7157600080fd5b612c7d84828501612a30565b610160830152506101808201356001600160401b03811115612c9e57600080fd5b612caa84828501612a30565b610180830152506101a08201356001600160401b03811115612ccb57600080fd5b612cd784828501612a30565b6101a08301525092915050565b600060408284031215612cf657600080fd5b612d00604061433d565b90506000612d0e8484612a25565b8252506020612d1f84848301612d66565b60208301525092915050565b600060408284031215612d3d57600080fd5b612d47604061433d565b90506000612d558484612a25565b8252506020612d1f84848301612d7c565b80516109cc816144a0565b80356109cc816144a9565b80516109cc816144a9565b80356109cc816144b2565b600060208284031215612da457600080fd5b60006126d484846127f2565b60008060408385031215612dc357600080fd5b6000612dcf85856127f2565b9250506020612de085828601612d71565b9150509250929050565b600080600060608486031215612dff57600080fd5b83516001600160401b03811115612e1557600080fd5b612e2186828701612808565b93505060208401516001600160401b03811115612e3d57600080fd5b612e4986828701612941565b92505060408401516001600160401b03811115612e6557600080fd5b612e71868287016129b3565b9150509250925092565b600080600060608486031215612e9057600080fd5b83356001600160401b03811115612ea657600080fd5b612eb2868287016128e4565b93505060208401356001600160401b03811115612ece57600080fd5b612eda86828701612887565b9250506040612e7186828701612d71565b600060208284031215612efd57600080fd5b60006126d48484612a25565b60008060208385031215612f1c57600080fd5b82356001600160401b03811115612f3257600080fd5b612f3e85828601612a7f565b92509250509250929050565b600060a08284031215612f5c57600080fd5b60006126d48484612ac0565b600060208284031215612f7a57600080fd5b60006126d48484612d7c565b600080600060408486031215612f9b57600080fd5b6000612fa78686612d87565b93505060208401356001600160401b03811115612fc357600080fd5b612fcf86828701612a7f565b92509250509250925092565b60008060008060608587031215612ff157600080fd5b6000612ffd8787612d87565b94505060208501356001600160401b0381111561301957600080fd5b61302587828801612a7f565b9350935050604061303887828801612d71565b91505092959194509250565b60008060008060006080868803121561305c57600080fd5b60006130688888612d87565b95505060208601356001600160401b0381111561308457600080fd5b61309088828901612a7f565b945094505060406130a388828901612d71565b92505060606130b488828901612d71565b9150509295509295909350565b600080604083850312156130d457600080fd5b60006130e08585612d87565b92505060208301356001600160401b038111156130fc57600080fd5b612de085828601612a30565b6000613114838361316c565b505060200190565b6000610b1d8383613426565b6000610b1d8383613dbf565b60006131408383613eb4565b505060400190565b6000610b1d8383613ed8565b6000613114838361400a565b60006131148383614013565b613175816143c9565b82525050565b6000613186826143bc565b61319081856143c0565b935061319b836143aa565b8060005b838110156131c95781516131b38882613108565b97506131be836143aa565b92505060010161319f565b509495945050505050565b60006131df826143bc565b6131e981856143c0565b9350836020820285016131fb856143aa565b8060005b858110156132355784840389528151613218858261311c565b9450613223836143aa565b60209a909a01999250506001016131ff565b5091979650505050505050565b600061324d826143bc565b61325781856143c0565b935083602082028501613269856143aa565b8060005b8581101561323557848403895281516132868582613128565b9450613291836143aa565b60209a909a019992505060010161326d565b60006132ae826143bc565b6132b881856143c0565b93506132c3836143aa565b8060005b838110156131c95781516132db8882613134565b97506132e6836143aa565b9250506001016132c7565b60006132fc826143bc565b61330681856143c0565b935083602082028501613318856143aa565b8060005b8581101561323557848403895281516133358582613148565b9450613340836143aa565b60209a909a019992505060010161331c565b600061335d826143bc565b61336781856143c0565b9350613372836143aa565b8060005b838110156131c957815161338a8882613154565b9750613395836143aa565b925050600101613376565b60006133ab826143bc565b6133b581856143c0565b93506133c0836143aa565b8060005b838110156131c95781516133d88882613160565b97506133e3836143aa565b9250506001016133c4565b613175816143d4565b6000613402826143bc565b61340c81856115b6565b935061341c818560208601614439565b9290920192915050565b6000613431826143bc565b61343b81856143c0565b935061344b818560208601614439565b61345481614465565b9093019392505050565b61317581614417565b61317581614422565b600061347c83856115b6565b935061348983858461442d565b50500190565b6000815460018116600081146134ac57600181146134cf5761350e565b607f60028304166134bd81876115b6565b60ff198416815295508501925061350e565b600282046134dd81876115b6565b95506134e8856143b0565b60005b82811015613507578154888201526001909101906020016134eb565b5050850192505b505092915050565b6000613523601d836143c0565b7f43616c6c6572206973206e6f742074686520726562616c616e6365722e000000815260200192915050565b600061355c601e836143c0565b7f416d6f756e74206d7573742062652067726561746572207468616e20302e0000815260200192915050565b60006135956049836143c0565b7f546869732066756e6420636f6e74726f6c6c657220636f6e747261637420697381527f2064697361626c65642e2054686973206d61792062652064756520746f20616e602082015268103ab833b930b2329760b91b604082015260600192915050565b60006136066036836143c0565b7f4174206c65617374206f6e65206f7264657220616e64206d61746368696e672081527539b4b3b730ba3ab9329034b9903932b8bab4b932b21760511b602082015260400192915050565b600061365e6043836143c0565b7f537570706f7274656420436f6d706f756e642063546f6b656e2061646472657381527f73206e6f7420666f756e6420666f72207468697320746f6b656e20616464726560208201526239b99760e91b604082015260600192915050565b60006136c96022836143c0565b7f417070726f76616c206f6620746f6b656e7320746f2064596458206661696c65815261321760f11b602082015260400192915050565b600061370d6026836143c0565b7f4f776e61626c653a206e6577206f776e657220697320746865207a65726f206181526564647265737360d01b602082015260400192915050565b60006137556021836143c0565b7f416d6f756e74206d7573742062652067726561746572207468616e20746f20308152601760f91b602082015260400192915050565b6000613798604c836143c0565b7f4572726f722063616c6c696e672072656465656d556e6465726c79696e67206f81527f6e20436f6d706f756e642063546f6b656e3a206572726f7220636f6465206e6f60208201526b07420657175616c20746f20360a41b604082015260600192915050565b600061380c6015836143c0565b74233ab7321030b63932b0b23c9032b730b13632b21760591b815260200192915050565b600061383d6017836143c0565b7f4465706f73697420746f2064596458206661696c65642e000000000000000000815260200192915050565b6000613876601f836143c0565b7f43616c6c6572206973206e6f74207468652066756e64206d616e616765722e00815260200192915050565b60006138af6020836143c0565b7f5361666545524332303a206c6f772d6c6576656c2063616c6c206661696c6564815260200192915050565b60006138e86026836143c0565b7f417070726f76616c206f6620746f6b656e7320746f20436f6d706f756e64206681526530b4b632b21760d11b602082015260400192915050565b6000613930601b836143c0565b7f4465706f73697420746f20436f6d706f756e64206661696c65642e0000000000815260200192915050565b60006139696016836143c0565b7524b73b30b634b21031bab93932b731bc9031b7b2329760511b815260200192915050565b600061399b601c836143c0565b7f5769746864726177616c2066726f6d2064596458206661696c65642e00000000815260200192915050565b60006139d46020836143c0565b7f417070726f76616c206f6620746f6b656e7320746f203078206661696c65642e815260200192915050565b6000613a0d6037836143c0565b7f537570706f727465642064596458206d61726b6574206e6f7420666f756e642081527f666f72207468697320746f6b656e20616464726573732e000000000000000000602082015260400192915050565b6000613a6c6021836143c0565b7f536166654d6174683a206d756c7469706c69636174696f6e206f766572666c6f8152607760f81b602082015260400192915050565b6000613aaf6020836143c0565b7f4f776e61626c653a2063616c6c6572206973206e6f7420746865206f776e6572815260200192915050565b6000613ae86031836143c0565b7f4d69736d61746368206265747765656e206e756d626572206f66206f72646572815270399030b7321039b4b3b730ba3ab932b99760791b602082015260400192915050565b6000613b3b6016836143c0565b75233ab7321030b63932b0b23c903234b9b0b13632b21760511b815260200192915050565b6000613b6d6042836143c0565b7f4572726f722063616c6c696e672072656465656d206f6e20436f6d706f756e6481527f2063546f6b656e3a206572726f7220636f6465206e6f7420657175616c20746f602082015261020360f41b604082015260600192915050565b6000613bd76040836143c0565b7f4572726f722063616c6c696e67206d696e74206f6e20436f6d706f756e64206381527f546f6b656e3a206572726f7220636f6465206e6f7420657175616c20746f2030602082015260400192915050565b6000613c36602f836143c0565b7f54616b65722061737365742066696c6c20616d6f756e74206d7573742062652081526e33b932b0ba32b9103a3430b710181760891b602082015260400192915050565b6000613c87602a836143c0565b7f5361666545524332303a204552433230206f7065726174696f6e20646964206e8152691bdd081cdd58d8d9595960b21b602082015260400192915050565b6000613cd36020836143c0565b7f5769746864726177616c2066726f6d20436f6d706f756e64206661696c65642e815260200192915050565b6000613d0c6036836143c0565b7f5361666545524332303a20617070726f76652066726f6d206e6f6e2d7a65726f81527520746f206e6f6e2d7a65726f20616c6c6f77616e636560501b602082015260400192915050565b6000613d646013836143c0565b7224b73b30b634b2103837b7b61034b73232bc1760691b815260200192915050565b6000613d93601f836143c0565b7f5361666545524332303a2063616c6c20746f206e6f6e2d636f6e747261637400815260200192915050565b8051600090610160840190613dd4858261345e565b506020830151613de7602086018261400a565b506040830151613dfa6040860182613e6a565b506060830151613e0d60c086018261400a565b506080830151613e2060e086018261400a565b5060a0830151613e3461010086018261316c565b5060c0830151613e4861012086018261400a565b5060e0830151848203610140860152613e618282613426565b95945050505050565b80516080830190613e7b84826133ee565b506020820151613e8e6020850182613467565b506040820151613ea16040850182613467565b50606082015161125a606085018261400a565b80516040830190613ec5848261316c565b50602082015161125a602085018261400a565b80516000906101c0840190613eed858261316c565b506020830151613f00602086018261316c565b506040830151613f13604086018261316c565b506060830151613f26606086018261316c565b506080830151613f39608086018261400a565b5060a0830151613f4c60a086018261400a565b5060c0830151613f5f60c086018261400a565b5060e0830151613f7260e086018261400a565b50610100830151613f8761010086018261400a565b50610120830151613f9c61012086018261400a565b50610140830151848203610140860152613fb68282613426565b915050610160830151848203610160860152613fd28282613426565b915050610180830151848203610180860152613fee8282613426565b9150506101a08301518482036101a0860152613e618282613426565b6131758161440e565b61317581614411565b6000610b1d82846133f7565b60006126d4828486613470565b6000610b1d828461348f565b602081016109cc828461316c565b6040810161405d828561316c565b610b1d602083018461316c565b60408101614078828561316c565b610b1d602083018461400a565b60408082528101614096818561317b565b905081810360208301526126d48184613352565b604080825281016140bb81856132a3565b905081810360208301526126d48184613242565b606080825281016140e081866132f1565b90506140ef602083018561400a565b8181036040830152613e6181846131d4565b6040808252810161409681856133a0565b602081016109cc82846133ee565b60208082528101610b1d8184613426565b602080825281016109cc81613516565b602080825281016109cc8161354f565b602080825281016109cc81613588565b602080825281016109cc816135f9565b602080825281016109cc81613651565b602080825281016109cc816136bc565b602080825281016109cc81613700565b602080825281016109cc81613748565b602080825281016109cc8161378b565b602080825281016109cc816137ff565b602080825281016109cc81613830565b602080825281016109cc81613869565b602080825281016109cc816138a2565b602080825281016109cc816138db565b602080825281016109cc81613923565b602080825281016109cc8161395c565b602080825281016109cc8161398e565b602080825281016109cc816139c7565b602080825281016109cc81613a00565b602080825281016109cc81613a5f565b602080825281016109cc81613aa2565b602080825281016109cc81613adb565b602080825281016109cc81613b2e565b602080825281016109cc81613b60565b602080825281016109cc81613bca565b602080825281016109cc81613c29565b602080825281016109cc81613c7a565b602080825281016109cc81613cc6565b602080825281016109cc81613cff565b602080825281016109cc81613d57565b602080825281016109cc81613d86565b604081016109cc8284613eb4565b602081016109cc828461400a565b6040518181016001600160401b038111828210171561435b57600080fd5b604052919050565b60006001600160401b0382111561437957600080fd5b5060209081020190565b60006001600160401b0382111561439957600080fd5b506020601f91909101601f19160190565b60200190565b60009081526020902090565b5190565b90815260200190565b60006109cc82614402565b151590565b806115b68161446f565b806115b681614479565b6fffffffffffffffffffffffffffffffff1690565b6001600160a01b031690565b90565b60ff1690565b60006109cc826143d9565b60006109cc826143e3565b82818337506000910152565b60005b8381101561445457818101518382015260200161443c565b8381111561125a5750506000910152565b601f01601f191690565b6009811061111e57fe5b6002811061111e57fe5b61448c816143c9565b811461111e57600080fd5b61448c816143d4565b61448c816143ed565b61448c8161440e565b61448c8161441156fea365627a7a7231582078706384fb1ac4876a788e9ee11819787e5e0fbe5fa4167dc99000fa20e1fee46c6578706572696d656e74616cf564736f6c63430005110040",
  "source": "/**\r\n * @file\r\n * @author David Lucid <david@rari.capital>\r\n *\r\n * @section LICENSE\r\n *\r\n * All rights reserved to David Lucid of David Lucid LLC.\r\n * Any disclosure, reproduction, distribution or other use of this code by any individual or entity other than David Lucid of David Lucid LLC, unless given explicit permission by David Lucid of David Lucid LLC, is prohibited.\r\n *\r\n * @section DESCRIPTION\r\n *\r\n * This file includes the Ethereum contract code for RariFundController, our library handling deposits to and withdrawals from the liquidity pools that power RariFund as well as currency exchanges via 0x.\r\n */\r\n\r\npragma solidity ^0.5.7;\r\npragma experimental ABIEncoderV2;\r\n\r\nimport \"@openzeppelin/contracts/math/SafeMath.sol\";\r\nimport \"@openzeppelin/contracts/drafts/SignedSafeMath.sol\";\r\nimport \"@openzeppelin/contracts/ownership/Ownable.sol\";\r\nimport \"@openzeppelin/contracts/token/ERC20/IERC20.sol\";\r\nimport \"@openzeppelin/contracts/token/ERC20/SafeERC20.sol\";\r\n\r\nimport \"@0x/contracts-exchange-libs/contracts/src/LibOrder.sol\";\r\n\r\nimport \"./lib/pools/DydxPoolController.sol\";\r\nimport \"./lib/pools/CompoundPoolController.sol\";\r\nimport \"./lib/exchanges/ZeroExExchangeController.sol\";\r\n\r\n/**\r\n * @title RariFundController\r\n * @dev This contract handles deposits to and withdrawals from the liquidity pools that power RariFund as well as currency exchanges via 0x.\r\n */\r\ncontract RariFundController is Ownable {\r\n    using SafeMath for uint256;\r\n    using SignedSafeMath for int256;\r\n    using SafeERC20 for IERC20;\r\n\r\n    /**\r\n     * @dev Boolean that, if true, disables the primary functionality of this RariFundController.\r\n     */\r\n    bool private _fundDisabled;\r\n\r\n    /**\r\n     * @dev Address of the RariFundManager.\r\n     */\r\n    address private _rariFundManagerContract;\r\n\r\n    /**\r\n     * @dev Address of the rebalancer.\r\n     */\r\n    address private _rariFundRebalancerAddress;\r\n\r\n    /**\r\n     * @dev Array of currencies supported by the fund.\r\n     */\r\n    string[] private _supportedCurrencies;\r\n\r\n    /**\r\n     * @dev Maps ERC20 token contract addresses to supported currency codes.\r\n     */\r\n    mapping(string => address) private _erc20Contracts;\r\n\r\n    /**\r\n     * @dev Maps arrays of supported pools to currency codes.\r\n     */\r\n    mapping(string => uint8[]) private _poolsByCurrency;\r\n\r\n    /**\r\n     * @dev Constructor that sets supported ERC20 token contract addresses and supported pools for each supported token.\r\n     */\r\n    constructor () public {\r\n        // Add supported currencies\r\n        addSupportedCurrency(\"DAI\", 0x6B175474E89094C44Da98b954EedeAC495271d0F);\r\n        addPoolToCurrency(\"DAI\", 0); // dYdX\r\n        addPoolToCurrency(\"DAI\", 1); // Compound\r\n        addSupportedCurrency(\"USDC\", 0xA0b86991c6218b36c1d19D4a2e9Eb0cE3606eB48);\r\n        addPoolToCurrency(\"USDC\", 0); // dYdX\r\n        addPoolToCurrency(\"USDC\", 1); // Compound\r\n        addSupportedCurrency(\"USDT\", 0xdAC17F958D2ee523a2206206994597C13D831ec7);\r\n        addPoolToCurrency(\"USDT\", 1); // Compound\r\n    }\r\n\r\n    /**\r\n     * @dev Marks a token as supported by the fund and stores its ERC20 contract address.\r\n     * @param currencyCode The currency code of the token.\r\n     * @param erc20Contract The ERC20 contract of the token.\r\n     */\r\n    function addSupportedCurrency(string memory currencyCode, address erc20Contract) internal {\r\n        _supportedCurrencies.push(currencyCode);\r\n        _erc20Contracts[currencyCode] = erc20Contract;\r\n    }\r\n\r\n    /**\r\n     * @dev Adds a supported pool for a token.\r\n     * @param currencyCode The currency code of the token.\r\n     * @param pool Pool ID to be supported.\r\n     */\r\n    function addPoolToCurrency(string memory currencyCode, uint8 pool) internal {\r\n        _poolsByCurrency[currencyCode].push(pool);\r\n    }\r\n\r\n    /**\r\n     * @dev Payable fallback function called by 0x exchange to refund unspent protocol fee.\r\n     */\r\n    function () external payable { }\r\n\r\n    /**\r\n     * @dev Emitted when the RariFundManager of the RariFundController is set.\r\n     */\r\n    event FundManagerSet(address newAddress);\r\n\r\n    /**\r\n     * @dev Sets or upgrades the RariFundManager of the RariFundController.\r\n     * @param newContract The address of the new RariFundManager contract.\r\n     */\r\n    function setFundManager(address newContract) external onlyOwner {\r\n        // Approve maximum output tokens to RariFundManager\r\n        for (uint256 i = 0; i < _supportedCurrencies.length; i++) {\r\n            IERC20 token = IERC20(_erc20Contracts[_supportedCurrencies[i]]);\r\n            if (_rariFundManagerContract != address(0)) token.safeApprove(_rariFundManagerContract, 0);\r\n            if (newContract != address(0)) token.safeApprove(newContract, uint256(-1));\r\n        }\r\n\r\n        _rariFundManagerContract = newContract;\r\n        emit FundManagerSet(newContract);\r\n    }\r\n\r\n    /**\r\n     * @dev Throws if called by any account other than the RariFundManager.\r\n     */\r\n    modifier onlyManager() {\r\n        require(_rariFundManagerContract == msg.sender, \"Caller is not the fund manager.\");\r\n        _;\r\n    }\r\n\r\n    /**\r\n     * @dev Emitted when the rebalancer of the RariFundController is set.\r\n     */\r\n    event FundRebalancerSet(address newAddress);\r\n\r\n    /**\r\n     * @dev Sets or upgrades the rebalancer of the RariFundController.\r\n     * @param newAddress The Ethereum address of the new rebalancer server.\r\n     */\r\n    function setFundRebalancer(address newAddress) external onlyOwner {\r\n        _rariFundRebalancerAddress = newAddress;\r\n        emit FundRebalancerSet(newAddress);\r\n    }\r\n\r\n    /**\r\n     * @dev Throws if called by any account other than the rebalancer.\r\n     */\r\n    modifier onlyRebalancer() {\r\n        require(_rariFundRebalancerAddress == msg.sender, \"Caller is not the rebalancer.\");\r\n        _;\r\n    }\r\n\r\n    /**\r\n     * @dev Emitted when the primary functionality of this RariFundController contract has been disabled.\r\n     */\r\n    event FundDisabled();\r\n\r\n    /**\r\n     * @dev Emitted when the primary functionality of this RariFundController contract has been enabled.\r\n     */\r\n    event FundEnabled();\r\n\r\n    /**\r\n     * @dev Disables primary functionality of this RariFundController so contract(s) can be upgraded.\r\n     */\r\n    function disableFund() external onlyOwner {\r\n        require(!_fundDisabled, \"Fund already disabled.\");\r\n        _fundDisabled = true;\r\n        emit FundDisabled();\r\n    }\r\n\r\n    /**\r\n     * @dev Enables primary functionality of this RariFundController once contract(s) are upgraded.\r\n     */\r\n    function enableFund() external onlyOwner {\r\n        require(_fundDisabled, \"Fund already enabled.\");\r\n        _fundDisabled = false;\r\n        emit FundEnabled();\r\n    }\r\n\r\n    /**\r\n     * @dev Throws if fund is disabled.\r\n     */\r\n    modifier fundEnabled() {\r\n        require(!_fundDisabled, \"This fund controller contract is disabled. This may be due to an upgrade.\");\r\n        _;\r\n    }\r\n\r\n    /**\r\n     * @dev Returns the balances of all currencies supported by dYdX.\r\n     * @return An array of ERC20 token contract addresses and a corresponding array of balances.\r\n     */\r\n    function getDydxBalances() external view returns (address[] memory, uint256[] memory) {\r\n        return DydxPoolController.getBalances();\r\n    }\r\n\r\n    /**\r\n     * @dev Returns the fund controller's balance of the specified currency in the specified pool.\r\n     * @dev Ideally, we can add the view modifier, but Compound's `getUnderlyingBalance` function (called by `CompoundPoolController.getBalance`) potentially modifies the state.\r\n     * @param pool The index of the pool.\r\n     * @param currencyCode The currency code of the token.\r\n     */\r\n    function _getPoolBalance(uint8 pool, string memory currencyCode) public returns (uint256) {\r\n        address erc20Contract = _erc20Contracts[currencyCode];\r\n        require(erc20Contract != address(0), \"Invalid currency code.\");\r\n        if (pool == 0) return DydxPoolController.getBalance(erc20Contract);\r\n        else if (pool == 1) return CompoundPoolController.getBalance(erc20Contract);\r\n        else revert(\"Invalid pool index.\");\r\n    }\r\n\r\n    /**\r\n     * @dev Returns the fund controller's balance of the specified currency in the specified pool.\r\n     * @dev Ideally, we can add the view modifier, but Compound's `getUnderlyingBalance` function (called by `CompoundPoolController.getBalance`) potentially modifies the state.\r\n     * @param pool The index of the pool.\r\n     * @param currencyCode The currency code of the token.\r\n     */\r\n    function getPoolBalance(uint8 pool, string memory currencyCode) public returns (uint256) {\r\n        if (!_poolsWithFunds[currencyCode][pool]) return 0;\r\n        return _getPoolBalance(pool, currencyCode);\r\n    }\r\n\r\n    /**\r\n     * @notice Returns the fund controller's balance of each pool of the specified currency.\r\n     * @dev Ideally, we can add the view modifier, but Compound's `getUnderlyingBalance` function (called by `getPoolBalance`) potentially modifies the state.\r\n     * @param currencyCode The currency code whose balance is to be calculated.\r\n     * @return An array of pool indexes and an array of corresponding balances.\r\n     */\r\n    function getPoolBalances(string calldata currencyCode) external returns (uint8[] memory, uint256[] memory) {\r\n        address erc20Contract = _erc20Contracts[currencyCode];\r\n        require(erc20Contract != address(0), \"Invalid currency code.\");\r\n        uint256[] memory balances = new uint256[](_poolsByCurrency[currencyCode].length);\r\n        for (uint256 i = 0; i < _poolsByCurrency[currencyCode].length; i++) balances[i] = getPoolBalance(_poolsByCurrency[currencyCode][i], currencyCode);\r\n        return (_poolsByCurrency[currencyCode], balances);\r\n    }\r\n\r\n    /**\r\n     * @dev Approves tokens to the specified pool without spending gas on every deposit.\r\n     * @param pool The index of the pool.\r\n     * @param currencyCode The currency code of the token to be approved.\r\n     * @param amount The amount of tokens to be approved.\r\n     * @return Boolean indicating success.\r\n     */\r\n    function approveToPool(uint8 pool, string calldata currencyCode, uint256 amount) external fundEnabled onlyRebalancer returns (bool) {\r\n        address erc20Contract = _erc20Contracts[currencyCode];\r\n        require(erc20Contract != address(0), \"Invalid currency code.\");\r\n        if (pool == 0) require(DydxPoolController.approve(erc20Contract, amount), \"Approval of tokens to dYdX failed.\");\r\n        else if (pool == 1) require(CompoundPoolController.approve(erc20Contract, amount), \"Approval of tokens to Compound failed.\");\r\n        else revert(\"Invalid pool index.\");\r\n        return true;\r\n    }\r\n\r\n    /**\r\n     * @dev Mapping of bools indicating the presence of funds to pool indexes to currency codes.\r\n     */\r\n    mapping(string => mapping(uint8 => bool)) _poolsWithFunds;\r\n\r\n    /**\r\n     * @dev Return a boolean indicating if the fund controller has funds in `currencyCode` in `pool`.\r\n     * @param pool The index of the pool to check.\r\n     * @param currencyCode The currency code of the token to check.\r\n     */\r\n    function hasCurrencyInPool(uint8 pool, string calldata currencyCode) external view returns (bool) {\r\n        return _poolsWithFunds[currencyCode][pool];\r\n    }\r\n\r\n    /**\r\n     * @dev Deposits funds to the specified pool.\r\n     * @param pool The index of the pool.\r\n     * @param currencyCode The currency code of the token to be deposited.\r\n     * @param amount The amount of tokens to be deposited.\r\n     * @return Boolean indicating success.\r\n     */\r\n    function depositToPool(uint8 pool, string calldata currencyCode, uint256 amount) external fundEnabled onlyRebalancer returns (bool) {\r\n        address erc20Contract = _erc20Contracts[currencyCode];\r\n        require(erc20Contract != address(0), \"Invalid currency code.\");\r\n        if (pool == 0) require(DydxPoolController.deposit(erc20Contract, amount), \"Deposit to dYdX failed.\");\r\n        else if (pool == 1) require(CompoundPoolController.deposit(erc20Contract, amount), \"Deposit to Compound failed.\");\r\n        else revert(\"Invalid pool index.\");\r\n        _poolsWithFunds[currencyCode][pool] = true;\r\n        return true;\r\n    }\r\n\r\n    /**\r\n     * @dev Internal function to withdraw funds from the specified pool.\r\n     * @param pool The index of the pool.\r\n     * @param currencyCode The currency code of the token to be withdrawn.\r\n     * @param amount The amount of tokens to be withdrawn.\r\n     */\r\n    function _withdrawFromPool(uint8 pool, string memory currencyCode, uint256 amount) internal {\r\n        address erc20Contract = _erc20Contracts[currencyCode];\r\n        require(erc20Contract != address(0), \"Invalid currency code.\");\r\n        if (pool == 0) require(DydxPoolController.withdraw(erc20Contract, amount), \"Withdrawal from dYdX failed.\");\r\n        else if (pool == 1) require(CompoundPoolController.withdraw(erc20Contract, amount), \"Withdrawal from Compound failed.\");\r\n        else revert(\"Invalid pool index.\");\r\n    }\r\n\r\n    /**\r\n     * @dev Withdraws funds from the specified pool.\r\n     * @param pool The index of the pool.\r\n     * @param currencyCode The currency code of the token to be withdrawn.\r\n     * @param amount The amount of tokens to be withdrawn.\r\n     * @return Boolean indicating success.\r\n     */\r\n    function withdrawFromPool(uint8 pool, string calldata currencyCode, uint256 amount) external fundEnabled onlyRebalancer returns (bool) {\r\n        _withdrawFromPool(pool, currencyCode, amount);\r\n        _poolsWithFunds[currencyCode][pool] = _getPoolBalance(pool, currencyCode) > 0;\r\n        return true;\r\n    }\r\n\r\n    /**\r\n     * @dev Withdraws funds from the specified pool (caching the `initialBalance` parameter).\r\n     * @param pool The index of the pool.\r\n     * @param currencyCode The currency code of the token to be withdrawn.\r\n     * @param amount The amount of tokens to be withdrawn.\r\n     * @param initialBalance The fund's balance of the specified currency in the specified pool before the withdrawal.\r\n     * @return Boolean indicating success.\r\n     */\r\n    function withdrawFromPoolKnowingBalance(uint8 pool, string calldata currencyCode, uint256 amount, uint256 initialBalance) external fundEnabled onlyManager returns (bool) {\r\n        _withdrawFromPool(pool, currencyCode, amount);\r\n        if (amount == initialBalance) _poolsWithFunds[currencyCode][pool] = false;\r\n        return true;\r\n    }\r\n\r\n    /**\r\n     * @dev Withdraws all funds from the specified pool.\r\n     * @param pool The index of the pool.\r\n     * @param currencyCode The ERC20 contract of the token to be withdrawn.\r\n     * @return Boolean indicating success.\r\n     */\r\n    function withdrawAllFromPool(uint8 pool, string calldata currencyCode) external fundEnabled onlyRebalancer returns (bool) {\r\n        address erc20Contract = _erc20Contracts[currencyCode];\r\n        require(erc20Contract != address(0), \"Invalid currency code.\");\r\n        if (pool == 0) require(DydxPoolController.withdrawAll(erc20Contract), \"Withdrawal from dYdX failed.\");\r\n        else if (pool == 1) require(CompoundPoolController.withdrawAll(erc20Contract), \"Withdrawal from Compound failed.\");\r\n        else revert(\"Invalid pool index.\");\r\n        _poolsWithFunds[currencyCode][pool] = false;\r\n        return true;\r\n    }\r\n\r\n    /**\r\n     * @dev Withdraws all funds from the specified pool (without requiring the fund to be enabled).\r\n     * @param pool The index of the pool.\r\n     * @param currencyCode The ERC20 contract of the token to be withdrawn.\r\n     * @return Boolean indicating success.\r\n     */\r\n    function withdrawAllFromPoolOnUpgrade(uint8 pool, string calldata currencyCode) external onlyManager returns (bool) {\r\n        address erc20Contract = _erc20Contracts[currencyCode];\r\n        require(erc20Contract != address(0), \"Invalid currency code.\");\r\n        if (pool == 0) require(DydxPoolController.withdrawAll(erc20Contract), \"Withdrawal from dYdX failed.\");\r\n        else if (pool == 1) require(CompoundPoolController.withdrawAll(erc20Contract), \"Withdrawal from Compound failed.\");\r\n        else revert(\"Invalid pool index.\");\r\n        _poolsWithFunds[currencyCode][pool] = false;\r\n        return true;\r\n    }\r\n\r\n    /**\r\n     * @dev Approves tokens to 0x without spending gas on every deposit.\r\n     * @param erc20Contract The ERC20 contract address of the token to be approved.\r\n     * @param amount The amount of tokens to be approved.\r\n     * @return Boolean indicating success.\r\n     */\r\n    function approveTo0x(address erc20Contract, uint256 amount) external fundEnabled onlyRebalancer returns (bool) {\r\n        require(ZeroExExchangeController.approve(erc20Contract, amount), \"Approval of tokens to 0x failed.\");\r\n        return true;\r\n    }\r\n\r\n    /**\r\n     * @dev Market sell to 0x exchange orders (reverting if `takerAssetFillAmount` is not filled).\r\n     * We should be able to make this function external and use calldata for all parameters, but Solidity does not support calldata structs (https://github.com/ethereum/solidity/issues/5479).\r\n     * @param orders The limit orders to be filled in ascending order of price.\r\n     * @param signatures The signatures for the orders.\r\n     * @param takerAssetFillAmount The amount of the taker asset to sell (excluding taker fees).\r\n     * @return Boolean indicating success.\r\n     */\r\n    function marketSell0xOrdersFillOrKill(LibOrder.Order[] memory orders, bytes[] memory signatures, uint256 takerAssetFillAmount) public payable fundEnabled onlyRebalancer returns (bool) {\r\n        ZeroExExchangeController.marketSellOrdersFillOrKill(orders, signatures, takerAssetFillAmount, msg.value);\r\n        uint256 ethBalance = address(this).balance;\r\n        if (ethBalance > 0) msg.sender.transfer(ethBalance);\r\n        return true;\r\n    }\r\n}\r\n",
  "sourcePath": "/home/david/rari-contracts-v1.2.0/contracts/RariFundController.sol",
  "compiler": {
    "name": "solc",
    "version": "0.5.17+commit.d19bba13.Emscripten.clang"
  },
  "schemaVersion": "3.2.2",
  "updatedAt": "2020-07-20T17:37:55.625Z",
  "networkType": "ethereum",
  "devdoc": {
    "details": "This contract handles deposits to and withdrawals from the liquidity pools that power RariFund as well as currency exchanges via 0x.",
    "methods": {
      "_getPoolBalance(uint8,string)": {
        "details": "Returns the fund controller's balance of the specified currency in the specified pool.Ideally, we can add the view modifier, but Compound's `getUnderlyingBalance` function (called by `CompoundPoolController.getBalance`) potentially modifies the state.",
        "params": {
          "currencyCode": "The currency code of the token.",
          "pool": "The index of the pool."
        }
      },
      "approveTo0x(address,uint256)": {
        "details": "Approves tokens to 0x without spending gas on every deposit.",
        "params": {
          "amount": "The amount of tokens to be approved.",
          "erc20Contract": "The ERC20 contract address of the token to be approved."
        },
        "return": "Boolean indicating success."
      },
      "approveToPool(uint8,string,uint256)": {
        "details": "Approves tokens to the specified pool without spending gas on every deposit.",
        "params": {
          "amount": "The amount of tokens to be approved.",
          "currencyCode": "The currency code of the token to be approved.",
          "pool": "The index of the pool."
        },
        "return": "Boolean indicating success."
      },
      "constructor": {
        "details": "Constructor that sets supported ERC20 token contract addresses and supported pools for each supported token."
      },
      "depositToPool(uint8,string,uint256)": {
        "details": "Deposits funds to the specified pool.",
        "params": {
          "amount": "The amount of tokens to be deposited.",
          "currencyCode": "The currency code of the token to be deposited.",
          "pool": "The index of the pool."
        },
        "return": "Boolean indicating success."
      },
      "disableFund()": {
        "details": "Disables primary functionality of this RariFundController so contract(s) can be upgraded."
      },
      "enableFund()": {
        "details": "Enables primary functionality of this RariFundController once contract(s) are upgraded."
      },
      "getDydxBalances()": {
        "details": "Returns the balances of all currencies supported by dYdX.",
        "return": "An array of ERC20 token contract addresses and a corresponding array of balances."
      },
      "getPoolBalance(uint8,string)": {
        "details": "Returns the fund controller's balance of the specified currency in the specified pool.Ideally, we can add the view modifier, but Compound's `getUnderlyingBalance` function (called by `CompoundPoolController.getBalance`) potentially modifies the state.",
        "params": {
          "currencyCode": "The currency code of the token.",
          "pool": "The index of the pool."
        }
      },
      "getPoolBalances(string)": {
        "details": "Ideally, we can add the view modifier, but Compound's `getUnderlyingBalance` function (called by `getPoolBalance`) potentially modifies the state.",
        "params": {
          "currencyCode": "The currency code whose balance is to be calculated."
        },
        "return": "An array of pool indexes and an array of corresponding balances."
      },
      "hasCurrencyInPool(uint8,string)": {
        "details": "Return a boolean indicating if the fund controller has funds in `currencyCode` in `pool`.",
        "params": {
          "currencyCode": "The currency code of the token to check.",
          "pool": "The index of the pool to check."
        }
      },
      "isOwner()": {
        "details": "Returns true if the caller is the current owner."
      },
      "marketSell0xOrdersFillOrKill((address,address,address,address,uint256,uint256,uint256,uint256,uint256,uint256,bytes,bytes,bytes,bytes)[],bytes[],uint256)": {
        "details": "Market sell to 0x exchange orders (reverting if `takerAssetFillAmount` is not filled). We should be able to make this function external and use calldata for all parameters, but Solidity does not support calldata structs (https://github.com/ethereum/solidity/issues/5479).",
        "params": {
          "orders": "The limit orders to be filled in ascending order of price.",
          "signatures": "The signatures for the orders.",
          "takerAssetFillAmount": "The amount of the taker asset to sell (excluding taker fees)."
        },
        "return": "Boolean indicating success."
      },
      "owner()": {
        "details": "Returns the address of the current owner."
      },
      "renounceOwnership()": {
        "details": "Leaves the contract without owner. It will not be possible to call `onlyOwner` functions anymore. Can only be called by the current owner.     * NOTE: Renouncing ownership will leave the contract without an owner, thereby removing any functionality that is only available to the owner."
      },
      "setFundManager(address)": {
        "details": "Sets or upgrades the RariFundManager of the RariFundController.",
        "params": {
          "newContract": "The address of the new RariFundManager contract."
        }
      },
      "setFundRebalancer(address)": {
        "details": "Sets or upgrades the rebalancer of the RariFundController.",
        "params": {
          "newAddress": "The Ethereum address of the new rebalancer server."
        }
      },
      "transferOwnership(address)": {
        "details": "Transfers ownership of the contract to a new account (`newOwner`). Can only be called by the current owner."
      },
      "withdrawAllFromPool(uint8,string)": {
        "details": "Withdraws all funds from the specified pool.",
        "params": {
          "currencyCode": "The ERC20 contract of the token to be withdrawn.",
          "pool": "The index of the pool."
        },
        "return": "Boolean indicating success."
      },
      "withdrawAllFromPoolOnUpgrade(uint8,string)": {
        "details": "Withdraws all funds from the specified pool (without requiring the fund to be enabled).",
        "params": {
          "currencyCode": "The ERC20 contract of the token to be withdrawn.",
          "pool": "The index of the pool."
        },
        "return": "Boolean indicating success."
      },
      "withdrawFromPool(uint8,string,uint256)": {
        "details": "Withdraws funds from the specified pool.",
        "params": {
          "amount": "The amount of tokens to be withdrawn.",
          "currencyCode": "The currency code of the token to be withdrawn.",
          "pool": "The index of the pool."
        },
        "return": "Boolean indicating success."
      },
      "withdrawFromPoolKnowingBalance(uint8,string,uint256,uint256)": {
        "details": "Withdraws funds from the specified pool (caching the `initialBalance` parameter).",
        "params": {
          "amount": "The amount of tokens to be withdrawn.",
          "currencyCode": "The currency code of the token to be withdrawn.",
          "initialBalance": "The fund's balance of the specified currency in the specified pool before the withdrawal.",
          "pool": "The index of the pool."
        },
        "return": "Boolean indicating success."
      }
    },
    "title": "RariFundController"
  },
  "userdoc": {
    "methods": {
      "getPoolBalances(string)": {
        "notice": "Returns the fund controller's balance of each pool of the specified currency."
      }
    }
  }
}