{
  "contractName": "RariFundProxy",
  "abi": [
    {
      "inputs": [],
      "payable": false,
      "stateMutability": "nonpayable",
      "type": "constructor"
    },
    {
      "anonymous": false,
      "inputs": [
        {
          "indexed": false,
          "internalType": "address",
          "name": "newContract",
          "type": "address"
        }
      ],
      "name": "FundManagerSet",
      "type": "event"
    },
    {
      "anonymous": false,
      "inputs": [
        {
          "indexed": true,
          "internalType": "address",
          "name": "previousOwner",
          "type": "address"
        },
        {
          "indexed": true,
          "internalType": "address",
          "name": "newOwner",
          "type": "address"
        }
      ],
      "name": "OwnershipTransferred",
      "type": "event"
    },
    {
      "anonymous": false,
      "inputs": [
        {
          "indexed": true,
          "internalType": "string",
          "name": "inputCurrencyCode",
          "type": "string"
        },
        {
          "indexed": true,
          "internalType": "address",
          "name": "outputErc20Contract",
          "type": "address"
        },
        {
          "indexed": true,
          "internalType": "address",
          "name": "payee",
          "type": "address"
        },
        {
          "indexed": false,
          "internalType": "uint256",
          "name": "withdrawalAmount",
          "type": "uint256"
        },
        {
          "indexed": false,
          "internalType": "uint256",
          "name": "takerAssetFilledAmount",
          "type": "uint256"
        }
      ],
      "name": "PostWithdrawalExchange",
      "type": "event"
    },
    {
      "anonymous": false,
      "inputs": [
        {
          "indexed": true,
          "internalType": "address",
          "name": "inputErc20Contract",
          "type": "address"
        },
        {
          "indexed": true,
          "internalType": "string",
          "name": "outputCurrencyCode",
          "type": "string"
        },
        {
          "indexed": true,
          "internalType": "address",
          "name": "payee",
          "type": "address"
        },
        {
          "indexed": false,
          "internalType": "uint256",
          "name": "makerAssetFilledAmount",
          "type": "uint256"
        },
        {
          "indexed": false,
          "internalType": "uint256",
          "name": "depositAmount",
          "type": "uint256"
        }
      ],
      "name": "PreDepositExchange",
      "type": "event"
    },
    {
      "payable": true,
      "stateMutability": "payable",
      "type": "fallback"
    },
    {
      "constant": true,
      "inputs": [],
      "name": "isOwner",
      "outputs": [
        {
          "internalType": "bool",
          "name": "",
          "type": "bool"
        }
      ],
      "payable": false,
      "stateMutability": "view",
      "type": "function"
    },
    {
      "constant": true,
      "inputs": [],
      "name": "owner",
      "outputs": [
        {
          "internalType": "address",
          "name": "",
          "type": "address"
        }
      ],
      "payable": false,
      "stateMutability": "view",
      "type": "function"
    },
    {
      "constant": false,
      "inputs": [],
      "name": "renounceOwnership",
      "outputs": [],
      "payable": false,
      "stateMutability": "nonpayable",
      "type": "function"
    },
    {
      "constant": false,
      "inputs": [
        {
          "internalType": "address",
          "name": "newOwner",
          "type": "address"
        }
      ],
      "name": "transferOwnership",
      "outputs": [],
      "payable": false,
      "stateMutability": "nonpayable",
      "type": "function"
    },
    {
      "constant": false,
      "inputs": [
        {
          "internalType": "address payable",
          "name": "newContract",
          "type": "address"
        }
      ],
      "name": "setFundManager",
      "outputs": [],
      "payable": false,
      "stateMutability": "nonpayable",
      "type": "function"
    },
    {
      "constant": false,
      "inputs": [
        {
          "internalType": "address",
          "name": "inputErc20Contract",
          "type": "address"
        },
        {
          "internalType": "uint256",
          "name": "inputAmount",
          "type": "uint256"
        },
        {
          "internalType": "string",
          "name": "outputCurrencyCode",
          "type": "string"
        },
        {
          "components": [
            {
              "internalType": "address",
              "name": "makerAddress",
              "type": "address"
            },
            {
              "internalType": "address",
              "name": "takerAddress",
              "type": "address"
            },
            {
              "internalType": "address",
              "name": "feeRecipientAddress",
              "type": "address"
            },
            {
              "internalType": "address",
              "name": "senderAddress",
              "type": "address"
            },
            {
              "internalType": "uint256",
              "name": "makerAssetAmount",
              "type": "uint256"
            },
            {
              "internalType": "uint256",
              "name": "takerAssetAmount",
              "type": "uint256"
            },
            {
              "internalType": "uint256",
              "name": "makerFee",
              "type": "uint256"
            },
            {
              "internalType": "uint256",
              "name": "takerFee",
              "type": "uint256"
            },
            {
              "internalType": "uint256",
              "name": "expirationTimeSeconds",
              "type": "uint256"
            },
            {
              "internalType": "uint256",
              "name": "salt",
              "type": "uint256"
            },
            {
              "internalType": "bytes",
              "name": "makerAssetData",
              "type": "bytes"
            },
            {
              "internalType": "bytes",
              "name": "takerAssetData",
              "type": "bytes"
            },
            {
              "internalType": "bytes",
              "name": "makerFeeAssetData",
              "type": "bytes"
            },
            {
              "internalType": "bytes",
              "name": "takerFeeAssetData",
              "type": "bytes"
            }
          ],
          "internalType": "struct LibOrder.Order[]",
          "name": "orders",
          "type": "tuple[]"
        },
        {
          "internalType": "bytes[]",
          "name": "signatures",
          "type": "bytes[]"
        },
        {
          "internalType": "uint256",
          "name": "takerAssetFillAmount",
          "type": "uint256"
        }
      ],
      "name": "exchangeAndDeposit",
      "outputs": [
        {
          "internalType": "bool",
          "name": "",
          "type": "bool"
        }
      ],
      "payable": true,
      "stateMutability": "payable",
      "type": "function"
    },
    {
      "constant": false,
      "inputs": [
        {
          "internalType": "string[]",
          "name": "inputCurrencyCodes",
          "type": "string[]"
        },
        {
          "internalType": "uint256[]",
          "name": "inputAmounts",
          "type": "uint256[]"
        },
        {
          "internalType": "address",
          "name": "outputErc20Contract",
          "type": "address"
        },
        {
          "components": [
            {
              "internalType": "address",
              "name": "makerAddress",
              "type": "address"
            },
            {
              "internalType": "address",
              "name": "takerAddress",
              "type": "address"
            },
            {
              "internalType": "address",
              "name": "feeRecipientAddress",
              "type": "address"
            },
            {
              "internalType": "address",
              "name": "senderAddress",
              "type": "address"
            },
            {
              "internalType": "uint256",
              "name": "makerAssetAmount",
              "type": "uint256"
            },
            {
              "internalType": "uint256",
              "name": "takerAssetAmount",
              "type": "uint256"
            },
            {
              "internalType": "uint256",
              "name": "makerFee",
              "type": "uint256"
            },
            {
              "internalType": "uint256",
              "name": "takerFee",
              "type": "uint256"
            },
            {
              "internalType": "uint256",
              "name": "expirationTimeSeconds",
              "type": "uint256"
            },
            {
              "internalType": "uint256",
              "name": "salt",
              "type": "uint256"
            },
            {
              "internalType": "bytes",
              "name": "makerAssetData",
              "type": "bytes"
            },
            {
              "internalType": "bytes",
              "name": "takerAssetData",
              "type": "bytes"
            },
            {
              "internalType": "bytes",
              "name": "makerFeeAssetData",
              "type": "bytes"
            },
            {
              "internalType": "bytes",
              "name": "takerFeeAssetData",
              "type": "bytes"
            }
          ],
          "internalType": "struct LibOrder.Order[][]",
          "name": "orders",
          "type": "tuple[][]"
        },
        {
          "internalType": "bytes[][]",
          "name": "signatures",
          "type": "bytes[][]"
        },
        {
          "internalType": "uint256[]",
          "name": "makerAssetFillAmounts",
          "type": "uint256[]"
        },
        {
          "internalType": "uint256[]",
          "name": "protocolFees",
          "type": "uint256[]"
        }
      ],
      "name": "withdrawAndExchange",
      "outputs": [
        {
          "internalType": "bool",
          "name": "",
          "type": "bool"
        }
      ],
      "payable": true,
      "stateMutability": "payable",
      "type": "function"
    }
  ],
  "bytecode": "0x60806040523480156200001157600080fd5b506000620000276001600160e01b036200014216565b600080546001600160a01b0319166001600160a01b0383169081178255604051929350917f8be0079c531659141344cd1fd0a4f28419497f9722a3daafe3b4186f6b6457e0908290a35060408051808201909152600381526244414960e81b6020820152620000b490736b175474e89094c44da98b954eedeac495271d0f6001600160e01b036200014716565b6040805180820190915260048152635553444360e01b6020820152620000f89073a0b86991c6218b36c1d19d4a2e9eb0ce3606eb486001600160e01b036200014716565b6040805180820190915260048152631554d11560e21b60208201526200013c9073dac17f958d2ee523a2206206994597c13d831ec76001600160e01b036200014716565b62000b39565b335b90565b6001805480820180835560009290925283516200018c917fb10e2d527612073b26eecdfd717e6a320cf44b4afac2b0732d9fcbe2b7fa0cf60190602086019062000729565b505080600283604051620001a19190620009f2565b908152602001604051809103902060006101000a8154816001600160a01b0302191690836001600160a01b03160217905550620001ec816000196200021860201b620010361760201c565b620002145760405162461bcd60e51b81526004016200020b9062000a75565b60405180910390fd5b5050565b604051636eb1769f60e11b8152600090839082906001600160a01b0383169063dd62ed3e90620002639030907395e6f48254609a6ee006f7d493c8e5fb97094cef9060040162000a00565b60206040518083038186803b1580156200027c57600080fd5b505afa15801562000291573d6000803e3d6000fd5b505050506040513d601f19601f82011682018060405250620002b7919081019062000806565b9050808410156200031a57620003147395e6f48254609a6ee006f7d493c8e5fb97094cef620002f586846200038260201b620011711790919060201c565b846001600160a01b0316620003d360201b62000d1f179092919060201c565b62000375565b808411156200037557620003757395e6f48254609a6ee006f7d493c8e5fb97094cef6200035683876200038260201b620011711790919060201c565b846001600160a01b0316620004f460201b62000e2b179092919060201c565b6001925050505b92915050565b6000620003cc83836040518060400160405280601e81526020017f536166654d6174683a207375627472616374696f6e206f766572666c6f7700008152506200059360201b60201c565b9392505050565b60006200048d826040518060600160405280602981526020016200346060299139604051636eb1769f60e11b81526001600160a01b0388169063dd62ed3e90620004249030908a9060040162000a00565b60206040518083038186803b1580156200043d57600080fd5b505afa15801562000452573d6000803e3d6000fd5b505050506040513d601f19601f8201168201806040525062000478919081019062000806565b6200059360201b620012ea179092919060201c565b604051909150620004ee90859063095ea7b360e01b90620004b5908790869060240162000a1f565b60408051808303601f190181529190526020810180516001600160e01b0319939093166001600160e01b0393841617905290620005c216565b50505050565b60006200048d82856001600160a01b031663dd62ed3e30876040518363ffffffff1660e01b81526004016200052b92919062000a00565b60206040518083038186803b1580156200054457600080fd5b505afa15801562000559573d6000803e3d6000fd5b505050506040513d601f19601f820116820180604052506200057f919081019062000806565b620006c460201b620013fb1790919060201c565b60008184841115620005ba5760405162461bcd60e51b81526004016200020b919062000a3e565b505050900390565b620005e1826001600160a01b0316620006ec60201b620014201760201c565b620006005760405162461bcd60e51b81526004016200020b9062000a99565b60006060836001600160a01b0316836040516200061e9190620009f2565b6000604051808303816000865af19150503d80600081146200065d576040519150601f19603f3d011682016040523d82523d6000602084013e62000662565b606091505b509150915081620006875760405162461bcd60e51b81526004016200020b9062000a63565b805115620004ee5780806020019051620006a59190810190620007e5565b620004ee5760405162461bcd60e51b81526004016200020b9062000a87565b600082820183811015620003cc5760405162461bcd60e51b81526004016200020b9062000a51565b6000813f7fc5d2460186f7233c927e7db2dcc703c0e500b653ca82273b7bfad8045d85a4708181148015906200072157508115155b949350505050565b828054600181600116156101000203166002900490600052602060002090601f016020900481019282601f106200076c57805160ff19168380011785556200079c565b828001600101855582156200079c579182015b828111156200079c5782518255916020019190600101906200077f565b50620007aa929150620007ae565b5090565b6200014491905b80821115620007aa5760008155600101620007b5565b80516200037c8162000b14565b80516200037c8162000b2e565b600060208284031215620007f857600080fd5b6000620007218484620007cb565b6000602082840312156200081957600080fd5b6000620007218484620007d8565b620008328162000abd565b82525050565b6000620008458262000aab565b62000851818562000aaf565b93506200086381856020860162000adb565b9290920192915050565b60006200087a8262000aab565b62000886818562000ab4565b93506200089881856020860162000adb565b620008a38162000b0a565b9093019392505050565b6000620008bc601b8362000ab4565b7f536166654d6174683a206164646974696f6e206f766572666c6f770000000000815260200192915050565b6000620008f760208362000ab4565b7f5361666545524332303a206c6f772d6c6576656c2063616c6c206661696c6564815260200192915050565b60006200093260208362000ab4565b7f417070726f76616c206f6620746f6b656e7320746f203078206661696c65642e815260200192915050565b60006200096d602a8362000ab4565b7f5361666545524332303a204552433230206f7065726174696f6e20646964206e8152691bdd081cdd58d8d9595960b21b602082015260400192915050565b6000620009bb601f8362000ab4565b7f5361666545524332303a2063616c6c20746f206e6f6e2d636f6e747261637400815260200192915050565b620008328162000144565b6000620003cc828462000838565b6040810162000a10828562000827565b620003cc602083018462000827565b6040810162000a2f828562000827565b620003cc6020830184620009e7565b60208082528101620003cc81846200086d565b602080825281016200037c81620008ad565b602080825281016200037c81620008e8565b602080825281016200037c8162000923565b602080825281016200037c816200095e565b602080825281016200037c81620009ac565b5190565b919050565b90815260200190565b60006200037c8262000acf565b151590565b6001600160a01b031690565b60005b8381101562000af857818101518382015260200162000ade565b83811115620004ee5750506000910152565b601f01601f191690565b62000b1f8162000aca565b811462000b2b57600080fd5b50565b62000b1f8162000144565b6129178062000b496000396000f3fe6080604052600436106100705760003560e01c80638f32d59b1161004e5780638f32d59b146100d2578063b51c5738146100f4578063ddf29a0714610107578063f2fde38b1461011a57610070565b8063232a306014610072578063715018a6146100925780638da5cb5b146100a7575b005b34801561007e57600080fd5b5061007061008d366004611a4f565b61013a565b34801561009e57600080fd5b5061007061026f565b3480156100b357600080fd5b506100bc6102dd565b6040516100c9919061254c565b60405180910390f35b3480156100de57600080fd5b506100e76102ec565b6040516100c99190612627565b6100e7610102366004611b39565b610310565b6100e7610115366004611a6d565b610802565b34801561012657600080fd5b50610070610135366004611a4f565b610cef565b6101426102ec565b6101675760405162461bcd60e51b815260040161015e906126e6565b60405180910390fd5b60005b60015481101561021857600060026001838154811061018557fe5b9060005260206000200160405161019c9190612540565b908152604051908190036020019020546003546001600160a01b03918216925016156101e4576003546101e4906001600160a01b03838116911660001963ffffffff610d1f16565b6001600160a01b0383161561020f5761020f6001600160a01b0382168460001963ffffffff610e2b16565b5060010161016a565b50600380546001600160a01b0319166001600160a01b0383161790556040517ff980c1430e55b1867cd9337a1f20246ab3b7255032486d0b71c24e820eebf3ab9061026490839061255a565b60405180910390a150565b6102776102ec565b6102935760405162461bcd60e51b815260040161015e906126e6565b600080546040516001600160a01b03909116907f8be0079c531659141344cd1fd0a4f28419497f9722a3daafe3b4186f6b6457e0908390a3600080546001600160a01b0319169055565b6000546001600160a01b031690565b600080546001600160a01b0316610301610ebb565b6001600160a01b031614905090565b6003546000906001600160a01b031661033b5760405162461bcd60e51b815260040161015e90612706565b8651885114801561034d575084518851145b801561035a575083518851145b8015610367575082518851145b8015610374575081518851145b6103905760405162461bcd60e51b815260040161015e90612676565b60005b885181101561060c5760008882815181106103aa57fe5b6020026020010151116103cf5760405162461bcd60e51b815260040161015e906126c6565b60035489516001600160a01b039091169063c23e5e819033908c90859081106103f457fe5b60200260200101518b858151811061040857fe5b60200260200101516040518463ffffffff1660e01b815260040161042e93929190612568565b602060405180830381600087803b15801561044857600080fd5b505af115801561045c573d6000803e3d6000fd5b505050506040513d601f19601f820116820180604052506104809190810190611c5e565b61048957600080fd5b600086828151811061049757fe5b6020026020010151511180156104c1575060008582815181106104b657fe5b602002602001015151115b80156104e0575060008482815181106104d657fe5b6020026020010151115b156106045784518651146105065760405162461bcd60e51b815260040161015e90612736565b61050e611459565b61056687838151811061051d57fe5b602002602001015187848151811061053157fe5b602002602001015187858151811061054557fe5b602002602001015187868151811061055957fe5b6020026020010151610ebf565b9050336001600160a01b0316886001600160a01b03168b848151811061058857fe5b602002602001015160405161059d9190612534565b60405180910390207f62e482b58c21799e527c0bf559d385ef3cefdcbfe572b563b37b2b64d3e0d9178c86815181106105d257fe5b6020026020010151856001600281106105e757fe5b60200201516040516105fa929190612774565b60405180910390a4505b600101610393565b506001600160a01b038616610717576040516370a0823160e01b815260009073c02aaa39b223fe8d0a0e5c4f27ead9083c756cc2906370a082319061065590309060040161255a565b60206040518083038186803b15801561066d57600080fd5b505afa158015610681573d6000803e3d6000fd5b505050506040513d601f19601f820116820180604052506106a59190810190611c9a565b604051632e1a7d4d60e01b815290915073c02aaa39b223fe8d0a0e5c4f27ead9083c756cc290632e1a7d4d906106df908490600401612766565b600060405180830381600087803b1580156106f957600080fd5b505af115801561070d573d6000803e3d6000fd5b50505050506107bd565b6040516370a0823160e01b815286906000906001600160a01b038316906370a082319061074890309060040161255a565b60206040518083038186803b15801561076057600080fd5b505afa158015610774573d6000803e3d6000fd5b505050506040513d601f19601f820116820180604052506107989190810190611c9a565b905080156107ba576107ba6001600160a01b038316338363ffffffff610feb16565b50505b4780156107f357604051339082156108fc029083906000818181858888f193505050501580156107f1573d6000803e3d6000fd5b505b50600198975050505050505050565b6003546000906001600160a01b031661082d5760405162461bcd60e51b815260040161015e90612706565b6000861161084d5760405162461bcd60e51b815260040161015e90612656565b600060028660405161085f9190612534565b908152604051908190036020019020546001600160a01b03169050806108975760405162461bcd60e51b815260040161015e906126d6565b60008551116108b85760405162461bcd60e51b815260040161015e906126b6565b83518551146108d95760405162461bcd60e51b815260040161015e906126a6565b600083116108f95760405162461bcd60e51b815260040161015e90612716565b6001600160a01b0388166109745773c02aaa39b223fe8d0a0e5c4f27ead9083c756cc26001600160a01b031663d0e30db0886040518263ffffffff1660e01b81526004016000604051808303818588803b15801561095657600080fd5b505af115801561096a573d6000803e3d6000fd5b505050505061098f565b61098f6001600160a01b03891633308a63ffffffff61101216565b6109c36001600160a01b038916156109a757886109bd565b73c02aaa39b223fe8d0a0e5c4f27ead9083c756cc25b88611036565b506109cc611459565b6109fc8686866001600160a01b038d16156109e757346109f7565b6109f7348d63ffffffff61117116565b6111ba565b90506001600160a01b038916610b0e576040516370a0823160e01b815260009073c02aaa39b223fe8d0a0e5c4f27ead9083c756cc2906370a0823190610a4690309060040161255a565b60206040518083038186803b158015610a5e57600080fd5b505afa158015610a72573d6000803e3d6000fd5b505050506040513d601f19601f82011682018060405250610a969190810190611c9a565b90508015610b0857604051632e1a7d4d60e01b815273c02aaa39b223fe8d0a0e5c4f27ead9083c756cc290632e1a7d4d90610ad5908490600401612766565b600060405180830381600087803b158015610aef57600080fd5b505af1158015610b03573d6000803e3d6000fd5b505050505b50610bb4565b6040516370a0823160e01b815289906000906001600160a01b038316906370a0823190610b3f90309060040161255a565b60206040518083038186803b158015610b5757600080fd5b505afa158015610b6b573d6000803e3d6000fd5b505050506040513d601f19601f82011682018060405250610b8f9190810190611c9a565b90508015610bb157610bb16001600160a01b038316338363ffffffff610feb16565b50505b6040513390610bc4908990612534565b6040519081900381208351602085015191926001600160a01b038e16927f28784a5e1360937cd93c35bfd5f7425fd500dd7721d4db798b878c787aa5d24792610c0f92909190612774565b60405180910390a46003546020820151604051634ef446b960e11b81526001600160a01b0390921691639de88d7291610c4e9133918c91600401612568565b602060405180830381600087803b158015610c6857600080fd5b505af1158015610c7c573d6000803e3d6000fd5b505050506040513d601f19601f82011682018060405250610ca09190810190611c5e565b610ca957600080fd5b478015610cdf57604051339082156108fc029083906000818181858888f19350505050158015610cdd573d6000803e3d6000fd5b505b5060019998505050505050505050565b610cf76102ec565b610d135760405162461bcd60e51b815260040161015e906126e6565b610d1c81611269565b50565b6000610dc9826040518060600160405280602981526020016128ac60299139604051636eb1769f60e11b81526001600160a01b0388169063dd62ed3e90610d6c9030908a90600401612597565b60206040518083038186803b158015610d8457600080fd5b505afa158015610d98573d6000803e3d6000fd5b505050506040513d601f19601f82011682018060405250610dbc9190810190611c9a565b919063ffffffff6112ea16565b604051909150610e2590859063095ea7b360e01b90610dee90879086906024016125da565b60408051601f198184030181529190526020810180516001600160e01b03166001600160e01b031990931692909217909152611316565b50505050565b6000610dc982856001600160a01b031663dd62ed3e30876040518363ffffffff1660e01b8152600401610e5f929190612597565b60206040518083038186803b158015610e7757600080fd5b505afa158015610e8b573d6000803e3d6000fd5b505050506040513d601f19601f82011682018060405250610eaf9190810190611c9a565b9063ffffffff6113fb16565b3390565b610ec7611459565b6000855111610ee85760405162461bcd60e51b815260040161015e90612646565b8351855114610f095760405162461bcd60e51b815260040161015e906126f6565b60008311610f295760405162461bcd60e51b815260040161015e90612746565b610f31611477565b604051638bc8efb360e01b81527361935cbdd02287b511119ddb11aeb42f1593b7ef90638bc8efb3908590610f6e908a9089908b906004016125f5565b60a0604051808303818588803b158015610f8757600080fd5b505af1158015610f9b573d6000803e3d6000fd5b50505050506040513d601f19601f82011682018060405250610fc09190810190611c7c565b905060405180604001604052808260200151815260200182600001518152509150505b949350505050565b60405161100d90849063a9059cbb60e01b90610dee90869086906024016125da565b505050565b604051610e259085906323b872dd60e01b90610dee908790879087906024016125b2565b604051636eb1769f60e11b8152600090839082906001600160a01b0383169063dd62ed3e9061107f9030907395e6f48254609a6ee006f7d493c8e5fb97094cef90600401612597565b60206040518083038186803b15801561109757600080fd5b505afa1580156110ab573d6000803e3d6000fd5b505050506040513d601f19601f820116820180604052506110cf9190810190611c9a565b90508084101561111d576111187395e6f48254609a6ee006f7d493c8e5fb97094cef611101838763ffffffff61117116565b6001600160a01b038516919063ffffffff610d1f16565b611164565b80841115611164576111647395e6f48254609a6ee006f7d493c8e5fb97094cef61114d868463ffffffff61117116565b6001600160a01b038516919063ffffffff610e2b16565b6001925050505b92915050565b60006111b383836040518060400160405280601e81526020017f536166654d6174683a207375627472616374696f6e206f766572666c6f7700008152506112ea565b9392505050565b6111c2611459565b60008551116111e35760405162461bcd60e51b815260040161015e90612646565b83518551146112045760405162461bcd60e51b815260040161015e906126f6565b600083116112245760405162461bcd60e51b815260040161015e90612716565b61122c611477565b60405163a6c3bf3360e01b81527361935cbdd02287b511119ddb11aeb42f1593b7ef9063a6c3bf33908590610f6e908a9089908b906004016125f5565b6001600160a01b03811661128f5760405162461bcd60e51b815260040161015e90612666565b600080546040516001600160a01b03808516939216917f8be0079c531659141344cd1fd0a4f28419497f9722a3daafe3b4186f6b6457e091a3600080546001600160a01b0319166001600160a01b0392909216919091179055565b6000818484111561130e5760405162461bcd60e51b815260040161015e9190612635565b505050900390565b611328826001600160a01b0316611420565b6113445760405162461bcd60e51b815260040161015e90612756565b60006060836001600160a01b0316836040516113609190612534565b6000604051808303816000865af19150503d806000811461139d576040519150601f19603f3d011682016040523d82523d6000602084013e6113a2565b606091505b5091509150816113c45760405162461bcd60e51b815260040161015e90612696565b805115610e2557808060200190516113df9190810190611c5e565b610e255760405162461bcd60e51b815260040161015e90612726565b6000828201838110156111b35760405162461bcd60e51b815260040161015e90612686565b6000813f7fc5d2460186f7233c927e7db2dcc703c0e500b653ca82273b7bfad8045d85a470818114801590610fe3575050151592915050565b60405180604001604052806002906020820280388339509192915050565b6040518060a0016040528060008152602001600081526020016000815260200160008152602001600081525090565b803561116b81612885565b600082601f8301126114c257600080fd5b81356114d56114d0826127a8565b612782565b81815260209384019390925082018360005b8381101561151357813586016114fd888261157a565b84525060209283019291909101906001016114e7565b5050505092915050565b600082601f83011261152e57600080fd5b813561153c6114d0826127a8565b81815260209384019390925082018360005b8381101561151357813586016115648882611691565b845250602092830192919091019060010161154e565b600082601f83011261158b57600080fd5b81356115996114d0826127a8565b81815260209384019390925082018360005b8381101561151357813586016115c188826117c6565b84525060209283019291909101906001016115ab565b600082601f8301126115e857600080fd5b81356115f66114d0826127a8565b81815260209384019390925082018360005b83811015611513578135860161161e88826117c6565b8452506020928301929190910190600101611608565b600082601f83011261164557600080fd5b81356116536114d0826127a8565b81815260209384019390925082018360005b83811015611513578135860161167b88826117c6565b8452506020928301929190910190600101611665565b600082601f8301126116a257600080fd5b81356116b06114d0826127a8565b81815260209384019390925082018360005b8381101561151357813586016116d88882611898565b84525060209283019291909101906001016116c2565b600082601f8301126116ff57600080fd5b813561170d6114d0826127a8565b81815260209384019390925082018360005b8381101561151357813586016117358882611898565b845250602092830192919091019060010161171f565b600082601f83011261175c57600080fd5b813561176a6114d0826127a8565b9150818183526020840193506020810190508385602084028201111561178f57600080fd5b60005b8381101561151357816117a58882611a39565b8452506020928301929190910190600101611792565b805161116b81612899565b600082601f8301126117d757600080fd5b81356117e56114d0826127c8565b9150808252602083016020830185838301111561180157600080fd5b61180c838284612843565b50505092915050565b600060a0828403121561182757600080fd5b61183160a0612782565b9050600061183f8484611a44565b825250602061185084848301611a44565b602083015250604061186484828501611a44565b604083015250606061187884828501611a44565b606083015250608061188c84828501611a44565b60808301525092915050565b60006101c082840312156118ab57600080fd5b6118b66101c0612782565b905060006118c484846114a6565b82525060206118d5848483016114a6565b60208301525060406118e9848285016114a6565b60408301525060606118fd848285016114a6565b606083015250608061191184828501611a39565b60808301525060a061192584828501611a39565b60a08301525060c061193984828501611a39565b60c08301525060e061194d84828501611a39565b60e08301525061010061196284828501611a39565b6101008301525061012061197884828501611a39565b610120830152506101408201356001600160401b0381111561199957600080fd5b6119a5848285016117c6565b610140830152506101608201356001600160401b038111156119c657600080fd5b6119d2848285016117c6565b610160830152506101808201356001600160401b038111156119f357600080fd5b6119ff848285016117c6565b610180830152506101a08201356001600160401b03811115611a2057600080fd5b611a2c848285016117c6565b6101a08301525092915050565b803561116b816128a2565b805161116b816128a2565b600060208284031215611a6157600080fd5b6000610fe384846114a6565b60008060008060008060c08789031215611a8657600080fd5b6000611a9289896114a6565b9650506020611aa389828a01611a39565b95505060408701356001600160401b03811115611abf57600080fd5b611acb89828a016117c6565b94505060608701356001600160401b03811115611ae757600080fd5b611af389828a016116ee565b93505060808701356001600160401b03811115611b0f57600080fd5b611b1b89828a016115d7565b92505060a0611b2c89828a01611a39565b9150509295509295509295565b600080600080600080600060e0888a031215611b5457600080fd5b87356001600160401b03811115611b6a57600080fd5b611b768a828b01611634565b97505060208801356001600160401b03811115611b9257600080fd5b611b9e8a828b0161174b565b9650506040611baf8a828b016114a6565b95505060608801356001600160401b03811115611bcb57600080fd5b611bd78a828b0161151d565b94505060808801356001600160401b03811115611bf357600080fd5b611bff8a828b016114b1565b93505060a08801356001600160401b03811115611c1b57600080fd5b611c278a828b0161174b565b92505060c08801356001600160401b03811115611c4357600080fd5b611c4f8a828b0161174b565b91505092959891949750929550565b600060208284031215611c7057600080fd5b6000610fe384846117bb565b600060a08284031215611c8e57600080fd5b6000610fe38484611815565b600060208284031215611cac57600080fd5b6000610fe38484611a44565b60006111b38383611def565b60006111b383836123f0565b611cd981612832565b82525050565b611cd981612813565b6000611cf382612801565b611cfd8185612805565b935083602082028501611d0f856127ef565b8060005b85811015611d495784840389528151611d2c8582611cb8565b9450611d37836127ef565b60209a909a0199925050600101611d13565b5091979650505050505050565b6000611d6182612801565b611d6b8185612805565b935083602082028501611d7d856127ef565b8060005b85811015611d495784840389528151611d9a8582611cc4565b9450611da5836127ef565b60209a909a0199925050600101611d81565b611cd98161281e565b6000611dcb82612801565b611dd5818561280e565b9350611de581856020860161284f565b9290920192915050565b6000611dfa82612801565b611e048185612805565b9350611e1481856020860161284f565b611e1d8161287b565b9093019392505050565b600081546001811660008114611e445760018114611e6757611ea6565b607f6002830416611e55818761280e565b60ff1984168152955085019250611ea6565b60028204611e75818761280e565b9550611e80856127f5565b60005b82811015611e9f57815488820152600190910190602001611e83565b5050850192505b505092915050565b6000611ebb603683612805565b7f4174206c65617374206f6e65206f7264657220616e64206d61746368696e672081527539b4b3b730ba3ab9329034b9903932b8bab4b932b21760511b602082015260400192915050565b6000611f13602483612805565b7f496e70757420616d6f756e74206d7573742062652067726561746572207468618152633710181760e11b602082015260400192915050565b6000611f59602683612805565b7f4f776e61626c653a206e6577206f776e657220697320746865207a65726f206181526564647265737360d01b602082015260400192915050565b6000611fa1602d83612805565b7f417272617920706172616d657465727320617265206e6f7420616c6c2074686581526c1039b0b6b2903632b733ba341760991b602082015260400192915050565b6000611ff0601b83612805565b7f536166654d6174683a206164646974696f6e206f766572666c6f770000000000815260200192915050565b6000612029602083612805565b7f5361666545524332303a206c6f772d6c6576656c2063616c6c206661696c6564815260200192915050565b6000612062603583612805565b7f4c656e677468206f66206f726465727320616e64207369676e6174757265732081527430b93930bcb99036bab9ba1031329032b8bab0b61760591b602082015260400192915050565b60006120b9601683612805565b7527b93232b9399030b93930bc9034b99032b6b83a3c9760511b815260200192915050565b60006120eb602983612805565b7f416c6c20696e70757420616d6f756e7473206d7573742062652067726561746581526839103a3430b710181760b91b602082015260400192915050565b6000612136601d83612805565b7f496e76616c6964206f75747075742063757272656e637920636f64652e000000815260200192915050565b600061216f602083612805565b7f4f776e61626c653a2063616c6c6572206973206e6f7420746865206f776e6572815260200192915050565b60006121a8603183612805565b7f4d69736d61746368206265747765656e206e756d626572206f66206f72646572815270399030b7321039b4b3b730ba3ab932b99760791b602082015260400192915050565b60006121fb605483612805565b7f46756e64206d616e6167657220636f6e7472616374206e6f74207365742e205481527f686973206d61792062652064756520746f20616e2075706772616465206f66206020820152733a3434b990383937bc3c9031b7b73a3930b1ba1760611b604082015260600192915050565b6000612277602f83612805565b7f54616b65722061737365742066696c6c20616d6f756e74206d7573742062652081526e33b932b0ba32b9103a3430b710181760891b602082015260400192915050565b60006122c8602a83612805565b7f5361666545524332303a204552433230206f7065726174696f6e20646964206e8152691bdd081cdd58d8d9595960b21b602082015260400192915050565b6000612314603983612805565b7f4c656e677468206f6620616c6c206f726465727320616e64207369676e61747581527f72657320617272617973206d75737420626520657175616c2e00000000000000602082015260400192915050565b6000612373602f83612805565b7f4d616b65722061737365742066696c6c20616d6f756e74206d7573742062652081526e33b932b0ba32b9103a3430b710181760891b602082015260400192915050565b60006123c4601f83612805565b7f5361666545524332303a2063616c6c20746f206e6f6e2d636f6e747261637400815260200192915050565b80516000906101c08401906124058582611cdf565b5060208301516124186020860182611cdf565b50604083015161242b6040860182611cdf565b50606083015161243e6060860182611cdf565b506080830151612451608086018261252b565b5060a083015161246460a086018261252b565b5060c083015161247760c086018261252b565b5060e083015161248a60e086018261252b565b5061010083015161249f61010086018261252b565b506101208301516124b461012086018261252b565b506101408301518482036101408601526124ce8282611def565b9150506101608301518482036101608601526124ea8282611def565b9150506101808301518482036101808601526125068282611def565b9150506101a08301518482036101a08601526125228282611def565b95945050505050565b611cd98161282f565b60006111b38284611dc0565b60006111b38284611e27565b6020810161116b8284611cdf565b6020810161116b8284611cd0565b606081016125768286611cd0565b81810360208301526125888185611def565b9050610fe3604083018461252b565b604081016125a58285611cdf565b6111b36020830184611cdf565b606081016125c08286611cdf565b6125cd6020830185611cdf565b610fe3604083018461252b565b604081016125e88285611cdf565b6111b3602083018461252b565b606080825281016126068186611d56565b9050612615602083018561252b565b81810360408301526125228184611ce8565b6020810161116b8284611db7565b602080825281016111b38184611def565b6020808252810161116b81611eae565b6020808252810161116b81611f06565b6020808252810161116b81611f4c565b6020808252810161116b81611f94565b6020808252810161116b81611fe3565b6020808252810161116b8161201c565b6020808252810161116b81612055565b6020808252810161116b816120ac565b6020808252810161116b816120de565b6020808252810161116b81612129565b6020808252810161116b81612162565b6020808252810161116b8161219b565b6020808252810161116b816121ee565b6020808252810161116b8161226a565b6020808252810161116b816122bb565b6020808252810161116b81612307565b6020808252810161116b81612366565b6020808252810161116b816123b7565b6020810161116b828461252b565b604081016125e8828561252b565b6040518181016001600160401b03811182821017156127a057600080fd5b604052919050565b60006001600160401b038211156127be57600080fd5b5060209081020190565b60006001600160401b038211156127de57600080fd5b506020601f91909101601f19160190565b60200190565b60009081526020902090565b5190565b90815260200190565b919050565b600061116b82612823565b151590565b6001600160a01b031690565b90565b600061116b82600061116b82612813565b82818337506000910152565b60005b8381101561286a578181015183820152602001612852565b83811115610e255750506000910152565b601f01601f191690565b61288e81612813565b8114610d1c57600080fd5b61288e8161281e565b61288e8161282f56fe5361666545524332303a2064656372656173656420616c6c6f77616e63652062656c6f77207a65726fa365627a7a72315820e374a6fc9dea45b4a8bf830bdd6f3e661732807f5d814d1508523a2f2ca954136c6578706572696d656e74616cf564736f6c634300051100405361666545524332303a2064656372656173656420616c6c6f77616e63652062656c6f77207a65726f",
  "source": "/**\n * @file\n * @author David Lucid <david@rari.capital>\n *\n * @section LICENSE\n *\n * All rights reserved to David Lucid of David Lucid LLC.\n * Any disclosure, reproduction, distribution or other use of this code by any individual or entity other than David Lucid of David Lucid LLC, unless given explicit permission by David Lucid of David Lucid LLC, is prohibited.\n *\n * @section DESCRIPTION\n *\n * This file includes the Ethereum contract code for RariFundProxy, which faciliates pre-deposit exchanges and post-withdrawal exchanges.\n */\n\npragma solidity ^0.5.7;\npragma experimental ABIEncoderV2;\n\nimport \"@openzeppelin/contracts/math/SafeMath.sol\";\nimport \"@openzeppelin/contracts/drafts/SignedSafeMath.sol\";\nimport \"@openzeppelin/contracts/ownership/Ownable.sol\";\nimport \"@openzeppelin/contracts/token/ERC20/SafeERC20.sol\";\nimport \"@openzeppelin/contracts/token/ERC20/ERC20Detailed.sol\";\n\nimport \"@0x/contracts-exchange-libs/contracts/src/LibOrder.sol\";\nimport \"@0x/contracts-erc20/contracts/src/interfaces/IEtherToken.sol\";\n\nimport \"./lib/exchanges/ZeroExExchangeController.sol\";\nimport \"./RariFundManager.sol\";\n\n/**\n * @title RariFundProxy\n * @dev This contract faciliates deposits to RariFundManager from exchanges and withdrawals from RariFundManager for exchanges.\n */\ncontract RariFundProxy is Ownable {\n    using SafeMath for uint256;\n    using SignedSafeMath for int256;\n    using SafeERC20 for IERC20;\n\n    /**\n     * @dev Array of currencies supported by the fund.\n     */\n    string[] private _supportedCurrencies;\n\n    /**\n     * @dev Maps ERC20 token contract addresses to supported currency codes.\n     */\n    mapping(string => address) private _erc20Contracts;\n\n    /**\n     * @dev Constructor that sets supported ERC20 token contract addresses.\n     */\n    constructor () public {\n        // Add supported currencies\n        addSupportedCurrency(\"DAI\", 0x6B175474E89094C44Da98b954EedeAC495271d0F);\n        addSupportedCurrency(\"USDC\", 0xA0b86991c6218b36c1d19D4a2e9Eb0cE3606eB48);\n        addSupportedCurrency(\"USDT\", 0xdAC17F958D2ee523a2206206994597C13D831ec7);\n    }\n\n    /**\n     * @dev Marks a token as supported by the fund, stores its ERC20 contract address, and approves the maximum amount to 0x.\n     * @param currencyCode The currency code of the token.\n     * @param erc20Contract The ERC20 contract of the token.\n     */\n    function addSupportedCurrency(string memory currencyCode, address erc20Contract) internal {\n        _supportedCurrencies.push(currencyCode);\n        _erc20Contracts[currencyCode] = erc20Contract;\n        require(ZeroExExchangeController.approve(erc20Contract, uint256(-1)), \"Approval of tokens to 0x failed.\");\n    }\n\n    /**\n     * @dev Address of the RariFundManager.\n     */\n    address payable private _rariFundManagerContract;\n\n    /**\n     * @dev Emitted when the RariFundManager of the RariFundProxy is set.\n     */\n    event FundManagerSet(address newContract);\n\n    /**\n     * @dev Sets or upgrades the RariFundManager of the RariFundProxy.\n     * @param newContract The address of the new RariFundManager contract.\n     */\n    function setFundManager(address payable newContract) external onlyOwner {\n        // Approve maximum output tokens to RariFundManager for deposit\n        for (uint256 i = 0; i < _supportedCurrencies.length; i++) {\n            IERC20 token = IERC20(_erc20Contracts[_supportedCurrencies[i]]);\n            if (_rariFundManagerContract != address(0)) token.safeDecreaseAllowance(_rariFundManagerContract, uint256(-1));\n            if (newContract != address(0)) token.safeIncreaseAllowance(newContract, uint256(-1));\n        }\n\n        _rariFundManagerContract = newContract;\n        emit FundManagerSet(newContract);\n    }\n\n    address constant private WETH_CONTRACT = 0xC02aaA39b223FE8D0A0e5C4F27eAD9083C756Cc2;\n    IEtherToken constant private _weth = IEtherToken(WETH_CONTRACT);\n\n    /**\n     * @dev Payable fallback function called by 0x exchange to refund unspent protocol fee.\n     */\n    function () external payable { }\n\n    /**\n     * @dev Emitted when funds have been exchanged before being deposited via RariFundManager.\n     * If exchanging from ETH, `inputErc20Contract` = address(0).\n     */\n    event PreDepositExchange(address indexed inputErc20Contract, string indexed outputCurrencyCode, address indexed payee, uint256 makerAssetFilledAmount, uint256 depositAmount);\n\n    /**\n     * @dev Emitted when funds have been exchanged after being withdrawn via RariFundManager.\n     * If exchanging from ETH, `outputErc20Contract` = address(0).\n     */\n    event PostWithdrawalExchange(string indexed inputCurrencyCode, address indexed outputErc20Contract, address indexed payee, uint256 withdrawalAmount, uint256 takerAssetFilledAmount);\n\n    /**\n     * @notice Exchanges and deposits funds to RariFund in exchange for RFT.\n     * You can retrieve orders from the 0x swap API (https://0x.org/docs/api#get-swapv0quote). See the web client for implementation.\n     * Please note that you must approve RariFundProxy to transfer at least `inputAmount` unless you are inputting ETH.\n     * You also must input at least enough ETH to cover the protocol fee (and enough to cover `orders` if you are inputting ETH).\n     * @dev We should be able to make this function external and use calldata for all parameters, but Solidity does not support calldata structs (https://github.com/ethereum/solidity/issues/5479).\n     * @param inputErc20Contract The ERC20 contract address of the token to be exchanged. Set to address(0) to input ETH.\n     * @param inputAmount The amount of tokens to be exchanged (including taker fees).\n     * @param outputCurrencyCode The currency code of the token to be deposited after exchange.\n     * @param orders The limit orders to be filled in ascending order of the price you pay.\n     * @param signatures The signatures for the orders.\n     * @param takerAssetFillAmount The amount of the taker asset to sell (excluding taker fees).\n     * @return Boolean indicating success.\n     */\n    function exchangeAndDeposit(address inputErc20Contract, uint256 inputAmount, string memory outputCurrencyCode, LibOrder.Order[] memory orders, bytes[] memory signatures, uint256 takerAssetFillAmount) public payable returns (bool) {\n        // Input validation\n        require(_rariFundManagerContract != address(0), \"Fund manager contract not set. This may be due to an upgrade of this proxy contract.\");\n        require(inputAmount > 0, \"Input amount must be greater than 0.\");\n        address outputErc20Contract = _erc20Contracts[outputCurrencyCode];\n        require(outputErc20Contract != address(0), \"Invalid output currency code.\");\n        require(orders.length > 0, \"Orders array is empty.\");\n        require(orders.length == signatures.length, \"Length of orders and signatures arrays must be equal.\");\n        require(takerAssetFillAmount > 0, \"Taker asset fill amount must be greater than 0.\");\n\n        if (inputErc20Contract == address(0)) {\n            // Wrap ETH\n            _weth.deposit.value(inputAmount)();\n        } else {\n            // Transfer input tokens from msg.sender if not inputting ETH\n            IERC20(inputErc20Contract).safeTransferFrom(msg.sender, address(this), inputAmount); // The user must approve the transfer of tokens beforehand\n        }\n\n        // Approve and exchange tokens\n        ZeroExExchangeController.approve(inputErc20Contract == address(0) ? WETH_CONTRACT : inputErc20Contract, inputAmount);\n        uint256[2] memory filledAmounts = ZeroExExchangeController.marketSellOrdersFillOrKill(orders, signatures, takerAssetFillAmount, inputErc20Contract == address(0) ? msg.value.sub(inputAmount) : msg.value);\n\n        if (inputErc20Contract == address(0)) {\n            // Unwrap unused ETH\n            uint256 wethBalance = _weth.balanceOf(address(this));\n            if (wethBalance > 0) _weth.withdraw(wethBalance);\n        } else {\n            // Refund unused input tokens\n            IERC20 inputToken = IERC20(inputErc20Contract);\n            uint256 inputTokenBalance = inputToken.balanceOf(address(this));\n            if (inputTokenBalance > 0) inputToken.safeTransfer(msg.sender, inputTokenBalance);\n        }\n\n        // Emit event\n        emit PreDepositExchange(inputErc20Contract, outputCurrencyCode, msg.sender, filledAmounts[0], filledAmounts[1]);\n\n        // Deposit output tokens\n        require(RariFundManager(_rariFundManagerContract).depositTo(msg.sender, outputCurrencyCode, filledAmounts[1]));\n\n        // Refund unused ETH\n        uint256 ethBalance = address(this).balance;\n        if (ethBalance > 0) msg.sender.transfer(ethBalance);\n\n        // Return true\n        return true;\n    }\n    \n    /**\n     * @notice Exchanges and deposits funds to RariFund in exchange for RFT.\n     * You can retrieve orders from the 0x swap API (https://0x.org/docs/api#get-swapv0quote). See the web client for implementation.\n     * Please note that you must approve RariFundManager to burn of the necessary amount of RFT.\n     * You also must input at least enough ETH to cover the protocol fees.\n     * @dev We should be able to make this function external and use calldata for all parameters, but Solidity does not support calldata structs (https://github.com/ethereum/solidity/issues/5479).\n     * @param inputCurrencyCodes The currency codes of the tokens to be withdrawn and exchanged.\n     * @param inputAmounts The amounts of tokens to be withdrawn and exchanged (including taker fees).\n     * @param outputErc20Contract The ERC20 contract address of the token to be outputted by the exchange. Set to address(0) to output ETH.\n     * @param orders The limit orders to be filled in ascending order of the price you pay.\n     * @param signatures The signatures for the orders.\n     * @param makerAssetFillAmounts The amounts of the maker assets to buy.\n     * @param protocolFees The protocol fees to pay to 0x in ETH for each order.\n     * @return Boolean indicating success.\n     */\n    function withdrawAndExchange(string[] memory inputCurrencyCodes, uint256[] memory inputAmounts, address outputErc20Contract, LibOrder.Order[][] memory orders, bytes[][] memory signatures, uint256[] memory makerAssetFillAmounts, uint256[] memory protocolFees) public payable returns (bool) {\n        // Input validation\n        require(_rariFundManagerContract != address(0), \"Fund manager contract not set. This may be due to an upgrade of this proxy contract.\");\n        require(inputCurrencyCodes.length == inputAmounts.length && inputCurrencyCodes.length == orders.length && inputCurrencyCodes.length == signatures.length && inputCurrencyCodes.length == makerAssetFillAmounts.length && inputCurrencyCodes.length == protocolFees.length, \"Array parameters are not all the same length.\");\n\n        // For each input currency\n        for (uint256 i = 0; i < inputCurrencyCodes.length; i++) {\n            require(inputAmounts[i] > 0, \"All input amounts must be greater than 0.\");\n\n            // Withdraw input tokens\n            require(RariFundManager(_rariFundManagerContract).withdrawFrom(msg.sender, inputCurrencyCodes[i], inputAmounts[i]));\n\n            if (orders[i].length > 0 && signatures[i].length > 0 && makerAssetFillAmounts[i] > 0) {\n                // Input validation\n                require(orders.length == signatures.length, \"Length of all orders and signatures arrays must be equal.\");\n\n                // Exchange tokens and emit event\n                uint256[2] memory filledAmounts = ZeroExExchangeController.marketBuyOrdersFillOrKill(orders[i], signatures[i], makerAssetFillAmounts[i], protocolFees[i]);\n                emit PostWithdrawalExchange(inputCurrencyCodes[i], outputErc20Contract, msg.sender, inputAmounts[i], filledAmounts[1]);\n            }\n        }\n\n        if (outputErc20Contract == address(0)) {\n            // Unwrap WETH if output currency is ETH\n            uint256 wethBalance = _weth.balanceOf(address(this));\n            _weth.withdraw(wethBalance);\n        } else {\n            // Forward tokens if output currency is a token\n            IERC20 outputToken = IERC20(outputErc20Contract);\n            uint256 outputTokenBalance = outputToken.balanceOf(address(this));\n            if (outputTokenBalance > 0) outputToken.safeTransfer(msg.sender, outputTokenBalance);\n        }\n\n        // Forward all ETH\n        uint256 ethBalance = address(this).balance;\n        if (ethBalance > 0) msg.sender.transfer(ethBalance);\n\n        // Return true\n        return true;\n    }\n}\n",
  "sourcePath": "/home/david/rari-contracts-launch/contracts/RariFundProxy.sol",
  "compiler": {
    "name": "solc",
    "version": "0.5.17+commit.d19bba13.Emscripten.clang"
  },
  "schemaVersion": "3.2.0",
  "updatedAt": "2020-06-30T05:57:39.257Z",
  "networkType": "ethereum",
  "devdoc": {
    "details": "This contract faciliates deposits to RariFundManager from exchanges and withdrawals from RariFundManager for exchanges.",
    "methods": {
      "constructor": {
        "details": "Constructor that sets supported ERC20 token contract addresses."
      },
      "exchangeAndDeposit(address,uint256,string,(address,address,address,address,uint256,uint256,uint256,uint256,uint256,uint256,bytes,bytes,bytes,bytes)[],bytes[],uint256)": {
        "details": "We should be able to make this function external and use calldata for all parameters, but Solidity does not support calldata structs (https://github.com/ethereum/solidity/issues/5479).",
        "params": {
          "inputAmount": "The amount of tokens to be exchanged (including taker fees).",
          "inputErc20Contract": "The ERC20 contract address of the token to be exchanged. Set to address(0) to input ETH.",
          "orders": "The limit orders to be filled in ascending order of the price you pay.",
          "outputCurrencyCode": "The currency code of the token to be deposited after exchange.",
          "signatures": "The signatures for the orders.",
          "takerAssetFillAmount": "The amount of the taker asset to sell (excluding taker fees)."
        },
        "return": "Boolean indicating success."
      },
      "isOwner()": {
        "details": "Returns true if the caller is the current owner."
      },
      "owner()": {
        "details": "Returns the address of the current owner."
      },
      "renounceOwnership()": {
        "details": "Leaves the contract without owner. It will not be possible to call `onlyOwner` functions anymore. Can only be called by the current owner.     * NOTE: Renouncing ownership will leave the contract without an owner, thereby removing any functionality that is only available to the owner."
      },
      "setFundManager(address)": {
        "details": "Sets or upgrades the RariFundManager of the RariFundProxy.",
        "params": {
          "newContract": "The address of the new RariFundManager contract."
        }
      },
      "transferOwnership(address)": {
        "details": "Transfers ownership of the contract to a new account (`newOwner`). Can only be called by the current owner."
      },
      "withdrawAndExchange(string[],uint256[],address,(address,address,address,address,uint256,uint256,uint256,uint256,uint256,uint256,bytes,bytes,bytes,bytes)[][],bytes[][],uint256[],uint256[])": {
        "details": "We should be able to make this function external and use calldata for all parameters, but Solidity does not support calldata structs (https://github.com/ethereum/solidity/issues/5479).",
        "params": {
          "inputAmounts": "The amounts of tokens to be withdrawn and exchanged (including taker fees).",
          "inputCurrencyCodes": "The currency codes of the tokens to be withdrawn and exchanged.",
          "makerAssetFillAmounts": "The amounts of the maker assets to buy.",
          "orders": "The limit orders to be filled in ascending order of the price you pay.",
          "outputErc20Contract": "The ERC20 contract address of the token to be outputted by the exchange. Set to address(0) to output ETH.",
          "protocolFees": "The protocol fees to pay to 0x in ETH for each order.",
          "signatures": "The signatures for the orders."
        },
        "return": "Boolean indicating success."
      }
    },
    "title": "RariFundProxy"
  },
  "userdoc": {
    "methods": {
      "exchangeAndDeposit(address,uint256,string,(address,address,address,address,uint256,uint256,uint256,uint256,uint256,uint256,bytes,bytes,bytes,bytes)[],bytes[],uint256)": {
        "notice": "Exchanges and deposits funds to RariFund in exchange for RFT. You can retrieve orders from the 0x swap API (https://0x.org/docs/api#get-swapv0quote). See the web client for implementation. Please note that you must approve RariFundProxy to transfer at least `inputAmount` unless you are inputting ETH. You also must input at least enough ETH to cover the protocol fee (and enough to cover `orders` if you are inputting ETH)."
      },
      "withdrawAndExchange(string[],uint256[],address,(address,address,address,address,uint256,uint256,uint256,uint256,uint256,uint256,bytes,bytes,bytes,bytes)[][],bytes[][],uint256[],uint256[])": {
        "notice": "Exchanges and deposits funds to RariFund in exchange for RFT. You can retrieve orders from the 0x swap API (https://0x.org/docs/api#get-swapv0quote). See the web client for implementation. Please note that you must approve RariFundManager to burn of the necessary amount of RFT. You also must input at least enough ETH to cover the protocol fees."
      }
    }
  }
}