{
  "contractName": "RariFundToken",
  "abi": [
    {
      "inputs": [],
      "payable": false,
      "stateMutability": "nonpayable",
      "type": "constructor"
    },
    {
      "anonymous": false,
      "inputs": [
        {
          "indexed": true,
          "internalType": "address",
          "name": "owner",
          "type": "address"
        },
        {
          "indexed": true,
          "internalType": "address",
          "name": "spender",
          "type": "address"
        },
        {
          "indexed": false,
          "internalType": "uint256",
          "name": "value",
          "type": "uint256"
        }
      ],
      "name": "Approval",
      "type": "event"
    },
    {
      "anonymous": false,
      "inputs": [
        {
          "indexed": false,
          "internalType": "address",
          "name": "newContract",
          "type": "address"
        }
      ],
      "name": "FundManagerSet",
      "type": "event"
    },
    {
      "anonymous": false,
      "inputs": [
        {
          "indexed": true,
          "internalType": "address",
          "name": "account",
          "type": "address"
        }
      ],
      "name": "MinterAdded",
      "type": "event"
    },
    {
      "anonymous": false,
      "inputs": [
        {
          "indexed": true,
          "internalType": "address",
          "name": "account",
          "type": "address"
        }
      ],
      "name": "MinterRemoved",
      "type": "event"
    },
    {
      "anonymous": false,
      "inputs": [
        {
          "indexed": true,
          "internalType": "address",
          "name": "previousOwner",
          "type": "address"
        },
        {
          "indexed": true,
          "internalType": "address",
          "name": "newOwner",
          "type": "address"
        }
      ],
      "name": "OwnershipTransferred",
      "type": "event"
    },
    {
      "anonymous": false,
      "inputs": [
        {
          "indexed": true,
          "internalType": "address",
          "name": "from",
          "type": "address"
        },
        {
          "indexed": true,
          "internalType": "address",
          "name": "to",
          "type": "address"
        },
        {
          "indexed": false,
          "internalType": "uint256",
          "name": "value",
          "type": "uint256"
        }
      ],
      "name": "Transfer",
      "type": "event"
    },
    {
      "constant": false,
      "inputs": [
        {
          "internalType": "address",
          "name": "account",
          "type": "address"
        }
      ],
      "name": "addMinter",
      "outputs": [],
      "payable": false,
      "stateMutability": "nonpayable",
      "type": "function"
    },
    {
      "constant": true,
      "inputs": [
        {
          "internalType": "address",
          "name": "owner",
          "type": "address"
        },
        {
          "internalType": "address",
          "name": "spender",
          "type": "address"
        }
      ],
      "name": "allowance",
      "outputs": [
        {
          "internalType": "uint256",
          "name": "",
          "type": "uint256"
        }
      ],
      "payable": false,
      "stateMutability": "view",
      "type": "function"
    },
    {
      "constant": false,
      "inputs": [
        {
          "internalType": "address",
          "name": "spender",
          "type": "address"
        },
        {
          "internalType": "uint256",
          "name": "amount",
          "type": "uint256"
        }
      ],
      "name": "approve",
      "outputs": [
        {
          "internalType": "bool",
          "name": "",
          "type": "bool"
        }
      ],
      "payable": false,
      "stateMutability": "nonpayable",
      "type": "function"
    },
    {
      "constant": true,
      "inputs": [
        {
          "internalType": "address",
          "name": "account",
          "type": "address"
        }
      ],
      "name": "balanceOf",
      "outputs": [
        {
          "internalType": "uint256",
          "name": "",
          "type": "uint256"
        }
      ],
      "payable": false,
      "stateMutability": "view",
      "type": "function"
    },
    {
      "constant": false,
      "inputs": [
        {
          "internalType": "uint256",
          "name": "amount",
          "type": "uint256"
        }
      ],
      "name": "burn",
      "outputs": [],
      "payable": false,
      "stateMutability": "nonpayable",
      "type": "function"
    },
    {
      "constant": false,
      "inputs": [
        {
          "internalType": "address",
          "name": "account",
          "type": "address"
        },
        {
          "internalType": "uint256",
          "name": "amount",
          "type": "uint256"
        }
      ],
      "name": "burnFrom",
      "outputs": [],
      "payable": false,
      "stateMutability": "nonpayable",
      "type": "function"
    },
    {
      "constant": true,
      "inputs": [],
      "name": "decimals",
      "outputs": [
        {
          "internalType": "uint8",
          "name": "",
          "type": "uint8"
        }
      ],
      "payable": false,
      "stateMutability": "view",
      "type": "function"
    },
    {
      "constant": false,
      "inputs": [
        {
          "internalType": "address",
          "name": "spender",
          "type": "address"
        },
        {
          "internalType": "uint256",
          "name": "subtractedValue",
          "type": "uint256"
        }
      ],
      "name": "decreaseAllowance",
      "outputs": [
        {
          "internalType": "bool",
          "name": "",
          "type": "bool"
        }
      ],
      "payable": false,
      "stateMutability": "nonpayable",
      "type": "function"
    },
    {
      "constant": false,
      "inputs": [
        {
          "internalType": "address",
          "name": "spender",
          "type": "address"
        },
        {
          "internalType": "uint256",
          "name": "addedValue",
          "type": "uint256"
        }
      ],
      "name": "increaseAllowance",
      "outputs": [
        {
          "internalType": "bool",
          "name": "",
          "type": "bool"
        }
      ],
      "payable": false,
      "stateMutability": "nonpayable",
      "type": "function"
    },
    {
      "constant": true,
      "inputs": [
        {
          "internalType": "address",
          "name": "account",
          "type": "address"
        }
      ],
      "name": "isMinter",
      "outputs": [
        {
          "internalType": "bool",
          "name": "",
          "type": "bool"
        }
      ],
      "payable": false,
      "stateMutability": "view",
      "type": "function"
    },
    {
      "constant": true,
      "inputs": [],
      "name": "isOwner",
      "outputs": [
        {
          "internalType": "bool",
          "name": "",
          "type": "bool"
        }
      ],
      "payable": false,
      "stateMutability": "view",
      "type": "function"
    },
    {
      "constant": false,
      "inputs": [
        {
          "internalType": "address",
          "name": "account",
          "type": "address"
        },
        {
          "internalType": "uint256",
          "name": "amount",
          "type": "uint256"
        }
      ],
      "name": "mint",
      "outputs": [
        {
          "internalType": "bool",
          "name": "",
          "type": "bool"
        }
      ],
      "payable": false,
      "stateMutability": "nonpayable",
      "type": "function"
    },
    {
      "constant": true,
      "inputs": [],
      "name": "name",
      "outputs": [
        {
          "internalType": "string",
          "name": "",
          "type": "string"
        }
      ],
      "payable": false,
      "stateMutability": "view",
      "type": "function"
    },
    {
      "constant": true,
      "inputs": [],
      "name": "owner",
      "outputs": [
        {
          "internalType": "address",
          "name": "",
          "type": "address"
        }
      ],
      "payable": false,
      "stateMutability": "view",
      "type": "function"
    },
    {
      "constant": false,
      "inputs": [],
      "name": "renounceMinter",
      "outputs": [],
      "payable": false,
      "stateMutability": "nonpayable",
      "type": "function"
    },
    {
      "constant": false,
      "inputs": [],
      "name": "renounceOwnership",
      "outputs": [],
      "payable": false,
      "stateMutability": "nonpayable",
      "type": "function"
    },
    {
      "constant": false,
      "inputs": [
        {
          "internalType": "address payable",
          "name": "newContract",
          "type": "address"
        }
      ],
      "name": "setFundManager",
      "outputs": [],
      "payable": false,
      "stateMutability": "nonpayable",
      "type": "function"
    },
    {
      "constant": true,
      "inputs": [],
      "name": "symbol",
      "outputs": [
        {
          "internalType": "string",
          "name": "",
          "type": "string"
        }
      ],
      "payable": false,
      "stateMutability": "view",
      "type": "function"
    },
    {
      "constant": true,
      "inputs": [],
      "name": "totalSupply",
      "outputs": [
        {
          "internalType": "uint256",
          "name": "",
          "type": "uint256"
        }
      ],
      "payable": false,
      "stateMutability": "view",
      "type": "function"
    },
    {
      "constant": false,
      "inputs": [
        {
          "internalType": "address",
          "name": "recipient",
          "type": "address"
        },
        {
          "internalType": "uint256",
          "name": "amount",
          "type": "uint256"
        }
      ],
      "name": "transfer",
      "outputs": [
        {
          "internalType": "bool",
          "name": "",
          "type": "bool"
        }
      ],
      "payable": false,
      "stateMutability": "nonpayable",
      "type": "function"
    },
    {
      "constant": false,
      "inputs": [
        {
          "internalType": "address",
          "name": "sender",
          "type": "address"
        },
        {
          "internalType": "address",
          "name": "recipient",
          "type": "address"
        },
        {
          "internalType": "uint256",
          "name": "amount",
          "type": "uint256"
        }
      ],
      "name": "transferFrom",
      "outputs": [
        {
          "internalType": "bool",
          "name": "",
          "type": "bool"
        }
      ],
      "payable": false,
      "stateMutability": "nonpayable",
      "type": "function"
    },
    {
      "constant": false,
      "inputs": [
        {
          "internalType": "address",
          "name": "newOwner",
          "type": "address"
        }
      ],
      "name": "transferOwnership",
      "outputs": [],
      "payable": false,
      "stateMutability": "nonpayable",
      "type": "function"
    }
  ],
  "bytecode": "0x60806040523480156200001157600080fd5b506040518060400160405280600f81526020016e2930b93490233ab732102a37b5b2b760891b8152506040518060400160405280600381526020016214919560ea1b815250601260006200006a6200011a60201b60201c565b600080546001600160a01b0319166001600160a01b0383169081178255604051929350917f8be0079c531659141344cd1fd0a4f28419497f9722a3daafe3b4186f6b6457e0908290a3508251620000c990600590602086019062000267565b508151620000df90600690602085019062000267565b506007805460ff191660ff9290921691909117905550620001149050620001056200011a565b6001600160e01b036200011f16565b62000309565b335b90565b6200013a8160086200017160201b620013561790919060201c565b6040516001600160a01b038216907f6ae172837ea30b801fbfcdd4108aa1d5bf8ff775444fd70256b44e6bf3dfc3f690600090a250565b6200018682826001600160e01b03620001fe16565b15620001d9576040805162461bcd60e51b815260206004820152601f60248201527f526f6c65733a206163636f756e7420616c72656164792068617320726f6c6500604482015290519081900360640190fd5b6001600160a01b0316600090815260209190915260409020805460ff19166001179055565b60006001600160a01b038216620002475760405162461bcd60e51b8152600401808060200182810382526022815260200180620019e16022913960400191505060405180910390fd5b506001600160a01b03166000908152602091909152604090205460ff1690565b828054600181600116156101000203166002900490600052602060002090601f016020900481019282601f10620002aa57805160ff1916838001178555620002da565b82800160010185558215620002da579182015b82811115620002da578251825591602001919060010190620002bd565b50620002e8929150620002ec565b5090565b6200011c91905b80821115620002e85760008155600101620002f3565b6116c880620003196000396000f3fe608060405234801561001057600080fd5b50600436106101425760003560e01c806379cc6790116100b8578063986502751161007c57806398650275146103c3578063a457c2d7146103cb578063a9059cbb146103f7578063aa271e1a14610423578063dd62ed3e14610449578063f2fde38b1461047757610142565b806379cc67901461033d5780638da5cb5b146103695780638f32d59b1461038d57806395d89b4114610395578063983b2d561461039d57610142565b8063313ce5671161010a578063313ce5671461027c578063395093511461029a57806340c10f19146102c657806342966c68146102f257806370a082311461030f578063715018a61461033557610142565b806306fdde0314610147578063095ea7b3146101c457806318160ddd14610204578063232a30601461021e57806323b872dd14610246575b600080fd5b61014f61049d565b6040805160208082528351818301528351919283929083019185019080838360005b83811015610189578181015183820152602001610171565b50505050905090810190601f1680156101b65780820380516001836020036101000a031916815260200191505b509250505060405180910390f35b6101f0600480360360408110156101da57600080fd5b506001600160a01b038135169060200135610533565b604080519115158252519081900360200190f35b61020c610550565b60408051918252519081900360200190f35b6102446004803603602081101561023457600080fd5b50356001600160a01b0316610556565b005b6101f06004803603606081101561025c57600080fd5b506001600160a01b03813581169160208101359091169060400135610603565b610284610690565b6040805160ff9092168252519081900360200190f35b6101f0600480360360408110156102b057600080fd5b506001600160a01b038135169060200135610699565b6101f0600480360360408110156102dc57600080fd5b506001600160a01b0381351690602001356106ed565b6102446004803603602081101561030857600080fd5b5035610744565b61020c6004803603602081101561032557600080fd5b50356001600160a01b0316610758565b610244610773565b6102446004803603604081101561035357600080fd5b506001600160a01b038135169060200135610816565b610371610824565b604080516001600160a01b039092168252519081900360200190f35b6101f0610833565b61014f610857565b610244600480360360208110156103b357600080fd5b50356001600160a01b03166108b8565b610244610907565b6101f0600480360360408110156103e157600080fd5b506001600160a01b038135169060200135610919565b6101f06004803603604081101561040d57600080fd5b506001600160a01b038135169060200135610987565b6101f06004803603602081101561043957600080fd5b50356001600160a01b031661099b565b61020c6004803603604081101561045f57600080fd5b506001600160a01b03813581169160200135166109b4565b6102446004803603602081101561048d57600080fd5b50356001600160a01b03166109df565b60058054604080516020601f60026000196101006001881615020190951694909404938401819004810282018101909252828152606093909290918301828280156105295780601f106104fe57610100808354040283529160200191610529565b820191906000526020600020905b81548152906001019060200180831161050c57829003601f168201915b5050505050905090565b6000610547610540610a41565b8484610a45565b50600192915050565b60035490565b61055e610833565b6105af576040805162461bcd60e51b815260206004820181905260248201527f4f776e61626c653a2063616c6c6572206973206e6f7420746865206f776e6572604482015290519081900360640190fd5b600480546001600160a01b0383166001600160a01b0319909116811790915560408051918252517ff980c1430e55b1867cd9337a1f20246ab3b7255032486d0b71c24e820eebf3ab9181900360200190a150565b6000610610848484610b31565b6106868461061c610a41565b61068185604051806060016040528060288152602001611597602891396001600160a01b038a1660009081526002602052604081209061065a610a41565b6001600160a01b03168152602081019190915260400160002054919063ffffffff610d5916565b610a45565b5060019392505050565b60075460ff1690565b60006105476106a6610a41565b8461068185600260006106b7610a41565b6001600160a01b03908116825260208083019390935260409182016000908120918c16815292529020549063ffffffff610df016565b60006106ff6106fa610a41565b61099b565b61073a5760405162461bcd60e51b81526004018080602001828103825260308152602001806114f26030913960400191505060405180910390fd5b6105478383610e51565b61075561074f610a41565b82610f43565b50565b6001600160a01b031660009081526001602052604090205490565b61077b610833565b6107cc576040805162461bcd60e51b815260206004820181905260248201527f4f776e61626c653a2063616c6c6572206973206e6f7420746865206f776e6572604482015290519081900360640190fd5b600080546040516001600160a01b03909116907f8be0079c531659141344cd1fd0a4f28419497f9722a3daafe3b4186f6b6457e0908390a3600080546001600160a01b0319169055565b6108208282611129565b5050565b6000546001600160a01b031690565b600080546001600160a01b0316610848610a41565b6001600160a01b031614905090565b60068054604080516020601f60026000196101006001881615020190951694909404938401819004810282018101909252828152606093909290918301828280156105295780601f106104fe57610100808354040283529160200191610529565b6108c36106fa610a41565b6108fe5760405162461bcd60e51b81526004018080602001828103825260308152602001806114f26030913960400191505060405180910390fd5b6107558161117d565b610917610912610a41565b6111c5565b565b6000610547610926610a41565b846106818560405180606001604052806025815260200161166f6025913960026000610950610a41565b6001600160a01b03908116825260208083019390935260409182016000908120918d1681529252902054919063ffffffff610d5916565b6000610547610994610a41565b8484610b31565b60006109ae60088363ffffffff61120d16565b92915050565b6001600160a01b03918216600090815260026020908152604080832093909416825291909152205490565b6109e7610833565b610a38576040805162461bcd60e51b815260206004820181905260248201527f4f776e61626c653a2063616c6c6572206973206e6f7420746865206f776e6572604482015290519081900360640190fd5b61075581611274565b3390565b6001600160a01b038316610a8a5760405162461bcd60e51b815260040180806020018281038252602481526020018061164b6024913960400191505060405180910390fd5b6001600160a01b038216610acf5760405162461bcd60e51b81526004018080602001828103825260228152602001806114aa6022913960400191505060405180910390fd5b6001600160a01b03808416600081815260026020908152604080832094871680845294825291829020859055815185815291517f8c5be1e5ebec7d5bd14f71427d1e84f3dd0314c0f7b2291e5b200ac8c7c3b9259281900390910190a3505050565b6001600160a01b038316610b765760405162461bcd60e51b81526004018080602001828103825260258152602001806116266025913960400191505060405180910390fd5b6001600160a01b038216610bbb5760405162461bcd60e51b815260040180806020018281038252602381526020018061143f6023913960400191505060405180910390fd5b610bfe816040518060600160405280602681526020016114cc602691396001600160a01b038616600090815260016020526040902054919063ffffffff610d5916565b6001600160a01b038085166000908152600160205260408082209390935590841681522054610c33908263ffffffff610df016565b6001600160a01b0380841660008181526001602090815260409182902094909455805185815290519193928716927fddf252ad1be2c89b69c2b068fc378daa952ba7f163c4a11628f55a4df523b3ef92918290030190a36004546001600160a01b0316610cd15760405162461bcd60e51b81526004018080602001828103825260548152602001806115436054913960600191505060405180910390fd5b6004805460035460408051632f20186760e01b81526001600160a01b03888116958201959095528685166024820152604481018690526064810192909252519290911691632f2018679160848082019260009290919082900301818387803b158015610d3c57600080fd5b505af1158015610d50573d6000803e3d6000fd5b50505050505050565b60008184841115610de85760405162461bcd60e51b81526004018080602001828103825283818151815260200191508051906020019080838360005b83811015610dad578181015183820152602001610d95565b50505050905090810190601f168015610dda5780820380516001836020036101000a031916815260200191505b509250505060405180910390fd5b505050900390565b600082820183811015610e4a576040805162461bcd60e51b815260206004820152601b60248201527f536166654d6174683a206164646974696f6e206f766572666c6f770000000000604482015290519081900360640190fd5b9392505050565b6001600160a01b038216610eac576040805162461bcd60e51b815260206004820152601f60248201527f45524332303a206d696e7420746f20746865207a65726f206164647265737300604482015290519081900360640190fd5b600354610ebf908263ffffffff610df016565b6003556001600160a01b038216600090815260016020526040902054610eeb908263ffffffff610df016565b6001600160a01b03831660008181526001602090815260408083209490945583518581529351929391927fddf252ad1be2c89b69c2b068fc378daa952ba7f163c4a11628f55a4df523b3ef9281900390910190a35050565b6001600160a01b038216610f885760405162461bcd60e51b81526004018080602001828103825260218152602001806116056021913960400191505060405180910390fd5b610fcb81604051806060016040528060228152602001611462602291396001600160a01b038516600090815260016020526040902054919063ffffffff610d5916565b6001600160a01b038316600090815260016020526040902055600354610ff7908263ffffffff61131416565b6003556040805182815290516000916001600160a01b038516917fddf252ad1be2c89b69c2b068fc378daa952ba7f163c4a11628f55a4df523b3ef9181900360200190a36004546001600160a01b03166110825760405162461bcd60e51b81526004018080602001828103825260548152602001806115436054913960600191505060405180910390fd5b6004546001600160a01b0316611096610a41565b6001600160a01b031614610820576004805460035460408051632f20186760e01b81526001600160a01b038781169582019590955260006024820181905260448201879052606482019390935290519390921692632f20186792608480820193929182900301818387803b15801561110d57600080fd5b505af1158015611121573d6000803e3d6000fd5b505050505050565b6111338282610f43565b6108208261113f610a41565b610681846040518060600160405280602481526020016115e1602491396001600160a01b03881660009081526002602052604081209061065a610a41565b61118e60088263ffffffff61135616565b6040516001600160a01b038216907f6ae172837ea30b801fbfcdd4108aa1d5bf8ff775444fd70256b44e6bf3dfc3f690600090a250565b6111d660088263ffffffff6113d716565b6040516001600160a01b038216907fe94479a9f7e1952cc78f2d6baab678adc1b772d936c6583def489e524cb6669290600090a250565b60006001600160a01b0382166112545760405162461bcd60e51b81526004018080602001828103825260228152602001806115bf6022913960400191505060405180910390fd5b506001600160a01b03166000908152602091909152604090205460ff1690565b6001600160a01b0381166112b95760405162461bcd60e51b81526004018080602001828103825260268152602001806114846026913960400191505060405180910390fd5b600080546040516001600160a01b03808516939216917f8be0079c531659141344cd1fd0a4f28419497f9722a3daafe3b4186f6b6457e091a3600080546001600160a01b0319166001600160a01b0392909216919091179055565b6000610e4a83836040518060400160405280601e81526020017f536166654d6174683a207375627472616374696f6e206f766572666c6f770000815250610d59565b611360828261120d565b156113b2576040805162461bcd60e51b815260206004820152601f60248201527f526f6c65733a206163636f756e7420616c72656164792068617320726f6c6500604482015290519081900360640190fd5b6001600160a01b0316600090815260209190915260409020805460ff19166001179055565b6113e1828261120d565b61141c5760405162461bcd60e51b81526004018080602001828103825260218152602001806115226021913960400191505060405180910390fd5b6001600160a01b0316600090815260209190915260409020805460ff1916905556fe45524332303a207472616e7366657220746f20746865207a65726f206164647265737345524332303a206275726e20616d6f756e7420657863656564732062616c616e63654f776e61626c653a206e6577206f776e657220697320746865207a65726f206164647265737345524332303a20617070726f766520746f20746865207a65726f206164647265737345524332303a207472616e7366657220616d6f756e7420657863656564732062616c616e63654d696e746572526f6c653a2063616c6c657220646f6573206e6f74206861766520746865204d696e74657220726f6c65526f6c65733a206163636f756e7420646f6573206e6f74206861766520726f6c6546756e64206d616e6167657220636f6e7472616374206e6f74207365742e2054686973206d61792062652064756520746f20616e2075706772616465206f66207468697320746f6b656e20636f6e74726163742e45524332303a207472616e7366657220616d6f756e74206578636565647320616c6c6f77616e6365526f6c65733a206163636f756e7420697320746865207a65726f206164647265737345524332303a206275726e20616d6f756e74206578636565647320616c6c6f77616e636545524332303a206275726e2066726f6d20746865207a65726f206164647265737345524332303a207472616e736665722066726f6d20746865207a65726f206164647265737345524332303a20617070726f76652066726f6d20746865207a65726f206164647265737345524332303a2064656372656173656420616c6c6f77616e63652062656c6f77207a65726fa265627a7a723158203733b22174eba03a1b36b785e4247ae1d4227da818c0847f9d0a66ac47a6eb8a64736f6c63430005110032526f6c65733a206163636f756e7420697320746865207a65726f2061646472657373",
  "source": "/**\n * @file\n * @author David Lucid <david@rari.capital>\n *\n * @section LICENSE\n *\n * All rights reserved to David Lucid of David Lucid LLC.\n * Any disclosure, reproduction, distribution or other use of this code by any individual or entity other than David Lucid of David Lucid LLC, unless given explicit permission by David Lucid of David Lucid LLC, is prohibited.\n *\n * @section DESCRIPTION\n *\n * This file includes the Ethereum contract code for RariFundToken, the ERC20 token contract accounting for the ownership of the funds invested in Rari Capital's RariFund.\n */\n\npragma solidity ^0.5.7;\n\nimport \"@openzeppelin/contracts/math/SafeMath.sol\";\nimport \"@openzeppelin/contracts/token/ERC20/ERC20Detailed.sol\";\n\nimport \"./erc20/ERC20.sol\";\nimport \"./erc20/ERC20Mintable.sol\";\nimport \"./erc20/ERC20Burnable.sol\";\n\n/**\n * @title RariFundToken\n * @dev RariFundToken is the ERC20 token contract accounting for the ownership of RariFund's funds.\n */\ncontract RariFundToken is ERC20, ERC20Detailed, ERC20Mintable, ERC20Burnable {\n    using SafeMath for uint256;\n\n    /**\n     * @dev Constructor for RariFundToken.\n     */\n    constructor () public ERC20Detailed(\"Rari Fund Token\", \"RFT\", 18) { }\n}\n",
  "sourcePath": "/home/david/rari-contracts-launch/contracts/RariFundToken.sol",
  "compiler": {
    "name": "solc",
    "version": "0.5.17+commit.d19bba13.Emscripten.clang"
  },
  "schemaVersion": "3.2.0",
  "updatedAt": "2020-06-30T05:57:39.249Z",
  "networkType": "ethereum",
  "devdoc": {
    "details": "RariFundToken is the ERC20 token contract accounting for the ownership of RariFund's funds.",
    "methods": {
      "allowance(address,address)": {
        "details": "See {IERC20-allowance}."
      },
      "approve(address,uint256)": {
        "details": "See {IERC20-approve}.     * Requirements:     * - `spender` cannot be the zero address."
      },
      "balanceOf(address)": {
        "details": "See {IERC20-balanceOf}."
      },
      "burn(uint256)": {
        "details": "Destroys `amount` tokens from the caller.     * See {ERC20-_burn}."
      },
      "burnFrom(address,uint256)": {
        "details": "See {ERC20-_burnFrom}."
      },
      "constructor": {
        "details": "Constructor for RariFundToken."
      },
      "decimals()": {
        "details": "Returns the number of decimals used to get its user representation. For example, if `decimals` equals `2`, a balance of `505` tokens should be displayed to a user as `5,05` (`505 / 10 ** 2`).     * Tokens usually opt for a value of 18, imitating the relationship between Ether and Wei.     * NOTE: This information is only used for _display_ purposes: it in no way affects any of the arithmetic of the contract, including {IERC20-balanceOf} and {IERC20-transfer}."
      },
      "decreaseAllowance(address,uint256)": {
        "details": "Atomically decreases the allowance granted to `spender` by the caller.     * This is an alternative to {approve} that can be used as a mitigation for problems described in {IERC20-approve}.     * Emits an {Approval} event indicating the updated allowance.     * Requirements:     * - `spender` cannot be the zero address. - `spender` must have allowance for the caller of at least `subtractedValue`."
      },
      "increaseAllowance(address,uint256)": {
        "details": "Atomically increases the allowance granted to `spender` by the caller.     * This is an alternative to {approve} that can be used as a mitigation for problems described in {IERC20-approve}.     * Emits an {Approval} event indicating the updated allowance.     * Requirements:     * - `spender` cannot be the zero address."
      },
      "isOwner()": {
        "details": "Returns true if the caller is the current owner."
      },
      "mint(address,uint256)": {
        "details": "See {ERC20-_mint}.     * Requirements:     * - the caller must have the {MinterRole}."
      },
      "name()": {
        "details": "Returns the name of the token."
      },
      "owner()": {
        "details": "Returns the address of the current owner."
      },
      "renounceOwnership()": {
        "details": "Leaves the contract without owner. It will not be possible to call `onlyOwner` functions anymore. Can only be called by the current owner.     * NOTE: Renouncing ownership will leave the contract without an owner, thereby removing any functionality that is only available to the owner."
      },
      "setFundManager(address)": {
        "details": "Sets or upgrades the RariFundManager of the RariFundToken.",
        "params": {
          "newContract": "The address of the new RariFundManager contract."
        }
      },
      "symbol()": {
        "details": "Returns the symbol of the token, usually a shorter version of the name."
      },
      "totalSupply()": {
        "details": "See {IERC20-totalSupply}."
      },
      "transfer(address,uint256)": {
        "details": "See {IERC20-transfer}.     * Requirements:     * - `recipient` cannot be the zero address. - the caller must have a balance of at least `amount`."
      },
      "transferFrom(address,address,uint256)": {
        "details": "See {IERC20-transferFrom}.     * Emits an {Approval} event indicating the updated allowance. This is not required by the EIP. See the note at the beginning of {ERC20};     * Requirements: - `sender` and `recipient` cannot be the zero address. - `sender` must have a balance of at least `amount`. - the caller must have allowance for `sender`'s tokens of at least `amount`."
      },
      "transferOwnership(address)": {
        "details": "Transfers ownership of the contract to a new account (`newOwner`). Can only be called by the current owner."
      }
    },
    "title": "RariFundToken"
  },
  "userdoc": {
    "methods": {}
  }
}