{
  "contractName": "RariFundManager",
  "abi": [
    {
      "inputs": [],
      "payable": false,
      "stateMutability": "nonpayable",
      "type": "constructor"
    },
    {
      "anonymous": false,
      "inputs": [
        {
          "indexed": true,
          "internalType": "string",
          "name": "currencyCode",
          "type": "string"
        },
        {
          "indexed": true,
          "internalType": "address",
          "name": "sender",
          "type": "address"
        },
        {
          "indexed": true,
          "internalType": "address",
          "name": "payee",
          "type": "address"
        },
        {
          "indexed": false,
          "internalType": "uint256",
          "name": "amount",
          "type": "uint256"
        },
        {
          "indexed": false,
          "internalType": "uint256",
          "name": "amountUsd",
          "type": "uint256"
        },
        {
          "indexed": false,
          "internalType": "uint256",
          "name": "rftMinted",
          "type": "uint256"
        }
      ],
      "name": "Deposit",
      "type": "event"
    },
    {
      "anonymous": false,
      "inputs": [
        {
          "indexed": false,
          "internalType": "address",
          "name": "newContract",
          "type": "address"
        }
      ],
      "name": "FundControllerSet",
      "type": "event"
    },
    {
      "anonymous": false,
      "inputs": [],
      "name": "FundDisabled",
      "type": "event"
    },
    {
      "anonymous": false,
      "inputs": [],
      "name": "FundEnabled",
      "type": "event"
    },
    {
      "anonymous": false,
      "inputs": [
        {
          "indexed": false,
          "internalType": "address",
          "name": "newContract",
          "type": "address"
        }
      ],
      "name": "FundManagerUpgraded",
      "type": "event"
    },
    {
      "anonymous": false,
      "inputs": [
        {
          "indexed": false,
          "internalType": "address",
          "name": "newContract",
          "type": "address"
        }
      ],
      "name": "FundProxySet",
      "type": "event"
    },
    {
      "anonymous": false,
      "inputs": [
        {
          "indexed": false,
          "internalType": "address",
          "name": "newAddress",
          "type": "address"
        }
      ],
      "name": "FundRebalancerSet",
      "type": "event"
    },
    {
      "anonymous": false,
      "inputs": [
        {
          "indexed": false,
          "internalType": "address",
          "name": "newContract",
          "type": "address"
        }
      ],
      "name": "FundTokenSet",
      "type": "event"
    },
    {
      "anonymous": false,
      "inputs": [
        {
          "indexed": false,
          "internalType": "address",
          "name": "beneficiary",
          "type": "address"
        },
        {
          "indexed": false,
          "internalType": "uint256",
          "name": "amountUsd",
          "type": "uint256"
        }
      ],
      "name": "InterestFeeDeposit",
      "type": "event"
    },
    {
      "anonymous": false,
      "inputs": [
        {
          "indexed": false,
          "internalType": "address",
          "name": "beneficiary",
          "type": "address"
        },
        {
          "indexed": false,
          "internalType": "uint256",
          "name": "amountUsd",
          "type": "uint256"
        },
        {
          "indexed": false,
          "internalType": "string",
          "name": "currencyCode",
          "type": "string"
        },
        {
          "indexed": false,
          "internalType": "uint256",
          "name": "amount",
          "type": "uint256"
        }
      ],
      "name": "InterestFeeWithdrawal",
      "type": "event"
    },
    {
      "anonymous": false,
      "inputs": [
        {
          "indexed": true,
          "internalType": "address",
          "name": "previousOwner",
          "type": "address"
        },
        {
          "indexed": true,
          "internalType": "address",
          "name": "newOwner",
          "type": "address"
        }
      ],
      "name": "OwnershipTransferred",
      "type": "event"
    },
    {
      "anonymous": false,
      "inputs": [
        {
          "indexed": true,
          "internalType": "string",
          "name": "currencyCode",
          "type": "string"
        },
        {
          "indexed": true,
          "internalType": "address",
          "name": "sender",
          "type": "address"
        },
        {
          "indexed": true,
          "internalType": "address",
          "name": "payee",
          "type": "address"
        },
        {
          "indexed": false,
          "internalType": "uint256",
          "name": "amount",
          "type": "uint256"
        },
        {
          "indexed": false,
          "internalType": "uint256",
          "name": "amountUsd",
          "type": "uint256"
        },
        {
          "indexed": false,
          "internalType": "uint256",
          "name": "rftBurned",
          "type": "uint256"
        }
      ],
      "name": "Withdrawal",
      "type": "event"
    },
    {
      "constant": true,
      "inputs": [],
      "name": "isOwner",
      "outputs": [
        {
          "internalType": "bool",
          "name": "",
          "type": "bool"
        }
      ],
      "payable": false,
      "stateMutability": "view",
      "type": "function"
    },
    {
      "constant": true,
      "inputs": [],
      "name": "owner",
      "outputs": [
        {
          "internalType": "address",
          "name": "",
          "type": "address"
        }
      ],
      "payable": false,
      "stateMutability": "view",
      "type": "function"
    },
    {
      "constant": false,
      "inputs": [],
      "name": "renounceOwnership",
      "outputs": [],
      "payable": false,
      "stateMutability": "nonpayable",
      "type": "function"
    },
    {
      "constant": false,
      "inputs": [
        {
          "internalType": "address",
          "name": "newOwner",
          "type": "address"
        }
      ],
      "name": "transferOwnership",
      "outputs": [],
      "payable": false,
      "stateMutability": "nonpayable",
      "type": "function"
    },
    {
      "constant": false,
      "inputs": [
        {
          "internalType": "address",
          "name": "newContract",
          "type": "address"
        }
      ],
      "name": "upgradeFundManager",
      "outputs": [],
      "payable": false,
      "stateMutability": "nonpayable",
      "type": "function"
    },
    {
      "constant": false,
      "inputs": [
        {
          "internalType": "address",
          "name": "authorizedFundManagerDataSource",
          "type": "address"
        }
      ],
      "name": "authorizeFundManagerDataSource",
      "outputs": [],
      "payable": false,
      "stateMutability": "nonpayable",
      "type": "function"
    },
    {
      "constant": false,
      "inputs": [
        {
          "components": [
            {
              "internalType": "int256",
              "name": "netDeposits",
              "type": "int256"
            },
            {
              "internalType": "int256",
              "name": "rawInterestAccruedAtLastFeeRateChange",
              "type": "int256"
            },
            {
              "internalType": "int256",
              "name": "interestFeesGeneratedAtLastFeeRateChange",
              "type": "int256"
            },
            {
              "internalType": "uint256",
              "name": "interestFeesClaimed",
              "type": "uint256"
            }
          ],
          "internalType": "struct RariFundManager.FundManagerData",
          "name": "data",
          "type": "tuple"
        }
      ],
      "name": "setFundManagerData",
      "outputs": [],
      "payable": false,
      "stateMutability": "nonpayable",
      "type": "function"
    },
    {
      "constant": false,
      "inputs": [
        {
          "internalType": "address payable",
          "name": "newContract",
          "type": "address"
        }
      ],
      "name": "setFundController",
      "outputs": [],
      "payable": false,
      "stateMutability": "nonpayable",
      "type": "function"
    },
    {
      "constant": false,
      "inputs": [],
      "name": "forwardToFundController",
      "outputs": [],
      "payable": false,
      "stateMutability": "nonpayable",
      "type": "function"
    },
    {
      "constant": false,
      "inputs": [
        {
          "internalType": "address",
          "name": "newContract",
          "type": "address"
        }
      ],
      "name": "setFundToken",
      "outputs": [],
      "payable": false,
      "stateMutability": "nonpayable",
      "type": "function"
    },
    {
      "constant": false,
      "inputs": [
        {
          "internalType": "address[]",
          "name": "accounts",
          "type": "address[]"
        },
        {
          "internalType": "int256[]",
          "name": "netDeposits",
          "type": "int256[]"
        }
      ],
      "name": "initNetDeposits",
      "outputs": [],
      "payable": false,
      "stateMutability": "nonpayable",
      "type": "function"
    },
    {
      "constant": false,
      "inputs": [
        {
          "internalType": "address",
          "name": "sender",
          "type": "address"
        },
        {
          "internalType": "address",
          "name": "recipient",
          "type": "address"
        },
        {
          "internalType": "uint256",
          "name": "rftAmount",
          "type": "uint256"
        },
        {
          "internalType": "uint256",
          "name": "newRftTotalSupply",
          "type": "uint256"
        }
      ],
      "name": "onFundTokenTransfer",
      "outputs": [],
      "payable": false,
      "stateMutability": "nonpayable",
      "type": "function"
    },
    {
      "constant": false,
      "inputs": [
        {
          "internalType": "address",
          "name": "account",
          "type": "address"
        }
      ],
      "name": "interestAccruedBy",
      "outputs": [
        {
          "internalType": "int256",
          "name": "",
          "type": "int256"
        }
      ],
      "payable": false,
      "stateMutability": "nonpayable",
      "type": "function"
    },
    {
      "constant": false,
      "inputs": [
        {
          "internalType": "address",
          "name": "newContract",
          "type": "address"
        }
      ],
      "name": "setFundProxy",
      "outputs": [],
      "payable": false,
      "stateMutability": "nonpayable",
      "type": "function"
    },
    {
      "constant": false,
      "inputs": [
        {
          "internalType": "address",
          "name": "newAddress",
          "type": "address"
        }
      ],
      "name": "setFundRebalancer",
      "outputs": [],
      "payable": false,
      "stateMutability": "nonpayable",
      "type": "function"
    },
    {
      "constant": false,
      "inputs": [],
      "name": "disableFund",
      "outputs": [],
      "payable": false,
      "stateMutability": "nonpayable",
      "type": "function"
    },
    {
      "constant": false,
      "inputs": [],
      "name": "enableFund",
      "outputs": [],
      "payable": false,
      "stateMutability": "nonpayable",
      "type": "function"
    },
    {
      "constant": false,
      "inputs": [],
      "name": "getRawFundBalance",
      "outputs": [
        {
          "internalType": "uint256",
          "name": "",
          "type": "uint256"
        }
      ],
      "payable": false,
      "stateMutability": "nonpayable",
      "type": "function"
    },
    {
      "constant": false,
      "inputs": [
        {
          "internalType": "string",
          "name": "currencyCode",
          "type": "string"
        }
      ],
      "name": "getRawFundBalance",
      "outputs": [
        {
          "internalType": "uint256",
          "name": "",
          "type": "uint256"
        }
      ],
      "payable": false,
      "stateMutability": "nonpayable",
      "type": "function"
    },
    {
      "constant": false,
      "inputs": [],
      "name": "getFundBalance",
      "outputs": [
        {
          "internalType": "uint256",
          "name": "",
          "type": "uint256"
        }
      ],
      "payable": false,
      "stateMutability": "nonpayable",
      "type": "function"
    },
    {
      "constant": false,
      "inputs": [
        {
          "internalType": "address",
          "name": "account",
          "type": "address"
        }
      ],
      "name": "balanceOf",
      "outputs": [
        {
          "internalType": "uint256",
          "name": "",
          "type": "uint256"
        }
      ],
      "payable": false,
      "stateMutability": "nonpayable",
      "type": "function"
    },
    {
      "constant": false,
      "inputs": [
        {
          "internalType": "uint256",
          "name": "limitUsd",
          "type": "uint256"
        }
      ],
      "name": "setDefaultAccountBalanceLimit",
      "outputs": [],
      "payable": false,
      "stateMutability": "nonpayable",
      "type": "function"
    },
    {
      "constant": false,
      "inputs": [
        {
          "internalType": "address",
          "name": "account",
          "type": "address"
        },
        {
          "internalType": "int256",
          "name": "limitUsd",
          "type": "int256"
        }
      ],
      "name": "setIndividualAccountBalanceLimit",
      "outputs": [],
      "payable": false,
      "stateMutability": "nonpayable",
      "type": "function"
    },
    {
      "constant": true,
      "inputs": [
        {
          "internalType": "string",
          "name": "currencyCode",
          "type": "string"
        }
      ],
      "name": "isCurrencyAccepted",
      "outputs": [
        {
          "internalType": "bool",
          "name": "",
          "type": "bool"
        }
      ],
      "payable": false,
      "stateMutability": "view",
      "type": "function"
    },
    {
      "constant": false,
      "inputs": [
        {
          "internalType": "string",
          "name": "currencyCode",
          "type": "string"
        },
        {
          "internalType": "bool",
          "name": "accepted",
          "type": "bool"
        }
      ],
      "name": "setAcceptedCurrency",
      "outputs": [],
      "payable": false,
      "stateMutability": "nonpayable",
      "type": "function"
    },
    {
      "constant": false,
      "inputs": [
        {
          "internalType": "string",
          "name": "currencyCode",
          "type": "string"
        },
        {
          "internalType": "uint256",
          "name": "amount",
          "type": "uint256"
        }
      ],
      "name": "deposit",
      "outputs": [
        {
          "internalType": "bool",
          "name": "",
          "type": "bool"
        }
      ],
      "payable": false,
      "stateMutability": "nonpayable",
      "type": "function"
    },
    {
      "constant": false,
      "inputs": [
        {
          "internalType": "address",
          "name": "to",
          "type": "address"
        },
        {
          "internalType": "string",
          "name": "currencyCode",
          "type": "string"
        },
        {
          "internalType": "uint256",
          "name": "amount",
          "type": "uint256"
        }
      ],
      "name": "depositTo",
      "outputs": [
        {
          "internalType": "bool",
          "name": "",
          "type": "bool"
        }
      ],
      "payable": false,
      "stateMutability": "nonpayable",
      "type": "function"
    },
    {
      "constant": false,
      "inputs": [
        {
          "internalType": "string",
          "name": "currencyCode",
          "type": "string"
        },
        {
          "internalType": "uint256",
          "name": "amount",
          "type": "uint256"
        }
      ],
      "name": "withdraw",
      "outputs": [
        {
          "internalType": "bool",
          "name": "",
          "type": "bool"
        }
      ],
      "payable": false,
      "stateMutability": "nonpayable",
      "type": "function"
    },
    {
      "constant": false,
      "inputs": [
        {
          "internalType": "address",
          "name": "from",
          "type": "address"
        },
        {
          "internalType": "string",
          "name": "currencyCode",
          "type": "string"
        },
        {
          "internalType": "uint256",
          "name": "amount",
          "type": "uint256"
        }
      ],
      "name": "withdrawFrom",
      "outputs": [
        {
          "internalType": "bool",
          "name": "",
          "type": "bool"
        }
      ],
      "payable": false,
      "stateMutability": "nonpayable",
      "type": "function"
    },
    {
      "constant": false,
      "inputs": [],
      "name": "getRawInterestAccrued",
      "outputs": [
        {
          "internalType": "int256",
          "name": "",
          "type": "int256"
        }
      ],
      "payable": false,
      "stateMutability": "nonpayable",
      "type": "function"
    },
    {
      "constant": false,
      "inputs": [],
      "name": "getInterestAccrued",
      "outputs": [
        {
          "internalType": "int256",
          "name": "",
          "type": "int256"
        }
      ],
      "payable": false,
      "stateMutability": "nonpayable",
      "type": "function"
    },
    {
      "constant": true,
      "inputs": [],
      "name": "getInterestFeeRate",
      "outputs": [
        {
          "internalType": "uint256",
          "name": "",
          "type": "uint256"
        }
      ],
      "payable": false,
      "stateMutability": "view",
      "type": "function"
    },
    {
      "constant": false,
      "inputs": [
        {
          "internalType": "uint256",
          "name": "rate",
          "type": "uint256"
        }
      ],
      "name": "setInterestFeeRate",
      "outputs": [],
      "payable": false,
      "stateMutability": "nonpayable",
      "type": "function"
    },
    {
      "constant": false,
      "inputs": [],
      "name": "getInterestFeesGenerated",
      "outputs": [
        {
          "internalType": "int256",
          "name": "",
          "type": "int256"
        }
      ],
      "payable": false,
      "stateMutability": "nonpayable",
      "type": "function"
    },
    {
      "constant": false,
      "inputs": [],
      "name": "getInterestFeesUnclaimed",
      "outputs": [
        {
          "internalType": "uint256",
          "name": "",
          "type": "uint256"
        }
      ],
      "payable": false,
      "stateMutability": "nonpayable",
      "type": "function"
    },
    {
      "constant": false,
      "inputs": [
        {
          "internalType": "address",
          "name": "beneficiary",
          "type": "address"
        }
      ],
      "name": "setInterestFeeMasterBeneficiary",
      "outputs": [],
      "payable": false,
      "stateMutability": "nonpayable",
      "type": "function"
    },
    {
      "constant": false,
      "inputs": [],
      "name": "depositFees",
      "outputs": [
        {
          "internalType": "bool",
          "name": "",
          "type": "bool"
        }
      ],
      "payable": false,
      "stateMutability": "nonpayable",
      "type": "function"
    },
    {
      "constant": false,
      "inputs": [
        {
          "internalType": "string",
          "name": "currencyCode",
          "type": "string"
        }
      ],
      "name": "withdrawFees",
      "outputs": [
        {
          "internalType": "bool",
          "name": "",
          "type": "bool"
        }
      ],
      "payable": false,
      "stateMutability": "nonpayable",
      "type": "function"
    }
  ],
  "bytecode": "0x6080604052600c805461ffff191690556000196010553480156200002257600080fd5b506000620000386001600160e01b036200024616565b600080546001600160a01b0319166001600160a01b0383169081178255604051929350917f8be0079c531659141344cd1fd0a4f28419497f9722a3daafe3b4186f6b6457e0908290a35060408051808201909152600381526244414960e81b6020820152620000c590736b175474e89094c44da98b954eedeac495271d0f6001600160e01b036200024b16565b60408051808201909152600381526244414960e81b6020820152620000f59060006001600160e01b03620002d916565b60408051808201909152600381526244414960e81b6020820152620001259060016001600160e01b03620002d916565b6040805180820190915260048152635553444360e01b6020820152620001699073a0b86991c6218b36c1d19d4a2e9eb0ce3606eb486001600160e01b036200024b16565b6040805180820190915260048152635553444360e01b60208201526200019a9060006001600160e01b03620002d916565b6040805180820190915260048152635553444360e01b6020820152620001cb9060016001600160e01b03620002d916565b6040805180820190915260048152631554d11560e21b60208201526200020f9073dac17f958d2ee523a2206206994597c13d831ec76001600160e01b036200024b16565b6040805180820190915260048152631554d11560e21b6020820152620002409060016001600160e01b03620002d916565b6200045f565b335b90565b6007805460018101808355600092909252835162000291917fa66cc928b5edb82af9bd49922954155ab7b0942694bea4ce44661d9a8736c6880190602086019062000337565b505080600883604051620002a691906200040e565b90815260405190819003602001902080546001600160a01b03929092166001600160a01b03199092169190911790555050565b600982604051620002eb91906200040e565b9081526040516020918190038201902080546001810182556000918252908290209181049091018054601f9092166101000a60ff81810219909316939092169190910291909117905550565b828054600181600116156101000203166002900490600052602060002090601f016020900481019282601f106200037a57805160ff1916838001178555620003aa565b82800160010185558215620003aa579182015b82811115620003aa5782518255916020019190600101906200038d565b50620003b8929150620003bc565b5090565b6200024891905b80821115620003b85760008155600101620003c3565b6000620003e68262000423565b620003f2818562000427565b9350620004048185602086016200042c565b9290920192915050565b60006200041c8284620003d9565b9392505050565b5190565b919050565b60005b83811015620004495781810151838201526020016200042f565b8381111562000459576000848401525b50505050565b61539a806200046f6000396000f3fe608060405234801561001057600080fd5b50600436106102315760003560e01c8063870b5b3811610130578063a9065581116100b8578063d80621dc1161007c578063d80621dc14610462578063dae9e37914610475578063f2fde38b1461047d578063f3b4338614610490578063f54910191461049857610231565b8063a906558114610424578063c23e5e8114610437578063c6d67b141461044a578063cca7bb2614610452578063d6164d661461045a57610231565b80638f60a173116100ff5780638f60a173146103c557806395ac2e4c146103d85780639d7a42ba146103eb5780639de88d72146103fe5780639e548c981461041157610231565b8063870b5b38146103825780638da5cb5b146103955780638e27d719146103aa5780638f32d59b146103bd57610231565b8063368f2d3f116101be578063676b7e8511610182578063676b7e851461033957806370a0823114610341578063715018a614610354578063786d4bb31461035c5780637d379a481461036f57610231565b8063368f2d3f146102e5578063491ce4d0146102f8578063516e99171461030b5780635cb097ac1461031e57806365df29181461033157610231565b806326741e7d1161020557806326741e7d1461029c5780632a51f4ef146102a45780632f201867146102ac578063308ee9e0146102bf57806330b39a62146102d257610231565b80627fedfe1461023657806301b521d61461025f57806303776d47146102745780631d7e79d614610289575b600080fd5b610249610244366004613fd4565b6104a0565b6040516102569190614ec1565b60405180910390f35b610267610735565b6040516102569190614ecf565b610287610282366004613dd5565b610757565b005b6102496102973660046140b3565b6107ed565b61024961081a565b6102876108bc565b6102876102ba366004613df3565b6109d8565b6102876102cd366004613dd5565b610b42565b6102496102e0366004614069565b610f10565b6102676102f3366004613dd5565b610f7b565b610287610306366004613dd5565b61100e565b610287610319366004613dd5565b61109c565b61028761032c3660046140e7565b611257565b6102876112b5565b610267611338565b61026761034f366004613dd5565b611599565b6102876116d6565b61028761036a366004613e54565b611744565b61028761037d366004614105565b611784565b610287610390366004613dd5565b61183f565b61039d6118ae565b6040516102569190614e25565b6102496103b8366004614069565b6118bd565b61024961191d565b6102676103d33660046140b3565b611941565b6102876103e6366004613eeb565b611ab4565b6102876103f9366004614105565b611b6e565b61024961040c366004613e8e565b611b97565b61028761041f366004614015565b611c2e565b610287610432366004613dd5565b611c90565b610249610445366004613e8e565b611cff565b610267611d8a565b610267611dac565b610267611dd6565b610287610470366004613dd5565b611ddc565b610267611e22565b61028761048b366004613dd5565b611e6d565b610287611e9a565b610267611f24565b60008054600160a01b900460ff16156104d45760405162461bcd60e51b81526004016104cb9061502e565b60405180910390fd5b6006546001600160a01b031633146104fe5760405162461bcd60e51b81526004016104cb90614eee565b6019546001600160a01b03166105265760405162461bcd60e51b81526004016104cb9061505e565b60006008848460405161053a929190614e01565b908152604051908190036020019020546001600160a01b03169050806105725760405162461bcd60e51b81526004016104cb90614fbe565b600061057c611dac565b9050600073dac17f958d2ee523a2206206994597c13d831ec76001600160a01b0384161461061a57826001600160a01b031663313ce5676040518163ffffffff1660e01b815260040160206040518083038186803b1580156105dd57600080fd5b505afa1580156105f1573d6000803e3d6000fd5b505050506040513d601f19601f820116820180604052506106159190810190614141565b61061d565b60065b60ff169050600081601210156106565761065161064183601263ffffffff611f8716565b8490600a0a63ffffffff611fc916565b61067a565b61067a61066a60128463ffffffff611f8716565b8490600a0a63ffffffff61200316565b90506000811161069c5760405162461bcd60e51b81526004016104cb90614ffe565b6018546106af908463ffffffff61204516565b6018556001546019546106d9916001600160a01b038781169291811691168463ffffffff61206a16565b6019546040517f94e472f4a450e2820c43c92c88c5b1b791c2295ce26457bfd583e356c1ef969a9161071e916001600160a01b039091169086908b908b908790614e84565b60405180910390a160019450505050505b92915050565b6000610751601454610745611e22565b9063ffffffff6120c516565b90505b90565b600054600160a01b900460ff16156107815760405162461bcd60e51b81526004016104cb9061502e565b61078961191d565b6107a55760405162461bcd60e51b81526004016104cb9061503e565b6001600160a01b0381166107cb5760405162461bcd60e51b81526004016104cb9061505e565b601980546001600160a01b0319166001600160a01b0392909216919091179055565b60006013826040516107ff9190614df5565b9081526040519081900360200190205460ff1690505b919050565b6006546000906001600160a01b031633146108475760405162461bcd60e51b81526004016104cb90614eee565b600061085161210b565b905060ff811680159060021461087f5760405180606001604052806023815260200161533560239139610899565b6040518060600160405280603781526020016152fe603791395b906108b75760405162461bcd60e51b81526004016104cb9190614edd565b505090565b6108c461191d565b6108e05760405162461bcd60e51b81526004016104cb9061503e565b60005b6007548110156109d55760006008600783815481106108fe57fe5b906000526020600020016040516109159190614e0e565b908152604051908190036020018120546370a0823160e01b82526001600160a01b0316915060009082906370a0823190610953903090600401614e25565b60206040518083038186803b15801561096b57600080fd5b505afa15801561097f573d6000803e3d6000fd5b505050506040513d601f19601f820116820180604052506109a39190810190614123565b905080156109cb576001546109cb906001600160a01b0384811691168363ffffffff61244616565b50506001016108e3565b50565b600054600160a01b900460ff1615610a025760405162461bcd60e51b81526004016104cb9061502e565b6003546001600160a01b03163314610a2c5760405162461bcd60e51b81526004016104cb90614f9e565b60008211610a3957610b3c565b60006001600160a01b03841615610a505781610a60565b610a60828463ffffffff61204516565b90506000610a8c82610a80610a73611e22565b879063ffffffff611fc916565b9063ffffffff61200316565b6001600160a01b0387166000908152600b6020526040902054909150610ab8908263ffffffff6120c516565b6001600160a01b038088166000908152600b60205260409020919091558516610af657601454610aee908263ffffffff6120c516565b601455610b39565b6001600160a01b0385166000908152600b6020526040902054610b1f908263ffffffff61246816565b6001600160a01b0386166000908152600b60205260409020555b50505b50505050565b610b4a61191d565b610b665760405162461bcd60e51b81526004016104cb9061503e565b600c805461010061ff00198216811790925560015491900460ff16906001600160a01b031615610e7d5760005b600754811015610e7b57606060078281548110610bac57fe5b600091825260209182902001805460408051601f6002600019610100600187161502019094169390930492830185900485028101850190915281815292830182828015610c3a5780601f10610c0f57610100808354040283529160200191610c3a565b820191906000526020600020905b815481529060010190602001808311610c1d57829003601f168201915b50939450600093505050505b600982604051610c569190614df5565b90815260405190819003602001902054811015610da0576000610cc1600984604051610c829190614df5565b90815260200160405180910390208381548110610c9b57fe5b90600052602060002090602091828204019190069054906101000a900460ff16846124ae565b1115610d98576002546040516001600160a01b039091169063670c61a290600990610ced908690614df5565b90815260200160405180910390208381548110610d0657fe5b90600052602060002090602091828204019190069054906101000a900460ff16846040518363ffffffff1660e01b8152600401610d44929190615177565b602060405180830381600087803b158015610d5e57600080fd5b505af1158015610d72573d6000803e3d6000fd5b505050506040513d601f19601f82011682018060405250610d969190810190613fb6565b505b600101610c46565b506000600882604051610db39190614df5565b908152604051908190036020018120546001546370a0823160e01b83526001600160a01b03918216935060009284926370a0823192610df792911690600401614e33565b60206040518083038186803b158015610e0f57600080fd5b505afa158015610e23573d6000803e3d6000fd5b505050506040513d601f19601f82011682018060405250610e479190810190614123565b90508015610e7057600154610e70906001600160a01b038481169116888463ffffffff61206a16565b505050600101610b93565b505b600180546001600160a01b038085166001600160a01b031992831617928390556002805490921692169190911790556040517fd545a79667dd5d91e91b5b3e5179968d1a0ab745039f0a8cbf4c40f420d86c4790610edc908490614e33565b60405180910390a180610f0c57600c805461ff0019811690915560ff16610f0c576000610f0a600f82613a77565b505b5050565b6000610f543385858080601f01602080910402602001604051908101604052809392919081815260200183838082843760009201919091525087925061289a915050565b610f705760405162461bcd60e51b81526004016104cb90614f8e565b5060015b9392505050565b6001600160a01b0381166000908152600b60205260408082205490516370a0823160e01b815261072f919030906370a0823190610fbc908790600401614e25565b602060405180830381600087803b158015610fd657600080fd5b505af1158015610fea573d6000803e3d6000fd5b505050506040513d601f19601f820116820180604052506107459190810190614123565b61101661191d565b6110325760405162461bcd60e51b81526004016104cb9061503e565b600380546001600160a01b038084166001600160a01b031992831617928390556004805490921692169190911790556040517fcb757ed74a6206afe4cd637317744abe1dafdf32fcbacdd94a785d91e7c1304390611091908390614e25565b60405180910390a150565b6110a461191d565b6110c05760405162461bcd60e51b81526004016104cb9061503e565b6110c8613a9b565b506040805160808101825260145481526016546020820152601754818301526018546060820152905163172c25eb60e21b81526001600160a01b03831690635cb097ac9061111a90849060040161514e565b600060405180830381600087803b15801561113457600080fd5b505af1158015611148573d6000803e3d6000fd5b50506003546001600160a01b031615915061121c90505760048054604051634c1d96ab60e11b81526001600160a01b039091169163983b2d569161118e91869101614e25565b600060405180830381600087803b1580156111a857600080fd5b505af11580156111bc573d6000803e3d6000fd5b50506004805460408051639865027560e01b815290516001600160a01b03909216945063986502759350808301926000929182900301818387803b15801561120357600080fd5b505af1158015611217573d6000803e3d6000fd5b505050505b7f2afa12c0897533a1c5215a86cc5a031360c72d4eaf123563b68681533191f72a8260405161124b9190614e25565b60405180910390a15050565b600a546001600160a01b03161580159061127b5750600a546001600160a01b031633145b6112975760405162461bcd60e51b81526004016104cb906150ce565b80356014556020810135601655604081013560175560600135601855565b6112bd61191d565b6112d95760405162461bcd60e51b81526004016104cb9061503e565b600054600160a01b900460ff166113025760405162461bcd60e51b81526004016104cb90614f1e565b6000805460ff60a01b191681556040517f8e1c35fbf7cd686deedf8310574cf4ad038a00a86d3317c831afaeec58f1eeae9190a1565b600c805461010061ff00198216811790925560105460009290910460ff1690821361136757601054915061156f565b6000805b60075481101561156b5760606007828154811061138457fe5b600091825260209182902001805460408051601f60026000196101006001871615020190941693909304928301859004850281018501909152818152928301828280156114125780601f106113e757610100808354040283529160200191611412565b820191906000526020600020905b8154815290600101906020018083116113f557829003601f168201915b50505050509050600061142482611941565b905060006008836040516114389190614df5565b908152604051908190036020019020546001600160a01b03169050600073dac17f958d2ee523a2206206994597c13d831ec782146114e657816001600160a01b031663313ce5676040518163ffffffff1660e01b815260040160206040518083038186803b1580156114a957600080fd5b505afa1580156114bd573d6000803e3d6000fd5b505050506040513d601f19601f820116820180604052506114e19190810190614141565b6114e9565b60065b60ff169050600081601210156115225761151d61150d83601263ffffffff611f8716565b8590600a0a63ffffffff61200316565b611546565b61154661153660128463ffffffff611f8716565b8590600a0a63ffffffff611fc916565b9050611558878263ffffffff61204516565b9650506001909401935061136b92505050565b5091505b8061159557600c805461ff0019811690915560ff166115955760006108b7600f82613a77565b5090565b60048054604080516318160ddd60e01b8152905160009384936001600160a01b0316926318160ddd9281830192602092829003018186803b1580156115dd57600080fd5b505afa1580156115f1573d6000803e3d6000fd5b505050506040513d601f19601f820116820180604052506116159190810190614123565b905080611626576000915050610815565b600480546040516370a0823160e01b81526000926001600160a01b03909216916370a082319161165891889101614e25565b60206040518083038186803b15801561167057600080fd5b505afa158015611684573d6000803e3d6000fd5b505050506040513d601f19601f820116820180604052506116a89190810190614123565b905060006116b4611e22565b905060006116cc84610a80858563ffffffff611fc916565b9695505050505050565b6116de61191d565b6116fa5760405162461bcd60e51b81526004016104cb9061503e565b600080546040516001600160a01b03909116907f8be0079c531659141344cd1fd0a4f28419497f9722a3daafe3b4186f6b6457e0908390a3600080546001600160a01b0319169055565b61174c61191d565b6117685760405162461bcd60e51b81526004016104cb9061503e565b6001600160a01b03909116600090815260126020526040902055565b600054600160a01b900460ff16156117ae5760405162461bcd60e51b81526004016104cb9061502e565b6117b661191d565b6117d25760405162461bcd60e51b81526004016104cb9061503e565b60105460001315806117ea576117e6611338565b6010555b60155482141561180c5760405162461bcd60e51b81526004016104cb90614f5e565b61181461210b565b5061181d611f24565b601755611828611d8a565b601655601582905580610f0c576000196010555050565b61184761191d565b6118635760405162461bcd60e51b81526004016104cb9061503e565b600580546001600160a01b0319166001600160a01b0383161790556040517f908128485de48e02c38d92b81cd0a3a9cbe8eab3976faa1d3758c7bb6a25e94890611091908390614e25565b6000546001600160a01b031690565b60006119013385858080601f01602080910402602001604051908101604052809392919081815260200183838082843760009201919091525087925061302a915050565b610f705760405162461bcd60e51b81526004016104cb906150fe565b600080546001600160a01b031661193261348c565b6001600160a01b031614905090565b6000806008836040516119549190614df5565b908152604051908190036020019020546001600160a01b031690508061198c5760405162461bcd60e51b81526004016104cb90614fbe565b6001546040516370a0823160e01b815282916000916001600160a01b03808516926370a08231926119c39290911690600401614e33565b60206040518083038186803b1580156119db57600080fd5b505afa1580156119ef573d6000803e3d6000fd5b505050506040513d601f19601f82011682018060405250611a139190810190614123565b905060005b600986604051611a289190614df5565b90815260405190819003602001902054811015611aab57611aa1611a94600988604051611a559190614df5565b90815260200160405180910390208381548110611a6e57fe5b90600052602060002090602091828204019190069054906101000a900460ff16886124ae565b839063ffffffff61204516565b9150600101611a18565b50949350505050565b611abc61191d565b611ad85760405162461bcd60e51b81526004016104cb9061503e565b8215801590611ae657508281145b611b025760405162461bcd60e51b81526004016104cb90614f2e565b60005b83811015611b6757828282818110611b1957fe5b90506020020135600b6000878785818110611b3057fe5b9050602002016020611b459190810190613dd5565b6001600160a01b03168152602081019190915260400160002055600101611b05565b5050505050565b611b7661191d565b611b925760405162461bcd60e51b81526004016104cb9061503e565b601155565b6005546000906001600160a01b03163314611bc45760405162461bcd60e51b81526004016104cb9061509e565b611c068585858080601f01602080910402602001604051908101604052809392919081815260200183838082843760009201919091525087925061302a915050565b611c225760405162461bcd60e51b81526004016104cb906150fe565b5060015b949350505050565b6006546001600160a01b03163314611c585760405162461bcd60e51b81526004016104cb90614eee565b8060138484604051611c6b929190614e01565b908152604051908190036020019020805491151560ff19909216919091179055505050565b611c9861191d565b611cb45760405162461bcd60e51b81526004016104cb9061503e565b600680546001600160a01b0319166001600160a01b0383161790556040517feb9b68c1cca2a0c5d180f75c6324fad517a04867907b0f3bee85d98fdf57ee9490611091908390614e25565b6005546000906001600160a01b03163314611d2c5760405162461bcd60e51b81526004016104cb9061509e565b611d6e8585858080601f01602080910402602001604051908101604052809392919081815260200183838082843760009201919091525087925061289a915050565b611c225760405162461bcd60e51b81526004016104cb90614f8e565b6000610751601854611da0601454610745611338565b9063ffffffff61246816565b600080611dbd601854610745611f24565b905060008113611dce576000611dd0565b805b91505090565b60155490565b611de461191d565b611e005760405162461bcd60e51b81526004016104cb9061503e565b600a80546001600160a01b0319166001600160a01b0392909216919091179055565b60105460009081131580611e3c57611e38611338565b6010555b611e5b611e47611dac565b611e4f611338565b9063ffffffff611f8716565b91505b80611595576000196010555090565b611e7561191d565b611e915760405162461bcd60e51b81526004016104cb9061503e565b6109d581613490565b611ea261191d565b611ebe5760405162461bcd60e51b81526004016104cb9061503e565b600054600160a01b900460ff1615611ee85760405162461bcd60e51b81526004016104cb9061506e565b6000805460ff60a01b1916600160a01b1781556040517f0a6b9c6c74d93f230c4346c52ac415dd7dda5a0efb4f7394c0bfb5baa87d32659190a1565b600080611f35601654610745611d8a565b90506000611f66670de0b6b3a7640000611f5a6015548561351190919063ffffffff16565b9063ffffffff61357c16565b90506000611f7f8260175461246890919063ffffffff16565b935050505090565b6000610f7483836040518060400160405280601e81526020017f536166654d6174683a207375627472616374696f6e206f766572666c6f7700008152506135e0565b600082611fd85750600061072f565b82820282848281611fe557fe5b0414610f745760405162461bcd60e51b81526004016104cb9061501e565b6000610f7483836040518060400160405280601a81526020017f536166654d6174683a206469766973696f6e206279207a65726f00000000000081525061360c565b600082820183811015610f745760405162461bcd60e51b81526004016104cb90614f0e565b604051610b3c9085906323b872dd60e01b9061208e90879087908790602401614e41565b60408051601f198184030181529190526020810180516001600160e01b03166001600160e01b031990931692909217909152613643565b60008183038183128015906120da5750838113155b806120ef57506000831280156120ef57508381135b610f745760405162461bcd60e51b81526004016104cb906150de565b60008054600160a01b900460ff16156121365760405162461bcd60e51b81526004016104cb9061502e565b601054600013158061214e5761214a611338565b6010555b6019546001600160a01b03166121765760405162461bcd60e51b81526004016104cb9061505e565b6000612180611dac565b905060008111612194576001925050611e5e565b6000600460009054906101000a90046001600160a01b03166001600160a01b03166318160ddd6040518163ffffffff1660e01b815260040160206040518083038186803b1580156121e457600080fd5b505afa1580156121f8573d6000803e3d6000fd5b505050506040513d601f19601f8201168201806040525061221c9190810190614123565b90506000811561225d576000612230611e22565b905080156122535761224c81610a80868663ffffffff611fc916565b9150612257565b8391505b50612260565b50815b600081116122745760029450505050611e5e565b601854612287908463ffffffff61204516565b60185560145461229d908463ffffffff61246816565b6014556019546001600160a01b03166000908152600b60205260409020546122cb908463ffffffff61246816565b601980546001600160a01b039081166000908152600b6020526040908190209390935560048054925493516340c10f1960e01b8152928216936340c10f199361231b939190911691869101614e69565b602060405180830381600087803b15801561233557600080fd5b505af1158015612349573d6000803e3d6000fd5b505050506040513d601f19601f8201168201806040525061236d9190810190613fb6565b6123895760405162461bcd60e51b81526004016104cb90614fee565b6019546040516001600160a01b039091169081906123a690614e1a565b60405180910390207fb78af891b0e8c2e617c2a91471c40accb2559e2aa533b41746a9d2e580b4bc338687866040516123e19392919061515c565b60405180910390a46019546040517f93375fea511bbf0428eb2f5476dfac0a1fa56fb5ea6dbffb2291b320d4160cbb91612428916001600160a01b03909116908690614e69565b60405180910390a16000945050505080611595576000196010555090565b604051610f0a90849063a9059cbb60e01b9061208e9086908690602401614e69565b600082820181831280159061247d5750838112155b80612492575060008312801561249257508381125b610f745760405162461bcd60e51b81526004016104cb90614f6e565b600254604051630e3b62e360e41b81526000916001600160a01b03169063e3b62e30906124e19086908690600401615177565b60206040518083038186803b1580156124f957600080fd5b505afa15801561250d573d6000803e3d6000fd5b505050506040513d601f19601f820116820180604052506125319190810190613fb6565b61253d5750600061072f565b600c5460ff16806125555750600c54610100900460ff165b156128165760ff83166126ee5760006008836040516125749190614df5565b908152604051908190036020019020546001600160a01b03169050806125ac5760405162461bcd60e51b81526004016104cb90614fbe565b600f5461266d57600260009054906101000a90046001600160a01b03166001600160a01b0316633dbc063d6040518163ffffffff1660e01b815260040160006040518083038186803b15801561260157600080fd5b505afa158015612615573d6000803e3d6000fd5b505050506040513d6000823e601f3d908101601f1916820160405261263d9190810190613f59565b8051600e9060009061265690600f906020860190613ac3565b5050825161266991906020850190613b0a565b5050505b60005b600f548110156126d557816001600160a01b0316600e828154811061269157fe5b6000918252602090912001546001600160a01b031614156126cd57600f81815481106126b957fe5b90600052602060002001549250505061072f565b600101612670565b5060405162461bcd60e51b81526004016104cb9061511e565b600c5460ff161561281657600d826040516127099190614df5565b908152604080516020928190038301902060ff8616600090815292529020546127e0576002546040516328b7da1160e11b81526001600160a01b039091169063516fb4229061275e9086908690600401615177565b602060405180830381600087803b15801561277857600080fd5b505af115801561278c573d6000803e3d6000fd5b505050506040513d601f19601f820116820180604052506127b09190810190614123565b600d836040516127c09190614df5565b908152604080516020928190038301902060ff8716600090815292529020555b600d826040516127f09190614df5565b908152604080516020928190038301902060ff861660009081529252902054905061072f565b6002546040516328b7da1160e11b81526001600160a01b039091169063516fb422906128489086908690600401615177565b602060405180830381600087803b15801561286257600080fd5b505af1158015612876573d6000803e3d6000fd5b505050506040513d601f19601f82011682018060405250610f749190810190614123565b60008054600160a01b900460ff16156128c55760405162461bcd60e51b81526004016104cb9061502e565b600c805460ff19811660011790915560405160ff909116906000906008906128ee908790614df5565b908152604051908190036020019020546001600160a01b03169050806129265760405162461bcd60e51b81526004016104cb90614fbe565b600084116129465760405162461bcd60e51b81526004016104cb906150be565b6001546040516370a0823160e01b815282916000916001600160a01b03808516926370a082319261297d9290911690600401614e33565b60206040518083038186803b15801561299557600080fd5b505afa1580156129a9573d6000803e3d6000fd5b505050506040513d601f19601f820116820180604052506129cd9190810190614123565b905060005b6009886040516129e29190614df5565b90815260405190819003602001902054811015612c2457868210612a0557612c24565b6000600989604051612a179190614df5565b90815260200160405180910390208281548110612a3057fe5b60009182526020808320908204015460ff601f9092166101000a9004169150612a59828b6124ae565b905060008111612a6a575050612c1c565b6000612a7c8a8663ffffffff611f8716565b90506000828210612a8d5782612a8f565b815b9050600260009054906101000a90046001600160a01b03166001600160a01b03166308035dfd858e84876040518563ffffffff1660e01b8152600401612ad89493929190615197565b602060405180830381600087803b158015612af257600080fd5b505af1158015612b06573d6000803e3d6000fd5b505050506040513d601f19601f82011682018060405250612b2a9190810190613fb6565b612b465760405162461bcd60e51b81526004016104cb9061500e565b60ff8416612bc55760005b600f54811015612bbf57886001600160a01b0316600e8281548110612b7257fe5b6000918252602090912001546001600160a01b03161415612bb757612b9d848d63ffffffff611f8716565b600f8281548110612baa57fe5b6000918252602090912001555b600101612b51565b50612c05565b612bd5838c63ffffffff611f8716565b600d8d604051612be59190614df5565b908152604080516020928190038301902060ff8816600090815292529020555b612c15868263ffffffff61204516565b9550505050505b6001016129d2565b5080861115612c455760405162461bcd60e51b81526004016104cb90614fae565b600073dac17f958d2ee523a2206206994597c13d831ec76001600160a01b03851614612ce157836001600160a01b031663313ce5676040518163ffffffff1660e01b815260040160206040518083038186803b158015612ca457600080fd5b505afa158015612cb8573d6000803e3d6000fd5b505050506040513d601f19601f82011682018060405250612cdc9190810190614141565b612ce4565b60065b60ff16905060008160121015612d1d57612d18612d0883601263ffffffff611f8716565b8990600a0a63ffffffff61200316565b612d41565b612d41612d3160128463ffffffff611f8716565b8990600a0a63ffffffff611fc916565b90506000612d4f8b83613728565b6004805460405163079cc67960e41b81529293506001600160a01b0316916379cc679091612d81918f91869101614e69565b600060405180830381600087803b158015612d9b57600080fd5b505af1158015612daf573d6000803e3d6000fd5b5050600154612dd492506001600160a01b03888116925016338c63ffffffff61206a16565b601454612de7908363ffffffff6120c516565b6014556001600160a01b038b166000908152600b6020526040902054612e13908363ffffffff6120c516565b6001600160a01b038c166000818152600b602052604090819020929092559051339190612e41908d90614df5565b60405180910390207fac30acbb7d293051e36270400e75ca11db5877b6450005ceedac80a44eea4f828c8686604051612e7c9392919061515c565b60405180910390a4600197505050505050508061302257600c805460ff191690819055610100900460ff16612eba576000612eb8600f82613a77565b505b60005b60075481101561302057606060078281548110612ed657fe5b600091825260209182902001805460408051601f6002600019610100600187161502019094169390930492830185900485028101850190915281815292830182828015612f645780601f10612f3957610100808354040283529160200191612f64565b820191906000526020600020905b815481529060010190602001808311612f4757829003601f168201915b50939450600093505050505b600982604051612f809190614df5565b90815260405190819003602001902054811015613016576000600d83604051612fa99190614df5565b90815260200160405180910390206000600985604051612fc99190614df5565b90815260200160405180910390208481548110612fe257fe5b600091825260208083208183040154601f9092166101000a90910460ff168352820192909252604001902055600101612f70565b5050600101612ebd565b505b509392505050565b60008054600160a01b900460ff16156130555760405162461bcd60e51b81526004016104cb9061502e565b60006008846040516130679190614df5565b908152604051908190036020019020546001600160a01b031690508061309f5760405162461bcd60e51b81526004016104cb90614fbe565b6130a8846107ed565b6130c45760405162461bcd60e51b81526004016104cb906150ae565b600083116130e45760405162461bcd60e51b81526004016104cb90614f4e565b600073dac17f958d2ee523a2206206994597c13d831ec76001600160a01b0383161461318057816001600160a01b031663313ce5676040518163ffffffff1660e01b815260040160206040518083038186803b15801561314357600080fd5b505afa158015613157573d6000803e3d6000fd5b505050506040513d601f19601f8201168201806040525061317b9190810190614141565b613183565b60065b60ff169050600081601210156131bc576131b76131a783601263ffffffff611f8716565b8690600a0a63ffffffff61200316565b6131e0565b6131e06131d060128463ffffffff611f8716565b8690600a0a63ffffffff611fc916565b90506000600460009054906101000a90046001600160a01b03166001600160a01b03166318160ddd6040518163ffffffff1660e01b815260040160206040518083038186803b15801561323257600080fd5b505afa158015613246573d6000803e3d6000fd5b505050506040513d601f19601f8201168201806040525061326a9190810190614123565b9050600080821161327c576000613284565b613284611e22565b9050600082158015906132975750600082115b156132b7576132b082610a80868663ffffffff611fc916565b90506132ba565b50825b600081116132da5760405162461bcd60e51b81526004016104cb90614f3e565b6132e68a8585856138b0565b6133025760405162461bcd60e51b81526004016104cb9061513e565b601454613315908563ffffffff61246816565b6014556001600160a01b038a166000908152600b6020526040902054613341908563ffffffff61246816565b6001600160a01b03808c166000908152600b602052604090209190915560015461337891888116913391168b63ffffffff61206a16565b600480546040516340c10f1960e01b81526001600160a01b03909116916340c10f19916133a9918e91869101614e69565b602060405180830381600087803b1580156133c357600080fd5b505af11580156133d7573d6000803e3d6000fd5b505050506040513d601f19601f820116820180604052506133fb9190810190613fb6565b6134175760405162461bcd60e51b81526004016104cb90614fee565b896001600160a01b0316336001600160a01b03168a6040516134399190614df5565b60405180910390207fb78af891b0e8c2e617c2a91471c40accb2559e2aa533b41746a9d2e580b4bc338b88866040516134749392919061515c565b60405180910390a45060019998505050505050505050565b3390565b6001600160a01b0381166134b65760405162461bcd60e51b81526004016104cb90614efe565b600080546040516001600160a01b03808516939216917f8be0079c531659141344cd1fd0a4f28419497f9722a3daafe3b4186f6b6457e091a3600080546001600160a01b0319166001600160a01b0392909216919091179055565b6000826135205750600061072f565b826000191480156135345750600160ff1b82145b156135515760405162461bcd60e51b81526004016104cb9061504e565b8282028284828161355e57fe5b0514610f745760405162461bcd60e51b81526004016104cb9061504e565b60008161359b5760405162461bcd60e51b81526004016104cb9061510e565b816000191480156135af5750600160ff1b83145b156135cc5760405162461bcd60e51b81526004016104cb90614fce565b60008284816135d757fe5b05949350505050565b600081848411156136045760405162461bcd60e51b81526004016104cb9190614edd565b505050900390565b6000818361362d5760405162461bcd60e51b81526004016104cb9190614edd565b50600083858161363957fe5b0495945050505050565b613655826001600160a01b0316613a3e565b6136715760405162461bcd60e51b81526004016104cb9061512e565b60006060836001600160a01b03168360405161368d9190614df5565b6000604051808303816000865af19150503d80600081146136ca576040519150601f19603f3d011682016040523d82523d6000602084013e6136cf565b606091505b5091509150816136f15760405162461bcd60e51b81526004016104cb90614f7e565b805115610b3c578080602001905161370c9190810190613fb6565b610b3c5760405162461bcd60e51b81526004016104cb906150ee565b60048054604080516318160ddd60e01b8152905160009384936001600160a01b0316926318160ddd9281830192602092829003018186803b15801561376c57600080fd5b505afa158015613780573d6000803e3d6000fd5b505050506040513d601f19601f820116820180604052506137a49190810190614123565b905060006137b0611e22565b9050600081116137d25760405162461bcd60e51b81526004016104cb9061508e565b60006137e882610a80878663ffffffff611fc916565b600480546040516370a0823160e01b81529293506001600160a01b0316916370a0823191613818918a9101614e25565b60206040518083038186803b15801561383057600080fd5b505afa158015613844573d6000803e3d6000fd5b505050506040513d601f19601f820116820180604052506138689190810190614123565b8111156138875760405162461bcd60e51b81526004016104cb9061507e565b600081116138a75760405162461bcd60e51b81526004016104cb90614fde565b95945050505050565b60006138ba6118ae565b6001600160a01b0316856001600160a01b0316141580156138e957506019546001600160a01b03868116911614155b15611c22576001600160a01b038516600090815260126020526040812054121561391557506000611c26565b600080841180156139265750600083115b6139315760006139c8565b600480546040516370a0823160e01b81526139c8928792610a809288926001600160a01b03909216916370a082319161396c918e9101614e25565b60206040518083038186803b15801561398457600080fd5b505afa158015613998573d6000803e3d6000fd5b505050506040513d601f19601f820116820180604052506139bc9190810190614123565b9063ffffffff611fc916565b6001600160a01b0387166000908152601260205260408120549192509081126139f357601154613a0d565b6001600160a01b0387166000908152601260205260409020545b905080613a20838863ffffffff61204516565b1115613a3157600092505050611c26565b5050506001949350505050565b6000813f7fc5d2460186f7233c927e7db2dcc703c0e500b653ca82273b7bfad8045d85a470818114801590611c26575050151592915050565b815481835581811115610f0a57600083815260209020610f0a918101908301613b6b565b6040518060800160405280600081526020016000815260200160008152602001600081525090565b828054828255906000526020600020908101928215613afe579160200282015b82811115613afe578251825591602001919060010190613ae3565b50611595929150613b6b565b828054828255906000526020600020908101928215613b5f579160200282015b82811115613b5f57825182546001600160a01b0319166001600160a01b03909116178255602090920191600190910190613b2a565b50611595929150613b85565b61075491905b808211156115955760008155600101613b71565b61075491905b808211156115955780546001600160a01b0319168155600101613b8b565b803561072f816152ce565b805161072f816152ce565b60008083601f840112613bd157600080fd5b5081356001600160401b03811115613be857600080fd5b602083019150836020820283011115613c0057600080fd5b9250929050565b600082601f830112613c1857600080fd5b8151613c2b613c26826151f9565b6151d3565b91508181835260208401935060208101905083856020840282011115613c5057600080fd5b60005b83811015613c7c5781613c668882613bb4565b8452506020928301929190910190600101613c53565b5050505092915050565b600082601f830112613c9757600080fd5b8151613ca5613c26826151f9565b91508181835260208401935060208101905083856020840282011115613cca57600080fd5b60005b83811015613c7c5781613ce08882613dbf565b8452506020928301929190910190600101613ccd565b803561072f816152e2565b805161072f816152e2565b803561072f816152eb565b60008083601f840112613d2957600080fd5b5081356001600160401b03811115613d4057600080fd5b602083019150836001820283011115613c0057600080fd5b600082601f830112613d6957600080fd5b8135613d77613c2682615219565b91508082526020830160208301858383011115613d9357600080fd5b613d9e83828461528c565b50505092915050565b600060808284031215613db957600080fd5b50919050565b805161072f816152eb565b805161072f816152f4565b600060208284031215613de757600080fd5b6000611c268484613ba9565b60008060008060808587031215613e0957600080fd5b6000613e158787613ba9565b9450506020613e2687828801613ba9565b9350506040613e3787828801613d0c565b9250506060613e4887828801613d0c565b91505092959194509250565b60008060408385031215613e6757600080fd5b6000613e738585613ba9565b9250506020613e8485828601613d0c565b9150509250929050565b60008060008060608587031215613ea457600080fd5b6000613eb08787613ba9565b94505060208501356001600160401b03811115613ecc57600080fd5b613ed887828801613d17565b93509350506040613e4887828801613d0c565b60008060008060408587031215613f0157600080fd5b84356001600160401b03811115613f1757600080fd5b613f2387828801613bbf565b945094505060208501356001600160401b03811115613f4157600080fd5b613f4d87828801613bbf565b95989497509550505050565b60008060408385031215613f6c57600080fd5b82516001600160401b03811115613f8257600080fd5b613f8e85828601613c07565b92505060208301516001600160401b03811115613faa57600080fd5b613e8485828601613c86565b600060208284031215613fc857600080fd5b6000611c268484613d01565b60008060208385031215613fe757600080fd5b82356001600160401b03811115613ffd57600080fd5b61400985828601613d17565b92509250509250929050565b60008060006040848603121561402a57600080fd5b83356001600160401b0381111561404057600080fd5b61404c86828701613d17565b9350935050602061405f86828701613cf6565b9150509250925092565b60008060006040848603121561407e57600080fd5b83356001600160401b0381111561409457600080fd5b6140a086828701613d17565b9350935050602061405f86828701613d0c565b6000602082840312156140c557600080fd5b81356001600160401b038111156140db57600080fd5b611c2684828501613d58565b6000608082840312156140f957600080fd5b6000611c268484613da7565b60006020828403121561411757600080fd5b6000611c268484613d0c565b60006020828403121561413557600080fd5b6000611c268484613dbf565b60006020828403121561415357600080fd5b6000611c268484613dca565b6141688161527b565b82525050565b61416881615259565b61416881615264565b600061418b8261524c565b6141958185610815565b93506141a5818560208601615298565b9290920192915050565b61416881610754565b60006141c48385615250565b93506141d183858461528c565b6141da836152c4565b9093019392505050565b60006141f08385610815565b93506141fd83858461528c565b50500190565b600061420e8261524c565b6142188185615250565b9350614228818560208601615298565b6141da816152c4565b60008154600181166000811461424e5760018114614271576142b0565b607f600283041661425f8187610815565b60ff19841681529550850192506142b0565b6002820461427f8187610815565b955061428a85615240565b60005b828110156142a95781548882015260019091019060200161428d565b5050850192505b505092915050565b60006142c5601d83615250565b7f43616c6c6572206973206e6f742074686520726562616c616e6365722e000000815260200192915050565b60006142fe602683615250565b7f4f776e61626c653a206e6577206f776e657220697320746865207a65726f206181526564647265737360d01b602082015260400192915050565b6000614346601b83615250565b7f536166654d6174683a206164646974696f6e206f766572666c6f770000000000815260200192915050565b600061437f601583615250565b74233ab7321030b63932b0b23c9032b730b13632b21760591b815260200192915050565b60006143b0603983615250565b7f496e707574206172726179732063616e6e6f7420626520656d70747920616e6481527f206d757374206265207468652073616d65206c656e6774682e00000000000000602082015260400192915050565b600061440f603783615250565b7f4465706f73697420616d6f756e7420697320736f20736d616c6c20746861742081527f6e6f2052465420776f756c64206265206d696e7465642e000000000000000000602082015260400192915050565b600061446e602683615250565b7f4465706f73697420616d6f756e74206d757374206265206772656174657220748152653430b710181760d11b602082015260400192915050565b60006144b6602e83615250565b7f5468697320697320616c7265616479207468652063757272656e7420696e746581526d3932b9ba103332b2903930ba329760911b602082015260400192915050565b6000614506602183615250565b7f5369676e6564536166654d6174683a206164646974696f6e206f766572666c6f8152607760f81b602082015260400192915050565b6000614549602083615250565b7f5361666545524332303a206c6f772d6c6576656c2063616c6c206661696c6564815260200192915050565b6000614582601283615250565b712bb4ba34323930bbb0b6103330b4b632b21760711b815260200192915050565b60006145b0602083615250565b7f43616c6c6572206973206e6f7420746865205261726946756e64546f6b656e2e815260200192915050565b60006145e9604f83615250565b7f417661696c61626c652062616c616e6365206e6f7420656e6f75676820746f2081527f636f76657220616d6f756e74206576656e20616674657220776974686472617760208201526e34b73390333937b6903837b7b6399760891b604082015260600192915050565b6000614660601683615250565b7524b73b30b634b21031bab93932b731bc9031b7b2329760511b815260200192915050565b6000614692602183615250565b7f5369676e6564536166654d6174683a206469766973696f6e206f766572666c6f8152607760f81b602082015260400192915050565b60006146d5603a83615250565b7f5769746864726177616c20616d6f756e7420697320736f20736d616c6c20746881527f6174206e6f2052465420776f756c64206265206275726e65642e000000000000602082015260400192915050565b6000614734601d83615250565b7f4661696c656420746f206d696e74206f757470757420746f6b656e732e000000815260200192915050565b600061476d602383615250565b7f4e6f206e657720666565732061726520617661696c61626c6520746f20636c6181526234b69760e91b602082015260400192915050565b60006147b2601783615250565b7f506f6f6c207769746864726177616c206661696c65642e000000000000000000815260200192915050565b60006147eb602183615250565b7f536166654d6174683a206d756c7469706c69636174696f6e206f766572666c6f8152607760f81b602082015260400192915050565b600061482e604683615250565b7f546869732066756e64206d616e6167657220636f6e747261637420697320646981527f7361626c65642e2054686973206d61792062652064756520746f20616e20757060208201526533b930b2329760d11b604082015260600192915050565b600061489c602083615250565b7f4f776e61626c653a2063616c6c6572206973206e6f7420746865206f776e6572815260200192915050565b60006148d5602783615250565b7f5369676e6564536166654d6174683a206d756c7469706c69636174696f6e206f815266766572666c6f7760c81b602082015260400192915050565b600061491e602e83615250565b7f4d61737465722062656e65666963696172792063616e6e6f742062652074686581526d103d32b9379030b2323932b9b99760911b602082015260400192915050565b600061496e601683615250565b75233ab7321030b63932b0b23c903234b9b0b13632b21760511b815260200192915050565b60006149a0600383610815565b621554d160ea1b815260030192915050565b60006149bf603c83615250565b7f596f7572205246542062616c616e636520697320746f6f206c6f7720666f722081527f61207769746864726177616c206f66207468697320616d6f756e742e00000000602082015260400192915050565b6000614a1e601583615250565b74233ab732103130b630b731b29034b9903d32b9379760591b815260200192915050565b6000614a4f602083615250565b7f43616c6c6572206973206e6f7420746865205261726946756e6450726f78792e815260200192915050565b6000614a88606d83615250565b7f546869732063757272656e6379206973206e6f742063757272656e746c79206181527f636365707465643b20706c6561736520636f6e7665727420796f75722066756e60208201527f647320746f20616e2061636365707465642063757272656e6379206265666f7260408201526c32903232b837b9b4ba34b7339760991b606082015260800192915050565b6000614b23602983615250565b7f5769746864726177616c20616d6f756e74206d7573742062652067726561746581526839103a3430b710181760b91b602082015260400192915050565b6000614b6e602383615250565b7f43616c6c6572206973206e6f7420616e20617574686f72697a656420736f757281526231b29760e91b602082015260400192915050565b6000614bb3602483615250565b7f5369676e6564536166654d6174683a207375627472616374696f6e206f766572815263666c6f7760e01b602082015260400192915050565b6000614bf9602a83615250565b7f5361666545524332303a204552433230206f7065726174696f6e20646964206e8152691bdd081cdd58d8d9595960b21b602082015260400192915050565b6000614c45600f83615250565b6e2232b837b9b4ba103330b4b632b21760891b815260200192915050565b6000614c70602083615250565b7f5369676e6564536166654d6174683a206469766973696f6e206279207a65726f815260200192915050565b6000614ca9603183615250565b7f4661696c656420746f2067657420645964582062616c616e6365206f6620746881527034b99031bab93932b731bc9031b7b2329760791b602082015260400192915050565b6000614cfc601f83615250565b7f5361666545524332303a2063616c6c20746f206e6f6e2d636f6e747261637400815260200192915050565b6000614d35605283615250565b7f4d616b696e672074686973206465706f73697420776f756c642063617573652081527f7468652062616c616e6365206f662074686973206163636f756e7420746f20656020820152713c31b2b2b2103a34329036b0bc34b6bab69760711b604082015260600192915050565b80516080830190614db384826141af565b506020820151614dc660208501826141af565b506040820151614dd960408501826141af565b506060820151610b3c60608501826141af565b61416881615275565b6000610f748284614180565b6000611c268284866141e4565b6000610f748284614231565b600061072f82614993565b6020810161072f828461416e565b6020810161072f828461415f565b60608101614e4f828661416e565b614e5c602083018561416e565b611c2660408301846141af565b60408101614e77828561416e565b610f7460208301846141af565b60808101614e92828861416e565b614e9f60208301876141af565b8181036040830152614eb28185876141b8565b90506116cc60608301846141af565b6020810161072f8284614177565b6020810161072f82846141af565b60208082528101610f748184614203565b6020808252810161072f816142b8565b6020808252810161072f816142f1565b6020808252810161072f81614339565b6020808252810161072f81614372565b6020808252810161072f816143a3565b6020808252810161072f81614402565b6020808252810161072f81614461565b6020808252810161072f816144a9565b6020808252810161072f816144f9565b6020808252810161072f8161453c565b6020808252810161072f81614575565b6020808252810161072f816145a3565b6020808252810161072f816145dc565b6020808252810161072f81614653565b6020808252810161072f81614685565b6020808252810161072f816146c8565b6020808252810161072f81614727565b6020808252810161072f81614760565b6020808252810161072f816147a5565b6020808252810161072f816147de565b6020808252810161072f81614821565b6020808252810161072f8161488f565b6020808252810161072f816148c8565b6020808252810161072f81614911565b6020808252810161072f81614961565b6020808252810161072f816149b2565b6020808252810161072f81614a11565b6020808252810161072f81614a42565b6020808252810161072f81614a7b565b6020808252810161072f81614b16565b6020808252810161072f81614b61565b6020808252810161072f81614ba6565b6020808252810161072f81614bec565b6020808252810161072f81614c38565b6020808252810161072f81614c63565b6020808252810161072f81614c9c565b6020808252810161072f81614cef565b6020808252810161072f81614d28565b6080810161072f8284614da2565b6060810161516a82866141af565b614e5c60208301856141af565b604081016151858285614dec565b8181036020830152611c268184614203565b608081016151a58287614dec565b81810360208301526151b78186614203565b90506151c660408301856141af565b6138a760608301846141af565b6040518181016001600160401b03811182821017156151f157600080fd5b604052919050565b60006001600160401b0382111561520f57600080fd5b5060209081020190565b60006001600160401b0382111561522f57600080fd5b506020601f91909101601f19160190565b60009081526020902090565b5190565b90815260200190565b600061072f82615269565b151590565b6001600160a01b031690565b60ff1690565b600061072f82600061072f82615259565b82818337506000910152565b60005b838110156152b357818101518382015260200161529b565b83811115610b3c5750506000910152565b601f01601f191690565b6152d781615259565b81146109d557600080fd5b6152d781615264565b6152d781610754565b6152d78161527556fe4465706f73697420616d6f756e7420697320736f20736d616c6c2074686174206e6f2052465420776f756c64206265206d696e7465642e4e6f206e657720666565732061726520617661696c61626c6520746f20636c61696d2ea365627a7a72315820b8c7836b742a1977fa8d06e65c9c76089b0b563d65e7bcb4fc1bdf6fc51e6f986c6578706572696d656e74616cf564736f6c63430005110040",
  "source": "/**\r\n * @file\r\n * @author David Lucid <david@rari.capital>\r\n *\r\n * @section LICENSE\r\n *\r\n * All rights reserved to David Lucid of David Lucid LLC.\r\n * Any disclosure, reproduction, distribution or other use of this code by any individual or entity other than David Lucid of David Lucid LLC, unless given explicit permission by David Lucid of David Lucid LLC, is prohibited.\r\n *\r\n * @section DESCRIPTION\r\n *\r\n * This file includes the Ethereum contract code for RariFundManager, the primary contract powering Rari Capital's RariFund.\r\n */\r\n\r\npragma solidity ^0.5.7;\r\npragma experimental ABIEncoderV2;\r\n\r\nimport \"@openzeppelin/contracts/math/SafeMath.sol\";\r\nimport \"@openzeppelin/contracts/drafts/SignedSafeMath.sol\";\r\nimport \"@openzeppelin/contracts/ownership/Ownable.sol\";\r\nimport \"@openzeppelin/contracts/token/ERC20/IERC20.sol\";\r\nimport \"@openzeppelin/contracts/token/ERC20/SafeERC20.sol\";\r\nimport \"@openzeppelin/contracts/token/ERC20/ERC20Detailed.sol\";\r\n\r\nimport \"@0x/contracts-exchange-libs/contracts/src/LibOrder.sol\";\r\n\r\nimport \"./RariFundController.sol\";\r\nimport \"./RariFundToken.sol\";\r\nimport \"./RariFundProxy.sol\";\r\n\r\n/**\r\n * @title RariFundManager\r\n * @dev This contract is the primary contract powering RariFund.\r\n * Anyone can deposit to the fund with deposit(string currencyCode, uint256 amount).\r\n * Anyone can withdraw their funds (with interest) from the fund with withdraw(string currencyCode, uint256 amount).\r\n */\r\ncontract RariFundManager is Ownable {\r\n    using SafeMath for uint256;\r\n    using SignedSafeMath for int256;\r\n    using SafeERC20 for IERC20;\r\n\r\n    /**\r\n     * @dev Boolean that, if true, disables the primary functionality of this RariFundManager.\r\n     */\r\n    bool private _fundDisabled;\r\n\r\n    /**\r\n     * @dev Address of the RariFundController.\r\n     */\r\n    address payable private _rariFundControllerContract;\r\n\r\n    /**\r\n     * @dev Contract of the RariFundController.\r\n     */\r\n    RariFundController private _rariFundController;\r\n\r\n    /**\r\n     * @dev Address of the RariFundToken.\r\n     */\r\n    address private _rariFundTokenContract;\r\n\r\n    /**\r\n     * @dev Contract of the RariFundToken.\r\n     */\r\n    RariFundToken private _rariFundToken;\r\n\r\n    /**\r\n     * @dev Address of the RariFundProxy.\r\n     */\r\n    address private _rariFundProxyContract;\r\n\r\n    /**\r\n     * @dev Address of the rebalancer.\r\n     */\r\n    address private _rariFundRebalancerAddress;\r\n\r\n    /**\r\n     * @dev Array of currencies supported by the fund.\r\n     */\r\n    string[] private _supportedCurrencies;\r\n\r\n    /**\r\n     * @dev Maps ERC20 token contract addresses to supported currency codes.\r\n     */\r\n    mapping(string => address) private _erc20Contracts;\r\n\r\n    /**\r\n     * @dev Maps arrays of supported pools to currency codes.\r\n     */\r\n    mapping(string => uint8[]) private _poolsByCurrency;\r\n\r\n    /**\r\n     * @dev Constructor that sets supported ERC20 token contract addresses and supported pools for each supported token.\r\n     */\r\n    constructor () public {\r\n        // Add supported currencies\r\n        addSupportedCurrency(\"DAI\", 0x6B175474E89094C44Da98b954EedeAC495271d0F);\r\n        addPoolToCurrency(\"DAI\", 0); // dYdX\r\n        addPoolToCurrency(\"DAI\", 1); // Compound\r\n        addSupportedCurrency(\"USDC\", 0xA0b86991c6218b36c1d19D4a2e9Eb0cE3606eB48);\r\n        addPoolToCurrency(\"USDC\", 0); // dYdX\r\n        addPoolToCurrency(\"USDC\", 1); // Compound\r\n        addSupportedCurrency(\"USDT\", 0xdAC17F958D2ee523a2206206994597C13D831ec7);\r\n        addPoolToCurrency(\"USDT\", 1); // Compound\r\n    }\r\n\r\n    /**\r\n     * @dev Marks a token as supported by the fund and stores its ERC20 contract address.\r\n     * @param currencyCode The currency code of the token.\r\n     * @param erc20Contract The ERC20 contract of the token.\r\n     */\r\n    function addSupportedCurrency(string memory currencyCode, address erc20Contract) internal {\r\n        _supportedCurrencies.push(currencyCode);\r\n        _erc20Contracts[currencyCode] = erc20Contract;\r\n    }\r\n\r\n    /**\r\n     * @dev Adds a supported pool for a token.\r\n     * @param currencyCode The currency code of the token.\r\n     * @param pool Pool ID to be supported.\r\n     */\r\n    function addPoolToCurrency(string memory currencyCode, uint8 pool) internal {\r\n        _poolsByCurrency[currencyCode].push(pool);\r\n    }\r\n\r\n    /**\r\n     * @dev Emitted when RariFundManager is upgraded.\r\n     */\r\n    event FundManagerUpgraded(address newContract);\r\n\r\n    /**\r\n     * @dev Upgrades RariFundManager.\r\n     * Sends data to the new contract, sets the new RariFundToken minter, and forwards tokens from the old to the new.\r\n     * @param newContract The address of the new RariFundManager contract.\r\n     */\r\n    function upgradeFundManager(address newContract) external onlyOwner {\r\n        // Pass data to the new contract\r\n        FundManagerData memory data;\r\n\r\n        data = FundManagerData(\r\n            _netDeposits,\r\n            _rawInterestAccruedAtLastFeeRateChange,\r\n            _interestFeesGeneratedAtLastFeeRateChange,\r\n            _interestFeesClaimed\r\n        );\r\n\r\n        RariFundManager(newContract).setFundManagerData(data);\r\n\r\n        // Update RariFundToken minter\r\n        if (_rariFundTokenContract != address(0)) {\r\n            _rariFundToken.addMinter(newContract);\r\n            _rariFundToken.renounceMinter();\r\n        }\r\n\r\n        emit FundManagerUpgraded(newContract);\r\n    }\r\n\r\n    /**\r\n     * @dev Old RariFundManager contract authorized to migrate its data to the new one.\r\n     */\r\n    address private _authorizedFundManagerDataSource;\r\n\r\n    /**\r\n     * @dev Upgrades RariFundManager.\r\n     * Authorizes the source for fund manager data (i.e., the old fund manager).\r\n     * @param authorizedFundManagerDataSource Authorized source for data (i.e., the old fund manager).\r\n     */\r\n    function authorizeFundManagerDataSource(address authorizedFundManagerDataSource) external onlyOwner {\r\n        _authorizedFundManagerDataSource = authorizedFundManagerDataSource;\r\n    }\r\n\r\n    /**\r\n     * @dev Struct for data to transfer from the old RariFundManager to the new one.\r\n     */\r\n    struct FundManagerData {\r\n        int256 netDeposits;\r\n        int256 rawInterestAccruedAtLastFeeRateChange;\r\n        int256 interestFeesGeneratedAtLastFeeRateChange;\r\n        uint256 interestFeesClaimed;\r\n    }\r\n\r\n    /**\r\n     * @dev Upgrades RariFundManager.\r\n     * Sets data receieved from the old contract.\r\n     * @param data The data from the old contract necessary to initialize the new contract.\r\n     */\r\n    function setFundManagerData(FundManagerData calldata data) external {\r\n        require(_authorizedFundManagerDataSource != address(0) && msg.sender == _authorizedFundManagerDataSource, \"Caller is not an authorized source.\");\r\n        \r\n        _netDeposits = data.netDeposits;\r\n        _rawInterestAccruedAtLastFeeRateChange = data.rawInterestAccruedAtLastFeeRateChange;\r\n        _interestFeesGeneratedAtLastFeeRateChange = data.interestFeesGeneratedAtLastFeeRateChange;\r\n        _interestFeesClaimed = data.interestFeesClaimed;\r\n    }\r\n\r\n    /**\r\n     * @dev Emitted when the RariFundController of the RariFundManager is set or upgraded.\r\n     */\r\n    event FundControllerSet(address newContract);\r\n\r\n    /**\r\n     * @dev Sets or upgrades RariFundController by forwarding tokens from the old to the new.\r\n     * @param newContract The address of the new RariFundController contract.\r\n     */\r\n    function setFundController(address payable newContract) external onlyOwner cacheDydxBalances {\r\n        // Forward tokens to new FundController if we are upgrading an existing one\r\n        if (_rariFundControllerContract != address(0)) {\r\n            for (uint256 i = 0; i < _supportedCurrencies.length; i++) {\r\n                string memory currencyCode = _supportedCurrencies[i];\r\n\r\n                for (uint256 j = 0; j < _poolsByCurrency[currencyCode].length; j++)\r\n                    if (getPoolBalance(_poolsByCurrency[currencyCode][j], currencyCode) > 0)\r\n                        _rariFundController.withdrawAllFromPoolOnUpgrade(_poolsByCurrency[currencyCode][j], currencyCode); // No need to update the cached dYdX balances as they won't be used again\r\n\r\n                IERC20 token = IERC20(_erc20Contracts[currencyCode]);\r\n                uint256 balance = token.balanceOf(_rariFundControllerContract);\r\n                if (balance > 0) token.safeTransferFrom(_rariFundControllerContract, newContract, balance);\r\n            }\r\n        }\r\n\r\n        // Set new contract address\r\n        _rariFundControllerContract = newContract;\r\n        _rariFundController = RariFundController(_rariFundControllerContract);\r\n        emit FundControllerSet(newContract);\r\n    }\r\n\r\n    /**\r\n     * @dev Forwards tokens in the fund manager to the fund controller (for upgrading from v1.0.0 and for accidental transfers to the fund manager).\r\n     */\r\n    function forwardToFundController() external onlyOwner {\r\n        for (uint256 i = 0; i < _supportedCurrencies.length; i++) {\r\n            IERC20 token = IERC20(_erc20Contracts[_supportedCurrencies[i]]);\r\n            uint256 balance = token.balanceOf(address(this));\r\n            if (balance > 0) token.safeTransfer(_rariFundControllerContract, balance);\r\n        }\r\n    }\r\n\r\n    /**\r\n     * @dev Emitted when the RariFundToken of the RariFundManager is set.\r\n     */\r\n    event FundTokenSet(address newContract);\r\n\r\n    /**\r\n     * @dev Sets or upgrades the RariFundToken of the RariFundManager.\r\n     * @param newContract The address of the new RariFundToken contract.\r\n     */\r\n    function setFundToken(address newContract) external onlyOwner {\r\n        _rariFundTokenContract = newContract;\r\n        _rariFundToken = RariFundToken(_rariFundTokenContract);\r\n        emit FundTokenSet(newContract);\r\n    }\r\n\r\n    /**\r\n     * @dev Throws if called by any account other than the RariFundToken.\r\n     */\r\n    modifier onlyToken() {\r\n        require(_rariFundTokenContract == msg.sender, \"Caller is not the RariFundToken.\");\r\n        _;\r\n    }\r\n\r\n    /**\r\n     * @dev Maps net quantity of deposits to the fund (i.e., deposits - withdrawals) to each user.\r\n     * On deposit, amount deposited is added to `_netDepositsByAccount`; on withdrawal, amount withdrawn is subtracted from `_netDepositsByAccount`.\r\n     */\r\n    mapping(address => int256) private _netDepositsByAccount;\r\n\r\n    /**\r\n     * @dev Initializes `_netDepositsByAccount` after a fund manager upgrade.\r\n     * @param accounts An array of accounts.\r\n     * @param netDeposits An array of net deposits for each of `accounts`.\r\n     */\r\n    function initNetDeposits(address[] calldata accounts, int256[] calldata netDeposits) external onlyOwner {\r\n        require(accounts.length > 0 && accounts.length == netDeposits.length, \"Input arrays cannot be empty and must be the same length.\");\r\n        for (uint256 i = 0; i < accounts.length; i++) _netDepositsByAccount[accounts[i]] = netDeposits[i];\r\n    }\r\n\r\n    /**\r\n     * @dev Recieves data about an RFT transfer or burn from RariFundToken so we can record it in `_netDepositsByAccount`.\r\n     * @param sender The sender of the RFT.\r\n     * @param recipient The recipient of the RFT (the zero address if burning).\r\n     * @param rftAmount The amount of RFT transferred or burnt.\r\n     * @param newRftTotalSupply The total supply of RFT after the transfer or burn.\r\n     */\r\n    function onFundTokenTransfer(address sender, address recipient, uint256 rftAmount, uint256 newRftTotalSupply) external fundEnabled onlyToken {\r\n        if (rftAmount <= 0) return;\r\n        uint256 oldRftTotalSupply = recipient == address(0) ? newRftTotalSupply.add(rftAmount) : newRftTotalSupply;\r\n        uint256 amountUsd = rftAmount.mul(getFundBalance()).div(oldRftTotalSupply);\r\n        _netDepositsByAccount[sender] = _netDepositsByAccount[sender].sub(int256(amountUsd));\r\n        if (recipient == address(0)) _netDeposits = _netDeposits.sub(int256(amountUsd));\r\n        else _netDepositsByAccount[recipient] = _netDepositsByAccount[recipient].add(int256(amountUsd));\r\n    }\r\n\r\n    /**\r\n     * @notice Returns the total amount of interest accrued by `account` (excluding the fees paid on interest) in USD (scaled by 1e18).\r\n     * @dev Ideally, we can add the view modifier, but Compound's `getUnderlyingBalance` function (called by `getRawFundBalance`) potentially modifies the state.\r\n     * @param account The account whose interest we are calculating.\r\n     */\r\n    function interestAccruedBy(address account) public returns (int256) {\r\n        return int256(this.balanceOf(account)).sub(_netDepositsByAccount[account]);\r\n    }\r\n\r\n    /**\r\n     * @dev Emitted when the RariFundProxy of the RariFundManager is set.\r\n     */\r\n    event FundProxySet(address newContract);\r\n\r\n    /**\r\n     * @dev Sets or upgrades the RariFundProxy of the RariFundManager.\r\n     * @param newContract The address of the new RariFundProxy contract.\r\n     */\r\n    function setFundProxy(address newContract) external onlyOwner {\r\n        _rariFundProxyContract = newContract;\r\n        emit FundProxySet(newContract);\r\n    }\r\n\r\n    /**\r\n     * @dev Throws if called by any account other than the RariFundProxy.\r\n     */\r\n    modifier onlyProxy() {\r\n        require(_rariFundProxyContract == msg.sender, \"Caller is not the RariFundProxy.\");\r\n        _;\r\n    }\r\n\r\n    /**\r\n     * @dev Emitted when the rebalancer of the RariFundManager is set.\r\n     */\r\n    event FundRebalancerSet(address newAddress);\r\n\r\n    /**\r\n     * @dev Sets or upgrades the rebalancer of the RariFundManager.\r\n     * @param newAddress The Ethereum address of the new rebalancer server.\r\n     */\r\n    function setFundRebalancer(address newAddress) external onlyOwner {\r\n        _rariFundRebalancerAddress = newAddress;\r\n        emit FundRebalancerSet(newAddress);\r\n    }\r\n\r\n    /**\r\n     * @dev Throws if called by any account other than the rebalancer.\r\n     */\r\n    modifier onlyRebalancer() {\r\n        require(_rariFundRebalancerAddress == msg.sender, \"Caller is not the rebalancer.\");\r\n        _;\r\n    }\r\n\r\n    /**\r\n     * @dev Emitted when the primary functionality of this RariFundManager contract has been disabled.\r\n     */\r\n    event FundDisabled();\r\n\r\n    /**\r\n     * @dev Emitted when the primary functionality of this RariFundManager contract has been enabled.\r\n     */\r\n    event FundEnabled();\r\n\r\n    /**\r\n     * @dev Disables primary functionality of this RariFundManager so contract(s) can be upgraded.\r\n     */\r\n    function disableFund() external onlyOwner {\r\n        require(!_fundDisabled, \"Fund already disabled.\");\r\n        _fundDisabled = true;\r\n        emit FundDisabled();\r\n    }\r\n\r\n    /**\r\n     * @dev Enables primary functionality of this RariFundManager once contract(s) are upgraded.\r\n     */\r\n    function enableFund() external onlyOwner {\r\n        require(_fundDisabled, \"Fund already enabled.\");\r\n        _fundDisabled = false;\r\n        emit FundEnabled();\r\n    }\r\n\r\n    /**\r\n     * @dev Throws if fund is disabled.\r\n     */\r\n    modifier fundEnabled() {\r\n        require(!_fundDisabled, \"This fund manager contract is disabled. This may be due to an upgrade.\");\r\n        _;\r\n    }\r\n\r\n    /**\r\n     * @dev Boolean indicating if return values of `getPoolBalance` are to be cached.\r\n     */\r\n    bool _cachePoolBalances = false;\r\n\r\n    /**\r\n     * @dev Boolean indicating if dYdX balances returned by `getPoolBalance` are to be cached.\r\n     */\r\n    bool _cacheDydxBalances = false;\r\n\r\n    /**\r\n     * @dev Maps cached pool balances to pool indexes to currency codes.\r\n     */\r\n    mapping(string => mapping(uint8 => uint256)) _poolBalanceCache;\r\n\r\n    /**\r\n     * @dev Cached array of dYdX token addresses.\r\n     */\r\n    address[] private _dydxTokenAddressesCache;\r\n\r\n    /**\r\n     * @dev Cached array of dYdX balances.\r\n     */\r\n    uint256[] private _dydxBalancesCache;\r\n\r\n    /**\r\n     * @dev Returns the fund controller's balance of the specified currency in the specified pool.\r\n     * @dev Ideally, we can add the view modifier, but Compound's `getUnderlyingBalance` function (called by `CompoundPoolController.getBalance`) potentially modifies the state.\r\n     * @param pool The index of the pool.\r\n     * @param currencyCode The currency code of the token.\r\n     */\r\n    function getPoolBalance(uint8 pool, string memory currencyCode) internal returns (uint256) {\r\n        if (!_rariFundController.hasCurrencyInPool(pool, currencyCode)) return 0;\r\n\r\n        if (_cachePoolBalances || _cacheDydxBalances) {\r\n            if (pool == 0) {\r\n                address erc20Contract = _erc20Contracts[currencyCode];\r\n                require(erc20Contract != address(0), \"Invalid currency code.\");\r\n                if (_dydxBalancesCache.length == 0) (_dydxTokenAddressesCache, _dydxBalancesCache) = _rariFundController.getDydxBalances();\r\n                for (uint256 i = 0; i < _dydxBalancesCache.length; i++) if (_dydxTokenAddressesCache[i] == erc20Contract) return _dydxBalancesCache[i];\r\n                revert(\"Failed to get dYdX balance of this currency code.\");\r\n            } else if (_cachePoolBalances) {\r\n                if (_poolBalanceCache[currencyCode][pool] == 0) _poolBalanceCache[currencyCode][pool] = _rariFundController._getPoolBalance(pool, currencyCode);\r\n                return _poolBalanceCache[currencyCode][pool];\r\n            }\r\n        }\r\n\r\n        return _rariFundController._getPoolBalance(pool, currencyCode);\r\n    }\r\n\r\n    /**\r\n     * @dev Caches dYdX pool balances returned by `getPoolBalance` for the duration of the function.\r\n     */\r\n    modifier cacheDydxBalances() {\r\n        bool cacheSetPreviously = _cacheDydxBalances;\r\n        _cacheDydxBalances = true;\r\n        _;\r\n\r\n        if (!cacheSetPreviously) {\r\n            _cacheDydxBalances = false;\r\n            if (!_cachePoolBalances) _dydxBalancesCache.length = 0;\r\n        }\r\n    }\r\n\r\n    /**\r\n     * @dev Caches return values of `getPoolBalance` for the duration of the function.\r\n     */\r\n    modifier cachePoolBalances() {\r\n        bool cacheSetPreviously = _cachePoolBalances;\r\n        _cachePoolBalances = true;\r\n        _;\r\n\r\n        if (!cacheSetPreviously) {\r\n            _cachePoolBalances = false;\r\n            if (!_cacheDydxBalances) _dydxBalancesCache.length = 0;\r\n\r\n            for (uint256 i = 0; i < _supportedCurrencies.length; i++) {\r\n                string memory currencyCode = _supportedCurrencies[i];\r\n                for (uint256 j = 0; j < _poolsByCurrency[currencyCode].length; j++) _poolBalanceCache[currencyCode][_poolsByCurrency[currencyCode][j]] = 0;\r\n            }\r\n        }\r\n    }\r\n\r\n    /**\r\n     * @notice Returns the fund's raw total balance (all RFT holders' funds + all unclaimed fees) of the specified currency.\r\n     * @dev Ideally, we can add the view modifier, but Compound's `getUnderlyingBalance` function (called by `RariFundController.getPoolBalance`) potentially modifies the state.\r\n     * @param currencyCode The currency code of the balance to be calculated.\r\n     */\r\n    function getRawFundBalance(string memory currencyCode) public returns (uint256) {\r\n        address erc20Contract = _erc20Contracts[currencyCode];\r\n        require(erc20Contract != address(0), \"Invalid currency code.\");\r\n\r\n        IERC20 token = IERC20(erc20Contract);\r\n        uint256 totalBalance = token.balanceOf(_rariFundControllerContract);\r\n        for (uint256 i = 0; i < _poolsByCurrency[currencyCode].length; i++)\r\n            totalBalance = totalBalance.add(getPoolBalance(_poolsByCurrency[currencyCode][i], currencyCode));\r\n\r\n        return totalBalance;\r\n    }\r\n\r\n    /**\r\n     * @dev Caches the fund's raw total balance (all RFT holders' funds + all unclaimed fees) of all currencies in USD (scaled by 1e18).\r\n     */\r\n    int256 private _rawFundBalanceCache = -1;\r\n\r\n    /**\r\n     * @notice Returns the fund's raw total balance (all RFT holders' funds + all unclaimed fees) of all currencies in USD (scaled by 1e18).\r\n     * @dev Ideally, we can add the view modifier, but Compound's `getUnderlyingBalance` function (called by `getRawFundBalance`) potentially modifies the state.\r\n     */\r\n    function getRawFundBalance() public cacheDydxBalances returns (uint256) {\r\n        if (_rawFundBalanceCache >= 0) return uint256(_rawFundBalanceCache);\r\n\r\n        uint256 totalBalance = 0;\r\n\r\n        for (uint256 i = 0; i < _supportedCurrencies.length; i++) {\r\n            string memory currencyCode = _supportedCurrencies[i];\r\n            uint256 balance = getRawFundBalance(currencyCode);\r\n            address erc20Contract = _erc20Contracts[currencyCode];\r\n            uint256 tokenDecimals = erc20Contract == 0xdAC17F958D2ee523a2206206994597C13D831ec7 ? 6 : ERC20Detailed(erc20Contract).decimals();\r\n            uint256 balanceUsd = 18 >= tokenDecimals ? balance.mul(10 ** (uint256(18).sub(tokenDecimals))) : balance.div(10 ** (tokenDecimals.sub(18))); // TODO: Factor in prices; for now we assume the value of all supported currencies = $1\r\n            totalBalance = totalBalance.add(balanceUsd);\r\n        }\r\n\r\n        return totalBalance;\r\n    }\r\n\r\n    /**\r\n     * @dev Caches the value of getRawFundBalance() for the duration of the function.\r\n     */\r\n    modifier cacheRawFundBalance() {\r\n        bool cacheSetPreviously = _rawFundBalanceCache >= 0;\r\n        if (!cacheSetPreviously) _rawFundBalanceCache = int256(getRawFundBalance());\r\n        _;\r\n        if (!cacheSetPreviously) _rawFundBalanceCache = -1;\r\n    }\r\n\r\n    /**\r\n     * @notice Returns the fund's total investor balance (all RFT holders' funds but not unclaimed fees) of all currencies in USD (scaled by 1e18).\r\n     * @dev Ideally, we can add the view modifier, but Compound's `getUnderlyingBalance` function (called by `getRawFundBalance`) potentially modifies the state.\r\n     */\r\n    function getFundBalance() public cacheRawFundBalance returns (uint256) {\r\n        return getRawFundBalance().sub(getInterestFeesUnclaimed());\r\n    }\r\n\r\n    /**\r\n     * @notice Returns an account's total balance in USD (scaled by 1e18).\r\n     * @dev Ideally, we can add the view modifier, but Compound's `getUnderlyingBalance` function (called by `getRawFundBalance`) potentially modifies the state.\r\n     * @param account The account whose balance we are calculating.\r\n     */\r\n    function balanceOf(address account) external returns (uint256) {\r\n        uint256 rftTotalSupply = _rariFundToken.totalSupply();\r\n        if (rftTotalSupply == 0) return 0;\r\n        uint256 rftBalance = _rariFundToken.balanceOf(account);\r\n        uint256 fundBalanceUsd = getFundBalance();\r\n        uint256 accountBalanceUsd = rftBalance.mul(fundBalanceUsd).div(rftTotalSupply);\r\n        return accountBalanceUsd;\r\n    }\r\n\r\n    /**\r\n     * @dev Fund balance limit in USD per Ethereum address.\r\n     */\r\n    uint256 private _accountBalanceLimitDefault;\r\n\r\n    /**\r\n     * @dev Sets or upgrades the default account balance limit in USD.\r\n     * @param limitUsd The default fund balance limit per Ethereum address in USD.\r\n     */\r\n    function setDefaultAccountBalanceLimit(uint256 limitUsd) external onlyOwner {\r\n        _accountBalanceLimitDefault = limitUsd;\r\n    }\r\n\r\n    /**\r\n     * @dev Maps booleans indicating if Ethereum addresses are immune to the account balance limit.\r\n     */\r\n    mapping(address => int256) private _accountBalanceLimits;\r\n\r\n    /**\r\n     * @dev Sets the balance limit in USD of `account`.\r\n     * @param account The Ethereum address to add or remove.\r\n     * @param limitUsd The fund balance limit of `account` in USD. Use 0 to unset individual limit (and restore account to global limit). Use -1 to disable deposits from `account`.\r\n     */\r\n    function setIndividualAccountBalanceLimit(address account, int256 limitUsd) external onlyOwner {\r\n        _accountBalanceLimits[account] = limitUsd;\r\n    }\r\n\r\n    /**\r\n     * @dev Maps booleans indicating if currency codes are accepted for deposits.\r\n     */\r\n    mapping(string => bool) private _acceptedCurrencies;\r\n\r\n    /**\r\n     * @notice Returns a boolean indicating if deposits in `currencyCode` are currently accepted.\r\n     * @param currencyCode The currency code to check.\r\n     */\r\n    function isCurrencyAccepted(string memory currencyCode) public view returns (bool) {\r\n        return _acceptedCurrencies[currencyCode];\r\n    }\r\n\r\n    /**\r\n     * @dev Marks `currencyCode` as accepted or not accepted.\r\n     * @param currencyCode The currency code to mark as accepted or not accepted.\r\n     * @param accepted A boolean indicating if the `currencyCode` is to be accepted.\r\n     */\r\n    function setAcceptedCurrency(string calldata currencyCode, bool accepted) external onlyRebalancer {\r\n        _acceptedCurrencies[currencyCode] = accepted;\r\n    }\r\n\r\n    /**\r\n     * @dev Emitted when funds have been deposited to RariFund.\r\n     */\r\n    event Deposit(string indexed currencyCode, address indexed sender, address indexed payee, uint256 amount, uint256 amountUsd, uint256 rftMinted);\r\n\r\n    /**\r\n     * @dev Emitted when funds have been withdrawn from RariFund.\r\n     */\r\n    event Withdrawal(string indexed currencyCode, address indexed sender, address indexed payee, uint256 amount, uint256 amountUsd, uint256 rftBurned);\r\n\r\n    /**\r\n     * @notice Internal function to deposit funds from `msg.sender` to RariFund in exchange for RFT minted to `to`.\r\n     * You may only deposit currencies accepted by the fund (see `isCurrencyAccepted(string currencyCode)`).\r\n     * Please note that you must approve RariFundManager to transfer at least `amount`.\r\n     * @param to The address that will receieve the minted RFT.\r\n     * @param currencyCode The currency code of the token to be deposited.\r\n     * @param amount The amount of tokens to be deposited.\r\n     * @return Boolean indicating success.\r\n     */\r\n    function _depositTo(address to, string memory currencyCode, uint256 amount) internal fundEnabled returns (bool) {\r\n        // Input validation\r\n        address erc20Contract = _erc20Contracts[currencyCode];\r\n        require(erc20Contract != address(0), \"Invalid currency code.\");\r\n        require(isCurrencyAccepted(currencyCode), \"This currency is not currently accepted; please convert your funds to an accepted currency before depositing.\");\r\n        require(amount > 0, \"Deposit amount must be greater than 0.\");\r\n\r\n        // Get deposit amount in USD\r\n        uint256 tokenDecimals = erc20Contract == 0xdAC17F958D2ee523a2206206994597C13D831ec7 ? 6 : ERC20Detailed(erc20Contract).decimals();\r\n        uint256 amountUsd = 18 >= tokenDecimals ? amount.mul(10 ** (uint256(18).sub(tokenDecimals))) : amount.div(10 ** (tokenDecimals.sub(18)));\r\n\r\n        // Calculate RFT to mint\r\n        uint256 rftTotalSupply = _rariFundToken.totalSupply();\r\n        uint256 fundBalanceUsd = rftTotalSupply > 0 ? getFundBalance() : 0; // Only set if used\r\n        uint256 rftAmount = 0;\r\n        if (rftTotalSupply > 0 && fundBalanceUsd > 0) rftAmount = amountUsd.mul(rftTotalSupply).div(fundBalanceUsd);\r\n        else rftAmount = amountUsd;\r\n        require(rftAmount > 0, \"Deposit amount is so small that no RFT would be minted.\");\r\n\r\n        // Check account balance limit if `to` is not whitelisted\r\n        require(checkAccountBalanceLimit(to, amountUsd, rftTotalSupply, fundBalanceUsd), \"Making this deposit would cause the balance of this account to exceed the maximum.\");\r\n\r\n        // Update net deposits, transfer funds from msg.sender, mint RFT, emit event, and return true\r\n        _netDeposits = _netDeposits.add(int256(amountUsd));\r\n        _netDepositsByAccount[to] = _netDepositsByAccount[to].add(int256(amountUsd));\r\n        IERC20(erc20Contract).safeTransferFrom(msg.sender, _rariFundControllerContract, amount); // The user must approve the transfer of tokens beforehand\r\n        require(_rariFundToken.mint(to, rftAmount), \"Failed to mint output tokens.\");\r\n        emit Deposit(currencyCode, msg.sender, to, amount, amountUsd, rftAmount);\r\n        return true;\r\n    }\r\n\r\n    /**\r\n     * @dev Checks to make sure that, if `to` is not whitelisted, its balance will not exceed the maximum after depositing `amountUsd`.\r\n     * This function was separated from the `_depositTo` function to avoid the stack getting too deep.\r\n     * @param to The address that will receieve the minted RFT.\r\n     * @param amountUsd The amount of tokens to be deposited in USD.\r\n     * @param rftTotalSupply The total supply of RFT representing the fund's total investor balance.\r\n     * @param fundBalanceUsd The fund's total investor balance in USD.\r\n     * @return Boolean indicating success.\r\n     */\r\n    function checkAccountBalanceLimit(address to, uint256 amountUsd, uint256 rftTotalSupply, uint256 fundBalanceUsd) internal view returns (bool) {\r\n        if (to != owner() && to != _interestFeeMasterBeneficiary) {\r\n            if (_accountBalanceLimits[to] < 0) return false;\r\n            uint256 initialBalanceUsd = rftTotalSupply > 0 && fundBalanceUsd > 0 ? _rariFundToken.balanceOf(to).mul(fundBalanceUsd).div(rftTotalSupply) : 0; // Save gas by reusing value of getFundBalance() instead of calling balanceOf\r\n            uint256 accountBalanceLimitUsd = _accountBalanceLimits[to] > 0 ? uint256(_accountBalanceLimits[to]) : _accountBalanceLimitDefault;\r\n            if (initialBalanceUsd.add(amountUsd) > accountBalanceLimitUsd) return false;\r\n        }\r\n\r\n        return true;\r\n    }\r\n\r\n    /**\r\n     * @notice Deposits funds to RariFund in exchange for RFT.\r\n     * You may only deposit currencies accepted by the fund (see `isCurrencyAccepted(string currencyCode)`).\r\n     * Please note that you must approve RariFundManager to transfer at least `amount`.\r\n     * @param currencyCode The currency code of the token to be deposited.\r\n     * @param amount The amount of tokens to be deposited.\r\n     * @return Boolean indicating success.\r\n     */\r\n    function deposit(string calldata currencyCode, uint256 amount) external returns (bool) {\r\n        require(_depositTo(msg.sender, currencyCode, amount), \"Deposit failed.\");\r\n        return true;\r\n    }\r\n\r\n    /**\r\n     * @dev Deposits funds from `msg.sender` (RariFundProxy) to RariFund in exchange for RFT minted to `to`.\r\n     * You may only deposit currencies accepted by the fund (see `isCurrencyAccepted(string currencyCode)`).\r\n     * Please note that you must approve RariFundManager to transfer at least `amount`.\r\n     * @param to The address that will receieve the minted RFT.\r\n     * @param currencyCode The currency code of the token to be deposited.\r\n     * @param amount The amount of tokens to be deposited.\r\n     * @return Boolean indicating success.\r\n     */\r\n    function depositTo(address to, string calldata currencyCode, uint256 amount) external onlyProxy returns (bool) {\r\n        require(_depositTo(to, currencyCode, amount), \"Deposit failed.\");\r\n        return true;\r\n    }\r\n\r\n\r\n    /**\r\n     * @dev Returns the amount of RFT to burn for a withdrawal (used by `_withdrawFrom`).\r\n     * @param from The address from which RFT will be burned.\r\n     * @param amountUsd The amount of the withdrawal in USD\r\n     */\r\n    function getRftBurnAmount(address from, uint256 amountUsd) internal returns (uint256) {\r\n        uint256 rftTotalSupply = _rariFundToken.totalSupply();\r\n        uint256 fundBalanceUsd = getFundBalance();\r\n        require(fundBalanceUsd > 0, \"Fund balance is zero.\");\r\n        uint256 rftAmount = amountUsd.mul(rftTotalSupply).div(fundBalanceUsd);\r\n        require(rftAmount <= _rariFundToken.balanceOf(from), \"Your RFT balance is too low for a withdrawal of this amount.\");\r\n        require(rftAmount > 0, \"Withdrawal amount is so small that no RFT would be burned.\");\r\n        return rftAmount;\r\n    }\r\n\r\n    /**\r\n     * @dev Internal function to withdraw funds from RariFund to `msg.sender` in exchange for RFT burned from `from`.\r\n     * You may only withdraw currencies held by the fund (see `getRawFundBalance(string currencyCode)`).\r\n     * Please note that you must approve RariFundManager to burn of the necessary amount of RFT.\r\n     * @param from The address from which RFT will be burned.\r\n     * @param currencyCode The currency code of the token to be withdrawn.\r\n     * @param amount The amount of tokens to be withdrawn.\r\n     * @return Boolean indicating success.\r\n     */\r\n    function _withdrawFrom(address from, string memory currencyCode, uint256 amount) internal fundEnabled cachePoolBalances returns (bool) {\r\n        // Input validation\r\n        address erc20Contract = _erc20Contracts[currencyCode];\r\n        require(erc20Contract != address(0), \"Invalid currency code.\");\r\n        require(amount > 0, \"Withdrawal amount must be greater than 0.\");\r\n\r\n        // Check contract balance of token and withdraw from pools if necessary\r\n        IERC20 token = IERC20(erc20Contract);\r\n        uint256 contractBalance = token.balanceOf(_rariFundControllerContract);\r\n\r\n        for (uint256 i = 0; i < _poolsByCurrency[currencyCode].length; i++) {\r\n            if (contractBalance >= amount) break;\r\n            uint8 pool = _poolsByCurrency[currencyCode][i];\r\n            uint256 poolBalance = getPoolBalance(pool, currencyCode);\r\n            if (poolBalance <= 0) continue;\r\n            uint256 amountLeft = amount.sub(contractBalance);\r\n            uint256 poolAmount = amountLeft < poolBalance ? amountLeft : poolBalance;\r\n            require(_rariFundController.withdrawFromPoolKnowingBalance(pool, currencyCode, poolAmount, poolBalance), \"Pool withdrawal failed.\");\r\n\r\n            if (pool == 0) {\r\n                for (uint256 j = 0; j < _dydxBalancesCache.length; j++) if (_dydxTokenAddressesCache[j] == erc20Contract) _dydxBalancesCache[j] = poolBalance.sub(amount);\r\n            } else _poolBalanceCache[currencyCode][pool] = poolBalance.sub(amount);\r\n\r\n            contractBalance = contractBalance.add(poolAmount);\r\n        }\r\n\r\n        require(amount <= contractBalance, \"Available balance not enough to cover amount even after withdrawing from pools.\");\r\n\r\n        // Get withdrawal amount in USD\r\n        uint256 tokenDecimals = erc20Contract == 0xdAC17F958D2ee523a2206206994597C13D831ec7 ? 6 : ERC20Detailed(erc20Contract).decimals();\r\n        uint256 amountUsd = 18 >= tokenDecimals ? amount.mul(10 ** (uint256(18).sub(tokenDecimals))) : amount.div(10 ** (tokenDecimals.sub(18)));\r\n\r\n        // Calculate RFT to burn\r\n        uint256 rftAmount = getRftBurnAmount(from, amountUsd);\r\n\r\n        // Burn RFT, transfer funds to msg.sender, update net deposits, emit event, and return true\r\n        _rariFundToken.burnFrom(from, rftAmount); // The user must approve the burning of tokens beforehand\r\n        token.safeTransferFrom(_rariFundControllerContract, msg.sender, amount);\r\n        _netDeposits = _netDeposits.sub(int256(amountUsd));\r\n        _netDepositsByAccount[from] = _netDepositsByAccount[from].sub(int256(amountUsd));\r\n        emit Withdrawal(currencyCode, from, msg.sender, amount, amountUsd, rftAmount);\r\n        return true;\r\n    }\r\n\r\n    /**\r\n     * @notice Withdraws funds from RariFund in exchange for RFT.\r\n     * You may only withdraw currencies held by the fund (see `getRawFundBalance(string currencyCode)`).\r\n     * Please note that you must approve RariFundManager to burn of the necessary amount of RFT.\r\n     * @param currencyCode The currency code of the token to be withdrawn.\r\n     * @param amount The amount of tokens to be withdrawn.\r\n     * @return Boolean indicating success.\r\n     */\r\n    function withdraw(string calldata currencyCode, uint256 amount) external returns (bool) {\r\n        require(_withdrawFrom(msg.sender, currencyCode, amount), \"Withdrawal failed.\");\r\n        return true;\r\n    }\r\n\r\n    /**\r\n     * @dev Withdraws funds from RariFund to `msg.sender` (RariFundProxy) in exchange for RFT burned from `from`.\r\n     * You may only withdraw currencies held by the fund (see `getRawFundBalance(string currencyCode)`).\r\n     * Please note that you must approve RariFundManager to burn of the necessary amount of RFT.\r\n     * @param from The address from which RFT will be burned.\r\n     * @param currencyCode The currency code of the token to be withdrawn.\r\n     * @param amount The amount of tokens to be withdrawn.\r\n     * @return Boolean indicating success.\r\n     */\r\n    function withdrawFrom(address from, string calldata currencyCode, uint256 amount) external onlyProxy returns (bool) {\r\n        require(_withdrawFrom(from, currencyCode, amount), \"Withdrawal failed.\");\r\n        return true;\r\n    }\r\n\r\n    /**\r\n     * @dev Net quantity of deposits to the fund (i.e., deposits - withdrawals).\r\n     * On deposit, amount deposited is added to `_netDeposits`; on withdrawal, amount withdrawn is subtracted from `_netDeposits`.\r\n     */\r\n    int256 private _netDeposits;\r\n    \r\n    /**\r\n     * @notice Returns the raw total amount of interest accrued by the fund as a whole (including the fees paid on interest) in USD (scaled by 1e18).\r\n     * @dev Ideally, we can add the view modifier, but Compound's `getUnderlyingBalance` function (called by `getRawFundBalance`) potentially modifies the state.\r\n     */\r\n    function getRawInterestAccrued() public returns (int256) {\r\n        return int256(getRawFundBalance()).sub(_netDeposits).add(int256(_interestFeesClaimed));\r\n    }\r\n    \r\n    /**\r\n     * @notice Returns the total amount of interest accrued by past and current RFT holders (excluding the fees paid on interest) in USD (scaled by 1e18).\r\n     * @dev Ideally, we can add the view modifier, but Compound's `getUnderlyingBalance` function (called by `getRawFundBalance`) potentially modifies the state.\r\n     */\r\n    function getInterestAccrued() public returns (int256) {\r\n        return int256(getFundBalance()).sub(_netDeposits);\r\n    }\r\n\r\n    /**\r\n     * @dev The proportion of interest accrued that is taken as a service fee (scaled by 1e18).\r\n     */\r\n    uint256 private _interestFeeRate;\r\n\r\n    /**\r\n     * @dev Returns the fee rate on interest.\r\n     */\r\n    function getInterestFeeRate() public view returns (uint256) {\r\n        return _interestFeeRate;\r\n    }\r\n\r\n    /**\r\n     * @dev Sets the fee rate on interest.\r\n     * @param rate The proportion of interest accrued to be taken as a service fee (scaled by 1e18).\r\n     */\r\n    function setInterestFeeRate(uint256 rate) external fundEnabled onlyOwner cacheRawFundBalance {\r\n        require(rate != _interestFeeRate, \"This is already the current interest fee rate.\");\r\n        _depositFees();\r\n        _interestFeesGeneratedAtLastFeeRateChange = getInterestFeesGenerated(); // MUST update this first before updating _rawInterestAccruedAtLastFeeRateChange since it depends on it \r\n        _rawInterestAccruedAtLastFeeRateChange = getRawInterestAccrued();\r\n        _interestFeeRate = rate;\r\n    }\r\n\r\n    /**\r\n     * @dev The amount of interest accrued at the time of the most recent change to the fee rate.\r\n     */\r\n    int256 private _rawInterestAccruedAtLastFeeRateChange;\r\n\r\n    /**\r\n     * @dev The amount of fees generated on interest at the time of the most recent change to the fee rate.\r\n     */\r\n    int256 private _interestFeesGeneratedAtLastFeeRateChange;\r\n\r\n    /**\r\n     * @notice Returns the amount of interest fees accrued by beneficiaries in USD (scaled by 1e18).\r\n     * @dev Ideally, we can add the view modifier, but Compound's `getUnderlyingBalance` function (called by `getRawFundBalance`) potentially modifies the state.\r\n     */\r\n    function getInterestFeesGenerated() public returns (int256) {\r\n        int256 rawInterestAccruedSinceLastFeeRateChange = getRawInterestAccrued().sub(_rawInterestAccruedAtLastFeeRateChange);\r\n        int256 interestFeesGeneratedSinceLastFeeRateChange = rawInterestAccruedSinceLastFeeRateChange.mul(int256(_interestFeeRate)).div(1e18);\r\n        int256 interestFeesGenerated = _interestFeesGeneratedAtLastFeeRateChange.add(interestFeesGeneratedSinceLastFeeRateChange);\r\n        return interestFeesGenerated;\r\n    }\r\n\r\n    /**\r\n     * @dev The total claimed amount of interest fees.\r\n     */\r\n    uint256 private _interestFeesClaimed;\r\n\r\n    /**\r\n     * @dev Returns the total unclaimed amount of interest fees.\r\n     * Ideally, we can add the view modifier, but Compound's `getUnderlyingBalance` function (called by `getRawFundBalance`) potentially modifies the state.\r\n     */\r\n    function getInterestFeesUnclaimed() public returns (uint256) {\r\n        int256 interestFeesUnclaimed = getInterestFeesGenerated().sub(int256(_interestFeesClaimed));\r\n        return interestFeesUnclaimed > 0 ? uint256(interestFeesUnclaimed) : 0;\r\n    }\r\n\r\n    /**\r\n     * @dev The master beneficiary of fees on interest; i.e., the recipient of all fees on interest.\r\n     */\r\n    address private _interestFeeMasterBeneficiary;\r\n\r\n    /**\r\n     * @dev Sets the master beneficiary of interest fees.\r\n     * @param beneficiary The master beneficiary of fees on interest; i.e., the recipient of all fees on interest.\r\n     */\r\n    function setInterestFeeMasterBeneficiary(address beneficiary) external fundEnabled onlyOwner {\r\n        require(beneficiary != address(0), \"Master beneficiary cannot be the zero address.\");\r\n        _interestFeeMasterBeneficiary = beneficiary;\r\n    }\r\n\r\n    /**\r\n     * @dev Emitted when fees on interest are deposited back into the fund.\r\n     */\r\n    event InterestFeeDeposit(address beneficiary, uint256 amountUsd);\r\n\r\n    /**\r\n     * @dev Emitted when fees on interest are withdrawn.\r\n     */\r\n    event InterestFeeWithdrawal(address beneficiary, uint256 amountUsd, string currencyCode, uint256 amount);\r\n\r\n    /**\r\n     * @dev Internal function to deposit all accrued fees on interest back into the fund on behalf of the master beneficiary.\r\n     * @return Integer indicating success (0), no fees to claim (1), or no RFT to mint (2).\r\n     */\r\n    function _depositFees() internal fundEnabled cacheRawFundBalance returns (uint8) {\r\n        require(_interestFeeMasterBeneficiary != address(0), \"Master beneficiary cannot be the zero address.\");\r\n\r\n        uint256 amountUsd = getInterestFeesUnclaimed();\r\n        if (amountUsd <= 0) return 1;\r\n\r\n        uint256 rftTotalSupply = _rariFundToken.totalSupply();\r\n        uint256 rftAmount = 0;\r\n\r\n        if (rftTotalSupply > 0) {\r\n            uint256 fundBalanceUsd = getFundBalance();\r\n            if (fundBalanceUsd > 0) rftAmount = amountUsd.mul(rftTotalSupply).div(fundBalanceUsd);\r\n            else rftAmount = amountUsd;\r\n        } else rftAmount = amountUsd;\r\n\r\n        if (rftAmount <= 0) return 2;\r\n        _interestFeesClaimed = _interestFeesClaimed.add(amountUsd);\r\n        _netDeposits = _netDeposits.add(int256(amountUsd));\r\n        _netDepositsByAccount[_interestFeeMasterBeneficiary] = _netDepositsByAccount[_interestFeeMasterBeneficiary].add(int256(amountUsd));\r\n        require(_rariFundToken.mint(_interestFeeMasterBeneficiary, rftAmount), \"Failed to mint output tokens.\");\r\n        emit Deposit(\"USD\", _interestFeeMasterBeneficiary, _interestFeeMasterBeneficiary, amountUsd, amountUsd, rftAmount);\r\n\r\n        emit InterestFeeDeposit(_interestFeeMasterBeneficiary, amountUsd);\r\n        return 0;\r\n    }\r\n\r\n    /**\r\n     * @notice Deposits all accrued fees on interest back into the fund on behalf of the master beneficiary.\r\n     * @return Boolean indicating success.\r\n     */\r\n    function depositFees() external onlyRebalancer returns (bool) {\r\n        uint8 result = _depositFees();\r\n        require(result == 0, result == 2 ? \"Deposit amount is so small that no RFT would be minted.\" : \"No new fees are available to claim.\");\r\n    }\r\n\r\n    /**\r\n     * @notice Withdraws all accrued fees on interest to the master beneficiary.\r\n     * @param currencyCode The currency code of the interest fees to be claimed.\r\n     * @return Boolean indicating success.\r\n     */\r\n    function withdrawFees(string calldata currencyCode) external fundEnabled onlyRebalancer returns (bool) {\r\n        require(_interestFeeMasterBeneficiary != address(0), \"Master beneficiary cannot be the zero address.\");\r\n        address erc20Contract = _erc20Contracts[currencyCode];\r\n        require(erc20Contract != address(0), \"Invalid currency code.\");\r\n\r\n        uint256 amountUsd = getInterestFeesUnclaimed();\r\n        uint256 tokenDecimals = erc20Contract == 0xdAC17F958D2ee523a2206206994597C13D831ec7 ? 6 : ERC20Detailed(erc20Contract).decimals();\r\n        uint256 amount = 18 >= tokenDecimals ? amountUsd.div(10 ** (uint256(18).sub(tokenDecimals))) : amountUsd.mul(10 ** (tokenDecimals.sub(18))); // TODO: Factor in prices; for now we assume the value of all supported currencies = $1\r\n        require(amount > 0, \"No new fees are available to claim.\");\r\n\r\n        _interestFeesClaimed = _interestFeesClaimed.add(amountUsd);\r\n        IERC20(erc20Contract).safeTransferFrom(_rariFundControllerContract, _interestFeeMasterBeneficiary, amount);\r\n\r\n        emit InterestFeeWithdrawal(_interestFeeMasterBeneficiary, amountUsd, currencyCode, amount);\r\n        return true;\r\n    }\r\n}\r\n",
  "sourcePath": "/home/david/rari-contracts-v1.1.0/contracts/RariFundManager.sol",
  "compiler": {
    "name": "solc",
    "version": "0.5.17+commit.d19bba13.Emscripten.clang"
  },
  "schemaVersion": "3.2.2",
  "updatedAt": "2020-07-13T21:16:52.097Z",
  "networkType": "ethereum",
  "devdoc": {
    "details": "This contract is the primary contract powering RariFund. Anyone can deposit to the fund with deposit(string currencyCode, uint256 amount). Anyone can withdraw their funds (with interest) from the fund with withdraw(string currencyCode, uint256 amount).",
    "methods": {
      "authorizeFundManagerDataSource(address)": {
        "details": "Upgrades RariFundManager. Authorizes the source for fund manager data (i.e., the old fund manager).",
        "params": {
          "authorizedFundManagerDataSource": "Authorized source for data (i.e., the old fund manager)."
        }
      },
      "balanceOf(address)": {
        "details": "Ideally, we can add the view modifier, but Compound's `getUnderlyingBalance` function (called by `getRawFundBalance`) potentially modifies the state.",
        "params": {
          "account": "The account whose balance we are calculating."
        }
      },
      "constructor": {
        "details": "Constructor that sets supported ERC20 token contract addresses and supported pools for each supported token."
      },
      "deposit(string,uint256)": {
        "params": {
          "amount": "The amount of tokens to be deposited.",
          "currencyCode": "The currency code of the token to be deposited."
        },
        "return": "Boolean indicating success."
      },
      "depositFees()": {
        "return": "Boolean indicating success."
      },
      "depositTo(address,string,uint256)": {
        "details": "Deposits funds from `msg.sender` (RariFundProxy) to RariFund in exchange for RFT minted to `to`. You may only deposit currencies accepted by the fund (see `isCurrencyAccepted(string currencyCode)`). Please note that you must approve RariFundManager to transfer at least `amount`.",
        "params": {
          "amount": "The amount of tokens to be deposited.",
          "currencyCode": "The currency code of the token to be deposited.",
          "to": "The address that will receieve the minted RFT."
        },
        "return": "Boolean indicating success."
      },
      "disableFund()": {
        "details": "Disables primary functionality of this RariFundManager so contract(s) can be upgraded."
      },
      "enableFund()": {
        "details": "Enables primary functionality of this RariFundManager once contract(s) are upgraded."
      },
      "forwardToFundController()": {
        "details": "Forwards tokens in the fund manager to the fund controller (for upgrading from v1.0.0 and for accidental transfers to the fund manager)."
      },
      "getFundBalance()": {
        "details": "Ideally, we can add the view modifier, but Compound's `getUnderlyingBalance` function (called by `getRawFundBalance`) potentially modifies the state."
      },
      "getInterestAccrued()": {
        "details": "Ideally, we can add the view modifier, but Compound's `getUnderlyingBalance` function (called by `getRawFundBalance`) potentially modifies the state."
      },
      "getInterestFeeRate()": {
        "details": "Returns the fee rate on interest."
      },
      "getInterestFeesGenerated()": {
        "details": "Ideally, we can add the view modifier, but Compound's `getUnderlyingBalance` function (called by `getRawFundBalance`) potentially modifies the state."
      },
      "getInterestFeesUnclaimed()": {
        "details": "Returns the total unclaimed amount of interest fees. Ideally, we can add the view modifier, but Compound's `getUnderlyingBalance` function (called by `getRawFundBalance`) potentially modifies the state."
      },
      "getRawFundBalance()": {
        "details": "Ideally, we can add the view modifier, but Compound's `getUnderlyingBalance` function (called by `getRawFundBalance`) potentially modifies the state."
      },
      "getRawFundBalance(string)": {
        "details": "Ideally, we can add the view modifier, but Compound's `getUnderlyingBalance` function (called by `RariFundController.getPoolBalance`) potentially modifies the state.",
        "params": {
          "currencyCode": "The currency code of the balance to be calculated."
        }
      },
      "getRawInterestAccrued()": {
        "details": "Ideally, we can add the view modifier, but Compound's `getUnderlyingBalance` function (called by `getRawFundBalance`) potentially modifies the state."
      },
      "initNetDeposits(address[],int256[])": {
        "details": "Initializes `_netDepositsByAccount` after a fund manager upgrade.",
        "params": {
          "accounts": "An array of accounts.",
          "netDeposits": "An array of net deposits for each of `accounts`."
        }
      },
      "interestAccruedBy(address)": {
        "details": "Ideally, we can add the view modifier, but Compound's `getUnderlyingBalance` function (called by `getRawFundBalance`) potentially modifies the state.",
        "params": {
          "account": "The account whose interest we are calculating."
        }
      },
      "isCurrencyAccepted(string)": {
        "params": {
          "currencyCode": "The currency code to check."
        }
      },
      "isOwner()": {
        "details": "Returns true if the caller is the current owner."
      },
      "onFundTokenTransfer(address,address,uint256,uint256)": {
        "details": "Recieves data about an RFT transfer or burn from RariFundToken so we can record it in `_netDepositsByAccount`.",
        "params": {
          "newRftTotalSupply": "The total supply of RFT after the transfer or burn.",
          "recipient": "The recipient of the RFT (the zero address if burning).",
          "rftAmount": "The amount of RFT transferred or burnt.",
          "sender": "The sender of the RFT."
        }
      },
      "owner()": {
        "details": "Returns the address of the current owner."
      },
      "renounceOwnership()": {
        "details": "Leaves the contract without owner. It will not be possible to call `onlyOwner` functions anymore. Can only be called by the current owner.     * NOTE: Renouncing ownership will leave the contract without an owner, thereby removing any functionality that is only available to the owner."
      },
      "setAcceptedCurrency(string,bool)": {
        "details": "Marks `currencyCode` as accepted or not accepted.",
        "params": {
          "accepted": "A boolean indicating if the `currencyCode` is to be accepted.",
          "currencyCode": "The currency code to mark as accepted or not accepted."
        }
      },
      "setDefaultAccountBalanceLimit(uint256)": {
        "details": "Sets or upgrades the default account balance limit in USD.",
        "params": {
          "limitUsd": "The default fund balance limit per Ethereum address in USD."
        }
      },
      "setFundController(address)": {
        "details": "Sets or upgrades RariFundController by forwarding tokens from the old to the new.",
        "params": {
          "newContract": "The address of the new RariFundController contract."
        }
      },
      "setFundManagerData((int256,int256,int256,uint256))": {
        "details": "Upgrades RariFundManager. Sets data receieved from the old contract.",
        "params": {
          "data": "The data from the old contract necessary to initialize the new contract."
        }
      },
      "setFundProxy(address)": {
        "details": "Sets or upgrades the RariFundProxy of the RariFundManager.",
        "params": {
          "newContract": "The address of the new RariFundProxy contract."
        }
      },
      "setFundRebalancer(address)": {
        "details": "Sets or upgrades the rebalancer of the RariFundManager.",
        "params": {
          "newAddress": "The Ethereum address of the new rebalancer server."
        }
      },
      "setFundToken(address)": {
        "details": "Sets or upgrades the RariFundToken of the RariFundManager.",
        "params": {
          "newContract": "The address of the new RariFundToken contract."
        }
      },
      "setIndividualAccountBalanceLimit(address,int256)": {
        "details": "Sets the balance limit in USD of `account`.",
        "params": {
          "account": "The Ethereum address to add or remove.",
          "limitUsd": "The fund balance limit of `account` in USD. Use 0 to unset individual limit (and restore account to global limit). Use -1 to disable deposits from `account`."
        }
      },
      "setInterestFeeMasterBeneficiary(address)": {
        "details": "Sets the master beneficiary of interest fees.",
        "params": {
          "beneficiary": "The master beneficiary of fees on interest; i.e., the recipient of all fees on interest."
        }
      },
      "setInterestFeeRate(uint256)": {
        "details": "Sets the fee rate on interest.",
        "params": {
          "rate": "The proportion of interest accrued to be taken as a service fee (scaled by 1e18)."
        }
      },
      "transferOwnership(address)": {
        "details": "Transfers ownership of the contract to a new account (`newOwner`). Can only be called by the current owner."
      },
      "upgradeFundManager(address)": {
        "details": "Upgrades RariFundManager. Sends data to the new contract, sets the new RariFundToken minter, and forwards tokens from the old to the new.",
        "params": {
          "newContract": "The address of the new RariFundManager contract."
        }
      },
      "withdraw(string,uint256)": {
        "params": {
          "amount": "The amount of tokens to be withdrawn.",
          "currencyCode": "The currency code of the token to be withdrawn."
        },
        "return": "Boolean indicating success."
      },
      "withdrawFees(string)": {
        "params": {
          "currencyCode": "The currency code of the interest fees to be claimed."
        },
        "return": "Boolean indicating success."
      },
      "withdrawFrom(address,string,uint256)": {
        "details": "Withdraws funds from RariFund to `msg.sender` (RariFundProxy) in exchange for RFT burned from `from`. You may only withdraw currencies held by the fund (see `getRawFundBalance(string currencyCode)`). Please note that you must approve RariFundManager to burn of the necessary amount of RFT.",
        "params": {
          "amount": "The amount of tokens to be withdrawn.",
          "currencyCode": "The currency code of the token to be withdrawn.",
          "from": "The address from which RFT will be burned."
        },
        "return": "Boolean indicating success."
      }
    },
    "title": "RariFundManager"
  },
  "userdoc": {
    "methods": {
      "balanceOf(address)": {
        "notice": "Returns an account's total balance in USD (scaled by 1e18)."
      },
      "deposit(string,uint256)": {
        "notice": "Deposits funds to RariFund in exchange for RFT. You may only deposit currencies accepted by the fund (see `isCurrencyAccepted(string currencyCode)`). Please note that you must approve RariFundManager to transfer at least `amount`."
      },
      "depositFees()": {
        "notice": "Deposits all accrued fees on interest back into the fund on behalf of the master beneficiary."
      },
      "getFundBalance()": {
        "notice": "Returns the fund's total investor balance (all RFT holders' funds but not unclaimed fees) of all currencies in USD (scaled by 1e18)."
      },
      "getInterestAccrued()": {
        "notice": "Returns the total amount of interest accrued by past and current RFT holders (excluding the fees paid on interest) in USD (scaled by 1e18)."
      },
      "getInterestFeesGenerated()": {
        "notice": "Returns the amount of interest fees accrued by beneficiaries in USD (scaled by 1e18)."
      },
      "getRawFundBalance()": {
        "notice": "Returns the fund's raw total balance (all RFT holders' funds + all unclaimed fees) of all currencies in USD (scaled by 1e18)."
      },
      "getRawFundBalance(string)": {
        "notice": "Returns the fund's raw total balance (all RFT holders' funds + all unclaimed fees) of the specified currency."
      },
      "getRawInterestAccrued()": {
        "notice": "Returns the raw total amount of interest accrued by the fund as a whole (including the fees paid on interest) in USD (scaled by 1e18)."
      },
      "interestAccruedBy(address)": {
        "notice": "Returns the total amount of interest accrued by `account` (excluding the fees paid on interest) in USD (scaled by 1e18)."
      },
      "isCurrencyAccepted(string)": {
        "notice": "Returns a boolean indicating if deposits in `currencyCode` are currently accepted."
      },
      "withdraw(string,uint256)": {
        "notice": "Withdraws funds from RariFund in exchange for RFT. You may only withdraw currencies held by the fund (see `getRawFundBalance(string currencyCode)`). Please note that you must approve RariFundManager to burn of the necessary amount of RFT."
      },
      "withdrawFees(string)": {
        "notice": "Withdraws all accrued fees on interest to the master beneficiary."
      }
    }
  }
}