{
  "contractName": "RariFundManager",
  "abi": [
    {
      "inputs": [],
      "payable": false,
      "stateMutability": "nonpayable",
      "type": "constructor"
    },
    {
      "anonymous": false,
      "inputs": [
        {
          "indexed": true,
          "internalType": "string",
          "name": "currencyCode",
          "type": "string"
        },
        {
          "indexed": true,
          "internalType": "address",
          "name": "sender",
          "type": "address"
        },
        {
          "indexed": true,
          "internalType": "address",
          "name": "payee",
          "type": "address"
        },
        {
          "indexed": false,
          "internalType": "uint256",
          "name": "amount",
          "type": "uint256"
        },
        {
          "indexed": false,
          "internalType": "uint256",
          "name": "amountUsd",
          "type": "uint256"
        },
        {
          "indexed": false,
          "internalType": "uint256",
          "name": "rftMinted",
          "type": "uint256"
        }
      ],
      "name": "Deposit",
      "type": "event"
    },
    {
      "anonymous": false,
      "inputs": [],
      "name": "FundDisabled",
      "type": "event"
    },
    {
      "anonymous": false,
      "inputs": [],
      "name": "FundEnabled",
      "type": "event"
    },
    {
      "anonymous": false,
      "inputs": [
        {
          "indexed": false,
          "internalType": "address",
          "name": "newContract",
          "type": "address"
        }
      ],
      "name": "FundManagerUpgraded",
      "type": "event"
    },
    {
      "anonymous": false,
      "inputs": [
        {
          "indexed": false,
          "internalType": "address",
          "name": "newContract",
          "type": "address"
        }
      ],
      "name": "FundProxySet",
      "type": "event"
    },
    {
      "anonymous": false,
      "inputs": [
        {
          "indexed": false,
          "internalType": "address",
          "name": "newAddress",
          "type": "address"
        }
      ],
      "name": "FundRebalancerSet",
      "type": "event"
    },
    {
      "anonymous": false,
      "inputs": [
        {
          "indexed": false,
          "internalType": "address",
          "name": "newContract",
          "type": "address"
        }
      ],
      "name": "FundTokenSet",
      "type": "event"
    },
    {
      "anonymous": false,
      "inputs": [
        {
          "indexed": false,
          "internalType": "address",
          "name": "beneficiary",
          "type": "address"
        },
        {
          "indexed": false,
          "internalType": "uint256",
          "name": "amountUsd",
          "type": "uint256"
        }
      ],
      "name": "InterestFeeDeposit",
      "type": "event"
    },
    {
      "anonymous": false,
      "inputs": [
        {
          "indexed": false,
          "internalType": "address",
          "name": "beneficiary",
          "type": "address"
        },
        {
          "indexed": false,
          "internalType": "uint256",
          "name": "amountUsd",
          "type": "uint256"
        },
        {
          "indexed": false,
          "internalType": "string",
          "name": "currencyCode",
          "type": "string"
        },
        {
          "indexed": false,
          "internalType": "uint256",
          "name": "amount",
          "type": "uint256"
        }
      ],
      "name": "InterestFeeWithdrawal",
      "type": "event"
    },
    {
      "anonymous": false,
      "inputs": [
        {
          "indexed": true,
          "internalType": "address",
          "name": "previousOwner",
          "type": "address"
        },
        {
          "indexed": true,
          "internalType": "address",
          "name": "newOwner",
          "type": "address"
        }
      ],
      "name": "OwnershipTransferred",
      "type": "event"
    },
    {
      "anonymous": false,
      "inputs": [
        {
          "indexed": true,
          "internalType": "string",
          "name": "currencyCode",
          "type": "string"
        },
        {
          "indexed": true,
          "internalType": "address",
          "name": "sender",
          "type": "address"
        },
        {
          "indexed": true,
          "internalType": "address",
          "name": "payee",
          "type": "address"
        },
        {
          "indexed": false,
          "internalType": "uint256",
          "name": "amount",
          "type": "uint256"
        },
        {
          "indexed": false,
          "internalType": "uint256",
          "name": "amountUsd",
          "type": "uint256"
        },
        {
          "indexed": false,
          "internalType": "uint256",
          "name": "rftBurned",
          "type": "uint256"
        }
      ],
      "name": "Withdrawal",
      "type": "event"
    },
    {
      "payable": true,
      "stateMutability": "payable",
      "type": "fallback"
    },
    {
      "constant": true,
      "inputs": [],
      "name": "isOwner",
      "outputs": [
        {
          "internalType": "bool",
          "name": "",
          "type": "bool"
        }
      ],
      "payable": false,
      "stateMutability": "view",
      "type": "function"
    },
    {
      "constant": true,
      "inputs": [],
      "name": "owner",
      "outputs": [
        {
          "internalType": "address",
          "name": "",
          "type": "address"
        }
      ],
      "payable": false,
      "stateMutability": "view",
      "type": "function"
    },
    {
      "constant": false,
      "inputs": [],
      "name": "renounceOwnership",
      "outputs": [],
      "payable": false,
      "stateMutability": "nonpayable",
      "type": "function"
    },
    {
      "constant": false,
      "inputs": [
        {
          "internalType": "address",
          "name": "newOwner",
          "type": "address"
        }
      ],
      "name": "transferOwnership",
      "outputs": [],
      "payable": false,
      "stateMutability": "nonpayable",
      "type": "function"
    },
    {
      "constant": false,
      "inputs": [
        {
          "internalType": "string",
          "name": "currencyCode",
          "type": "string"
        }
      ],
      "name": "ownerWithdraw",
      "outputs": [
        {
          "internalType": "bool",
          "name": "",
          "type": "bool"
        }
      ],
      "payable": false,
      "stateMutability": "nonpayable",
      "type": "function"
    },
    {
      "constant": false,
      "inputs": [
        {
          "internalType": "address payable",
          "name": "newContract",
          "type": "address"
        }
      ],
      "name": "upgradeFundManager",
      "outputs": [],
      "payable": false,
      "stateMutability": "nonpayable",
      "type": "function"
    },
    {
      "constant": false,
      "inputs": [
        {
          "internalType": "address",
          "name": "authorizedFundManagerDataSource",
          "type": "address"
        }
      ],
      "name": "authorizeFundManagerDataSource",
      "outputs": [],
      "payable": false,
      "stateMutability": "nonpayable",
      "type": "function"
    },
    {
      "constant": false,
      "inputs": [
        {
          "components": [
            {
              "internalType": "int256",
              "name": "netDeposits",
              "type": "int256"
            },
            {
              "internalType": "int256",
              "name": "rawInterestAccruedAtLastFeeRateChange",
              "type": "int256"
            },
            {
              "internalType": "int256",
              "name": "interestFeesGeneratedAtLastFeeRateChange",
              "type": "int256"
            },
            {
              "internalType": "uint256",
              "name": "interestFeesClaimed",
              "type": "uint256"
            }
          ],
          "internalType": "struct RariFundManager.FundManagerData",
          "name": "data",
          "type": "tuple"
        }
      ],
      "name": "setFundManagerData",
      "outputs": [],
      "payable": false,
      "stateMutability": "nonpayable",
      "type": "function"
    },
    {
      "constant": false,
      "inputs": [
        {
          "internalType": "address",
          "name": "newContract",
          "type": "address"
        }
      ],
      "name": "setFundToken",
      "outputs": [],
      "payable": false,
      "stateMutability": "nonpayable",
      "type": "function"
    },
    {
      "constant": false,
      "inputs": [
        {
          "internalType": "address",
          "name": "sender",
          "type": "address"
        },
        {
          "internalType": "address",
          "name": "recipient",
          "type": "address"
        },
        {
          "internalType": "uint256",
          "name": "rftAmount",
          "type": "uint256"
        },
        {
          "internalType": "uint256",
          "name": "newRftTotalSupply",
          "type": "uint256"
        }
      ],
      "name": "onFundTokenTransfer",
      "outputs": [],
      "payable": false,
      "stateMutability": "nonpayable",
      "type": "function"
    },
    {
      "constant": false,
      "inputs": [
        {
          "internalType": "address",
          "name": "account",
          "type": "address"
        }
      ],
      "name": "interestAccruedBy",
      "outputs": [
        {
          "internalType": "int256",
          "name": "",
          "type": "int256"
        }
      ],
      "payable": false,
      "stateMutability": "nonpayable",
      "type": "function"
    },
    {
      "constant": false,
      "inputs": [
        {
          "internalType": "address",
          "name": "newContract",
          "type": "address"
        }
      ],
      "name": "setFundProxy",
      "outputs": [],
      "payable": false,
      "stateMutability": "nonpayable",
      "type": "function"
    },
    {
      "constant": false,
      "inputs": [
        {
          "internalType": "address",
          "name": "newAddress",
          "type": "address"
        }
      ],
      "name": "setFundRebalancer",
      "outputs": [],
      "payable": false,
      "stateMutability": "nonpayable",
      "type": "function"
    },
    {
      "constant": false,
      "inputs": [],
      "name": "disableFund",
      "outputs": [],
      "payable": false,
      "stateMutability": "nonpayable",
      "type": "function"
    },
    {
      "constant": false,
      "inputs": [],
      "name": "enableFund",
      "outputs": [],
      "payable": false,
      "stateMutability": "nonpayable",
      "type": "function"
    },
    {
      "constant": false,
      "inputs": [
        {
          "internalType": "string",
          "name": "currencyCode",
          "type": "string"
        }
      ],
      "name": "getRawPoolBalances",
      "outputs": [
        {
          "internalType": "uint8[]",
          "name": "",
          "type": "uint8[]"
        },
        {
          "internalType": "uint256[]",
          "name": "",
          "type": "uint256[]"
        }
      ],
      "payable": false,
      "stateMutability": "nonpayable",
      "type": "function"
    },
    {
      "constant": false,
      "inputs": [
        {
          "internalType": "string",
          "name": "currencyCode",
          "type": "string"
        }
      ],
      "name": "getRawFundBalance",
      "outputs": [
        {
          "internalType": "uint256",
          "name": "",
          "type": "uint256"
        }
      ],
      "payable": false,
      "stateMutability": "nonpayable",
      "type": "function"
    },
    {
      "constant": false,
      "inputs": [],
      "name": "getRawFundBalance",
      "outputs": [
        {
          "internalType": "uint256",
          "name": "",
          "type": "uint256"
        }
      ],
      "payable": false,
      "stateMutability": "nonpayable",
      "type": "function"
    },
    {
      "constant": false,
      "inputs": [],
      "name": "getFundBalance",
      "outputs": [
        {
          "internalType": "uint256",
          "name": "",
          "type": "uint256"
        }
      ],
      "payable": false,
      "stateMutability": "nonpayable",
      "type": "function"
    },
    {
      "constant": false,
      "inputs": [
        {
          "internalType": "address",
          "name": "account",
          "type": "address"
        }
      ],
      "name": "balanceOf",
      "outputs": [
        {
          "internalType": "uint256",
          "name": "",
          "type": "uint256"
        }
      ],
      "payable": false,
      "stateMutability": "nonpayable",
      "type": "function"
    },
    {
      "constant": false,
      "inputs": [
        {
          "internalType": "uint256",
          "name": "limitUsd",
          "type": "uint256"
        }
      ],
      "name": "setDefaultAccountBalanceLimit",
      "outputs": [],
      "payable": false,
      "stateMutability": "nonpayable",
      "type": "function"
    },
    {
      "constant": false,
      "inputs": [
        {
          "internalType": "address",
          "name": "account",
          "type": "address"
        },
        {
          "internalType": "int256",
          "name": "limitUsd",
          "type": "int256"
        }
      ],
      "name": "setIndividualAccountBalanceLimit",
      "outputs": [],
      "payable": false,
      "stateMutability": "nonpayable",
      "type": "function"
    },
    {
      "constant": true,
      "inputs": [
        {
          "internalType": "string",
          "name": "currencyCode",
          "type": "string"
        }
      ],
      "name": "isCurrencyAccepted",
      "outputs": [
        {
          "internalType": "bool",
          "name": "",
          "type": "bool"
        }
      ],
      "payable": false,
      "stateMutability": "view",
      "type": "function"
    },
    {
      "constant": false,
      "inputs": [
        {
          "internalType": "string",
          "name": "currencyCode",
          "type": "string"
        },
        {
          "internalType": "bool",
          "name": "accepted",
          "type": "bool"
        }
      ],
      "name": "setAcceptedCurrency",
      "outputs": [],
      "payable": false,
      "stateMutability": "nonpayable",
      "type": "function"
    },
    {
      "constant": false,
      "inputs": [
        {
          "internalType": "string",
          "name": "currencyCode",
          "type": "string"
        },
        {
          "internalType": "uint256",
          "name": "amount",
          "type": "uint256"
        }
      ],
      "name": "deposit",
      "outputs": [
        {
          "internalType": "bool",
          "name": "",
          "type": "bool"
        }
      ],
      "payable": false,
      "stateMutability": "nonpayable",
      "type": "function"
    },
    {
      "constant": false,
      "inputs": [
        {
          "internalType": "address",
          "name": "to",
          "type": "address"
        },
        {
          "internalType": "string",
          "name": "currencyCode",
          "type": "string"
        },
        {
          "internalType": "uint256",
          "name": "amount",
          "type": "uint256"
        }
      ],
      "name": "depositTo",
      "outputs": [
        {
          "internalType": "bool",
          "name": "",
          "type": "bool"
        }
      ],
      "payable": false,
      "stateMutability": "nonpayable",
      "type": "function"
    },
    {
      "constant": false,
      "inputs": [
        {
          "internalType": "string",
          "name": "currencyCode",
          "type": "string"
        },
        {
          "internalType": "uint256",
          "name": "amount",
          "type": "uint256"
        }
      ],
      "name": "withdraw",
      "outputs": [
        {
          "internalType": "bool",
          "name": "",
          "type": "bool"
        }
      ],
      "payable": false,
      "stateMutability": "nonpayable",
      "type": "function"
    },
    {
      "constant": false,
      "inputs": [
        {
          "internalType": "address",
          "name": "from",
          "type": "address"
        },
        {
          "internalType": "string",
          "name": "currencyCode",
          "type": "string"
        },
        {
          "internalType": "uint256",
          "name": "amount",
          "type": "uint256"
        }
      ],
      "name": "withdrawFrom",
      "outputs": [
        {
          "internalType": "bool",
          "name": "",
          "type": "bool"
        }
      ],
      "payable": false,
      "stateMutability": "nonpayable",
      "type": "function"
    },
    {
      "constant": false,
      "inputs": [
        {
          "internalType": "uint8",
          "name": "pool",
          "type": "uint8"
        },
        {
          "internalType": "string",
          "name": "currencyCode",
          "type": "string"
        },
        {
          "internalType": "uint256",
          "name": "amount",
          "type": "uint256"
        }
      ],
      "name": "approveToPool",
      "outputs": [
        {
          "internalType": "bool",
          "name": "",
          "type": "bool"
        }
      ],
      "payable": false,
      "stateMutability": "nonpayable",
      "type": "function"
    },
    {
      "constant": false,
      "inputs": [
        {
          "internalType": "uint8",
          "name": "pool",
          "type": "uint8"
        },
        {
          "internalType": "string",
          "name": "currencyCode",
          "type": "string"
        },
        {
          "internalType": "uint256",
          "name": "amount",
          "type": "uint256"
        }
      ],
      "name": "depositToPool",
      "outputs": [
        {
          "internalType": "bool",
          "name": "",
          "type": "bool"
        }
      ],
      "payable": false,
      "stateMutability": "nonpayable",
      "type": "function"
    },
    {
      "constant": false,
      "inputs": [
        {
          "internalType": "uint8",
          "name": "pool",
          "type": "uint8"
        },
        {
          "internalType": "string",
          "name": "currencyCode",
          "type": "string"
        },
        {
          "internalType": "uint256",
          "name": "amount",
          "type": "uint256"
        }
      ],
      "name": "withdrawFromPool",
      "outputs": [
        {
          "internalType": "bool",
          "name": "",
          "type": "bool"
        }
      ],
      "payable": false,
      "stateMutability": "nonpayable",
      "type": "function"
    },
    {
      "constant": false,
      "inputs": [
        {
          "internalType": "uint8",
          "name": "pool",
          "type": "uint8"
        },
        {
          "internalType": "string",
          "name": "currencyCode",
          "type": "string"
        }
      ],
      "name": "withdrawAllFromPool",
      "outputs": [
        {
          "internalType": "bool",
          "name": "",
          "type": "bool"
        }
      ],
      "payable": false,
      "stateMutability": "nonpayable",
      "type": "function"
    },
    {
      "constant": false,
      "inputs": [
        {
          "internalType": "string",
          "name": "currencyCode",
          "type": "string"
        },
        {
          "internalType": "uint256",
          "name": "amount",
          "type": "uint256"
        }
      ],
      "name": "approveTo0x",
      "outputs": [
        {
          "internalType": "bool",
          "name": "",
          "type": "bool"
        }
      ],
      "payable": false,
      "stateMutability": "nonpayable",
      "type": "function"
    },
    {
      "constant": false,
      "inputs": [
        {
          "components": [
            {
              "internalType": "address",
              "name": "makerAddress",
              "type": "address"
            },
            {
              "internalType": "address",
              "name": "takerAddress",
              "type": "address"
            },
            {
              "internalType": "address",
              "name": "feeRecipientAddress",
              "type": "address"
            },
            {
              "internalType": "address",
              "name": "senderAddress",
              "type": "address"
            },
            {
              "internalType": "uint256",
              "name": "makerAssetAmount",
              "type": "uint256"
            },
            {
              "internalType": "uint256",
              "name": "takerAssetAmount",
              "type": "uint256"
            },
            {
              "internalType": "uint256",
              "name": "makerFee",
              "type": "uint256"
            },
            {
              "internalType": "uint256",
              "name": "takerFee",
              "type": "uint256"
            },
            {
              "internalType": "uint256",
              "name": "expirationTimeSeconds",
              "type": "uint256"
            },
            {
              "internalType": "uint256",
              "name": "salt",
              "type": "uint256"
            },
            {
              "internalType": "bytes",
              "name": "makerAssetData",
              "type": "bytes"
            },
            {
              "internalType": "bytes",
              "name": "takerAssetData",
              "type": "bytes"
            },
            {
              "internalType": "bytes",
              "name": "makerFeeAssetData",
              "type": "bytes"
            },
            {
              "internalType": "bytes",
              "name": "takerFeeAssetData",
              "type": "bytes"
            }
          ],
          "internalType": "struct LibOrder.Order[]",
          "name": "orders",
          "type": "tuple[]"
        },
        {
          "internalType": "bytes[]",
          "name": "signatures",
          "type": "bytes[]"
        },
        {
          "internalType": "uint256",
          "name": "takerAssetFillAmount",
          "type": "uint256"
        }
      ],
      "name": "marketSell0xOrdersFillOrKill",
      "outputs": [
        {
          "internalType": "bool",
          "name": "",
          "type": "bool"
        }
      ],
      "payable": true,
      "stateMutability": "payable",
      "type": "function"
    },
    {
      "constant": false,
      "inputs": [],
      "name": "getRawInterestAccrued",
      "outputs": [
        {
          "internalType": "int256",
          "name": "",
          "type": "int256"
        }
      ],
      "payable": false,
      "stateMutability": "nonpayable",
      "type": "function"
    },
    {
      "constant": false,
      "inputs": [],
      "name": "getInterestAccrued",
      "outputs": [
        {
          "internalType": "int256",
          "name": "",
          "type": "int256"
        }
      ],
      "payable": false,
      "stateMutability": "nonpayable",
      "type": "function"
    },
    {
      "constant": true,
      "inputs": [],
      "name": "getInterestFeeRate",
      "outputs": [
        {
          "internalType": "uint256",
          "name": "",
          "type": "uint256"
        }
      ],
      "payable": false,
      "stateMutability": "view",
      "type": "function"
    },
    {
      "constant": false,
      "inputs": [
        {
          "internalType": "uint256",
          "name": "rate",
          "type": "uint256"
        }
      ],
      "name": "setInterestFeeRate",
      "outputs": [],
      "payable": false,
      "stateMutability": "nonpayable",
      "type": "function"
    },
    {
      "constant": false,
      "inputs": [],
      "name": "getInterestFeesGenerated",
      "outputs": [
        {
          "internalType": "int256",
          "name": "",
          "type": "int256"
        }
      ],
      "payable": false,
      "stateMutability": "nonpayable",
      "type": "function"
    },
    {
      "constant": false,
      "inputs": [],
      "name": "getInterestFeesUnclaimed",
      "outputs": [
        {
          "internalType": "uint256",
          "name": "",
          "type": "uint256"
        }
      ],
      "payable": false,
      "stateMutability": "nonpayable",
      "type": "function"
    },
    {
      "constant": false,
      "inputs": [
        {
          "internalType": "address",
          "name": "beneficiary",
          "type": "address"
        }
      ],
      "name": "setInterestFeeMasterBeneficiary",
      "outputs": [],
      "payable": false,
      "stateMutability": "nonpayable",
      "type": "function"
    },
    {
      "constant": false,
      "inputs": [],
      "name": "depositFees",
      "outputs": [
        {
          "internalType": "bool",
          "name": "",
          "type": "bool"
        }
      ],
      "payable": false,
      "stateMutability": "nonpayable",
      "type": "function"
    },
    {
      "constant": false,
      "inputs": [
        {
          "internalType": "string",
          "name": "currencyCode",
          "type": "string"
        }
      ],
      "name": "withdrawFees",
      "outputs": [
        {
          "internalType": "bool",
          "name": "",
          "type": "bool"
        }
      ],
      "payable": false,
      "stateMutability": "nonpayable",
      "type": "function"
    }
  ],
  "bytecode": "0x60806040523480156200001157600080fd5b506000620000276001600160e01b036200027916565b600080546001600160a01b0319166001600160a01b0383169081178255604051929350917f8be0079c531659141344cd1fd0a4f28419497f9722a3daafe3b4186f6b6457e0908290a35060408051808201909152600381526244414960e81b6020820152620000b490736b175474e89094c44da98b954eedeac495271d0f6001600160e01b036200027e16565b60408051808201909152600381526244414960e81b6020820152620000e49060006001600160e01b036200030c16565b60408051808201909152600381526244414960e81b6020820152620001149060016001600160e01b036200030c16565b6040805180820190915260048152635553444360e01b6020820152620001589073a0b86991c6218b36c1d19d4a2e9eb0ce3606eb486001600160e01b036200027e16565b6040805180820190915260048152635553444360e01b6020820152620001899060006001600160e01b036200030c16565b6040805180820190915260048152635553444360e01b6020820152620001ba9060016001600160e01b036200030c16565b6040805180820190915260048152631554d11560e21b6020820152620001fe9073dac17f958d2ee523a2206206994597c13d831ec76001600160e01b036200027e16565b6040805180820190915260048152631554d11560e21b60208201526200022f9060016001600160e01b036200030c16565b6040805180820190915260048152630434f4d560e41b6020820152620002739073c00e94cb662c3520282e6f5717214004a7f268886001600160e01b036200036a16565b620004a5565b335b90565b60048054600181018083556000929092528351620002c4917f8a35acfbc15ff81a39ae7d344fd709f28e8600b4aa8c65c6b64bfe7fe36bd19b019060208601906200037d565b505080600583604051620002d9919062000454565b90815260405190819003602001902080546001600160a01b03929092166001600160a01b03199092169190911790555050565b6006826040516200031e919062000454565b9081526040516020918190038201902080546001810182556000918252908290209181049091018054601f9092166101000a60ff81810219909316939092169190910291909117905550565b80600783604051620002d9919062000454565b828054600181600116156101000203166002900490600052602060002090601f016020900481019282601f10620003c057805160ff1916838001178555620003f0565b82800160010185558215620003f0579182015b82811115620003f0578251825591602001919060010190620003d3565b50620003fe92915062000402565b5090565b6200027b91905b80821115620003fe576000815560010162000409565b60006200042c8262000469565b6200043881856200046d565b93506200044a81856020860162000472565b9290920192915050565b60006200046282846200041f565b9392505050565b5190565b919050565b60005b838110156200048f57818101518382015260200162000475565b838111156200049f576000848401525b50505050565b615f9180620004b56000396000f3fe60806040526004361061025b5760003560e01c80637d379a4811610144578063c23e5e81116100b6578063d80621dc1161007a578063d80621dc146106c0578063dae9e379146106e0578063e0d53e31146106f5578063f2fde38b14610715578063f3b4338614610735578063f54910191461074a5761025b565b8063c23e5e8114610641578063c6d67b1414610661578063cca7bb2614610676578063d42ec3fe1461068b578063d6164d66146106ab5761025b565b80638f60a173116101085780638f60a173146105815780639d7a42ba146105a15780639de88d72146105c15780639e548c98146105e1578063a906558114610601578063a955f4e0146106215761025b565b80637d379a48146104ea578063870b5b381461050a5780638da5cb5b1461052a5780638e27d7191461054c5780638f32d59b1461056c5761025b565b8063491ce4d0116101dd57806365df2918116101a157806365df291814610458578063676b7e851461046d57806370a0823114610482578063715018a6146104a2578063786d4bb3146104b75780637bdee09c146104d75761025b565b8063491ce4d0146103b8578063516e9917146103d857806357582d38146103f85780635bb2860a146104185780635cb097ac146104385761025b565b806326741e7d1161022457806326741e7d146103155780632d7b236c1461032a5780632f2018671461035857806330b39a6214610378578063368f2d3f146103985761025b565b80627fedfe1461025d57806301b521d61461029357806303776d47146102b55780630e040739146102d55780631d7e79d6146102f5575b005b34801561026957600080fd5b5061027d61027836600461472b565b61075f565b60405161028a9190615a84565b60405180910390f35b34801561029f57600080fd5b506102a86109ed565b60405161028a9190615a92565b3480156102c157600080fd5b5061025b6102d036600461455f565b610a0f565b3480156102e157600080fd5b5061027d6102f0366004614901565b610aa5565b34801561030157600080fd5b5061027d610310366004614800565b610bfb565b34801561032157600080fd5b5061027d610c28565b34801561033657600080fd5b5061034a61034536600461472b565b610cca565b60405161028a929190615a5f565b34801561036457600080fd5b5061025b61037336600461457d565b610f29565b34801561038457600080fd5b5061027d6103933660046147b6565b611093565b3480156103a457600080fd5b506102a86103b336600461455f565b6110fe565b3480156103c457600080fd5b5061025b6103d336600461455f565b611191565b3480156103e457600080fd5b5061025b6103f336600461455f565b61120b565b34801561040457600080fd5b5061027d6104133660046148ac565b61177a565b34801561042457600080fd5b5061027d610433366004614901565b6118cb565b34801561044457600080fd5b5061025b610453366004614834565b611a13565b34801561046457600080fd5b5061025b611a71565b34801561047957600080fd5b506102a8611af4565b34801561048e57600080fd5b506102a861049d36600461455f565b611cff565b3480156104ae57600080fd5b5061025b611e6c565b3480156104c357600080fd5b5061025b6104d23660046145de565b611eda565b61027d6104e5366004614675565b611f1a565b3480156104f657600080fd5b5061025b610505366004614852565b611ffb565b34801561051657600080fd5b5061025b61052536600461455f565b61208f565b34801561053657600080fd5b5061053f6120fe565b60405161028a9190615982565b34801561055857600080fd5b5061027d6105673660046147b6565b61210d565b34801561057857600080fd5b5061027d61216d565b34801561058d57600080fd5b506102a861059c366004614800565b612191565b3480156105ad57600080fd5b5061025b6105bc366004614852565b61237d565b3480156105cd57600080fd5b5061027d6105dc366004614618565b6123a6565b3480156105ed57600080fd5b5061025b6105fc36600461476c565b612431565b34801561060d57600080fd5b5061025b61061c36600461455f565b612493565b34801561062d57600080fd5b5061027d61063c3660046147b6565b612502565b34801561064d57600080fd5b5061027d61065c366004614618565b612648565b34801561066d57600080fd5b506102a86126d3565b34801561068257600080fd5b506102a86126f5565b34801561069757600080fd5b5061027d6106a6366004614901565b61271f565b3480156106b757600080fd5b506102a8612866565b3480156106cc57600080fd5b5061025b6106db36600461455f565b61286c565b3480156106ec57600080fd5b506102a86128b2565b34801561070157600080fd5b5061027d61071036600461472b565b6128d3565b34801561072157600080fd5b5061025b61073036600461455f565b612af0565b34801561074157600080fd5b5061025b612b20565b34801561075657600080fd5b506102a8612baa565b60008054600160a01b900460ff16156107935760405162461bcd60e51b815260040161078a90615c31565b60405180910390fd5b6003546001600160a01b031633146107bd5760405162461bcd60e51b815260040161078a90615ab1565b6012546001600160a01b03166107e55760405162461bcd60e51b815260040161078a90615c61565b6000600584846040516107f992919061595f565b908152604051908190036020019020546001600160a01b03169050806108315760405162461bcd60e51b815260040161078a90615bb1565b600061083b6126f5565b9050600073dac17f958d2ee523a2206206994597c13d831ec76001600160a01b038416146108d957826001600160a01b031663313ce5676040518163ffffffff1660e01b815260040160206040518083038186803b15801561089c57600080fd5b505afa1580156108b0573d6000803e3d6000fd5b505050506040513d601f19601f820116820180604052506108d4919081019061488e565b6108dc565b60065b60ff169050600081601210156109155761091061090083601263ffffffff612c0d16565b8490600a0a63ffffffff612c4f16565b610939565b61093961092960128463ffffffff612c0d16565b8490600a0a63ffffffff612c8916565b90506000811161095b5760405162461bcd60e51b815260040161078a90615bf1565b60115461096e908463ffffffff612ccb16565b601155601254610991906001600160a01b0386811691168363ffffffff612cf016565b6012546040517f94e472f4a450e2820c43c92c88c5b1b791c2295ce26457bfd583e356c1ef969a916109d6916001600160a01b039091169086908b908b9087906159e1565b60405180910390a160019450505050505b92915050565b6000610a09600d546109fd6128b2565b9063ffffffff612d4e16565b90505b90565b600054600160a01b900460ff1615610a395760405162461bcd60e51b815260040161078a90615c31565b610a4161216d565b610a5d5760405162461bcd60e51b815260040161078a90615c41565b6001600160a01b038116610a835760405162461bcd60e51b815260040161078a90615c91565b601280546001600160a01b0319166001600160a01b0392909216919091179055565b60008054600160a01b900460ff1615610ad05760405162461bcd60e51b815260040161078a90615c31565b6003546001600160a01b03163314610afa5760405162461bcd60e51b815260040161078a90615ab1565b600060058585604051610b0e92919061595f565b908152604051908190036020019020546001600160a01b0316905080610b465760405162461bcd60e51b815260040161078a90615bb1565b60405163e889537b60e01b815273__RariFundController____________________9063e889537b90610b8190899085908890600401615da5565b60206040518083038186803b158015610b9957600080fd5b505af4158015610bad573d6000803e3d6000fd5b505050506040513d601f19601f82011682018060405250610bd1919081019061470d565b610bed5760405162461bcd60e51b815260040161078a90615c11565b60019150505b949350505050565b6000600c82604051610c0d9190615953565b9081526040519081900360200190205460ff1690505b919050565b6003546000906001600160a01b03163314610c555760405162461bcd60e51b815260040161078a90615ab1565b6000610c5f612d94565b905060ff8116801590600214610c8d57604051806060016040528060238152602001615f2c60239139610ca7565b604051806060016040528060378152602001615ef5603791395b90610cc55760405162461bcd60e51b815260040161078a9190615aa0565b505090565b606080600060058585604051610ce192919061595f565b908152604051908190036020019020546001600160a01b0316905080610d195760405162461bcd60e51b815260040161078a90615bb1565b606060068686604051610d2d92919061595f565b908152602001604051809103902080549050604051908082528060200260200182016040528015610d68578160200160208202803883390190505b50905060005b60068787604051610d8092919061595f565b90815260405190819003602001902054811015610e895773__RariFundController____________________63db2138a060068989604051610dc392919061595f565b90815260200160405180910390208381548110610ddc57fe5b90600052602060002090602091828204019190069054906101000a900460ff16856040518363ffffffff1660e01b8152600401610e1a929190615d8a565b60206040518083038186803b158015610e3257600080fd5b505af4158015610e46573d6000803e3d6000fd5b505050506040513d601f19601f82011682018060405250610e6a9190810190614870565b828281518110610e7657fe5b6020908102919091010152600101610d6e565b5060068686604051610e9c92919061595f565b90815260200160405180910390208181805480602002602001604051908101604052809291908181526020018280548015610f1457602002820191906000526020600020906000905b825461010083900a900460ff16815260206001928301818104948501949093039092029101808411610ee55790505b505050505091509350935050505b9250929050565b600054600160a01b900460ff1615610f535760405162461bcd60e51b815260040161078a90615c31565b6001546001600160a01b03163314610f7d5760405162461bcd60e51b815260040161078a90615b81565b60008211610f8a5761108d565b60006001600160a01b03841615610fa15781610fb1565b610fb1828463ffffffff612ccb16565b90506000610fdd82610fd1610fc46128b2565b879063ffffffff612c4f16565b9063ffffffff612c8916565b6001600160a01b038716600090815260096020526040902054909150611009908263ffffffff612d4e16565b6001600160a01b03808816600090815260096020526040902091909155851661104757600d5461103f908263ffffffff612d4e16565b600d5561108a565b6001600160a01b038516600090815260096020526040902054611070908263ffffffff6130cb16565b6001600160a01b0386166000908152600960205260409020555b50505b50505050565b60006110d73385858080601f016020809104026020016040519081016040528093929190818152602001838380828437600092019190915250879250613111915050565b6110f35760405162461bcd60e51b815260040161078a90615b61565b5060015b9392505050565b6001600160a01b0381166000908152600960205260408082205490516370a0823160e01b81526109e7919030906370a082319061113f908790600401615982565b602060405180830381600087803b15801561115957600080fd5b505af115801561116d573d6000803e3d6000fd5b505050506040513d601f19601f820116820180604052506109fd9190810190614870565b61119961216d565b6111b55760405162461bcd60e51b815260040161078a90615c41565b600180546001600160a01b0319166001600160a01b0383161790556040517fcb757ed74a6206afe4cd637317744abe1dafdf32fcbacdd94a785d91e7c1304390611200908390615982565b60405180910390a150565b61121361216d565b61122f5760405162461bcd60e51b815260040161078a90615c41565b611237614177565b5060408051608081018252600d548152600f546020820152601054818301526011546060820152905163172c25eb60e21b81526001600160a01b03831690635cb097ac90611289908490600401615d61565b600060405180830381600087803b1580156112a357600080fd5b505af11580156112b7573d6000803e3d6000fd5b50506001546001600160a01b0316159150611387905057600154604051634c1d96ab60e11b81526001600160a01b0390911690819063983b2d5690611300908690600401615990565b600060405180830381600087803b15801561131a57600080fd5b505af115801561132e573d6000803e3d6000fd5b50505050806001600160a01b031663986502756040518163ffffffff1660e01b8152600401600060405180830381600087803b15801561136d57600080fd5b505af1158015611381573d6000803e3d6000fd5b50505050505b60005b60045481101561173e576060600482815481106113a357fe5b600091825260209182902001805460408051601f60026000196101006001871615020190941693909304928301859004850281018501909152818152928301828280156114315780601f1061140657610100808354040283529160200191611431565b820191906000526020600020905b81548152906001019060200180831161141457829003601f168201915b50939450600093505050505b60068260405161144d9190615953565b9081526040519081900360200190205481101561167057600073__RariFundController____________________63db2138a06006856040516114909190615953565b908152602001604051809103902084815481106114a957fe5b90600052602060002090602091828204019190069054906101000a900460ff166005866040516114d99190615953565b908152604051908190036020018120546001600160e01b031960e085901b16825261151392916001600160a01b0390911690600401615d8a565b60206040518083038186803b15801561152b57600080fd5b505af415801561153f573d6000803e3d6000fd5b505050506040513d601f19601f820116820180604052506115639190810190614870565b11156116685773__RariFundController____________________637268315d6006846040516115939190615953565b908152602001604051809103902083815481106115ac57fe5b90600052602060002090602091828204019190069054906101000a900460ff166005856040516115dc9190615953565b908152604051908190036020018120546001600160e01b031960e085901b16825261161692916001600160a01b0390911690600401615d8a565b60206040518083038186803b15801561162e57600080fd5b505af4158015611642573d6000803e3d6000fd5b505050506040513d601f19601f82011682018060405250611666919081019061470d565b505b60010161143d565b5060006005826040516116839190615953565b908152604051908190036020018120546370a0823160e01b82526001600160a01b0316915060009082906370a08231906116c1903090600401615990565b60206040518083038186803b1580156116d957600080fd5b505afa1580156116ed573d6000803e3d6000fd5b505050506040513d601f19601f820116820180604052506117119190810190614870565b90508015611733576117336001600160a01b038316878363ffffffff612cf016565b50505060010161138a565b507f2afa12c0897533a1c5215a86cc5a031360c72d4eaf123563b68681533191f72a8260405161176e9190615990565b60405180910390a15050565b60008054600160a01b900460ff16156117a55760405162461bcd60e51b815260040161078a90615c31565b6003546001600160a01b031633146117cf5760405162461bcd60e51b815260040161078a90615ab1565b6000600584846040516117e392919061595f565b908152604051908190036020019020546001600160a01b031690508061181b5760405162461bcd60e51b815260040161078a90615bb1565b604051637268315d60e01b815273__RariFundController____________________90637268315d906118549088908590600401615d8a565b60206040518083038186803b15801561186c57600080fd5b505af4158015611880573d6000803e3d6000fd5b505050506040513d601f19601f820116820180604052506118a4919081019061470d565b6118c05760405162461bcd60e51b815260040161078a90615c11565b506001949350505050565b60008054600160a01b900460ff16156118f65760405162461bcd60e51b815260040161078a90615c31565b6003546001600160a01b031633146119205760405162461bcd60e51b815260040161078a90615ab1565b60006005858560405161193492919061595f565b908152604051908190036020019020546001600160a01b031690508061196c5760405162461bcd60e51b815260040161078a90615bb1565b6040516328a4f58b60e21b815273__RariFundController____________________9063a293d62c906119a790899085908890600401615da5565b60206040518083038186803b1580156119bf57600080fd5b505af41580156119d3573d6000803e3d6000fd5b505050506040513d601f19601f820116820180604052506119f7919081019061470d565b610bed5760405162461bcd60e51b815260040161078a90615ac1565b6008546001600160a01b031615801590611a3757506008546001600160a01b031633145b611a535760405162461bcd60e51b815260040161078a90615cf1565b8035600d556020810135600f55604081013560105560600135601155565b611a7961216d565b611a955760405162461bcd60e51b815260040161078a90615c41565b600054600160a01b900460ff16611abe5760405162461bcd60e51b815260040161078a90615af1565b6000805460ff60a01b191681556040517f8e1c35fbf7cd686deedf8310574cf4ad038a00a86d3317c831afaeec58f1eeae9190a1565b600080805b600454811015611cf957606060048281548110611b1257fe5b600091825260209182902001805460408051601f6002600019610100600187161502019094169390930492830185900485028101850190915281815292830182828015611ba05780601f10611b7557610100808354040283529160200191611ba0565b820191906000526020600020905b815481529060010190602001808311611b8357829003601f168201915b505050505090506000611bb282612191565b90506000600583604051611bc69190615953565b908152604051908190036020019020546001600160a01b03169050600073dac17f958d2ee523a2206206994597c13d831ec78214611c7457816001600160a01b031663313ce5676040518163ffffffff1660e01b815260040160206040518083038186803b158015611c3757600080fd5b505afa158015611c4b573d6000803e3d6000fd5b505050506040513d601f19601f82011682018060405250611c6f919081019061488e565b611c77565b60065b60ff16905060008160121015611cb057611cab611c9b83601263ffffffff612c0d16565b8590600a0a63ffffffff612c8916565b611cd4565b611cd4611cc460128463ffffffff612c0d16565b8590600a0a63ffffffff612c4f16565b9050611ce6878263ffffffff612ccb16565b96505060019094019350611af992505050565b50905090565b6001546000906001600160a01b0316611d2a5760405162461bcd60e51b815260040161078a90615b71565b600154604080516318160ddd60e01b815290516001600160a01b039092169160009183916318160ddd91600480820192602092909190829003018186803b158015611d7457600080fd5b505afa158015611d88573d6000803e3d6000fd5b505050506040513d601f19601f82011682018060405250611dac9190810190614870565b905080611dbe57600092505050610c23565b6040516370a0823160e01b81526000906001600160a01b038416906370a0823190611ded908890600401615982565b60206040518083038186803b158015611e0557600080fd5b505afa158015611e19573d6000803e3d6000fd5b505050506040513d601f19601f82011682018060405250611e3d9190810190614870565b90506000611e496128b2565b90506000611e6184610fd1858563ffffffff612c4f16565b979650505050505050565b611e7461216d565b611e905760405162461bcd60e51b815260040161078a90615c41565b600080546040516001600160a01b03909116907f8be0079c531659141344cd1fd0a4f28419497f9722a3daafe3b4186f6b6457e0908390a3600080546001600160a01b0319169055565b611ee261216d565b611efe5760405162461bcd60e51b815260040161078a90615c41565b6001600160a01b039091166000908152600b6020526040902055565b60008054600160a01b900460ff1615611f455760405162461bcd60e51b815260040161078a90615c31565b6003546001600160a01b03163314611f6f5760405162461bcd60e51b815260040161078a90615ab1565b60405163f0c6bcc360e01b815273__RariFundController____________________9063f0c6bcc390611fac908790879087903490600401615a1e565b604080518083038186803b158015611fc357600080fd5b505af4158015611fd7573d6000803e3d6000fd5b505050506040513d601f19601f820116820180604052506118c091908101906146ef565b600054600160a01b900460ff16156120255760405162461bcd60e51b815260040161078a90615c31565b61202d61216d565b6120495760405162461bcd60e51b815260040161078a90615c41565b600e5481141561206b5760405162461bcd60e51b815260040161078a90615b31565b612073612d94565b5061207c612baa565b6010556120876126d3565b600f55600e55565b61209761216d565b6120b35760405162461bcd60e51b815260040161078a90615c41565b600280546001600160a01b0319166001600160a01b0383161790556040517f908128485de48e02c38d92b81cd0a3a9cbe8eab3976faa1d3758c7bb6a25e94890611200908390615982565b6000546001600160a01b031690565b60006121513385858080601f016020809104026020016040519081016040528093929190818152602001838380828437600092019190915250879250613705915050565b6110f35760405162461bcd60e51b815260040161078a90615d21565b600080546001600160a01b0316612182613b74565b6001600160a01b031614905090565b6000806005836040516121a49190615953565b908152604051908190036020019020546001600160a01b03169050806121dc5760405162461bcd60e51b815260040161078a90615bb1565b6040516370a0823160e01b815281906000906001600160a01b038316906370a082319061220d903090600401615990565b60206040518083038186803b15801561222557600080fd5b505afa158015612239573d6000803e3d6000fd5b505050506040513d601f19601f8201168201806040525061225d9190810190614870565b905060005b6006866040516122729190615953565b908152604051908190036020019020548110156123745761236a73__RariFundController____________________63db2138a06006896040516122b69190615953565b908152602001604051809103902084815481106122cf57fe5b90600052602060002090602091828204019190069054906101000a900460ff16876040518363ffffffff1660e01b815260040161230d929190615d8a565b60206040518083038186803b15801561232557600080fd5b505af4158015612339573d6000803e3d6000fd5b505050506040513d601f19601f8201168201806040525061235d9190810190614870565b839063ffffffff612ccb16565b9150600101612262565b50949350505050565b61238561216d565b6123a15760405162461bcd60e51b815260040161078a90615c41565b600a55565b6002546000906001600160a01b031633146123d35760405162461bcd60e51b815260040161078a90615cb1565b6124158585858080601f016020809104026020016040519081016040528093929190818152602001838380828437600092019190915250879250613705915050565b6118c05760405162461bcd60e51b815260040161078a90615d21565b6003546001600160a01b0316331461245b5760405162461bcd60e51b815260040161078a90615ab1565b80600c848460405161246e92919061595f565b908152604051908190036020019020805491151560ff19909216919091179055505050565b61249b61216d565b6124b75760405162461bcd60e51b815260040161078a90615c41565b600380546001600160a01b0319166001600160a01b0383161790556040517feb9b68c1cca2a0c5d180f75c6324fad517a04867907b0f3bee85d98fdf57ee9490611200908390615982565b60008054600160a01b900460ff161561252d5760405162461bcd60e51b815260040161078a90615c31565b6003546001600160a01b031633146125575760405162461bcd60e51b815260040161078a90615ab1565b60006005858560405161256b92919061595f565b908152604051908190036020019020546001600160a01b03169050806125a35760405162461bcd60e51b815260040161078a90615bb1565b604051638fe6b38d60e01b815273__RariFundController____________________90638fe6b38d906125dc90849087906004016159c6565b60206040518083038186803b1580156125f457600080fd5b505af4158015612608573d6000803e3d6000fd5b505050506040513d601f19601f8201168201806040525061262c919081019061470d565b6118c05760405162461bcd60e51b815260040161078a90615b21565b6002546000906001600160a01b031633146126755760405162461bcd60e51b815260040161078a90615cb1565b6126b78585858080601f016020809104026020016040519081016040528093929190818152602001838380828437600092019190915250879250613111915050565b6118c05760405162461bcd60e51b815260040161078a90615b61565b6000610a096011546126e9600d546109fd611af4565b9063ffffffff6130cb16565b6000806127066011546109fd612baa565b905060008113612717576000612719565b805b91505090565b60008054600160a01b900460ff161561274a5760405162461bcd60e51b815260040161078a90615c31565b6003546001600160a01b031633146127745760405162461bcd60e51b815260040161078a90615ab1565b60006005858560405161278892919061595f565b908152604051908190036020019020546001600160a01b03169050806127c05760405162461bcd60e51b815260040161078a90615bb1565b6040516293063560e81b815273__RariFundController____________________906393063500906127fa90899085908890600401615da5565b60206040518083038186803b15801561281257600080fd5b505af4158015612826573d6000803e3d6000fd5b505050506040513d601f19601f8201168201806040525061284a919081019061470d565b610bed5760405162461bcd60e51b815260040161078a90615c01565b600e5490565b61287461216d565b6128905760405162461bcd60e51b815260040161078a90615c41565b600880546001600160a01b0319166001600160a01b0392909216919091179055565b6000610a096128bf6126f5565b6128c7611af4565b9063ffffffff612c0d16565b6000336128de6120fe565b6001600160a01b031614806128fd57506003546001600160a01b031633145b6129195760405162461bcd60e51b815260040161078a90615ba1565b6040516020016129289061596c565b60405160208183030381529060405280519060200120838360405160200161295192919061595f565b6040516020818303038152906040528051906020012014156129d257478061298b5760405162461bcd60e51b815260040161078a90615cd1565b6129936120fe565b6001600160a01b03166108fc829081150290604051600060405180830381858888f193505050501580156129cb573d6000803e3d6000fd5b5050612ae7565b6000600784846040516129e692919061595f565b908152604051908190036020019020546001600160a01b0316905080612a1e5760405162461bcd60e51b815260040161078a90615bb1565b6040516370a0823160e01b815281906000906001600160a01b038316906370a0823190612a4f903090600401615990565b60206040518083038186803b158015612a6757600080fd5b505afa158015612a7b573d6000803e3d6000fd5b505050506040513d601f19601f82011682018060405250612a9f9190810190614870565b905060008111612ac15760405162461bcd60e51b815260040161078a90615cd1565b612ae3612acc6120fe565b6001600160a01b038416908363ffffffff612cf016565b5050505b50600192915050565b612af861216d565b612b145760405162461bcd60e51b815260040161078a90615c41565b612b1d81613b78565b50565b612b2861216d565b612b445760405162461bcd60e51b815260040161078a90615c41565b600054600160a01b900460ff1615612b6e5760405162461bcd60e51b815260040161078a90615c71565b6000805460ff60a01b1916600160a01b1781556040517f0a6b9c6c74d93f230c4346c52ac415dd7dda5a0efb4f7394c0bfb5baa87d32659190a1565b600080612bbb600f546109fd6126d3565b90506000612bec670de0b6b3a7640000612be0600e5485613bf990919063ffffffff16565b9063ffffffff613c6416565b90506000612c05826010546130cb90919063ffffffff16565b935050505090565b60006110f783836040518060400160405280601e81526020017f536166654d6174683a207375627472616374696f6e206f766572666c6f770000815250613cc8565b600082612c5e575060006109e7565b82820282848281612c6b57fe5b04146110f75760405162461bcd60e51b815260040161078a90615c21565b60006110f783836040518060400160405280601a81526020017f536166654d6174683a206469766973696f6e206279207a65726f000000000000815250613cf4565b6000828201838110156110f75760405162461bcd60e51b815260040161078a90615ae1565b604051612d4990849063a9059cbb60e01b90612d1290869086906024016159c6565b60408051601f198184030181529190526020810180516001600160e01b03166001600160e01b031990931692909217909152613d2b565b505050565b6000818303818312801590612d635750838113155b80612d785750600083128015612d7857508381135b6110f75760405162461bcd60e51b815260040161078a90615d01565b60008054600160a01b900460ff1615612dbf5760405162461bcd60e51b815260040161078a90615c31565b6012546001600160a01b0316612de75760405162461bcd60e51b815260040161078a90615c61565b6001546001600160a01b0316612e0f5760405162461bcd60e51b815260040161078a90615b71565b6000612e196126f5565b905060008111612e2d576001915050610a0c565b600154604080516318160ddd60e01b815290516001600160a01b039092169160009183916318160ddd91600480820192602092909190829003018186803b158015612e7757600080fd5b505afa158015612e8b573d6000803e3d6000fd5b505050506040513d601f19601f82011682018060405250612eaf9190810190614870565b905060008115612ef0576000612ec36128b2565b90508015612ee657612edf81610fd1878663ffffffff612c4f16565b9150612eea565b8491505b50612ef3565b50825b60008111612f08576002945050505050610a0c565b601154612f1b908563ffffffff612ccb16565b601155600d54612f31908563ffffffff6130cb16565b600d556012546001600160a01b0316600090815260096020526040902054612f5f908563ffffffff6130cb16565b601280546001600160a01b039081166000908152600960205260409081902093909355905491516340c10f1960e01b8152858216926340c10f1992612fab9291169085906004016159c6565b602060405180830381600087803b158015612fc557600080fd5b505af1158015612fd9573d6000803e3d6000fd5b505050506040513d601f19601f82011682018060405250612ffd919081019061470d565b6130195760405162461bcd60e51b815260040161078a90615be1565b6012546040516001600160a01b0390911690819061303690615977565b60405180910390207fb78af891b0e8c2e617c2a91471c40accb2559e2aa533b41746a9d2e580b4bc3387888660405161307193929190615d6f565b60405180910390a46012546040517f93375fea511bbf0428eb2f5476dfac0a1fa56fb5ea6dbffb2291b320d4160cbb916130b8916001600160a01b039091169087906159c6565b60405180910390a1600094505050505090565b60008282018183128015906130e05750838112155b806130f557506000831280156130f557508381125b6110f75760405162461bcd60e51b815260040161078a90615b41565b60008054600160a01b900460ff161561313c5760405162461bcd60e51b815260040161078a90615c31565b6001546001600160a01b03166131645760405162461bcd60e51b815260040161078a90615b71565b60006005846040516131769190615953565b908152604051908190036020019020546001600160a01b03169050806131ae5760405162461bcd60e51b815260040161078a90615bb1565b600083116131ce5760405162461bcd60e51b815260040161078a90615ce1565b6040516370a0823160e01b815281906000906001600160a01b038316906370a08231906131ff903090600401615990565b60206040518083038186803b15801561321757600080fd5b505afa15801561322b573d6000803e3d6000fd5b505050506040513d601f19601f8201168201806040525061324f9190810190614870565b905060005b6006876040516132649190615953565b908152604051908190036020019020548110156134935785821061328757613493565b600073__RariFundController____________________63db2138a060068a6040516132b39190615953565b908152602001604051809103902084815481106132cc57fe5b90600052602060002090602091828204019190069054906101000a900460ff16876040518363ffffffff1660e01b815260040161330a929190615d8a565b60206040518083038186803b15801561332257600080fd5b505af4158015613336573d6000803e3d6000fd5b505050506040513d601f19601f8201168201806040525061335a9190810190614870565b9050600061336e888563ffffffff612c0d16565b9050600082821061337f5782613381565b815b905073__RariFundController____________________63e889537b60068c6040516133ad9190615953565b908152602001604051809103902086815481106133c657fe5b90600052602060002090602091828204019190069054906101000a900460ff1689846040518463ffffffff1660e01b815260040161340693929190615da5565b60206040518083038186803b15801561341e57600080fd5b505af4158015613432573d6000803e3d6000fd5b505050506040513d601f19601f82011682018060405250613456919081019061470d565b6134725760405162461bcd60e51b815260040161078a90615c11565b613482858263ffffffff612ccb16565b945050600190920191506132549050565b50808511156134b45760405162461bcd60e51b815260040161078a90615b91565b600073dac17f958d2ee523a2206206994597c13d831ec76001600160a01b0385161461355057836001600160a01b031663313ce5676040518163ffffffff1660e01b815260040160206040518083038186803b15801561351357600080fd5b505afa158015613527573d6000803e3d6000fd5b505050506040513d601f19601f8201168201806040525061354b919081019061488e565b613553565b60065b60ff1690506000816012101561358c5761358761357783601263ffffffff612c0d16565b8890600a0a63ffffffff612c8916565b6135b0565b6135b06135a060128463ffffffff612c0d16565b8890600a0a63ffffffff612c4f16565b6001549091506001600160a01b031660006135cc828c85613e10565b60405163079cc67960e41b81529091506001600160a01b038316906379cc6790906135fd908e9085906004016159c6565b600060405180830381600087803b15801561361757600080fd5b505af115801561362b573d6000803e3d6000fd5b50613644925050506001600160a01b038716338b612cf0565b600d54613657908463ffffffff612d4e16565b600d556001600160a01b038b16600090815260096020526040902054613683908463ffffffff612d4e16565b6001600160a01b038c16600081815260096020526040908190209290925590513391906136b1908d90615953565b60405180910390207fac30acbb7d293051e36270400e75ca11db5877b6450005ceedac80a44eea4f828c87866040516136ec93929190615d6f565b60405180910390a45060019a9950505050505050505050565b60008054600160a01b900460ff16156137305760405162461bcd60e51b815260040161078a90615c31565b6001546001600160a01b03166137585760405162461bcd60e51b815260040161078a90615b71565b600060058460405161376a9190615953565b908152604051908190036020019020546001600160a01b03169050806137a25760405162461bcd60e51b815260040161078a90615bb1565b6137ab84610bfb565b6137c75760405162461bcd60e51b815260040161078a90615cc1565b600083116137e75760405162461bcd60e51b815260040161078a90615b11565b600073dac17f958d2ee523a2206206994597c13d831ec76001600160a01b0383161461388357816001600160a01b031663313ce5676040518163ffffffff1660e01b815260040160206040518083038186803b15801561384657600080fd5b505afa15801561385a573d6000803e3d6000fd5b505050506040513d601f19601f8201168201806040525061387e919081019061488e565b613886565b60065b60ff169050600081601210156138bf576138ba6138aa83601263ffffffff612c0d16565b8690600a0a63ffffffff612c8916565b6138e3565b6138e36138d360128463ffffffff612c0d16565b8690600a0a63ffffffff612c4f16565b90506000600160009054906101000a90046001600160a01b031690506000816001600160a01b03166318160ddd6040518163ffffffff1660e01b815260040160206040518083038186803b15801561393a57600080fd5b505afa15801561394e573d6000803e3d6000fd5b505050506040513d601f19601f820116820180604052506139729190810190614870565b9050600080821161398457600061398c565b61398c6128b2565b90506000821580159061399f5750600082115b156139bf576139b882610fd1878663ffffffff612c4f16565b90506139c2565b50835b600081116139e25760405162461bcd60e51b815260040161078a90615b01565b6139ef8b86868686613f90565b613a0b5760405162461bcd60e51b815260040161078a90615d51565b600d54613a1e908663ffffffff6130cb16565b600d556001600160a01b038b16600090815260096020526040902054613a4a908663ffffffff6130cb16565b6001600160a01b03808d16600090815260096020526040902091909155613a7b90881633308c63ffffffff61411a16565b6040516340c10f1960e01b81526001600160a01b038516906340c10f1990613aa9908e9085906004016159c6565b602060405180830381600087803b158015613ac357600080fd5b505af1158015613ad7573d6000803e3d6000fd5b505050506040513d601f19601f82011682018060405250613afb919081019061470d565b613b175760405162461bcd60e51b815260040161078a90615be1565b8a6001600160a01b0316336001600160a01b03168b604051613b399190615953565b60405180910390207fb78af891b0e8c2e617c2a91471c40accb2559e2aa533b41746a9d2e580b4bc338c89866040516136ec93929190615d6f565b3390565b6001600160a01b038116613b9e5760405162461bcd60e51b815260040161078a90615ad1565b600080546040516001600160a01b03808516939216917f8be0079c531659141344cd1fd0a4f28419497f9722a3daafe3b4186f6b6457e091a3600080546001600160a01b0319166001600160a01b0392909216919091179055565b600082613c08575060006109e7565b82600019148015613c1c5750600160ff1b82145b15613c395760405162461bcd60e51b815260040161078a90615c51565b82820282848281613c4657fe5b05146110f75760405162461bcd60e51b815260040161078a90615c51565b600081613c835760405162461bcd60e51b815260040161078a90615d31565b81600019148015613c975750600160ff1b83145b15613cb45760405162461bcd60e51b815260040161078a90615bc1565b6000828481613cbf57fe5b05949350505050565b60008184841115613cec5760405162461bcd60e51b815260040161078a9190615aa0565b505050900390565b60008183613d155760405162461bcd60e51b815260040161078a9190615aa0565b506000838581613d2157fe5b0495945050505050565b613d3d826001600160a01b031661413e565b613d595760405162461bcd60e51b815260040161078a90615d41565b60006060836001600160a01b031683604051613d759190615953565b6000604051808303816000865af19150503d8060008114613db2576040519150601f19603f3d011682016040523d82523d6000602084013e613db7565b606091505b509150915081613dd95760405162461bcd60e51b815260040161078a90615b51565b80511561108d5780806020019051613df4919081019061470d565b61108d5760405162461bcd60e51b815260040161078a90615d11565b600080846001600160a01b03166318160ddd6040518163ffffffff1660e01b815260040160206040518083038186803b158015613e4c57600080fd5b505afa158015613e60573d6000803e3d6000fd5b505050506040513d601f19601f82011682018060405250613e849190810190614870565b90506000613e906128b2565b905060008111613eb25760405162461bcd60e51b815260040161078a90615ca1565b6000613ec882610fd1878663ffffffff612c4f16565b6040516370a0823160e01b81529091506001600160a01b038816906370a0823190613ef7908990600401615982565b60206040518083038186803b158015613f0f57600080fd5b505afa158015613f23573d6000803e3d6000fd5b505050506040513d601f19601f82011682018060405250613f479190810190614870565b811115613f665760405162461bcd60e51b815260040161078a90615c81565b60008111613f865760405162461bcd60e51b815260040161078a90615bd1565b9695505050505050565b6000613f9a6120fe565b6001600160a01b0316866001600160a01b031614158015613fc957506012546001600160a01b03878116911614155b1561410d576001600160a01b0386166000908152600b60205260408120541215613ff557506000614111565b600080841180156140065750600083115b6140115760006140a1565b6140a184610fd185886001600160a01b03166370a082318c6040518263ffffffff1660e01b81526004016140459190615982565b60206040518083038186803b15801561405d57600080fd5b505afa158015614071573d6000803e3d6000fd5b505050506040513d601f19601f820116820180604052506140959190810190614870565b9063ffffffff612c4f16565b6001600160a01b0388166000908152600b60205260408120549192509081126140cc57600a546140e6565b6001600160a01b0388166000908152600b60205260409020545b9050806140f9838963ffffffff612ccb16565b111561410a57600092505050614111565b50505b5060015b95945050505050565b60405161108d9085906323b872dd60e01b90612d129087908790879060240161599e565b6000813f7fc5d2460186f7233c927e7db2dcc703c0e500b653ca82273b7bfad8045d85a470818114801590610bf3575050151592915050565b6040518060800160405280600081526020016000815260200160008152602001600081525090565b80356109e781615ec5565b600082601f8301126141bb57600080fd5b81356141ce6141c982615dd9565b615db3565b81815260209384019390925082018360005b8381101561420c57813586016141f688826142ea565b84525060209283019291909101906001016141e0565b5050505092915050565b600082601f83011261422757600080fd5b81356142356141c982615dd9565b81815260209384019390925082018360005b8381101561420c578135860161425d888261439d565b8452506020928301929190910190600101614247565b600082601f83011261428457600080fd5b60026142926141c982615df9565b915081838560208402820111156142a857600080fd5b60005b8381101561420c57816142be888261453e565b84525060209283019291909101906001016142ab565b80356109e781615ed9565b80516109e781615ed9565b600082601f8301126142fb57600080fd5b81356143096141c982615e16565b9150808252602083016020830185838301111561432557600080fd5b614330838284615e83565b50505092915050565b80356109e781615ee2565b60008083601f84011261435657600080fd5b5081356001600160401b0381111561436d57600080fd5b602083019150836001820283011115610f2257600080fd5b60006080828403121561439757600080fd5b50919050565b60006101c082840312156143b057600080fd5b6143bb6101c0615db3565b905060006143c9848461419f565b82525060206143da8484830161419f565b60208301525060406143ee8482850161419f565b60408301525060606144028482850161419f565b606083015250608061441684828501614339565b60808301525060a061442a84828501614339565b60a08301525060c061443e84828501614339565b60c08301525060e061445284828501614339565b60e08301525061010061446784828501614339565b6101008301525061012061447d84828501614339565b610120830152506101408201356001600160401b0381111561449e57600080fd5b6144aa848285016142ea565b610140830152506101608201356001600160401b038111156144cb57600080fd5b6144d7848285016142ea565b610160830152506101808201356001600160401b038111156144f857600080fd5b614504848285016142ea565b610180830152506101a08201356001600160401b0381111561452557600080fd5b614531848285016142ea565b6101a08301525092915050565b80516109e781615ee2565b80356109e781615eeb565b80516109e781615eeb565b60006020828403121561457157600080fd5b6000610bf3848461419f565b6000806000806080858703121561459357600080fd5b600061459f878761419f565b94505060206145b08782880161419f565b93505060406145c187828801614339565b92505060606145d287828801614339565b91505092959194509250565b600080604083850312156145f157600080fd5b60006145fd858561419f565b925050602061460e85828601614339565b9150509250929050565b6000806000806060858703121561462e57600080fd5b600061463a878761419f565b94505060208501356001600160401b0381111561465657600080fd5b61466287828801614344565b935093505060406145d287828801614339565b60008060006060848603121561468a57600080fd5b83356001600160401b038111156146a057600080fd5b6146ac86828701614216565b93505060208401356001600160401b038111156146c857600080fd5b6146d4868287016141aa565b92505060406146e586828701614339565b9150509250925092565b60006040828403121561470157600080fd5b6000610bf38484614273565b60006020828403121561471f57600080fd5b6000610bf384846142df565b6000806020838503121561473e57600080fd5b82356001600160401b0381111561475457600080fd5b61476085828601614344565b92509250509250929050565b60008060006040848603121561478157600080fd5b83356001600160401b0381111561479757600080fd5b6147a386828701614344565b935093505060206146e5868287016142d4565b6000806000604084860312156147cb57600080fd5b83356001600160401b038111156147e157600080fd5b6147ed86828701614344565b935093505060206146e586828701614339565b60006020828403121561481257600080fd5b81356001600160401b0381111561482857600080fd5b610bf3848285016142ea565b60006080828403121561484657600080fd5b6000610bf38484614385565b60006020828403121561486457600080fd5b6000610bf38484614339565b60006020828403121561488257600080fd5b6000610bf3848461453e565b6000602082840312156148a057600080fd5b6000610bf38484614554565b6000806000604084860312156148c157600080fd5b60006148cd8686614549565b93505060208401356001600160401b038111156148e957600080fd5b6148f586828701614344565b92509250509250925092565b6000806000806060858703121561491757600080fd5b600061463a8787614549565b60006110f78383614b21565b60006110f78383615818565b60006149478383614b59565b505060200190565b6000614947838361594a565b61496481615e72565b82525050565b61496481615e50565b600061497e82615e43565b6149888185615e47565b93508360208202850161499a85615e3d565b8060005b858110156149d457848403895281516149b78582614923565b94506149c283615e3d565b60209a909a019992505060010161499e565b5091979650505050505050565b60006149ec82615e43565b6149f68185615e47565b935083602082028501614a0885615e3d565b8060005b858110156149d45784840389528151614a25858261492f565b9450614a3083615e3d565b60209a909a0199925050600101614a0c565b6000614a4d82615e43565b614a578185615e47565b9350614a6283615e3d565b8060005b83811015614a90578151614a7a888261493b565b9750614a8583615e3d565b925050600101614a66565b509495945050505050565b6000614aa682615e43565b614ab08185615e47565b9350614abb83615e3d565b8060005b83811015614a90578151614ad3888261494f565b9750614ade83615e3d565b925050600101614abf565b61496481615e5b565b6000614afd82615e43565b614b078185610c23565b9350614b17818560208601615e8f565b9290920192915050565b6000614b2c82615e43565b614b368185615e47565b9350614b46818560208601615e8f565b614b4f81615ebb565b9093019392505050565b61496481610a0c565b6000614b6e8385615e47565b9350614b7b838584615e83565b614b4f83615ebb565b6000614b908385610c23565b9350614b9d838584615e83565b50500190565b6000614bb0601d83615e47565b7f43616c6c6572206973206e6f742074686520726562616c616e6365722e000000815260200192915050565b6000614be9601583615e47565b742837b7b61030b8383937bb30b6103330b4b632b21760591b815260200192915050565b6000614c1a602683615e47565b7f4f776e61626c653a206e6577206f776e657220697320746865207a65726f206181526564647265737360d01b602082015260400192915050565b6000614c62601b83615e47565b7f536166654d6174683a206164646974696f6e206f766572666c6f770000000000815260200192915050565b6000614c9b601583615e47565b74233ab7321030b63932b0b23c9032b730b13632b21760591b815260200192915050565b6000614ccc603783615e47565b7f4465706f73697420616d6f756e7420697320736f20736d616c6c20746861742081527f6e6f2052465420776f756c64206265206d696e7465642e000000000000000000602082015260400192915050565b6000614d2b602683615e47565b7f4465706f73697420616d6f756e74206d757374206265206772656174657220748152653430b710181760d11b602082015260400192915050565b6000614d73601383615e47565b72183c1030b8383937bb30b6103330b4b632b21760691b815260200192915050565b6000614da2602e83615e47565b7f5468697320697320616c7265616479207468652063757272656e7420696e746581526d3932b9ba103332b2903930ba329760911b602082015260400192915050565b6000614df2602183615e47565b7f5369676e6564536166654d6174683a206164646974696f6e206f766572666c6f8152607760f81b602082015260400192915050565b6000614e35602083615e47565b7f5361666545524332303a206c6f772d6c6576656c2063616c6c206661696c6564815260200192915050565b6000614e6e601283615e47565b712bb4ba34323930bbb0b6103330b4b632b21760711b815260200192915050565b6000614e9c603483615e47565b7f52465420636f6e7472616374206e6f74207365742e2054686973206d617920628152733290323ab2903a379030b7103ab833b930b2329760611b602082015260400192915050565b6000614ef2602083615e47565b7f43616c6c6572206973206e6f7420746865205261726946756e64546f6b656e2e815260200192915050565b6000614f2b604f83615e47565b7f417661696c61626c652062616c616e6365206e6f7420656e6f75676820746f2081527f636f76657220616d6f756e74206576656e20616674657220776974686472617760208201526e34b73390333937b6903837b7b6399760891b604082015260600192915050565b6000614fa2602a83615e47565b7f43616c6c6572206973206e6f7420746865206f776e6572206f7220746865207281526932b130b630b731b2b91760b11b602082015260400192915050565b6000614fee601683615e47565b7524b73b30b634b21031bab93932b731bc9031b7b2329760511b815260200192915050565b6000615020602183615e47565b7f5369676e6564536166654d6174683a206469766973696f6e206f766572666c6f8152607760f81b602082015260400192915050565b6000615063603a83615e47565b7f5769746864726177616c20616d6f756e7420697320736f20736d616c6c20746881527f6174206e6f2052465420776f756c64206265206275726e65642e000000000000602082015260400192915050565b60006150c2601d83615e47565b7f4661696c656420746f206d696e74206f757470757420746f6b656e732e000000815260200192915050565b60006150fb602383615e47565b7f4e6f206e657720666565732061726520617661696c61626c6520746f20636c6181526234b69760e91b602082015260400192915050565b6000615140601483615e47565b732837b7b6103232b837b9b4ba103330b4b632b21760611b815260200192915050565b6000615170601783615e47565b7f506f6f6c207769746864726177616c206661696c65642e000000000000000000815260200192915050565b60006151a9602183615e47565b7f536166654d6174683a206d756c7469706c69636174696f6e206f766572666c6f8152607760f81b602082015260400192915050565b60006151ec604683615e47565b7f546869732066756e64206d616e6167657220636f6e747261637420697320646981527f7361626c65642e2054686973206d61792062652064756520746f20616e20757060208201526533b930b2329760d11b604082015260600192915050565b600061525a602083615e47565b7f4f776e61626c653a2063616c6c6572206973206e6f7420746865206f776e6572815260200192915050565b6000615293602783615e47565b7f5369676e6564536166654d6174683a206d756c7469706c69636174696f6e206f815266766572666c6f7760c81b602082015260400192915050565b60006152dc600383610c23565b6208aa8960eb1b815260030192915050565b60006152fb602e83615e47565b7f4d61737465722062656e65666963696172792063616e6e6f742062652074686581526d103d32b9379030b2323932b9b99760911b602082015260400192915050565b600061534b601683615e47565b75233ab7321030b63932b0b23c903234b9b0b13632b21760511b815260200192915050565b600061537d600383610c23565b621554d160ea1b815260030192915050565b600061539c603c83615e47565b7f596f7572205246542062616c616e636520697320746f6f206c6f7720666f722081527f61207769746864726177616c206f66207468697320616d6f756e742e00000000602082015260400192915050565b60006153fb603b83615e47565b7f496e74657265737420666565206d61737465722062656e65666963696172792081527f63616e6e6f7420626520746865207a65726f20616464726573732e0000000000602082015260400192915050565b600061545a601583615e47565b74233ab732103130b630b731b29034b9903d32b9379760591b815260200192915050565b600061548b602083615e47565b7f43616c6c6572206973206e6f7420746865205261726946756e6450726f78792e815260200192915050565b60006154c4606d83615e47565b7f546869732063757272656e6379206973206e6f742063757272656e746c79206181527f636365707465643b20706c6561736520636f6e7665727420796f75722066756e60208201527f647320746f20616e2061636365707465642063757272656e6379206265666f7260408201526c32903232b837b9b4ba34b7339760991b606082015260800192915050565b600061555f602183615e47565b7f4e6f20617661696c61626c652062616c616e636520746f2077697468647261778152601760f91b602082015260400192915050565b60006155a2602983615e47565b7f5769746864726177616c20616d6f756e74206d7573742062652067726561746581526839103a3430b710181760b91b602082015260400192915050565b60006155ed602383615e47565b7f43616c6c6572206973206e6f7420616e20617574686f72697a656420736f757281526231b29760e91b602082015260400192915050565b6000615632602483615e47565b7f5369676e6564536166654d6174683a207375627472616374696f6e206f766572815263666c6f7760e01b602082015260400192915050565b6000615678602a83615e47565b7f5361666545524332303a204552433230206f7065726174696f6e20646964206e8152691bdd081cdd58d8d9595960b21b602082015260400192915050565b60006156c4600f83615e47565b6e2232b837b9b4ba103330b4b632b21760891b815260200192915050565b60006156ef602083615e47565b7f5369676e6564536166654d6174683a206469766973696f6e206279207a65726f815260200192915050565b6000615728601f83615e47565b7f5361666545524332303a2063616c6c20746f206e6f6e2d636f6e747261637400815260200192915050565b6000615761605283615e47565b7f4d616b696e672074686973206465706f73697420776f756c642063617573652081527f7468652062616c616e6365206f662074686973206163636f756e7420746f20656020820152713c31b2b2b2103a34329036b0bc34b6bab69760711b604082015260600192915050565b805160808301906157df8482614b59565b5060208201516157f26020850182614b59565b5060408201516158056040850182614b59565b50606082015161108d6060850182614b59565b80516000906101c084019061582d858261496a565b506020830151615840602086018261496a565b506040830151615853604086018261496a565b506060830151615866606086018261496a565b5060808301516158796080860182614b59565b5060a083015161588c60a0860182614b59565b5060c083015161589f60c0860182614b59565b5060e08301516158b260e0860182614b59565b506101008301516158c7610100860182614b59565b506101208301516158dc610120860182614b59565b506101408301518482036101408601526158f68282614b21565b9150506101608301518482036101608601526159128282614b21565b91505061018083015184820361018086015261592e8282614b21565b9150506101a08301518482036101a08601526141118282614b21565b61496481615e6c565b60006110f78284614af2565b6000610bf3828486614b84565b60006109e7826152cf565b60006109e782615370565b602081016109e7828461496a565b602081016109e7828461495b565b606081016159ac828661496a565b6159b9602083018561496a565b610bf36040830184614b59565b604081016159d4828561496a565b6110f76020830184614b59565b608081016159ef828861496a565b6159fc6020830187614b59565b8181036040830152615a0f818587614b62565b9050613f866060830184614b59565b60808082528101615a2f81876149e1565b90508181036020830152615a438186614973565b9050615a526040830185614b59565b6141116060830184614b59565b60408082528101615a708185614a9b565b90508181036020830152610bf38184614a42565b602081016109e78284614ae9565b602081016109e78284614b59565b602080825281016110f78184614b21565b602080825281016109e781614ba3565b602080825281016109e781614bdc565b602080825281016109e781614c0d565b602080825281016109e781614c55565b602080825281016109e781614c8e565b602080825281016109e781614cbf565b602080825281016109e781614d1e565b602080825281016109e781614d66565b602080825281016109e781614d95565b602080825281016109e781614de5565b602080825281016109e781614e28565b602080825281016109e781614e61565b602080825281016109e781614e8f565b602080825281016109e781614ee5565b602080825281016109e781614f1e565b602080825281016109e781614f95565b602080825281016109e781614fe1565b602080825281016109e781615013565b602080825281016109e781615056565b602080825281016109e7816150b5565b602080825281016109e7816150ee565b602080825281016109e781615133565b602080825281016109e781615163565b602080825281016109e78161519c565b602080825281016109e7816151df565b602080825281016109e78161524d565b602080825281016109e781615286565b602080825281016109e7816152ee565b602080825281016109e78161533e565b602080825281016109e78161538f565b602080825281016109e7816153ee565b602080825281016109e78161544d565b602080825281016109e78161547e565b602080825281016109e7816154b7565b602080825281016109e781615552565b602080825281016109e781615595565b602080825281016109e7816155e0565b602080825281016109e781615625565b602080825281016109e78161566b565b602080825281016109e7816156b7565b602080825281016109e7816156e2565b602080825281016109e78161571b565b602080825281016109e781615754565b608081016109e782846157ce565b60608101615d7d8286614b59565b6159b96020830185614b59565b60408101615d98828561594a565b6110f7602083018461496a565b606081016159ac828661594a565b6040518181016001600160401b0381118282101715615dd157600080fd5b604052919050565b60006001600160401b03821115615def57600080fd5b5060209081020190565b60006001600160401b03821115615e0f57600080fd5b5060200290565b60006001600160401b03821115615e2c57600080fd5b506020601f91909101601f19160190565b60200190565b5190565b90815260200190565b60006109e782615e60565b151590565b6001600160a01b031690565b60ff1690565b60006109e78260006109e782615e50565b82818337506000910152565b60005b83811015615eaa578181015183820152602001615e92565b8381111561108d5750506000910152565b601f01601f191690565b615ece81615e50565b8114612b1d57600080fd5b615ece81615e5b565b615ece81610a0c565b615ece81615e6c56fe4465706f73697420616d6f756e7420697320736f20736d616c6c2074686174206e6f2052465420776f756c64206265206d696e7465642e4e6f206e657720666565732061726520617661696c61626c6520746f20636c61696d2ea365627a7a72315820d50042c236be086b05dcdd569c53dcb4328f7ba5928753971c592bf3d39629856c6578706572696d656e74616cf564736f6c63430005110040",
  "source": "/**\r\n * @file\r\n * @author David Lucid <david@rari.capital>\r\n *\r\n * @section LICENSE\r\n *\r\n * All rights reserved to David Lucid of David Lucid LLC.\r\n * Any disclosure, reproduction, distribution or other use of this code by any individual or entity other than David Lucid of David Lucid LLC, unless given explicit permission by David Lucid of David Lucid LLC, is prohibited.\r\n *\r\n * @section DESCRIPTION\r\n *\r\n * This file includes the Ethereum contract code for RariFundManager, the primary contract powering Rari Capital's RariFund.\r\n */\r\n\r\npragma solidity ^0.5.7;\r\npragma experimental ABIEncoderV2;\r\n\r\nimport \"@openzeppelin/contracts/math/SafeMath.sol\";\r\nimport \"@openzeppelin/contracts/drafts/SignedSafeMath.sol\";\r\nimport \"@openzeppelin/contracts/ownership/Ownable.sol\";\r\nimport \"@openzeppelin/contracts/token/ERC20/SafeERC20.sol\";\r\nimport \"@openzeppelin/contracts/token/ERC20/ERC20Detailed.sol\";\r\n\r\nimport \"@0x/contracts-exchange-libs/contracts/src/LibOrder.sol\";\r\n\r\nimport \"./lib/RariFundController.sol\";\r\nimport \"./RariFundToken.sol\";\r\nimport \"./RariFundProxy.sol\";\r\n\r\n/**\r\n * @title RariFundManager\r\n * @dev This contract is the primary contract powering RariFund.\r\n * Anyone can deposit to the fund with deposit(string currencyCode, uint256 amount).\r\n * Anyone can withdraw their funds (with interest) from the fund with withdraw(string currencyCode, uint256 amount).\r\n */\r\ncontract RariFundManager is Ownable {\r\n    using SafeMath for uint256;\r\n    using SignedSafeMath for int256;\r\n    using SafeERC20 for IERC20;\r\n\r\n    /**\r\n     * @dev Boolean that, if true, disables deposits to and withdrawals from this RariFundManager.\r\n     */\r\n    bool private _fundDisabled;\r\n\r\n    /**\r\n     * @dev Address of the RariFundToken.\r\n     */\r\n    address private _rariFundTokenContract;\r\n\r\n    /**\r\n     * @dev Address of the RariFundProxy.\r\n     */\r\n    address private _rariFundProxyContract;\r\n\r\n    /**\r\n     * @dev Address of the rebalancer.\r\n     */\r\n    address private _rariFundRebalancerAddress;\r\n\r\n    /**\r\n     * @dev Array of currencies supported by the fund.\r\n     */\r\n    string[] private _supportedCurrencies;\r\n\r\n    /**\r\n     * @dev Maps ERC20 token contract addresses to supported currency codes.\r\n     */\r\n    mapping(string => address) private _erc20Contracts;\r\n\r\n    /**\r\n     * @dev Maps arrays of supported pools to currency codes.\r\n     */\r\n    mapping(string => uint8[]) private _poolsByCurrency;\r\n\r\n    /**\r\n     * @dev Maps ERC20 token contract addresses to currency codes withdrawable by the owner.\r\n     */\r\n    mapping(string => address) private _ownerErc20Contracts;\r\n\r\n    /**\r\n     * @dev Constructor that sets supported ERC20 token contract addresses and supported pools for each supported token.\r\n     */\r\n    constructor () public {\r\n        // Add supported currencies\r\n        addSupportedCurrency(\"DAI\", 0x6B175474E89094C44Da98b954EedeAC495271d0F);\r\n        addPoolToCurrency(\"DAI\", 0); // dYdX\r\n        addPoolToCurrency(\"DAI\", 1); // Compound\r\n        addSupportedCurrency(\"USDC\", 0xA0b86991c6218b36c1d19D4a2e9Eb0cE3606eB48);\r\n        addPoolToCurrency(\"USDC\", 0); // dYdX\r\n        addPoolToCurrency(\"USDC\", 1); // Compound\r\n        addSupportedCurrency(\"USDT\", 0xdAC17F958D2ee523a2206206994597C13D831ec7);\r\n        addPoolToCurrency(\"USDT\", 1); // Compound\r\n        \r\n        // Add owner currency\r\n        addOwnerCurrency(\"COMP\", 0xc00e94Cb662C3520282E6f5717214004A7f26888);\r\n    }\r\n\r\n    /**\r\n     * @dev Marks a token as supported by the fund and stores its ERC20 contract address.\r\n     * @param currencyCode The currency code of the token.\r\n     * @param erc20Contract The ERC20 contract of the token.\r\n     */\r\n    function addSupportedCurrency(string memory currencyCode, address erc20Contract) internal {\r\n        _supportedCurrencies.push(currencyCode);\r\n        _erc20Contracts[currencyCode] = erc20Contract;\r\n    }\r\n\r\n    /**\r\n     * @dev Adds a supported pool for a token.\r\n     * @param currencyCode The currency code of the token.\r\n     * @param pool Pool ID to be supported.\r\n     */\r\n    function addPoolToCurrency(string memory currencyCode, uint8 pool) internal {\r\n        _poolsByCurrency[currencyCode].push(pool);\r\n    }\r\n\r\n    /**\r\n     * @dev Marks a token as withdrawable by the owner and stores its ERC20 contract address.\r\n     * @param currencyCode The currency code of the token.\r\n     * @param erc20Contract The ERC20 contract of the token.\r\n     */\r\n    function addOwnerCurrency(string memory currencyCode, address erc20Contract) internal {\r\n        _ownerErc20Contracts[currencyCode] = erc20Contract;\r\n    }\r\n\r\n    /**\r\n     * @dev Withdraws fund manager balance of `currencyCode` to the team if withdrawable.\r\n     * @param currencyCode The currency code of the token to withdraw.\r\n     * @return Boolean indicating success.\r\n     */\r\n    function ownerWithdraw(string calldata currencyCode) external onlyOwnerOrRebalancer returns (bool) {\r\n        if (keccak256(abi.encodePacked(currencyCode)) == keccak256(abi.encodePacked(\"ETH\"))) {\r\n            uint256 balance = address(this).balance;\r\n            require(balance > 0, \"No available balance to withdraw.\");\r\n            address(uint160(owner())).transfer(balance);\r\n        } else {\r\n            address erc20Contract = _ownerErc20Contracts[currencyCode];\r\n            require(erc20Contract != address(0), \"Invalid currency code.\");\r\n            IERC20 token = IERC20(erc20Contract);\r\n            uint256 balance = token.balanceOf(address(this));\r\n            require(balance > 0, \"No available balance to withdraw.\");\r\n            token.safeTransfer(owner(), balance);\r\n        }\r\n\r\n        return true;\r\n    }\r\n\r\n    /**\r\n     * @dev Payable fallback function called by 0x exchange to refund unspent protocol fee.\r\n     */\r\n    function () external payable { }\r\n\r\n    /**\r\n     * @dev Emitted when RariFundManager is upgraded.\r\n     */\r\n    event FundManagerUpgraded(address newContract);\r\n\r\n    /**\r\n     * @dev Upgrades RariFundManager.\r\n     * Sends data to the new contract, sets the new RariFundToken minter, and forwards tokens from the old to the new.\r\n     * @param newContract The address of the new RariFundManager contract.\r\n     */\r\n    function upgradeFundManager(address payable newContract) external onlyOwner {\r\n        // Pass data to the new contract\r\n        FundManagerData memory data;\r\n\r\n        data = FundManagerData(\r\n            _netDeposits,\r\n            _rawInterestAccruedAtLastFeeRateChange,\r\n            _interestFeesGeneratedAtLastFeeRateChange,\r\n            _interestFeesClaimed\r\n        );\r\n\r\n        RariFundManager(newContract).setFundManagerData(data);\r\n\r\n        // Update RariFundToken minter\r\n        if (_rariFundTokenContract != address(0)) {\r\n            RariFundToken rariFundToken = RariFundToken(_rariFundTokenContract);\r\n            rariFundToken.addMinter(newContract);\r\n            rariFundToken.renounceMinter();\r\n        }\r\n\r\n        // Withdraw all tokens from all pools and transfer them to new FundManager\r\n        for (uint256 i = 0; i < _supportedCurrencies.length; i++) {\r\n            string memory currencyCode = _supportedCurrencies[i];\r\n\r\n            for (uint256 j = 0; j < _poolsByCurrency[currencyCode].length; j++)\r\n                if (RariFundController.getPoolBalance(_poolsByCurrency[currencyCode][j], _erc20Contracts[currencyCode]) > 0)\r\n                    RariFundController.withdrawAllFromPool(_poolsByCurrency[currencyCode][j], _erc20Contracts[currencyCode]);\r\n\r\n            IERC20 token = IERC20(_erc20Contracts[currencyCode]);\r\n            uint256 balance = token.balanceOf(address(this));\r\n            if (balance > 0) token.safeTransfer(newContract, balance);\r\n        }\r\n\r\n        emit FundManagerUpgraded(newContract);\r\n    }\r\n\r\n    /**\r\n     * @dev Old RariFundManager contract authorized to migrate its data to the new one.\r\n     */\r\n    address private _authorizedFundManagerDataSource;\r\n\r\n    /**\r\n     * @dev Upgrades RariFundManager.\r\n     * Authorizes the source for fund manager data (i.e., the old fund manager).\r\n     * @param authorizedFundManagerDataSource Authorized source for data (i.e., the old fund manager).\r\n     */\r\n    function authorizeFundManagerDataSource(address authorizedFundManagerDataSource) external onlyOwner {\r\n        _authorizedFundManagerDataSource = authorizedFundManagerDataSource;\r\n    }\r\n\r\n    /**\r\n     * @dev Struct for data to transfer from the old RariFundManager to the new one.\r\n     */\r\n    struct FundManagerData {\r\n        int256 netDeposits;\r\n        int256 rawInterestAccruedAtLastFeeRateChange;\r\n        int256 interestFeesGeneratedAtLastFeeRateChange;\r\n        uint256 interestFeesClaimed;\r\n    }\r\n\r\n    /**\r\n     * @dev Upgrades RariFundManager.\r\n     * Sets data receieved from the old contract.\r\n     * @param data The data from the old contract necessary to initialize the new contract.\r\n     */\r\n    function setFundManagerData(FundManagerData calldata data) external {\r\n        require(_authorizedFundManagerDataSource != address(0) && msg.sender == _authorizedFundManagerDataSource, \"Caller is not an authorized source.\");\r\n        \r\n        _netDeposits = data.netDeposits;\r\n        _rawInterestAccruedAtLastFeeRateChange = data.rawInterestAccruedAtLastFeeRateChange;\r\n        _interestFeesGeneratedAtLastFeeRateChange = data.interestFeesGeneratedAtLastFeeRateChange;\r\n        _interestFeesClaimed = data.interestFeesClaimed;\r\n    }\r\n\r\n    /**\r\n     * @dev Emitted when the RariFundToken of the RariFundManager is set.\r\n     */\r\n    event FundTokenSet(address newContract);\r\n\r\n    /**\r\n     * @dev Sets or upgrades the RariFundToken of the RariFundManager.\r\n     * @param newContract The address of the new RariFundToken contract.\r\n     */\r\n    function setFundToken(address newContract) external onlyOwner {\r\n        _rariFundTokenContract = newContract;\r\n        emit FundTokenSet(newContract);\r\n    }\r\n\r\n    /**\r\n     * @dev Throws if called by any account other than the RariFundToken.\r\n     */\r\n    modifier onlyToken() {\r\n        require(_rariFundTokenContract == msg.sender, \"Caller is not the RariFundToken.\");\r\n        _;\r\n    }\r\n\r\n    /**\r\n     * @dev Maps net quantity of deposits to the fund (i.e., deposits - withdrawals) to each user.\r\n     * On deposit, amount deposited is added to `_netDepositsByAccount`; on withdrawal, amount withdrawn is subtracted from `_netDepositsByAccount`.\r\n     */\r\n    mapping(address => int256) private _netDepositsByAccount;\r\n\r\n    /**\r\n     * @dev Recieves data about an RFT transfer or burn from RariFundToken so we can record it in `_netDepositsByAccount`.\r\n     * @param sender The sender of the RFT.\r\n     * @param recipient The recipient of the RFT (the zero address if burning).\r\n     * @param rftAmount The amount of RFT transferred or burnt.\r\n     * @param newRftTotalSupply The total supply of RFT after the transfer or burn.\r\n     */\r\n    function onFundTokenTransfer(address sender, address recipient, uint256 rftAmount, uint256 newRftTotalSupply) external fundEnabled onlyToken {\r\n        if (rftAmount <= 0) return;\r\n        uint256 oldRftTotalSupply = recipient == address(0) ? newRftTotalSupply.add(rftAmount) : newRftTotalSupply;\r\n        uint256 amountUsd = rftAmount.mul(getFundBalance()).div(oldRftTotalSupply);\r\n        _netDepositsByAccount[sender] = _netDepositsByAccount[sender].sub(int256(amountUsd));\r\n        if (recipient == address(0)) _netDeposits = _netDeposits.sub(int256(amountUsd));\r\n        else _netDepositsByAccount[recipient] = _netDepositsByAccount[recipient].add(int256(amountUsd));\r\n    }\r\n\r\n    /**\r\n     * @notice Returns the total amount of interest accrued by `account` (excluding the fees paid on interest) in USD (scaled by 1e18).\r\n     * @dev Ideally, we can add the view modifier, but Compound's `getUnderlyingBalance` function (called by `getRawFundBalance`) potentially modifies the state.\r\n     * @param account The account whose interest we are calculating.\r\n     */\r\n    function interestAccruedBy(address account) public returns (int256) {\r\n        return int256(this.balanceOf(account)).sub(_netDepositsByAccount[account]);\r\n    }\r\n\r\n    /**\r\n     * @dev Emitted when the RariFundProxy of the RariFundManager is set.\r\n     */\r\n    event FundProxySet(address newContract);\r\n\r\n    /**\r\n     * @dev Sets or upgrades the RariFundProxy of the RariFundManager.\r\n     * @param newContract The address of the new RariFundProxy contract.\r\n     */\r\n    function setFundProxy(address newContract) external onlyOwner {\r\n        _rariFundProxyContract = newContract;\r\n        emit FundProxySet(newContract);\r\n    }\r\n\r\n    /**\r\n     * @dev Throws if called by any account other than the RariFundProxy.\r\n     */\r\n    modifier onlyProxy() {\r\n        require(_rariFundProxyContract == msg.sender, \"Caller is not the RariFundProxy.\");\r\n        _;\r\n    }\r\n\r\n    /**\r\n     * @dev Emitted when the rebalancer of the RariFundManager is set.\r\n     */\r\n    event FundRebalancerSet(address newAddress);\r\n\r\n    /**\r\n     * @dev Sets or upgrades the rebalancer of the RariFundManager.\r\n     * @param newAddress The Ethereum address of the new rebalancer server.\r\n     */\r\n    function setFundRebalancer(address newAddress) external onlyOwner {\r\n        _rariFundRebalancerAddress = newAddress;\r\n        emit FundRebalancerSet(newAddress);\r\n    }\r\n\r\n    /**\r\n     * @dev Throws if called by any account other than the rebalancer.\r\n     */\r\n    modifier onlyRebalancer() {\r\n        require(_rariFundRebalancerAddress == msg.sender, \"Caller is not the rebalancer.\");\r\n        _;\r\n    }\r\n\r\n    /**\r\n     * @dev Throws if called by any account other than the owner or the rebalancer.\r\n     */\r\n    modifier onlyOwnerOrRebalancer() {\r\n        require(owner() == msg.sender || _rariFundRebalancerAddress == msg.sender, \"Caller is not the owner or the rebalancer.\");\r\n        _;\r\n    }\r\n\r\n    /**\r\n     * @dev Emitted when the primary functionality of this RariFundManager contract has been disabled.\r\n     */\r\n    event FundDisabled();\r\n\r\n    /**\r\n     * @dev Emitted when the primary functionality of this RariFundManager contract has been enabled.\r\n     */\r\n    event FundEnabled();\r\n\r\n    /**\r\n     * @dev Disables primary functionality of this RariFundManager so contract(s) can be upgraded.\r\n     */\r\n    function disableFund() external onlyOwner {\r\n        require(!_fundDisabled, \"Fund already disabled.\");\r\n        _fundDisabled = true;\r\n        emit FundDisabled();\r\n    }\r\n\r\n    /**\r\n     * @dev Enables primary functionality of this RariFundManager once contract(s) are upgraded.\r\n     */\r\n    function enableFund() external onlyOwner {\r\n        require(_fundDisabled, \"Fund already enabled.\");\r\n        _fundDisabled = false;\r\n        emit FundEnabled();\r\n    }\r\n\r\n    /**\r\n     * @dev Throws if fund is disabled.\r\n     */\r\n    modifier fundEnabled() {\r\n        require(!_fundDisabled, \"This fund manager contract is disabled. This may be due to an upgrade.\");\r\n        _;\r\n    }\r\n\r\n    /**\r\n     * @notice Returns the fund's raw balance (all RFT holders' funds + all unclaimed fees) in each pool of the specified currency.\r\n     * @dev Ideally, we can add the view modifier, but Compound's `getUnderlyingBalance` function (called by `RariFundController.getPoolBalance`) potentially modifies the state.\r\n     * @param currencyCode The currency code of the balance to be calculated.\r\n     * @return An array of arrays of pool indexes and balances.\r\n     */\r\n    function getRawPoolBalances(string calldata currencyCode) external returns (uint8[] memory, uint256[] memory) {\r\n        address erc20Contract = _erc20Contracts[currencyCode];\r\n        require(erc20Contract != address(0), \"Invalid currency code.\");\r\n        uint256[] memory balances = new uint256[](_poolsByCurrency[currencyCode].length);\r\n        for (uint256 i = 0; i < _poolsByCurrency[currencyCode].length; i++) balances[i] = RariFundController.getPoolBalance(_poolsByCurrency[currencyCode][i], erc20Contract);\r\n        return (_poolsByCurrency[currencyCode], balances);\r\n    }\r\n\r\n    /**\r\n     * @notice Returns the fund's raw total balance (all RFT holders' funds + all unclaimed fees) of the specified currency.\r\n     * @dev Ideally, we can add the view modifier, but Compound's `getUnderlyingBalance` function (called by `RariFundController.getPoolBalance`) potentially modifies the state.\r\n     * @param currencyCode The currency code of the balance to be calculated.\r\n     */\r\n    function getRawFundBalance(string memory currencyCode) public returns (uint256) {\r\n        address erc20Contract = _erc20Contracts[currencyCode];\r\n        require(erc20Contract != address(0), \"Invalid currency code.\");\r\n\r\n        IERC20 token = IERC20(erc20Contract);\r\n        uint256 totalBalance = token.balanceOf(address(this));\r\n        for (uint256 i = 0; i < _poolsByCurrency[currencyCode].length; i++) totalBalance = totalBalance.add(RariFundController.getPoolBalance(_poolsByCurrency[currencyCode][i], erc20Contract));\r\n\r\n        return totalBalance;\r\n    }\r\n\r\n    /**\r\n     * @notice Returns the fund's raw total balance (all RFT holders' funds + all unclaimed fees) of all currencies in USD (scaled by 1e18).\r\n     * @dev Ideally, we can add the view modifier, but Compound's `getUnderlyingBalance` function (called by `getRawFundBalance`) potentially modifies the state.\r\n     */\r\n    function getRawFundBalance() public returns (uint256) {\r\n        uint256 totalBalance = 0;\r\n\r\n        for (uint256 i = 0; i < _supportedCurrencies.length; i++) {\r\n            string memory currencyCode = _supportedCurrencies[i];\r\n            uint256 balance = getRawFundBalance(currencyCode);\r\n            address erc20Contract = _erc20Contracts[currencyCode];\r\n            uint256 tokenDecimals = erc20Contract == 0xdAC17F958D2ee523a2206206994597C13D831ec7 ? 6 : ERC20Detailed(erc20Contract).decimals();\r\n            uint256 balanceUsd = 18 >= tokenDecimals ? balance.mul(10 ** (uint256(18).sub(tokenDecimals))) : balance.div(10 ** (tokenDecimals.sub(18))); // TODO: Factor in prices; for now we assume the value of all supported currencies = $1\r\n            totalBalance = totalBalance.add(balanceUsd);\r\n        }\r\n\r\n        return totalBalance;\r\n    }\r\n\r\n    /**\r\n     * @notice Returns the fund's total investor balance (all RFT holders' funds but not unclaimed fees) of all currencies in USD (scaled by 1e18).\r\n     * @dev Ideally, we can add the view modifier, but Compound's `getUnderlyingBalance` function (called by `getRawFundBalance`) potentially modifies the state.\r\n     */\r\n    function getFundBalance() public returns (uint256) {\r\n        return getRawFundBalance().sub(getInterestFeesUnclaimed());\r\n    }\r\n\r\n    /**\r\n     * @notice Returns an account's total balance in USD (scaled by 1e18).\r\n     * @dev Ideally, we can add the view modifier, but Compound's `getUnderlyingBalance` function (called by `getRawFundBalance`) potentially modifies the state.\r\n     * @param account The account whose balance we are calculating.\r\n     */\r\n    function balanceOf(address account) external returns (uint256) {\r\n        require(_rariFundTokenContract != address(0), \"RFT contract not set. This may be due to an upgrade.\");\r\n        RariFundToken rariFundToken = RariFundToken(_rariFundTokenContract);\r\n        uint256 rftTotalSupply = rariFundToken.totalSupply();\r\n        if (rftTotalSupply == 0) return 0;\r\n        uint256 rftBalance = rariFundToken.balanceOf(account);\r\n        uint256 fundBalanceUsd = getFundBalance();\r\n        uint256 accountBalanceUsd = rftBalance.mul(fundBalanceUsd).div(rftTotalSupply);\r\n        return accountBalanceUsd;\r\n    }\r\n\r\n    /**\r\n     * @dev Fund balance limit in USD per Ethereum address.\r\n     */\r\n    uint256 private _accountBalanceLimitDefault;\r\n\r\n    /**\r\n     * @dev Sets or upgrades the default account balance limit in USD.\r\n     * @param limitUsd The default fund balance limit per Ethereum address in USD.\r\n     */\r\n    function setDefaultAccountBalanceLimit(uint256 limitUsd) external onlyOwner {\r\n        _accountBalanceLimitDefault = limitUsd;\r\n    }\r\n\r\n    /**\r\n     * @dev Maps booleans indicating if Ethereum addresses are immune to the account balance limit.\r\n     */\r\n    mapping(address => int256) private _accountBalanceLimits;\r\n\r\n    /**\r\n     * @dev Sets the balance limit in USD of `account`.\r\n     * @param account The Ethereum address to add or remove.\r\n     * @param limitUsd The fund balance limit of `account` in USD. Use 0 to unset individual limit (and restore account to global limit). Use -1 to disable deposits from `account`.\r\n     */\r\n    function setIndividualAccountBalanceLimit(address account, int256 limitUsd) external onlyOwner {\r\n        _accountBalanceLimits[account] = limitUsd;\r\n    }\r\n\r\n    /**\r\n     * @dev Maps booleans indicating if currency codes are accepted for deposits.\r\n     */\r\n    mapping(string => bool) private _acceptedCurrencies;\r\n\r\n    /**\r\n     * @notice Returns a boolean indicating if deposits in `currencyCode` are currently accepted.\r\n     * @param currencyCode The currency code to check.\r\n     */\r\n    function isCurrencyAccepted(string memory currencyCode) public view returns (bool) {\r\n        return _acceptedCurrencies[currencyCode];\r\n    }\r\n\r\n    /**\r\n     * @dev Marks `currencyCode` as accepted or not accepted.\r\n     * @param currencyCode The currency code to mark as accepted or not accepted.\r\n     * @param accepted A boolean indicating if the `currencyCode` is to be accepted.\r\n     */\r\n    function setAcceptedCurrency(string calldata currencyCode, bool accepted) external onlyRebalancer {\r\n        _acceptedCurrencies[currencyCode] = accepted;\r\n    }\r\n\r\n    /**\r\n     * @dev Emitted when funds have been deposited to RariFund.\r\n     */\r\n    event Deposit(string indexed currencyCode, address indexed sender, address indexed payee, uint256 amount, uint256 amountUsd, uint256 rftMinted);\r\n\r\n    /**\r\n     * @dev Emitted when funds have been withdrawn from RariFund.\r\n     */\r\n    event Withdrawal(string indexed currencyCode, address indexed sender, address indexed payee, uint256 amount, uint256 amountUsd, uint256 rftBurned);\r\n\r\n    /**\r\n     * @notice Internal function to deposit funds from `msg.sender` to RariFund in exchange for RFT minted to `to`.\r\n     * You may only deposit currencies accepted by the fund (see `isCurrencyAccepted(string currencyCode)`).\r\n     * Please note that you must approve RariFundManager to transfer at least `amount`.\r\n     * @param to The address that will receieve the minted RFT.\r\n     * @param currencyCode The currency code of the token to be deposited.\r\n     * @param amount The amount of tokens to be deposited.\r\n     * @return Boolean indicating success.\r\n     */\r\n    function _depositTo(address to, string memory currencyCode, uint256 amount) internal fundEnabled returns (bool) {\r\n        // Input validation\r\n        require(_rariFundTokenContract != address(0), \"RFT contract not set. This may be due to an upgrade.\");\r\n        address erc20Contract = _erc20Contracts[currencyCode];\r\n        require(erc20Contract != address(0), \"Invalid currency code.\");\r\n        require(isCurrencyAccepted(currencyCode), \"This currency is not currently accepted; please convert your funds to an accepted currency before depositing.\");\r\n        require(amount > 0, \"Deposit amount must be greater than 0.\");\r\n\r\n        // Get deposit amount in USD\r\n        uint256 tokenDecimals = erc20Contract == 0xdAC17F958D2ee523a2206206994597C13D831ec7 ? 6 : ERC20Detailed(erc20Contract).decimals();\r\n        uint256 amountUsd = 18 >= tokenDecimals ? amount.mul(10 ** (uint256(18).sub(tokenDecimals))) : amount.div(10 ** (tokenDecimals.sub(18)));\r\n\r\n        // Calculate RFT to mint\r\n        RariFundToken rariFundToken = RariFundToken(_rariFundTokenContract);\r\n        uint256 rftTotalSupply = rariFundToken.totalSupply();\r\n        uint256 fundBalanceUsd = rftTotalSupply > 0 ? getFundBalance() : 0; // Only set if used\r\n        uint256 rftAmount = 0;\r\n        if (rftTotalSupply > 0 && fundBalanceUsd > 0) rftAmount = amountUsd.mul(rftTotalSupply).div(fundBalanceUsd);\r\n        else rftAmount = amountUsd;\r\n        require(rftAmount > 0, \"Deposit amount is so small that no RFT would be minted.\");\r\n\r\n        // Check account balance limit if `to` is not whitelisted\r\n        require(checkAccountBalanceLimit(to, amountUsd, rariFundToken, rftTotalSupply, fundBalanceUsd), \"Making this deposit would cause the balance of this account to exceed the maximum.\");\r\n\r\n        // Update net deposits, transfer funds from msg.sender, mint RFT, emit event, and return true\r\n        _netDeposits = _netDeposits.add(int256(amountUsd));\r\n        _netDepositsByAccount[to] = _netDepositsByAccount[to].add(int256(amountUsd));\r\n        IERC20(erc20Contract).safeTransferFrom(msg.sender, address(this), amount); // The user must approve the transfer of tokens beforehand\r\n        require(rariFundToken.mint(to, rftAmount), \"Failed to mint output tokens.\");\r\n        emit Deposit(currencyCode, msg.sender, to, amount, amountUsd, rftAmount);\r\n        return true;\r\n    }\r\n\r\n    /**\r\n     * @dev Checks to make sure that, if `to` is not whitelisted, its balance will not exceed the maximum after depositing `amountUsd`.\r\n     * This function was separated from the `_depositTo` function to avoid the stack getting too deep.\r\n     * @param to The address that will receieve the minted RFT.\r\n     * @param amountUsd The amount of tokens to be deposited in USD.\r\n     * @param rariFundToken The RariFundToken contract object.\r\n     * @param rftTotalSupply The total supply of RFT representing the fund's total investor balance.\r\n     * @param fundBalanceUsd The fund's total investor balance in USD.\r\n     * @return Boolean indicating success.\r\n     */\r\n    function checkAccountBalanceLimit(address to, uint256 amountUsd, RariFundToken rariFundToken, uint256 rftTotalSupply, uint256 fundBalanceUsd) internal view returns (bool) {\r\n        if (to != owner() && to != _interestFeeMasterBeneficiary) {\r\n            if (_accountBalanceLimits[to] < 0) return false;\r\n            uint256 initialBalanceUsd = rftTotalSupply > 0 && fundBalanceUsd > 0 ? rariFundToken.balanceOf(to).mul(fundBalanceUsd).div(rftTotalSupply) : 0; // Save gas by reusing value of getFundBalance() instead of calling balanceOf\r\n            uint256 accountBalanceLimitUsd = _accountBalanceLimits[to] > 0 ? uint256(_accountBalanceLimits[to]) : _accountBalanceLimitDefault;\r\n            if (initialBalanceUsd.add(amountUsd) > accountBalanceLimitUsd) return false;\r\n        }\r\n\r\n        return true;\r\n    }\r\n\r\n    /**\r\n     * @notice Deposits funds to RariFund in exchange for RFT.\r\n     * You may only deposit currencies accepted by the fund (see `isCurrencyAccepted(string currencyCode)`).\r\n     * Please note that you must approve RariFundManager to transfer at least `amount`.\r\n     * @param currencyCode The currency code of the token to be deposited.\r\n     * @param amount The amount of tokens to be deposited.\r\n     * @return Boolean indicating success.\r\n     */\r\n    function deposit(string calldata currencyCode, uint256 amount) external returns (bool) {\r\n        require(_depositTo(msg.sender, currencyCode, amount), \"Deposit failed.\");\r\n        return true;\r\n    }\r\n\r\n    /**\r\n     * @dev Deposits funds from `msg.sender` (RariFundProxy) to RariFund in exchange for RFT minted to `to`.\r\n     * You may only deposit currencies accepted by the fund (see `isCurrencyAccepted(string currencyCode)`).\r\n     * Please note that you must approve RariFundManager to transfer at least `amount`.\r\n     * @param to The address that will receieve the minted RFT.\r\n     * @param currencyCode The currency code of the token to be deposited.\r\n     * @param amount The amount of tokens to be deposited.\r\n     * @return Boolean indicating success.\r\n     */\r\n    function depositTo(address to, string calldata currencyCode, uint256 amount) external onlyProxy returns (bool) {\r\n        require(_depositTo(to, currencyCode, amount), \"Deposit failed.\");\r\n        return true;\r\n    }\r\n\r\n\r\n    /**\r\n     * @dev Returns the amount of RFT to burn for a withdrawal (used by `_withdrawFrom`).\r\n     * @param rariFundToken The RariFundToken contract object.\r\n     * @param from The address from which RFT will be burned.\r\n     * @param amountUsd The amount of the withdrawal in USD\r\n     */\r\n    function getRftBurnAmount(RariFundToken rariFundToken, address from, uint256 amountUsd) internal returns (uint256) {\r\n        uint256 rftTotalSupply = rariFundToken.totalSupply();\r\n        uint256 fundBalanceUsd = getFundBalance();\r\n        require(fundBalanceUsd > 0, \"Fund balance is zero.\");\r\n        uint256 rftAmount = amountUsd.mul(rftTotalSupply).div(fundBalanceUsd);\r\n        require(rftAmount <= rariFundToken.balanceOf(from), \"Your RFT balance is too low for a withdrawal of this amount.\");\r\n        require(rftAmount > 0, \"Withdrawal amount is so small that no RFT would be burned.\");\r\n        return rftAmount;\r\n    }\r\n\r\n    /**\r\n     * @dev Internal function to withdraw funds from RariFund to `msg.sender` in exchange for RFT burned from `from`.\r\n     * You may only withdraw currencies held by the fund (see `getRawFundBalance(string currencyCode)`).\r\n     * Please note that you must approve RariFundManager to burn of the necessary amount of RFT.\r\n     * @param from The address from which RFT will be burned.\r\n     * @param currencyCode The currency code of the token to be withdrawn.\r\n     * @param amount The amount of tokens to be withdrawn.\r\n     * @return Boolean indicating success.\r\n     */\r\n    function _withdrawFrom(address from, string memory currencyCode, uint256 amount) internal fundEnabled returns (bool) {\r\n        // Input validation\r\n        require(_rariFundTokenContract != address(0), \"RFT contract not set. This may be due to an upgrade.\");\r\n        address erc20Contract = _erc20Contracts[currencyCode];\r\n        require(erc20Contract != address(0), \"Invalid currency code.\");\r\n        require(amount > 0, \"Withdrawal amount must be greater than 0.\");\r\n\r\n        // Check contract balance of token and withdraw from pools if necessary\r\n        IERC20 token = IERC20(erc20Contract);\r\n        uint256 contractBalance = token.balanceOf(address(this));\r\n\r\n        for (uint256 i = 0; i < _poolsByCurrency[currencyCode].length; i++) {\r\n            if (contractBalance >= amount) break;\r\n            uint256 poolBalance = RariFundController.getPoolBalance(_poolsByCurrency[currencyCode][i], erc20Contract);\r\n            uint256 amountLeft = amount.sub(contractBalance);\r\n            uint256 poolAmount = amountLeft < poolBalance ? amountLeft : poolBalance;\r\n            require(RariFundController.withdrawFromPool(_poolsByCurrency[currencyCode][i], erc20Contract, poolAmount), \"Pool withdrawal failed.\");\r\n            contractBalance = contractBalance.add(poolAmount);\r\n        }\r\n\r\n        require(amount <= contractBalance, \"Available balance not enough to cover amount even after withdrawing from pools.\");\r\n\r\n        // Get withdrawal amount in USD\r\n        uint256 tokenDecimals = erc20Contract == 0xdAC17F958D2ee523a2206206994597C13D831ec7 ? 6 : ERC20Detailed(erc20Contract).decimals();\r\n        uint256 amountUsd = 18 >= tokenDecimals ? amount.mul(10 ** (uint256(18).sub(tokenDecimals))) : amount.div(10 ** (tokenDecimals.sub(18)));\r\n\r\n        // Calculate RFT to burn\r\n        RariFundToken rariFundToken = RariFundToken(_rariFundTokenContract);\r\n        uint256 rftAmount = getRftBurnAmount(rariFundToken, from, amountUsd);\r\n\r\n        // Burn RFT, transfer funds to msg.sender, update net deposits, emit event, and return true\r\n        rariFundToken.burnFrom(from, rftAmount); // The user must approve the burning of tokens beforehand\r\n        token.safeTransfer(msg.sender, amount);\r\n        _netDeposits = _netDeposits.sub(int256(amountUsd));\r\n        _netDepositsByAccount[from] = _netDepositsByAccount[from].sub(int256(amountUsd));\r\n        emit Withdrawal(currencyCode, from, msg.sender, amount, amountUsd, rftAmount);\r\n        return true;\r\n    }\r\n\r\n    /**\r\n     * @notice Withdraws funds from RariFund in exchange for RFT.\r\n     * You may only withdraw currencies held by the fund (see `getRawFundBalance(string currencyCode)`).\r\n     * Please note that you must approve RariFundManager to burn of the necessary amount of RFT.\r\n     * @param currencyCode The currency code of the token to be withdrawn.\r\n     * @param amount The amount of tokens to be withdrawn.\r\n     * @return Boolean indicating success.\r\n     */\r\n    function withdraw(string calldata currencyCode, uint256 amount) external returns (bool) {\r\n        require(_withdrawFrom(msg.sender, currencyCode, amount), \"Withdrawal failed.\");\r\n        return true;\r\n    }\r\n\r\n    /**\r\n     * @dev Withdraws funds from RariFund to `msg.sender` (RariFundProxy) in exchange for RFT burned from `from`.\r\n     * You may only withdraw currencies held by the fund (see `getRawFundBalance(string currencyCode)`).\r\n     * Please note that you must approve RariFundManager to burn of the necessary amount of RFT.\r\n     * @param from The address from which RFT will be burned.\r\n     * @param currencyCode The currency code of the token to be withdrawn.\r\n     * @param amount The amount of tokens to be withdrawn.\r\n     * @return Boolean indicating success.\r\n     */\r\n    function withdrawFrom(address from, string calldata currencyCode, uint256 amount) external onlyProxy returns (bool) {\r\n        require(_withdrawFrom(from, currencyCode, amount), \"Withdrawal failed.\");\r\n        return true;\r\n    }\r\n\r\n    /**\r\n     * @dev Approves tokens to the pool without spending gas on every deposit.\r\n     * @param pool The name of the pool.\r\n     * @param currencyCode The currency code of the token to be approved.\r\n     * @param amount The amount of tokens to be approved.\r\n     * @return Boolean indicating success.\r\n     */\r\n    function approveToPool(uint8 pool, string calldata currencyCode, uint256 amount) external fundEnabled onlyRebalancer returns (bool) {\r\n        address erc20Contract = _erc20Contracts[currencyCode];\r\n        require(erc20Contract != address(0), \"Invalid currency code.\");\r\n        require(RariFundController.approveToPool(pool, erc20Contract, amount), \"Pool approval failed.\");\r\n        return true;\r\n    }\r\n\r\n    /**\r\n     * @dev Deposits funds from any supported pool.\r\n     * @param pool The name of the pool.\r\n     * @param currencyCode The currency code of the token to be deposited.\r\n     * @param amount The amount of tokens to be deposited.\r\n     * @return Boolean indicating success.\r\n     */\r\n    function depositToPool(uint8 pool, string calldata currencyCode, uint256 amount) external fundEnabled onlyRebalancer returns (bool) {\r\n        address erc20Contract = _erc20Contracts[currencyCode];\r\n        require(erc20Contract != address(0), \"Invalid currency code.\");\r\n        require(RariFundController.depositToPool(pool, erc20Contract, amount), \"Pool deposit failed.\");\r\n        return true;\r\n    }\r\n\r\n    /**\r\n     * @dev Withdraws funds from any supported pool.\r\n     * @param pool The name of the pool.\r\n     * @param currencyCode The currency code of the token to be withdrawn.\r\n     * @param amount The amount of tokens to be withdrawn.\r\n     * @return Boolean indicating success.\r\n     */\r\n    function withdrawFromPool(uint8 pool, string calldata currencyCode, uint256 amount) external fundEnabled onlyRebalancer returns (bool) {\r\n        address erc20Contract = _erc20Contracts[currencyCode];\r\n        require(erc20Contract != address(0), \"Invalid currency code.\");\r\n        require(RariFundController.withdrawFromPool(pool, erc20Contract, amount), \"Pool withdrawal failed.\");\r\n        return true;\r\n    }\r\n\r\n    /**\r\n     * @dev Withdraws all funds from any supported pool.\r\n     * @param pool The name of the pool.\r\n     * @param currencyCode The ERC20 contract of the token to be withdrawn.\r\n     * @return Boolean indicating success.\r\n     */\r\n    function withdrawAllFromPool(uint8 pool, string calldata currencyCode) external fundEnabled onlyRebalancer returns (bool) {\r\n        address erc20Contract = _erc20Contracts[currencyCode];\r\n        require(erc20Contract != address(0), \"Invalid currency code.\");\r\n        require(RariFundController.withdrawAllFromPool(pool, erc20Contract), \"Pool withdrawal failed.\");\r\n        return true;\r\n    }\r\n\r\n    /**\r\n     * @dev Approves tokens to 0x without spending gas on every deposit.\r\n     * @param currencyCode The currency code of the token to be approved.\r\n     * @param amount The amount of tokens to be approved.\r\n     * @return Boolean indicating success.\r\n     */\r\n    function approveTo0x(string calldata currencyCode, uint256 amount) external fundEnabled onlyRebalancer returns (bool) {\r\n        address erc20Contract = _erc20Contracts[currencyCode];\r\n        require(erc20Contract != address(0), \"Invalid currency code.\");\r\n        require(RariFundController.approveTo0x(erc20Contract, amount), \"0x approval failed.\");\r\n        return true;\r\n    }\r\n\r\n    /**\r\n     * @dev Market sell to 0x exchange orders (reverting if `takerAssetFillAmount` is not filled).\r\n     * We should be able to make this function external and use calldata for all parameters, but Solidity does not support calldata structs (https://github.com/ethereum/solidity/issues/5479).\r\n     * @param orders The limit orders to be filled in ascending order of price.\r\n     * @param signatures The signatures for the orders.\r\n     * @param takerAssetFillAmount The amount of the taker asset to sell (excluding taker fees).\r\n     * @return Boolean indicating success.\r\n     */\r\n    function marketSell0xOrdersFillOrKill(LibOrder.Order[] memory orders, bytes[] memory signatures, uint256 takerAssetFillAmount) public payable fundEnabled onlyRebalancer returns (bool) {\r\n        RariFundController.marketSell0xOrdersFillOrKill(orders, signatures, takerAssetFillAmount, msg.value);\r\n        return true;\r\n    }\r\n\r\n    /**\r\n     * @dev Net quantity of deposits to the fund (i.e., deposits - withdrawals).\r\n     * On deposit, amount deposited is added to `_netDeposits`; on withdrawal, amount withdrawn is subtracted from `_netDeposits`.\r\n     */\r\n    int256 private _netDeposits;\r\n    \r\n    /**\r\n     * @notice Returns the raw total amount of interest accrued by the fund as a whole (including the fees paid on interest) in USD (scaled by 1e18).\r\n     * @dev Ideally, we can add the view modifier, but Compound's `getUnderlyingBalance` function (called by `getRawFundBalance`) potentially modifies the state.\r\n     */\r\n    function getRawInterestAccrued() public returns (int256) {\r\n        return int256(getRawFundBalance()).sub(_netDeposits).add(int256(_interestFeesClaimed));\r\n    }\r\n    \r\n    /**\r\n     * @notice Returns the total amount of interest accrued by past and current RFT holders (excluding the fees paid on interest) in USD (scaled by 1e18).\r\n     * @dev Ideally, we can add the view modifier, but Compound's `getUnderlyingBalance` function (called by `getRawFundBalance`) potentially modifies the state.\r\n     */\r\n    function getInterestAccrued() public returns (int256) {\r\n        return int256(getFundBalance()).sub(_netDeposits);\r\n    }\r\n\r\n    /**\r\n     * @dev The proportion of interest accrued that is taken as a service fee (scaled by 1e18).\r\n     */\r\n    uint256 private _interestFeeRate;\r\n\r\n    /**\r\n     * @dev Returns the fee rate on interest.\r\n     */\r\n    function getInterestFeeRate() public view returns (uint256) {\r\n        return _interestFeeRate;\r\n    }\r\n\r\n    /**\r\n     * @dev Sets the fee rate on interest.\r\n     * @param rate The proportion of interest accrued to be taken as a service fee (scaled by 1e18).\r\n     */\r\n    function setInterestFeeRate(uint256 rate) external fundEnabled onlyOwner {\r\n        require(rate != _interestFeeRate, \"This is already the current interest fee rate.\");\r\n        _depositFees();\r\n        _interestFeesGeneratedAtLastFeeRateChange = getInterestFeesGenerated(); // MUST update this first before updating _rawInterestAccruedAtLastFeeRateChange since it depends on it \r\n        _rawInterestAccruedAtLastFeeRateChange = getRawInterestAccrued();\r\n        _interestFeeRate = rate;\r\n    }\r\n\r\n    /**\r\n     * @dev The amount of interest accrued at the time of the most recent change to the fee rate.\r\n     */\r\n    int256 private _rawInterestAccruedAtLastFeeRateChange;\r\n\r\n    /**\r\n     * @dev The amount of fees generated on interest at the time of the most recent change to the fee rate.\r\n     */\r\n    int256 private _interestFeesGeneratedAtLastFeeRateChange;\r\n\r\n    /**\r\n     * @notice Returns the amount of interest fees accrued by beneficiaries in USD (scaled by 1e18).\r\n     * @dev Ideally, we can add the view modifier, but Compound's `getUnderlyingBalance` function (called by `getRawFundBalance`) potentially modifies the state.\r\n     */\r\n    function getInterestFeesGenerated() public returns (int256) {\r\n        int256 rawInterestAccruedSinceLastFeeRateChange = getRawInterestAccrued().sub(_rawInterestAccruedAtLastFeeRateChange);\r\n        int256 interestFeesGeneratedSinceLastFeeRateChange = rawInterestAccruedSinceLastFeeRateChange.mul(int256(_interestFeeRate)).div(1e18);\r\n        int256 interestFeesGenerated = _interestFeesGeneratedAtLastFeeRateChange.add(interestFeesGeneratedSinceLastFeeRateChange);\r\n        return interestFeesGenerated;\r\n    }\r\n\r\n    /**\r\n     * @dev The total claimed amount of interest fees.\r\n     */\r\n    uint256 private _interestFeesClaimed;\r\n\r\n    /**\r\n     * @dev Returns the total unclaimed amount of interest fees.\r\n     * Ideally, we can add the view modifier, but Compound's `getUnderlyingBalance` function (called by `getRawFundBalance`) potentially modifies the state.\r\n     */\r\n    function getInterestFeesUnclaimed() public returns (uint256) {\r\n        int256 interestFeesUnclaimed = getInterestFeesGenerated().sub(int256(_interestFeesClaimed));\r\n        return interestFeesUnclaimed > 0 ? uint256(interestFeesUnclaimed) : 0;\r\n    }\r\n\r\n    /**\r\n     * @dev The master beneficiary of fees on interest; i.e., the recipient of all fees on interest.\r\n     */\r\n    address private _interestFeeMasterBeneficiary;\r\n\r\n    /**\r\n     * @dev Sets the master beneficiary of interest fees.\r\n     * @param beneficiary The master beneficiary of fees on interest; i.e., the recipient of all fees on interest.\r\n     */\r\n    function setInterestFeeMasterBeneficiary(address beneficiary) external fundEnabled onlyOwner {\r\n        require(beneficiary != address(0), \"Interest fee master beneficiary cannot be the zero address.\");\r\n        _interestFeeMasterBeneficiary = beneficiary;\r\n    }\r\n\r\n    /**\r\n     * @dev Emitted when fees on interest are deposited back into the fund.\r\n     */\r\n    event InterestFeeDeposit(address beneficiary, uint256 amountUsd);\r\n\r\n    /**\r\n     * @dev Emitted when fees on interest are withdrawn.\r\n     */\r\n    event InterestFeeWithdrawal(address beneficiary, uint256 amountUsd, string currencyCode, uint256 amount);\r\n\r\n    /**\r\n     * @dev Internal function to deposit all accrued fees on interest back into the fund on behalf of the master beneficiary.\r\n     * @return Integer indicating success (0), no fees to claim (1), or no RFT to mint (2).\r\n     */\r\n    function _depositFees() internal fundEnabled returns (uint8) {\r\n        require(_interestFeeMasterBeneficiary != address(0), \"Master beneficiary cannot be the zero address.\");\r\n        require(_rariFundTokenContract != address(0), \"RFT contract not set. This may be due to an upgrade.\");\r\n\r\n        uint256 amountUsd = getInterestFeesUnclaimed();\r\n        if (amountUsd <= 0) return 1;\r\n\r\n        RariFundToken rariFundToken = RariFundToken(_rariFundTokenContract);\r\n        uint256 rftTotalSupply = rariFundToken.totalSupply();\r\n        uint256 rftAmount = 0;\r\n\r\n        if (rftTotalSupply > 0) {\r\n            uint256 fundBalanceUsd = getFundBalance();\r\n            if (fundBalanceUsd > 0) rftAmount = amountUsd.mul(rftTotalSupply).div(fundBalanceUsd);\r\n            else rftAmount = amountUsd;\r\n        } else rftAmount = amountUsd;\r\n\r\n        if (rftAmount <= 0) return 2;\r\n        _interestFeesClaimed = _interestFeesClaimed.add(amountUsd);\r\n        _netDeposits = _netDeposits.add(int256(amountUsd));\r\n        _netDepositsByAccount[_interestFeeMasterBeneficiary] = _netDepositsByAccount[_interestFeeMasterBeneficiary].add(int256(amountUsd));\r\n        require(rariFundToken.mint(_interestFeeMasterBeneficiary, rftAmount), \"Failed to mint output tokens.\");\r\n        emit Deposit(\"USD\", _interestFeeMasterBeneficiary, _interestFeeMasterBeneficiary, amountUsd, amountUsd, rftAmount);\r\n\r\n        emit InterestFeeDeposit(_interestFeeMasterBeneficiary, amountUsd);\r\n        return 0;\r\n    }\r\n\r\n    /**\r\n     * @notice Deposits all accrued fees on interest back into the fund on behalf of the master beneficiary.\r\n     * @return Boolean indicating success.\r\n     */\r\n    function depositFees() external onlyRebalancer returns (bool) {\r\n        uint8 result = _depositFees();\r\n        require(result == 0, result == 2 ? \"Deposit amount is so small that no RFT would be minted.\" : \"No new fees are available to claim.\");\r\n    }\r\n\r\n    /**\r\n     * @notice Withdraws all accrued fees on interest to the master beneficiary.\r\n     * @param currencyCode The currency code of the interest fees to be claimed.\r\n     * @return Boolean indicating success.\r\n     */\r\n    function withdrawFees(string calldata currencyCode) external fundEnabled onlyRebalancer returns (bool) {\r\n        require(_interestFeeMasterBeneficiary != address(0), \"Master beneficiary cannot be the zero address.\");\r\n        address erc20Contract = _erc20Contracts[currencyCode];\r\n        require(erc20Contract != address(0), \"Invalid currency code.\");\r\n\r\n        uint256 amountUsd = getInterestFeesUnclaimed();\r\n        uint256 tokenDecimals = erc20Contract == 0xdAC17F958D2ee523a2206206994597C13D831ec7 ? 6 : ERC20Detailed(erc20Contract).decimals();\r\n        uint256 amount = 18 >= tokenDecimals ? amountUsd.div(10 ** (uint256(18).sub(tokenDecimals))) : amountUsd.mul(10 ** (tokenDecimals.sub(18))); // TODO: Factor in prices; for now we assume the value of all supported currencies = $1\r\n        require(amount > 0, \"No new fees are available to claim.\");\r\n\r\n        _interestFeesClaimed = _interestFeesClaimed.add(amountUsd);\r\n        IERC20(erc20Contract).safeTransfer(_interestFeeMasterBeneficiary, amount);\r\n\r\n        emit InterestFeeWithdrawal(_interestFeeMasterBeneficiary, amountUsd, currencyCode, amount);\r\n        return true;\r\n    }\r\n}\r\n",
  "sourcePath": "/home/david/rari-contracts/contracts/RariFundManager.sol",
  "compiler": {
    "name": "solc",
    "version": "0.5.17+commit.d19bba13.Emscripten.clang"
  },
  "schemaVersion": "3.2.0",
  "updatedAt": "2020-06-29T14:20:50.583Z",
  "networkType": "ethereum",
  "devdoc": {
    "details": "This contract is the primary contract powering RariFund. Anyone can deposit to the fund with deposit(string currencyCode, uint256 amount). Anyone can withdraw their funds (with interest) from the fund with withdraw(string currencyCode, uint256 amount).",
    "methods": {
      "approveTo0x(string,uint256)": {
        "details": "Approves tokens to 0x without spending gas on every deposit.",
        "params": {
          "amount": "The amount of tokens to be approved.",
          "currencyCode": "The currency code of the token to be approved."
        },
        "return": "Boolean indicating success."
      },
      "approveToPool(uint8,string,uint256)": {
        "details": "Approves tokens to the pool without spending gas on every deposit.",
        "params": {
          "amount": "The amount of tokens to be approved.",
          "currencyCode": "The currency code of the token to be approved.",
          "pool": "The name of the pool."
        },
        "return": "Boolean indicating success."
      },
      "authorizeFundManagerDataSource(address)": {
        "details": "Upgrades RariFundManager. Authorizes the source for fund manager data (i.e., the old fund manager).",
        "params": {
          "authorizedFundManagerDataSource": "Authorized source for data (i.e., the old fund manager)."
        }
      },
      "balanceOf(address)": {
        "details": "Ideally, we can add the view modifier, but Compound's `getUnderlyingBalance` function (called by `getRawFundBalance`) potentially modifies the state.",
        "params": {
          "account": "The account whose balance we are calculating."
        }
      },
      "constructor": {
        "details": "Constructor that sets supported ERC20 token contract addresses and supported pools for each supported token."
      },
      "deposit(string,uint256)": {
        "params": {
          "amount": "The amount of tokens to be deposited.",
          "currencyCode": "The currency code of the token to be deposited."
        },
        "return": "Boolean indicating success."
      },
      "depositFees()": {
        "return": "Boolean indicating success."
      },
      "depositTo(address,string,uint256)": {
        "details": "Deposits funds from `msg.sender` (RariFundProxy) to RariFund in exchange for RFT minted to `to`. You may only deposit currencies accepted by the fund (see `isCurrencyAccepted(string currencyCode)`). Please note that you must approve RariFundManager to transfer at least `amount`.",
        "params": {
          "amount": "The amount of tokens to be deposited.",
          "currencyCode": "The currency code of the token to be deposited.",
          "to": "The address that will receieve the minted RFT."
        },
        "return": "Boolean indicating success."
      },
      "depositToPool(uint8,string,uint256)": {
        "details": "Deposits funds from any supported pool.",
        "params": {
          "amount": "The amount of tokens to be deposited.",
          "currencyCode": "The currency code of the token to be deposited.",
          "pool": "The name of the pool."
        },
        "return": "Boolean indicating success."
      },
      "disableFund()": {
        "details": "Disables primary functionality of this RariFundManager so contract(s) can be upgraded."
      },
      "enableFund()": {
        "details": "Enables primary functionality of this RariFundManager once contract(s) are upgraded."
      },
      "getFundBalance()": {
        "details": "Ideally, we can add the view modifier, but Compound's `getUnderlyingBalance` function (called by `getRawFundBalance`) potentially modifies the state."
      },
      "getInterestAccrued()": {
        "details": "Ideally, we can add the view modifier, but Compound's `getUnderlyingBalance` function (called by `getRawFundBalance`) potentially modifies the state."
      },
      "getInterestFeeRate()": {
        "details": "Returns the fee rate on interest."
      },
      "getInterestFeesGenerated()": {
        "details": "Ideally, we can add the view modifier, but Compound's `getUnderlyingBalance` function (called by `getRawFundBalance`) potentially modifies the state."
      },
      "getInterestFeesUnclaimed()": {
        "details": "Returns the total unclaimed amount of interest fees. Ideally, we can add the view modifier, but Compound's `getUnderlyingBalance` function (called by `getRawFundBalance`) potentially modifies the state."
      },
      "getRawFundBalance()": {
        "details": "Ideally, we can add the view modifier, but Compound's `getUnderlyingBalance` function (called by `getRawFundBalance`) potentially modifies the state."
      },
      "getRawFundBalance(string)": {
        "details": "Ideally, we can add the view modifier, but Compound's `getUnderlyingBalance` function (called by `RariFundController.getPoolBalance`) potentially modifies the state.",
        "params": {
          "currencyCode": "The currency code of the balance to be calculated."
        }
      },
      "getRawInterestAccrued()": {
        "details": "Ideally, we can add the view modifier, but Compound's `getUnderlyingBalance` function (called by `getRawFundBalance`) potentially modifies the state."
      },
      "getRawPoolBalances(string)": {
        "details": "Ideally, we can add the view modifier, but Compound's `getUnderlyingBalance` function (called by `RariFundController.getPoolBalance`) potentially modifies the state.",
        "params": {
          "currencyCode": "The currency code of the balance to be calculated."
        },
        "return": "An array of arrays of pool indexes and balances."
      },
      "interestAccruedBy(address)": {
        "details": "Ideally, we can add the view modifier, but Compound's `getUnderlyingBalance` function (called by `getRawFundBalance`) potentially modifies the state.",
        "params": {
          "account": "The account whose interest we are calculating."
        }
      },
      "isCurrencyAccepted(string)": {
        "params": {
          "currencyCode": "The currency code to check."
        }
      },
      "isOwner()": {
        "details": "Returns true if the caller is the current owner."
      },
      "marketSell0xOrdersFillOrKill((address,address,address,address,uint256,uint256,uint256,uint256,uint256,uint256,bytes,bytes,bytes,bytes)[],bytes[],uint256)": {
        "details": "Market sell to 0x exchange orders (reverting if `takerAssetFillAmount` is not filled). We should be able to make this function external and use calldata for all parameters, but Solidity does not support calldata structs (https://github.com/ethereum/solidity/issues/5479).",
        "params": {
          "orders": "The limit orders to be filled in ascending order of price.",
          "signatures": "The signatures for the orders.",
          "takerAssetFillAmount": "The amount of the taker asset to sell (excluding taker fees)."
        },
        "return": "Boolean indicating success."
      },
      "onFundTokenTransfer(address,address,uint256,uint256)": {
        "details": "Recieves data about an RFT transfer or burn from RariFundToken so we can record it in `_netDepositsByAccount`.",
        "params": {
          "newRftTotalSupply": "The total supply of RFT after the transfer or burn.",
          "recipient": "The recipient of the RFT (the zero address if burning).",
          "rftAmount": "The amount of RFT transferred or burnt.",
          "sender": "The sender of the RFT."
        }
      },
      "owner()": {
        "details": "Returns the address of the current owner."
      },
      "ownerWithdraw(string)": {
        "details": "Withdraws fund manager balance of `currencyCode` to the team if withdrawable.",
        "params": {
          "currencyCode": "The currency code of the token to withdraw."
        },
        "return": "Boolean indicating success."
      },
      "renounceOwnership()": {
        "details": "Leaves the contract without owner. It will not be possible to call `onlyOwner` functions anymore. Can only be called by the current owner.     * NOTE: Renouncing ownership will leave the contract without an owner, thereby removing any functionality that is only available to the owner."
      },
      "setAcceptedCurrency(string,bool)": {
        "details": "Marks `currencyCode` as accepted or not accepted.",
        "params": {
          "accepted": "A boolean indicating if the `currencyCode` is to be accepted.",
          "currencyCode": "The currency code to mark as accepted or not accepted."
        }
      },
      "setDefaultAccountBalanceLimit(uint256)": {
        "details": "Sets or upgrades the default account balance limit in USD.",
        "params": {
          "limitUsd": "The default fund balance limit per Ethereum address in USD."
        }
      },
      "setFundManagerData((int256,int256,int256,uint256))": {
        "details": "Upgrades RariFundManager. Sets data receieved from the old contract.",
        "params": {
          "data": "The data from the old contract necessary to initialize the new contract."
        }
      },
      "setFundProxy(address)": {
        "details": "Sets or upgrades the RariFundProxy of the RariFundManager.",
        "params": {
          "newContract": "The address of the new RariFundProxy contract."
        }
      },
      "setFundRebalancer(address)": {
        "details": "Sets or upgrades the rebalancer of the RariFundManager.",
        "params": {
          "newAddress": "The Ethereum address of the new rebalancer server."
        }
      },
      "setFundToken(address)": {
        "details": "Sets or upgrades the RariFundToken of the RariFundManager.",
        "params": {
          "newContract": "The address of the new RariFundToken contract."
        }
      },
      "setIndividualAccountBalanceLimit(address,int256)": {
        "details": "Sets the balance limit in USD of `account`.",
        "params": {
          "account": "The Ethereum address to add or remove.",
          "limitUsd": "The fund balance limit of `account` in USD. Use 0 to unset individual limit (and restore account to global limit). Use -1 to disable deposits from `account`."
        }
      },
      "setInterestFeeMasterBeneficiary(address)": {
        "details": "Sets the master beneficiary of interest fees.",
        "params": {
          "beneficiary": "The master beneficiary of fees on interest; i.e., the recipient of all fees on interest."
        }
      },
      "setInterestFeeRate(uint256)": {
        "details": "Sets the fee rate on interest.",
        "params": {
          "rate": "The proportion of interest accrued to be taken as a service fee (scaled by 1e18)."
        }
      },
      "transferOwnership(address)": {
        "details": "Transfers ownership of the contract to a new account (`newOwner`). Can only be called by the current owner."
      },
      "upgradeFundManager(address)": {
        "details": "Upgrades RariFundManager. Sends data to the new contract, sets the new RariFundToken minter, and forwards tokens from the old to the new.",
        "params": {
          "newContract": "The address of the new RariFundManager contract."
        }
      },
      "withdraw(string,uint256)": {
        "params": {
          "amount": "The amount of tokens to be withdrawn.",
          "currencyCode": "The currency code of the token to be withdrawn."
        },
        "return": "Boolean indicating success."
      },
      "withdrawAllFromPool(uint8,string)": {
        "details": "Withdraws all funds from any supported pool.",
        "params": {
          "currencyCode": "The ERC20 contract of the token to be withdrawn.",
          "pool": "The name of the pool."
        },
        "return": "Boolean indicating success."
      },
      "withdrawFees(string)": {
        "params": {
          "currencyCode": "The currency code of the interest fees to be claimed."
        },
        "return": "Boolean indicating success."
      },
      "withdrawFrom(address,string,uint256)": {
        "details": "Withdraws funds from RariFund to `msg.sender` (RariFundProxy) in exchange for RFT burned from `from`. You may only withdraw currencies held by the fund (see `getRawFundBalance(string currencyCode)`). Please note that you must approve RariFundManager to burn of the necessary amount of RFT.",
        "params": {
          "amount": "The amount of tokens to be withdrawn.",
          "currencyCode": "The currency code of the token to be withdrawn.",
          "from": "The address from which RFT will be burned."
        },
        "return": "Boolean indicating success."
      },
      "withdrawFromPool(uint8,string,uint256)": {
        "details": "Withdraws funds from any supported pool.",
        "params": {
          "amount": "The amount of tokens to be withdrawn.",
          "currencyCode": "The currency code of the token to be withdrawn.",
          "pool": "The name of the pool."
        },
        "return": "Boolean indicating success."
      }
    },
    "title": "RariFundManager"
  },
  "userdoc": {
    "methods": {
      "balanceOf(address)": {
        "notice": "Returns an account's total balance in USD (scaled by 1e18)."
      },
      "deposit(string,uint256)": {
        "notice": "Deposits funds to RariFund in exchange for RFT. You may only deposit currencies accepted by the fund (see `isCurrencyAccepted(string currencyCode)`). Please note that you must approve RariFundManager to transfer at least `amount`."
      },
      "depositFees()": {
        "notice": "Deposits all accrued fees on interest back into the fund on behalf of the master beneficiary."
      },
      "getFundBalance()": {
        "notice": "Returns the fund's total investor balance (all RFT holders' funds but not unclaimed fees) of all currencies in USD (scaled by 1e18)."
      },
      "getInterestAccrued()": {
        "notice": "Returns the total amount of interest accrued by past and current RFT holders (excluding the fees paid on interest) in USD (scaled by 1e18)."
      },
      "getInterestFeesGenerated()": {
        "notice": "Returns the amount of interest fees accrued by beneficiaries in USD (scaled by 1e18)."
      },
      "getRawFundBalance()": {
        "notice": "Returns the fund's raw total balance (all RFT holders' funds + all unclaimed fees) of all currencies in USD (scaled by 1e18)."
      },
      "getRawFundBalance(string)": {
        "notice": "Returns the fund's raw total balance (all RFT holders' funds + all unclaimed fees) of the specified currency."
      },
      "getRawInterestAccrued()": {
        "notice": "Returns the raw total amount of interest accrued by the fund as a whole (including the fees paid on interest) in USD (scaled by 1e18)."
      },
      "getRawPoolBalances(string)": {
        "notice": "Returns the fund's raw balance (all RFT holders' funds + all unclaimed fees) in each pool of the specified currency."
      },
      "interestAccruedBy(address)": {
        "notice": "Returns the total amount of interest accrued by `account` (excluding the fees paid on interest) in USD (scaled by 1e18)."
      },
      "isCurrencyAccepted(string)": {
        "notice": "Returns a boolean indicating if deposits in `currencyCode` are currently accepted."
      },
      "withdraw(string,uint256)": {
        "notice": "Withdraws funds from RariFund in exchange for RFT. You may only withdraw currencies held by the fund (see `getRawFundBalance(string currencyCode)`). Please note that you must approve RariFundManager to burn of the necessary amount of RFT."
      },
      "withdrawFees(string)": {
        "notice": "Withdraws all accrued fees on interest to the master beneficiary."
      }
    }
  }
}