{
  "contractName": "RariFundController",
  "abi": [
    {
      "inputs": [],
      "payable": false,
      "stateMutability": "nonpayable",
      "type": "constructor"
    },
    {
      "anonymous": false,
      "inputs": [
        {
          "indexed": false,
          "internalType": "string",
          "name": "inputCurrencyCode",
          "type": "string"
        },
        {
          "indexed": false,
          "internalType": "string",
          "name": "outputCurrencyCode",
          "type": "string"
        }
      ],
      "name": "CurrencyExchange",
      "type": "event"
    },
    {
      "anonymous": false,
      "inputs": [],
      "name": "FundDisabled",
      "type": "event"
    },
    {
      "anonymous": false,
      "inputs": [],
      "name": "FundEnabled",
      "type": "event"
    },
    {
      "anonymous": false,
      "inputs": [
        {
          "indexed": false,
          "internalType": "address",
          "name": "newAddress",
          "type": "address"
        }
      ],
      "name": "FundManagerSet",
      "type": "event"
    },
    {
      "anonymous": false,
      "inputs": [
        {
          "indexed": false,
          "internalType": "address",
          "name": "newAddress",
          "type": "address"
        }
      ],
      "name": "FundRebalancerSet",
      "type": "event"
    },
    {
      "anonymous": false,
      "inputs": [
        {
          "indexed": true,
          "internalType": "address",
          "name": "previousOwner",
          "type": "address"
        },
        {
          "indexed": true,
          "internalType": "address",
          "name": "newOwner",
          "type": "address"
        }
      ],
      "name": "OwnershipTransferred",
      "type": "event"
    },
    {
      "payable": true,
      "stateMutability": "payable",
      "type": "fallback"
    },
    {
      "constant": true,
      "inputs": [],
      "name": "VERSION",
      "outputs": [
        {
          "internalType": "string",
          "name": "",
          "type": "string"
        }
      ],
      "payable": false,
      "stateMutability": "view",
      "type": "function"
    },
    {
      "constant": true,
      "inputs": [],
      "name": "isOwner",
      "outputs": [
        {
          "internalType": "bool",
          "name": "",
          "type": "bool"
        }
      ],
      "payable": false,
      "stateMutability": "view",
      "type": "function"
    },
    {
      "constant": true,
      "inputs": [],
      "name": "owner",
      "outputs": [
        {
          "internalType": "address",
          "name": "",
          "type": "address"
        }
      ],
      "payable": false,
      "stateMutability": "view",
      "type": "function"
    },
    {
      "constant": false,
      "inputs": [],
      "name": "renounceOwnership",
      "outputs": [],
      "payable": false,
      "stateMutability": "nonpayable",
      "type": "function"
    },
    {
      "constant": false,
      "inputs": [
        {
          "internalType": "address",
          "name": "newOwner",
          "type": "address"
        }
      ],
      "name": "transferOwnership",
      "outputs": [],
      "payable": false,
      "stateMutability": "nonpayable",
      "type": "function"
    },
    {
      "constant": false,
      "inputs": [
        {
          "internalType": "address payable",
          "name": "newContract",
          "type": "address"
        }
      ],
      "name": "upgradeFundController",
      "outputs": [],
      "payable": false,
      "stateMutability": "nonpayable",
      "type": "function"
    },
    {
      "constant": false,
      "inputs": [
        {
          "internalType": "address payable",
          "name": "newContract",
          "type": "address"
        },
        {
          "internalType": "address",
          "name": "erc20Contract",
          "type": "address"
        }
      ],
      "name": "upgradeFundController",
      "outputs": [
        {
          "internalType": "bool",
          "name": "",
          "type": "bool"
        }
      ],
      "payable": false,
      "stateMutability": "nonpayable",
      "type": "function"
    },
    {
      "constant": false,
      "inputs": [
        {
          "internalType": "address",
          "name": "newContract",
          "type": "address"
        }
      ],
      "name": "setFundManager",
      "outputs": [],
      "payable": false,
      "stateMutability": "nonpayable",
      "type": "function"
    },
    {
      "constant": false,
      "inputs": [
        {
          "internalType": "address",
          "name": "newAddress",
          "type": "address"
        }
      ],
      "name": "setFundRebalancer",
      "outputs": [],
      "payable": false,
      "stateMutability": "nonpayable",
      "type": "function"
    },
    {
      "constant": false,
      "inputs": [],
      "name": "disableFund",
      "outputs": [],
      "payable": false,
      "stateMutability": "nonpayable",
      "type": "function"
    },
    {
      "constant": false,
      "inputs": [],
      "name": "enableFund",
      "outputs": [],
      "payable": false,
      "stateMutability": "nonpayable",
      "type": "function"
    },
    {
      "constant": true,
      "inputs": [],
      "name": "getDydxBalances",
      "outputs": [
        {
          "internalType": "address[]",
          "name": "",
          "type": "address[]"
        },
        {
          "internalType": "uint256[]",
          "name": "",
          "type": "uint256[]"
        }
      ],
      "payable": false,
      "stateMutability": "view",
      "type": "function"
    },
    {
      "constant": false,
      "inputs": [
        {
          "internalType": "uint8",
          "name": "pool",
          "type": "uint8"
        },
        {
          "internalType": "string",
          "name": "currencyCode",
          "type": "string"
        }
      ],
      "name": "_getPoolBalance",
      "outputs": [
        {
          "internalType": "uint256",
          "name": "",
          "type": "uint256"
        }
      ],
      "payable": false,
      "stateMutability": "nonpayable",
      "type": "function"
    },
    {
      "constant": false,
      "inputs": [
        {
          "internalType": "uint8",
          "name": "pool",
          "type": "uint8"
        },
        {
          "internalType": "string",
          "name": "currencyCode",
          "type": "string"
        }
      ],
      "name": "getPoolBalance",
      "outputs": [
        {
          "internalType": "uint256",
          "name": "",
          "type": "uint256"
        }
      ],
      "payable": false,
      "stateMutability": "nonpayable",
      "type": "function"
    },
    {
      "constant": false,
      "inputs": [],
      "name": "getAllBalances",
      "outputs": [
        {
          "internalType": "string[]",
          "name": "",
          "type": "string[]"
        },
        {
          "internalType": "uint256[]",
          "name": "",
          "type": "uint256[]"
        },
        {
          "internalType": "uint256[][]",
          "name": "",
          "type": "uint256[][]"
        },
        {
          "internalType": "uint256[][]",
          "name": "",
          "type": "uint256[][]"
        }
      ],
      "payable": false,
      "stateMutability": "nonpayable",
      "type": "function"
    },
    {
      "constant": false,
      "inputs": [
        {
          "internalType": "uint8",
          "name": "pool",
          "type": "uint8"
        },
        {
          "internalType": "string",
          "name": "currencyCode",
          "type": "string"
        },
        {
          "internalType": "uint256",
          "name": "amount",
          "type": "uint256"
        }
      ],
      "name": "approveToPool",
      "outputs": [],
      "payable": false,
      "stateMutability": "nonpayable",
      "type": "function"
    },
    {
      "constant": true,
      "inputs": [
        {
          "internalType": "uint8",
          "name": "pool",
          "type": "uint8"
        },
        {
          "internalType": "string",
          "name": "currencyCode",
          "type": "string"
        }
      ],
      "name": "hasCurrencyInPool",
      "outputs": [
        {
          "internalType": "bool",
          "name": "",
          "type": "bool"
        }
      ],
      "payable": false,
      "stateMutability": "view",
      "type": "function"
    },
    {
      "constant": false,
      "inputs": [
        {
          "internalType": "uint16",
          "name": "referralCode",
          "type": "uint16"
        }
      ],
      "name": "setAaveReferralCode",
      "outputs": [],
      "payable": false,
      "stateMutability": "nonpayable",
      "type": "function"
    },
    {
      "constant": false,
      "inputs": [
        {
          "internalType": "uint8",
          "name": "pool",
          "type": "uint8"
        },
        {
          "internalType": "string",
          "name": "currencyCode",
          "type": "string"
        },
        {
          "internalType": "uint256",
          "name": "amount",
          "type": "uint256"
        }
      ],
      "name": "depositToPool",
      "outputs": [],
      "payable": false,
      "stateMutability": "nonpayable",
      "type": "function"
    },
    {
      "constant": false,
      "inputs": [
        {
          "internalType": "uint8",
          "name": "pool",
          "type": "uint8"
        },
        {
          "internalType": "string",
          "name": "currencyCode",
          "type": "string"
        },
        {
          "internalType": "uint256",
          "name": "amount",
          "type": "uint256"
        }
      ],
      "name": "withdrawFromPool",
      "outputs": [],
      "payable": false,
      "stateMutability": "nonpayable",
      "type": "function"
    },
    {
      "constant": false,
      "inputs": [
        {
          "internalType": "uint8",
          "name": "pool",
          "type": "uint8"
        },
        {
          "internalType": "string",
          "name": "currencyCode",
          "type": "string"
        },
        {
          "internalType": "uint256",
          "name": "amount",
          "type": "uint256"
        },
        {
          "internalType": "uint256",
          "name": "initialBalance",
          "type": "uint256"
        }
      ],
      "name": "withdrawFromPoolKnowingBalance",
      "outputs": [],
      "payable": false,
      "stateMutability": "nonpayable",
      "type": "function"
    },
    {
      "constant": false,
      "inputs": [
        {
          "internalType": "uint8",
          "name": "pool",
          "type": "uint8"
        },
        {
          "internalType": "string",
          "name": "currencyCode",
          "type": "string"
        }
      ],
      "name": "withdrawAllFromPool",
      "outputs": [],
      "payable": false,
      "stateMutability": "nonpayable",
      "type": "function"
    },
    {
      "constant": false,
      "inputs": [
        {
          "internalType": "uint8",
          "name": "pool",
          "type": "uint8"
        },
        {
          "internalType": "string",
          "name": "currencyCode",
          "type": "string"
        }
      ],
      "name": "withdrawAllFromPoolOnUpgrade",
      "outputs": [],
      "payable": false,
      "stateMutability": "nonpayable",
      "type": "function"
    },
    {
      "constant": false,
      "inputs": [
        {
          "internalType": "address",
          "name": "erc20Contract",
          "type": "address"
        },
        {
          "internalType": "uint256",
          "name": "amount",
          "type": "uint256"
        }
      ],
      "name": "approveTo0x",
      "outputs": [],
      "payable": false,
      "stateMutability": "nonpayable",
      "type": "function"
    },
    {
      "constant": false,
      "inputs": [
        {
          "internalType": "uint256",
          "name": "limit",
          "type": "uint256"
        }
      ],
      "name": "setDailyLossRateLimit",
      "outputs": [],
      "payable": false,
      "stateMutability": "nonpayable",
      "type": "function"
    },
    {
      "constant": false,
      "inputs": [
        {
          "internalType": "string",
          "name": "inputCurrencyCode",
          "type": "string"
        },
        {
          "internalType": "string",
          "name": "outputCurrencyCode",
          "type": "string"
        },
        {
          "components": [
            {
              "internalType": "address",
              "name": "makerAddress",
              "type": "address"
            },
            {
              "internalType": "address",
              "name": "takerAddress",
              "type": "address"
            },
            {
              "internalType": "address",
              "name": "feeRecipientAddress",
              "type": "address"
            },
            {
              "internalType": "address",
              "name": "senderAddress",
              "type": "address"
            },
            {
              "internalType": "uint256",
              "name": "makerAssetAmount",
              "type": "uint256"
            },
            {
              "internalType": "uint256",
              "name": "takerAssetAmount",
              "type": "uint256"
            },
            {
              "internalType": "uint256",
              "name": "makerFee",
              "type": "uint256"
            },
            {
              "internalType": "uint256",
              "name": "takerFee",
              "type": "uint256"
            },
            {
              "internalType": "uint256",
              "name": "expirationTimeSeconds",
              "type": "uint256"
            },
            {
              "internalType": "uint256",
              "name": "salt",
              "type": "uint256"
            },
            {
              "internalType": "bytes",
              "name": "makerAssetData",
              "type": "bytes"
            },
            {
              "internalType": "bytes",
              "name": "takerAssetData",
              "type": "bytes"
            },
            {
              "internalType": "bytes",
              "name": "makerFeeAssetData",
              "type": "bytes"
            },
            {
              "internalType": "bytes",
              "name": "takerFeeAssetData",
              "type": "bytes"
            }
          ],
          "internalType": "struct LibOrder.Order[]",
          "name": "orders",
          "type": "tuple[]"
        },
        {
          "internalType": "bytes[]",
          "name": "signatures",
          "type": "bytes[]"
        },
        {
          "internalType": "uint256",
          "name": "takerAssetFillAmount",
          "type": "uint256"
        }
      ],
      "name": "marketSell0xOrdersFillOrKill",
      "outputs": [],
      "payable": true,
      "stateMutability": "payable",
      "type": "function"
    }
  ],
  "bytecode": "0x60806040526009805461ffff191660561790553480156200001f57600080fd5b506000620000356001600160e01b036200043b16565b600080546001600160a01b0319166001600160a01b0383169081178255604051929350917f8be0079c531659141344cd1fd0a4f28419497f9722a3daafe3b4186f6b6457e0908290a35060408051808201909152600381526244414960e81b6020820152620000c490736b175474e89094c44da98b954eedeac495271d0f60126001600160e01b036200044016565b60408051808201909152600381526244414960e81b6020820152620000f49060006001600160e01b03620004f516565b60408051808201909152600381526244414960e81b6020820152620001249060016001600160e01b03620004f516565b60408051808201909152600381526244414960e81b6020820152620001549060026001600160e01b03620004f516565b6040805180820190915260048152635553444360e01b60208201526200019a9073a0b86991c6218b36c1d19d4a2e9eb0ce3606eb4860066001600160e01b036200044016565b6040805180820190915260048152635553444360e01b6020820152620001cb9060006001600160e01b03620004f516565b6040805180820190915260048152635553444360e01b6020820152620001fc9060016001600160e01b03620004f516565b6040805180820190915260048152635553444360e01b60208201526200022d9060026001600160e01b03620004f516565b6040805180820190915260048152631554d11560e21b6020820152620002739073dac17f958d2ee523a2206206994597c13d831ec760066001600160e01b036200044016565b6040805180820190915260048152631554d11560e21b6020820152620002a49060016001600160e01b03620004f516565b6040805180820190915260048152631554d11560e21b6020820152620002d59060026001600160e01b03620004f516565b604080518082019091526004815263151554d160e21b602082015262000316906e085d4780b73119b644ae5ecd22b37660126001600160e01b036200044016565b604080518082019091526004815263151554d160e21b6020820152620003479060026001600160e01b03620004f516565b604080518082019091526004815263109554d160e21b60208201526200038d90734fabb145d64652a948d72533023f6e7a623c7c5360126001600160e01b036200044016565b604080518082019091526004815263109554d160e21b6020820152620003be9060026001600160e01b03620004f516565b6040805180820190915260048152631cd554d160e21b602082015262000404907357ab1ec28d129707052df4df418d58a2d46d5f5160126001600160e01b036200044016565b6040805180820190915260048152631cd554d160e21b6020820152620004359060026001600160e01b03620004f516565b6200067b565b335b90565b6004805460018101808355600092909252845162000486917f8a35acfbc15ff81a39ae7d344fd709f28e8600b4aa8c65c6b64bfe7fe36bd19b0190602087019062000553565b5050816006846040516200049b91906200062a565b908152602001604051809103902060006101000a8154816001600160a01b0302191690836001600160a01b0316021790555080600584604051620004e091906200062a565b90815260405190819003602001902055505050565b6007826040516200050791906200062a565b9081526040516020918190038201902080546001810182556000918252908290209181049091018054601f9092166101000a60ff81810219909316939092169190910291909117905550565b828054600181600116156101000203166002900490600052602060002090601f016020900481019282601f106200059657805160ff1916838001178555620005c6565b82800160010185558215620005c6579182015b82811115620005c6578251825591602001919060010190620005a9565b50620005d4929150620005d8565b5090565b6200043d91905b80821115620005d45760008155600101620005df565b600062000602826200063f565b6200060e818562000643565b93506200062081856020860162000648565b9290920192915050565b6000620006388284620005f5565b9392505050565b5190565b919050565b60005b83811015620006655781810151838201526020016200064b565b8381111562000675576000848401525b50505050565b61447c806200068b6000396000f3fe6080604052600436106101815760003560e01c80638da5cb5b116100d1578063c6c5c2e11161008a578063ea0809a911610064578063ea0809a914610442578063f2fde38b14610462578063f3b4338614610482578063ffa1ad741461049757610181565b8063c6c5c2e1146103e2578063d42ec3fe14610402578063e3b62e301461042257610181565b80638da5cb5b1461031e5780638f32d59b146103405780638fe6b38d146103625780639f39de0614610382578063a9065581146103a2578063b02c0065146103c257610181565b8063516fb4221161013e57806365df29181161011857806365df2918146102af578063670c61a2146102c4578063715018a6146102e4578063867e7c27146102f957610181565b8063516fb4221461024257806357582d381461026f5780635bb2860a1461028f57610181565b806308035dfd1461018357806308e169d9146101a35780630e040739146101c35780630fe6c1cc146101e3578063232a3060146101f65780633dbc063d14610216575b005b34801561018f57600080fd5b5061018161019e3660046132a2565b6104b9565b3480156101af57600080fd5b506101816101be36600461318a565b6105a9565b3480156101cf57600080fd5b506101816101de366004613239565b6105e5565b6101816101f13660046130ba565b610708565b34801561020257600080fd5b50610181610211366004612f7b565b610d82565b34801561022257600080fd5b5061022b610ec1565b604051610239929190614025565b60405180910390f35b34801561024e57600080fd5b5061026261025d366004613312565b610f4b565b60405161023991906142c6565b34801561027b57600080fd5b5061018161028a3660046131e4565b6110d1565b34801561029b57600080fd5b506101816102aa366004613239565b61116a565b3480156102bb57600080fd5b5061018161130a565b3480156102d057600080fd5b506101816102df3660046131e4565b61138d565b3480156102f057600080fd5b506101816113b1565b34801561030557600080fd5b5061030e61141f565b604051610239949392919061404a565b34801561032a57600080fd5b50610333611914565b6040516102399190613fab565b34801561034c57600080fd5b50610355611923565b60405161023991906140e2565b34801561036e57600080fd5b5061018161037d366004612ff1565b611947565b34801561038e57600080fd5b5061026261039d366004613312565b611a08565b3480156103ae57600080fd5b506101816103bd366004612f7b565b611a59565b3480156103ce57600080fd5b506101816103dd366004612f7b565b611ac8565b3480156103ee57600080fd5b506103556103fd366004612fb7565b611d4c565b34801561040e57600080fd5b5061018161041d366004613239565b611e2d565b34801561042e57600080fd5b5061035561043d366004613312565b611fe9565b34801561044e57600080fd5b5061018161045d3660046131a8565b612024565b34801561046e57600080fd5b5061018161047d366004612f7b565b61204d565b34801561048e57600080fd5b5061018161207d565b3480156104a357600080fd5b506104ac612107565b60405161023991906140f0565b600054600160a01b900460ff16156104ec5760405162461bcd60e51b81526004016104e390614136565b60405180910390fd5b6001546001600160a01b031633146105165760405162461bcd60e51b81526004016104e390614196565b6105588585858080601f016020809104026020016040519081016040528093929190818152602001838380828437600092019190915250879250612128915050565b808214156105a257600060088585604051610574929190613f92565b908152604080516020928190038301902060ff8916600090815292529020805460ff19169115159190911790555b5050505050565b6105b1611923565b6105cd5760405162461bcd60e51b81526004016104e390614226565b6009805461ffff191661ffff92909216919091179055565b600054600160a01b900460ff161561060f5760405162461bcd60e51b81526004016104e390614136565b6003546001600160a01b031633146106395760405162461bcd60e51b81526004016104e390614126565b61067b8484848080601f016020809104026020016040519081016040528093929190818152602001838380828437600092019190915250869250612128915050565b60006106bd8585858080601f016020809104026020016040519081016040528093929190818152602001838380828437600092019190915250610f4b92505050565b11600884846040516106d0929190613f92565b908152604080516020928190038301902060ff97909716600090815296909152909420805460ff191694151594909417909355505050565b600054600160a01b900460ff16156107325760405162461bcd60e51b81526004016104e390614136565b6003546001600160a01b0316331461075c5760405162461bcd60e51b81526004016104e390614126565b600060068660405161076e9190613f86565b908152604051908190036020018120546001600160a01b0316915060009060069061079a908890613f86565b908152604051908190036020019020546001600160a01b03169050806107d25760405162461bcd60e51b81526004016104e3906141e6565b6001600160a01b038216156109fa5760005b85518110156109f857600073__ZeroExExchangeController______________635917cc3188848151811061081557fe5b602002602001015161016001516040518263ffffffff1660e01b815260040161083e91906140f0565b60206040518083038186803b15801561085657600080fd5b505af415801561086a573d6000803e3d6000fd5b505050506040513d601f19601f8201168201806040525061088e9190810190612f99565b9050806001600160a01b0316846001600160a01b0316146108c15760405162461bcd60e51b81526004016104e390614146565b600073__ZeroExExchangeController______________635917cc318985815181106108e957fe5b602002602001015161014001516040518263ffffffff1660e01b815260040161091291906140f0565b60206040518083038186803b15801561092a57600080fd5b505af415801561093e573d6000803e3d6000fd5b505050506040513d601f19601f820116820180604052506109629190810190612f99565b9050806001600160a01b0316846001600160a01b0316146109955760405162461bcd60e51b81526004016104e3906141c6565b60008884815181106109a357fe5b602002602001015160e0015111156109ee578783815181106109c157fe5b60200260200101516101a00151516000146109ee5760405162461bcd60e51b81526004016104e390614176565b50506001016107e4565b505b610a02612ace565b604051637a8c15f160e01b815273__ZeroExExchangeController______________90637a8c15f190610a3f9089908990899034906004016140a1565b604080518083038186803b158015610a5657600080fd5b505af4158015610a6a573d6000803e3d6000fd5b505050506040513d601f19601f82011682018060405250610a8e919081019061307e565b90506001600160a01b03831615610d08576000600589604051610ab19190613f86565b908152602001604051809103902054905060008160121015610afe57610af9610ae183601263ffffffff61227816565b600a0a8460005b60200201519063ffffffff6122ba16565b610b2a565b610b2a610b1260128463ffffffff61227816565b600a0a8460005b60200201519063ffffffff6122fc16565b9050600060058a604051610b3e9190613f86565b908152602001604051809103902054905060008160121015610b7e57610b79610b6e83601263ffffffff61227816565b600a0a866001610ae8565b610b9d565b610b9d610b9260128463ffffffff61227816565b600a0a866001610b19565b90506000610bb1848363ffffffff61233616565b90506000610c64600260009054906101000a90046001600160a01b03166001600160a01b031663676b7e856040518163ffffffff1660e01b8152600401602060405180830381600087803b158015610c0857600080fd5b505af1158015610c1c573d6000803e3d6000fd5b505050506040513d601f19601f82011682018060405250610c4091908101906131c6565b610c5884670de0b6b3a764000063ffffffff61237c16565b9063ffffffff6123e716565b9050610c6f8161244b565b610c8b5760405162461bcd60e51b81526004016104e3906142a6565b6040805180820190915242815260208101918252600b805460018101825560009190915290517f0175b7a638427703f0dbe7bb9bbf987a2551717b34e79f33b5b1008d1fa01db960029092029182015590517f0175b7a638427703f0dbe7bb9bbf987a2551717b34e79f33b5b1008d1fa01dba9091015550505050505b7f7d3856457f75c3b6b87a58f2f46ca437cb76aa1d762ef410eed7ee8e2d48c9188888604051610d39929190614101565b60405180910390a1478015610d7757604051339082156108fc029083906000818181858888f19350505050158015610d75573d6000803e3d6000fd5b505b505050505050505050565b610d8a611923565b610da65760405162461bcd60e51b81526004016104e390614226565b60005b600454811015610e56576000600660048381548110610dc457fe5b90600052602060002001604051610ddb9190613f9f565b908152604051908190036020019020546001546001600160a01b0391821692501615610e2257600154610e22906001600160a01b038381169116600063ffffffff6124f616565b6001600160a01b03831615610e4d57610e4d6001600160a01b0382168460001963ffffffff6124f616565b50600101610da9565b50600180546001600160a01b038084166001600160a01b031992831617928390556002805490921692169190911790556040517ff980c1430e55b1867cd9337a1f20246ab3b7255032486d0b71c24e820eebf3ab90610eb6908390613fab565b60405180910390a150565b60608073__DydxPoolController____________________62113e086040518163ffffffff1660e01b815260040160006040518083038186803b158015610f0757600080fd5b505af4158015610f1b573d6000803e3d6000fd5b505050506040513d6000823e601f3d908101601f19168201604052610f439190810190613021565b915091509091565b600080600683604051610f5e9190613f86565b908152604051908190036020019020546001600160a01b0316905080610f965760405162461bcd60e51b81526004016104e3906141d6565b60ff841661102d5760405163f8b2cb4f60e01b815273__DydxPoolController____________________9063f8b2cb4f90610fd5908490600401613fab565b60206040518083038186803b158015610fed57600080fd5b505af4158015611001573d6000803e3d6000fd5b505050506040513d601f19601f8201168201806040525061102591908101906131c6565b9150506110cb565b8360ff16600114156110705760405163f8b2cb4f60e01b815273__CompoundPoolController________________9063f8b2cb4f90610fd5908490600401613fab565b8360ff16600214156110b35760405163f8b2cb4f60e01b815273__AavePoolController____________________9063f8b2cb4f90610fd5908490600401613fab565b60405162461bcd60e51b81526004016104e390614296565b92915050565b600054600160a01b900460ff16156110fb5760405162461bcd60e51b81526004016104e390614136565b6003546001600160a01b031633146111255760405162461bcd60e51b81526004016104e390614126565b6111658383838080601f0160208091040260200160405190810160405280939291908181526020018383808284376000920191909152506125f392505050565b505050565b600054600160a01b900460ff16156111945760405162461bcd60e51b81526004016104e390614136565b6003546001600160a01b031633146111be5760405162461bcd60e51b81526004016104e390614126565b6000600684846040516111d2929190613f92565b908152604051908190036020019020546001600160a01b031690508061120a5760405162461bcd60e51b81526004016104e3906141d6565b60ff85166112805760405163095ea7b360e01b815273__DydxPoolController____________________9063095ea7b39061124b9084908690600401613fe2565b60006040518083038186803b15801561126357600080fd5b505af4158015611277573d6000803e3d6000fd5b505050506105a2565b8460ff16600114156112c55760405163095ea7b360e01b815273__CompoundPoolController________________9063095ea7b39061124b9084908690600401613fe2565b8460ff16600214156110b35760405163095ea7b360e01b815273__AavePoolController____________________9063095ea7b39061124b9084908690600401613fe2565b611312611923565b61132e5760405162461bcd60e51b81526004016104e390614226565b600054600160a01b900460ff166113575760405162461bcd60e51b81526004016104e390614166565b6000805460ff60a01b191681556040517f8e1c35fbf7cd686deedf8310574cf4ad038a00a86d3317c831afaeec58f1eeae9190a1565b611395611923565b6111255760405162461bcd60e51b81526004016104e390614226565b6113b9611923565b6113d55760405162461bcd60e51b81526004016104e390614226565b600080546040516001600160a01b03909116907f8be0079c531659141344cd1fd0a4f28419497f9722a3daafe3b4186f6b6457e0908390a3600080546001600160a01b0319169055565b6060806060806060600480549050604051908082528060200260200182016040528015611456578160200160208202803883390190505b509050606060048054905060405190808252806020026020018201604052801561149457816020015b606081526020019060019003908161147f5790505b50905060606004805490506040519080825280602002602001820160405280156114d257816020015b60608152602001906001900390816114bd5790505b50905060005b60045481101561182b576060600482815481106114f157fe5b600091825260209182902001805460408051601f600260001961010060018716150201909416939093049283018590048502810185019091528181529283018282801561157f5780601f106115545761010080835404028352916020019161157f565b820191906000526020600020905b81548152906001019060200180831161156257829003601f168201915b505050505090506006816040516115969190613f86565b908152604051908190036020018120546370a0823160e01b82526001600160a01b0316906370a08231906115ce903090600401613fb9565b60206040518083038186803b1580156115e657600080fd5b505afa1580156115fa573d6000803e3d6000fd5b505050506040513d601f19601f8201168201806040525061161e91908101906131c6565b85838151811061162a57fe5b6020026020010181815250506007816040516116469190613f86565b908152602001604051809103902080549050604051908082528060200260200182016040528015611681578160200160208202803883390190505b5084838151811061168e57fe5b60200260200101819052506007816040516116a99190613f86565b9081526020016040518091039020805490506040519080825280602002602001820160405280156116e4578160200160208202803883390190505b508383815181106116f157fe5b602090810291909101015260005b60078260405161170f9190613f86565b90815260405190819003602001902054811015611821576007826040516117369190613f86565b9081526020016040518091039020818154811061174f57fe5b90600052602060002090602091828204019190069054906101000a900460ff1660ff1685848151811061177e57fe5b6020026020010151828151811061179157fe5b6020026020010181815250506117ef6007836040516117b09190613f86565b908152602001604051809103902082815481106117c957fe5b90600052602060002090602091828204019190069054906101000a900460ff1683611a08565b8484815181106117fb57fe5b6020026020010151828151811061180e57fe5b60209081029190910101526001016116ff565b50506001016114d8565b50600483838383805480602002602001604051908101604052809291908181526020016000905b828210156118fd5760008481526020908190208301805460408051601f60026000196101006001871615020190941693909304928301859004850281018501909152818152928301828280156118e95780601f106118be576101008083540402835291602001916118e9565b820191906000526020600020905b8154815290600101906020018083116118cc57829003601f168201915b505050505081526020019060010190611852565b505050509350965096509650965050505090919293565b6000546001600160a01b031690565b600080546001600160a01b031661193861285d565b6001600160a01b031614905090565b600054600160a01b900460ff16156119715760405162461bcd60e51b81526004016104e390614136565b6003546001600160a01b0316331461199b5760405162461bcd60e51b81526004016104e390614126565b60405163095ea7b360e01b815273__ZeroExExchangeController______________9063095ea7b3906119d49085908590600401613fe2565b60006040518083038186803b1580156119ec57600080fd5b505af4158015611a00573d6000803e3d6000fd5b505050505050565b6000600882604051611a1a9190613f86565b908152604080516020928190038301902060ff868116600090815291909352205416611a48575060006110cb565b611a528383610f4b565b9392505050565b611a61611923565b611a7d5760405162461bcd60e51b81526004016104e390614226565b600380546001600160a01b0319166001600160a01b0383161790556040517feb9b68c1cca2a0c5d180f75c6324fad517a04867907b0f3bee85d98fdf57ee9490610eb6908390613fab565b611ad0611923565b611aec5760405162461bcd60e51b81526004016104e390614226565b60005b600454811015611d4857606060048281548110611b0857fe5b600091825260209182902001805460408051601f6002600019610100600187161502019094169390930492830185900485028101850190915281815292830182828015611b965780601f10611b6b57610100808354040283529160200191611b96565b820191906000526020600020905b815481529060010190602001808311611b7957829003601f168201915b50939450600093505050505b600782604051611bb29190613f86565b90815260405190819003602001902054811015611c7a57611c1b600783604051611bdc9190613f86565b90815260200160405180910390208281548110611bf557fe5b90600052602060002090602091828204019190069054906101000a900460ff1683611fe9565b15611c7257611c72600783604051611c339190613f86565b90815260200160405180910390208281548110611c4c57fe5b90600052602060002090602091828204019190069054906101000a900460ff16836125f3565b600101611ba2565b506000600682604051611c8d9190613f86565b908152604051908190036020018120546370a0823160e01b82526001600160a01b0316915060009082906370a0823190611ccb903090600401613fb9565b60206040518083038186803b158015611ce357600080fd5b505afa158015611cf7573d6000803e3d6000fd5b505050506040513d601f19601f82011682018060405250611d1b91908101906131c6565b90508015611d3d57611d3d6001600160a01b038316868363ffffffff61286116565b505050600101611aef565b5050565b6000611d56611923565b611d725760405162461bcd60e51b81526004016104e390614226565b6040516370a0823160e01b815282906000906001600160a01b038316906370a0823190611da3903090600401613fb9565b60206040518083038186803b158015611dbb57600080fd5b505afa158015611dcf573d6000803e3d6000fd5b505050506040513d601f19601f82011682018060405250611df391908101906131c6565b905060008111611e08576000925050506110cb565b611e226001600160a01b038316868363ffffffff61286116565b506001949350505050565b600054600160a01b900460ff1615611e575760405162461bcd60e51b81526004016104e390614136565b6003546001600160a01b03163314611e815760405162461bcd60e51b81526004016104e390614126565b600060068484604051611e95929190613f92565b908152604051908190036020019020546001600160a01b0316905080611ecd5760405162461bcd60e51b81526004016104e3906141d6565b60ff8516611f43576040516311f9fbc960e21b815273__DydxPoolController____________________906347e7ef2490611f0e9084908690600401613fe2565b60006040518083038186803b158015611f2657600080fd5b505af4158015611f3a573d6000803e3d6000fd5b50505050611fd5565b8460ff1660011415611f88576040516311f9fbc960e21b815273__CompoundPoolController________________906347e7ef2490611f0e9084908690600401613fe2565b8460ff16600214156110b357600954604051636968703360e11b815273__AavePoolController____________________9163d2d0e06691611f0e918591879161ffff1690600401613ffd565b600160088585604051610574929190613f92565b6000600882604051611ffb9190613f86565b908152604080516020928190038301902060ff9586166000908152925290205490921692915050565b61202c611923565b6120485760405162461bcd60e51b81526004016104e390614226565b600a55565b612055611923565b6120715760405162461bcd60e51b81526004016104e390614226565b61207a81612883565b50565b612085611923565b6120a15760405162461bcd60e51b81526004016104e390614226565b600054600160a01b900460ff16156120cb5760405162461bcd60e51b81526004016104e390614246565b6000805460ff60a01b1916600160a01b1781556040517f0a6b9c6c74d93f230c4346c52ac415dd7dda5a0efb4f7394c0bfb5baa87d32659190a1565b604051806040016040528060058152602001640322e302e360dc1b81525081565b600060068360405161213a9190613f86565b908152604051908190036020019020546001600160a01b03169050806121725760405162461bcd60e51b81526004016104e3906141d6565b60ff84166121e85760405163f3fef3a360e01b815273__DydxPoolController____________________9063f3fef3a3906121b39084908690600401613fe2565b60006040518083038186803b1580156121cb57600080fd5b505af41580156121df573d6000803e3d6000fd5b50505050612272565b8360ff166001141561222d5760405163f3fef3a360e01b815273__CompoundPoolController________________9063f3fef3a3906121b39084908690600401613fe2565b8360ff16600214156110b35760405163f3fef3a360e01b815273__AavePoolController____________________9063f3fef3a3906121b39084908690600401613fe2565b50505050565b6000611a5283836040518060400160405280601e81526020017f536166654d6174683a207375627472616374696f6e206f766572666c6f770000815250612904565b6000611a5283836040518060400160405280601a81526020017f536166654d6174683a206469766973696f6e206279207a65726f000000000000815250612930565b60008261230b575060006110cb565b8282028284828161231857fe5b0414611a525760405162461bcd60e51b81526004016104e390614216565b600081830381831280159061234b5750838113155b80612360575060008312801561236057508381135b611a525760405162461bcd60e51b81526004016104e390614256565b60008261238b575060006110cb565b8260001914801561239f5750600160ff1b82145b156123bc5760405162461bcd60e51b81526004016104e390614236565b828202828482816123c957fe5b0514611a525760405162461bcd60e51b81526004016104e390614236565b6000816124065760405162461bcd60e51b81526004016104e390614276565b8160001914801561241a5750600160ff1b83145b156124375760405162461bcd60e51b81526004016104e3906141f6565b600082848161244257fe5b05949350505050565b600b5460009081905b80156124d95761246d426201518063ffffffff61227816565b600b600183038154811061247d57fe5b906000526020600020906002020160000154101561249a576124d9565b6124ce600b60018303815481106124ad57fe5b9060005260206000209060020201600101548361296790919063ffffffff16565b915060001901612454565b50600a546124ed828563ffffffff61296716565b13159392505050565b80158061257e5750604051636eb1769f60e11b81526001600160a01b0384169063dd62ed3e9061252c9030908690600401613fc7565b60206040518083038186803b15801561254457600080fd5b505afa158015612558573d6000803e3d6000fd5b505050506040513d601f19601f8201168201806040525061257c91908101906131c6565b155b61259a5760405162461bcd60e51b81526004016104e390614286565b60405161116590849063095ea7b360e01b906125bc9086908690602401613fe2565b60408051601f198184030181529190526020810180516001600160e01b03166001600160e01b0319909316929092179091526129ad565b60006006826040516126059190613f86565b908152604051908190036020019020546001600160a01b031690508061263d5760405162461bcd60e51b81526004016104e3906141d6565b60ff83166126b157604051630fa09e6360e41b815273__DydxPoolController____________________9063fa09e6309061267c908490600401613fab565b60006040518083038186803b15801561269457600080fd5b505af41580156126a8573d6000803e3d6000fd5b50505050612814565b8260ff166001141561276557604051630fa09e6360e41b815273__CompoundPoolController________________9063fa09e630906126f4908490600401613fab565b60206040518083038186803b15801561270c57600080fd5b505af4158015612720573d6000803e3d6000fd5b505050506040513d601f19601f82011682018060405250612744919081019061309c565b6127605760405162461bcd60e51b81526004016104e390614206565b612814565b8260ff16600214156110b357604051630fa09e6360e41b815273__AavePoolController____________________9063fa09e630906127a8908490600401613fab565b60206040518083038186803b1580156127c057600080fd5b505af41580156127d4573d6000803e3d6000fd5b505050506040513d601f19601f820116820180604052506127f8919081019061309c565b6127605760405162461bcd60e51b81526004016104e3906141b6565b60006008836040516128269190613f86565b908152604080516020928190038301902060ff96909616600090815295909152909320805460ff1916931515939093179092555050565b3390565b60405161116590849063a9059cbb60e01b906125bc9086908690602401613fe2565b6001600160a01b0381166128a95760405162461bcd60e51b81526004016104e390614156565b600080546040516001600160a01b03808516939216917f8be0079c531659141344cd1fd0a4f28419497f9722a3daafe3b4186f6b6457e091a3600080546001600160a01b0319166001600160a01b0392909216919091179055565b600081848411156129285760405162461bcd60e51b81526004016104e391906140f0565b505050900390565b600081836129515760405162461bcd60e51b81526004016104e391906140f0565b50600083858161295d57fe5b0495945050505050565b600082820181831280159061297c5750838112155b80612991575060008312801561299157508381125b611a525760405162461bcd60e51b81526004016104e390614186565b6129bf826001600160a01b0316612a92565b6129db5760405162461bcd60e51b81526004016104e3906142b6565b60006060836001600160a01b0316836040516129f79190613f86565b6000604051808303816000865af19150503d8060008114612a34576040519150601f19603f3d011682016040523d82523d6000602084013e612a39565b606091505b509150915081612a5b5760405162461bcd60e51b81526004016104e3906141a6565b8051156122725780806020019051612a76919081019061309c565b6122725760405162461bcd60e51b81526004016104e390614266565b6000813f7fc5d2460186f7233c927e7db2dcc703c0e500b653ca82273b7bfad8045d85a470818114801590612ac657508115155b949350505050565b60405180604001604052806002906020820280388339509192915050565b80356110cb81614401565b80516110cb81614401565b600082601f830112612b1357600080fd5b8151612b26612b21826142fa565b6142d4565b91508181835260208401935060208101905083856020840282011115612b4b57600080fd5b60005b83811015612b775781612b618882612af7565b8452506020928301929190910190600101612b4e565b5050505092915050565b600082601f830112612b9257600080fd5b8135612ba0612b21826142fa565b81815260209384019390925082018360005b83811015612b775781358601612bc88882612d17565b8452506020928301929190910190600101612bb2565b600082601f830112612bef57600080fd5b8135612bfd612b21826142fa565b81815260209384019390925082018360005b83811015612b775781358601612c258882612dae565b8452506020928301929190910190600101612c0f565b600082601f830112612c4c57600080fd5b6002612c5a612b218261431a565b91508183856020840282011115612c7057600080fd5b60005b83811015612b775781612c868882612f65565b8452506020928301929190910190600101612c73565b600082601f830112612cad57600080fd5b8151612cbb612b21826142fa565b91508181835260208401935060208101905083856020840282011115612ce057600080fd5b60005b83811015612b775781612cf68882612f65565b8452506020928301929190910190600101612ce3565b80516110cb81614415565b600082601f830112612d2857600080fd5b8135612d36612b2182614337565b91508082526020830160208301858383011115612d5257600080fd5b612d5d8382846143bf565b50505092915050565b60008083601f840112612d7857600080fd5b5081356001600160401b03811115612d8f57600080fd5b602083019150836001820283011115612da757600080fd5b9250929050565b60006101c08284031215612dc157600080fd5b612dcc6101c06142d4565b90506000612dda8484612aec565b8252506020612deb84848301612aec565b6020830152506040612dff84828501612aec565b6040830152506060612e1384828501612aec565b6060830152506080612e2784828501612f5a565b60808301525060a0612e3b84828501612f5a565b60a08301525060c0612e4f84828501612f5a565b60c08301525060e0612e6384828501612f5a565b60e083015250610100612e7884828501612f5a565b61010083015250610120612e8e84828501612f5a565b610120830152506101408201356001600160401b03811115612eaf57600080fd5b612ebb84828501612d17565b610140830152506101608201356001600160401b03811115612edc57600080fd5b612ee884828501612d17565b610160830152506101808201356001600160401b03811115612f0957600080fd5b612f1584828501612d17565b610180830152506101a08201356001600160401b03811115612f3657600080fd5b612f4284828501612d17565b6101a08301525092915050565b80356110cb8161441e565b80356110cb81614427565b80516110cb81614427565b80356110cb81614430565b600060208284031215612f8d57600080fd5b6000612ac68484612aec565b600060208284031215612fab57600080fd5b6000612ac68484612af7565b60008060408385031215612fca57600080fd5b6000612fd68585612aec565b9250506020612fe785828601612aec565b9150509250929050565b6000806040838503121561300457600080fd5b60006130108585612aec565b9250506020612fe785828601612f5a565b6000806040838503121561303457600080fd5b82516001600160401b0381111561304a57600080fd5b61305685828601612b02565b92505060208301516001600160401b0381111561307257600080fd5b612fe785828601612c9c565b60006040828403121561309057600080fd5b6000612ac68484612c3b565b6000602082840312156130ae57600080fd5b6000612ac68484612d0c565b600080600080600060a086880312156130d257600080fd5b85356001600160401b038111156130e857600080fd5b6130f488828901612d17565b95505060208601356001600160401b0381111561311057600080fd5b61311c88828901612d17565b94505060408601356001600160401b0381111561313857600080fd5b61314488828901612bde565b93505060608601356001600160401b0381111561316057600080fd5b61316c88828901612b81565b925050608061317d88828901612f5a565b9150509295509295909350565b60006020828403121561319c57600080fd5b6000612ac68484612f4f565b6000602082840312156131ba57600080fd5b6000612ac68484612f5a565b6000602082840312156131d857600080fd5b6000612ac68484612f65565b6000806000604084860312156131f957600080fd5b60006132058686612f70565b93505060208401356001600160401b0381111561322157600080fd5b61322d86828701612d66565b92509250509250925092565b6000806000806060858703121561324f57600080fd5b600061325b8787612f70565b94505060208501356001600160401b0381111561327757600080fd5b61328387828801612d66565b9350935050604061329687828801612f5a565b91505092959194509250565b6000806000806000608086880312156132ba57600080fd5b60006132c68888612f70565b95505060208601356001600160401b038111156132e257600080fd5b6132ee88828901612d66565b9450945050604061330188828901612f5a565b925050606061317d88828901612f5a565b6000806040838503121561332557600080fd5b60006133318585612f70565b92505060208301356001600160401b0381111561334d57600080fd5b612fe785828601612d17565b600061336583836133ac565b505060200190565b6000611a5283836135ed565b6000611a528383613673565b6000611a528383613e39565b60006133658383613f7d565b6133a6816143ae565b82525050565b6133a681614382565b60006133c082614370565b6133ca8185614374565b93506133d58361435e565b8060005b838110156134035781516133ed8882613359565b97506133f88361435e565b9250506001016133d9565b509495945050505050565b600061341982614370565b6134238185614374565b9350836020820285016134358561435e565b8060005b8581101561346f5784840389528151613452858261336d565b945061345d8361435e565b60209a909a0199925050600101613439565b5091979650505050505050565b600061348782614370565b6134918185614374565b9350836020820285016134a38561435e565b8060005b8581101561346f57848403895281516134c08582613379565b94506134cb8361435e565b60209a909a01999250506001016134a7565b60006134e882614370565b6134f28185614374565b9350836020820285016135048561435e565b8060005b8581101561346f57848403895281516135218582613379565b945061352c8361435e565b60209a909a0199925050600101613508565b600061354982614370565b6135538185614374565b9350836020820285016135658561435e565b8060005b8581101561346f57848403895281516135828582613385565b945061358d8361435e565b60209a909a0199925050600101613569565b60006135aa82614370565b6135b48185614374565b93506135bf8361435e565b8060005b838110156134035781516135d78882613391565b97506135e28361435e565b9250506001016135c3565b60006135f882614370565b6136028185614374565b935061360d8361435e565b8060005b838110156134035781516136258882613391565b97506136308361435e565b925050600101613611565b6133a68161438d565b600061364f82614370565b613659818561437d565b93506136698185602086016143cb565b9290920192915050565b600061367e82614370565b6136888185614374565b93506136988185602086016143cb565b6136a1816143f7565b9093019392505050565b60006136b7838561437d565b93506136c48385846143bf565b50500190565b6000815460018116600081146136e7576001811461370a57613749565b607f60028304166136f8818761437d565b60ff1984168152955085019250613749565b60028204613718818761437d565b955061372385614364565b60005b8281101561374257815488820152600190910190602001613726565b5050850192505b505092915050565b600061375e601d83614374565b7f43616c6c6572206973206e6f742074686520726562616c616e6365722e000000815260200192915050565b6000613797604983614374565b7f546869732066756e6420636f6e74726f6c6c657220636f6e747261637420697381527f2064697361626c65642e2054686973206d61792062652064756520746f20616e602082015268103ab833b930b2329760b91b604082015260600192915050565b6000613808603783614374565b7f4e6f7420616c6c20696e7075742061737365747320636f72726573706f6e642081527f746f20696e7075742063757272656e637920636f64652e000000000000000000602082015260400192915050565b6000613867602683614374565b7f4f776e61626c653a206e6577206f776e657220697320746865207a65726f206181526564647265737360d01b602082015260400192915050565b60006138af601583614374565b74233ab7321030b63932b0b23c9032b730b13632b21760591b815260200192915050565b60006138e0601d83614374565b7f54616b6572206665657320617265206e6f7420737570706f727465642e000000815260200192915050565b6000613919602183614374565b7f5369676e6564536166654d6174683a206164646974696f6e206f766572666c6f8152607760f81b602082015260400192915050565b600061395c601f83614374565b7f43616c6c6572206973206e6f74207468652066756e64206d616e616765722e00815260200192915050565b6000613995602083614374565b7f5361666545524332303a206c6f772d6c6576656c2063616c6c206661696c6564815260200192915050565b60006139ce602183614374565b7f4e6f20416176652062616c616e636520746f2077697468647261772066726f6d8152601760f91b602082015260400192915050565b6000613a11603983614374565b7f4e6f7420616c6c206f75747075742061737365747320636f72726573706f6e6481527f20746f206f75747075742063757272656e637920636f64652e00000000000000602082015260400192915050565b6000613a70601683614374565b7524b73b30b634b21031bab93932b731bc9031b7b2329760511b815260200192915050565b6000613aa2601d83614374565b7f496e76616c6964206f75747075742063757272656e637920636f64652e000000815260200192915050565b6000613adb602183614374565b7f5369676e6564536166654d6174683a206469766973696f6e206f766572666c6f8152607760f81b602082015260400192915050565b6000613b1e602583614374565b7f4e6f20436f6d706f756e642062616c616e636520746f20776974686472617720815264333937b69760d91b602082015260400192915050565b6000613b65602183614374565b7f536166654d6174683a206d756c7469706c69636174696f6e206f766572666c6f8152607760f81b602082015260400192915050565b6000613ba8602083614374565b7f4f776e61626c653a2063616c6c6572206973206e6f7420746865206f776e6572815260200192915050565b6000613be1602783614374565b7f5369676e6564536166654d6174683a206d756c7469706c69636174696f6e206f815266766572666c6f7760c81b602082015260400192915050565b6000613c2a601683614374565b75233ab7321030b63932b0b23c903234b9b0b13632b21760511b815260200192915050565b6000613c5c602483614374565b7f5369676e6564536166654d6174683a207375627472616374696f6e206f766572815263666c6f7760e01b602082015260400192915050565b6000613ca2602a83614374565b7f5361666545524332303a204552433230206f7065726174696f6e20646964206e8152691bdd081cdd58d8d9595960b21b602082015260400192915050565b6000613cee602083614374565b7f5369676e6564536166654d6174683a206469766973696f6e206279207a65726f815260200192915050565b6000613d27603683614374565b7f5361666545524332303a20617070726f76652066726f6d206e6f6e2d7a65726f81527520746f206e6f6e2d7a65726f20616c6c6f77616e636560501b602082015260400192915050565b6000613d7f601383614374565b7224b73b30b634b2103837b7b61034b73232bc1760691b815260200192915050565b6000613dae603883614374565b7f546869732065786368616e676520776f756c642076696f6c617465207468652081527f32342d686f7572206c6f73732072617465206c696d69742e0000000000000000602082015260400192915050565b6000613e0d601f83614374565b7f5361666545524332303a2063616c6c20746f206e6f6e2d636f6e747261637400815260200192915050565b80516000906101c0840190613e4e85826133ac565b506020830151613e6160208601826133ac565b506040830151613e7460408601826133ac565b506060830151613e8760608601826133ac565b506080830151613e9a6080860182613f7d565b5060a0830151613ead60a0860182613f7d565b5060c0830151613ec060c0860182613f7d565b5060e0830151613ed360e0860182613f7d565b50610100830151613ee8610100860182613f7d565b50610120830151613efd610120860182613f7d565b50610140830151848203610140860152613f178282613673565b915050610160830151848203610160860152613f338282613673565b915050610180830151848203610180860152613f4f8282613673565b9150506101a08301518482036101a0860152613f6b8282613673565b95945050505050565b6133a681614392565b6133a6816143a5565b6000611a528284613644565b6000612ac68284866136ab565b6000611a5282846136ca565b602081016110cb82846133ac565b602081016110cb828461339d565b60408101613fd582856133ac565b611a5260208301846133ac565b60408101613ff082856133ac565b611a526020830184613f7d565b6060810161400b82866133ac565b6140186020830185613f7d565b612ac66040830184613f74565b6040808252810161403681856133b5565b90508181036020830152612ac6818461359f565b6080808252810161405b81876134dd565b9050818103602083015261406f818661359f565b90508181036040830152614083818561340e565b90508181036060830152614097818461340e565b9695505050505050565b608080825281016140b2818761353e565b905081810360208301526140c6818661347c565b90506140d56040830185613f7d565b613f6b6060830184613f7d565b602081016110cb828461363b565b60208082528101611a528184613673565b604080825281016141128185613673565b90508181036020830152612ac68184613673565b602080825281016110cb81613751565b602080825281016110cb8161378a565b602080825281016110cb816137fb565b602080825281016110cb8161385a565b602080825281016110cb816138a2565b602080825281016110cb816138d3565b602080825281016110cb8161390c565b602080825281016110cb8161394f565b602080825281016110cb81613988565b602080825281016110cb816139c1565b602080825281016110cb81613a04565b602080825281016110cb81613a63565b602080825281016110cb81613a95565b602080825281016110cb81613ace565b602080825281016110cb81613b11565b602080825281016110cb81613b58565b602080825281016110cb81613b9b565b602080825281016110cb81613bd4565b602080825281016110cb81613c1d565b602080825281016110cb81613c4f565b602080825281016110cb81613c95565b602080825281016110cb81613ce1565b602080825281016110cb81613d1a565b602080825281016110cb81613d72565b602080825281016110cb81613da1565b602080825281016110cb81613e00565b602081016110cb8284613f7d565b6040518181016001600160401b03811182821017156142f257600080fd5b604052919050565b60006001600160401b0382111561431057600080fd5b5060209081020190565b60006001600160401b0382111561433057600080fd5b5060200290565b60006001600160401b0382111561434d57600080fd5b506020601f91909101601f19160190565b60200190565b60009081526020902090565b5190565b90815260200190565b919050565b60006110cb82614399565b151590565b61ffff1690565b6001600160a01b031690565b90565b60ff1690565b60006110cb8260006110cb82614382565b82818337506000910152565b60005b838110156143e65781810151838201526020016143ce565b838111156122725750506000910152565b601f01601f191690565b61440a81614382565b811461207a57600080fd5b61440a8161438d565b61440a81614392565b61440a816143a5565b61440a816143a856fea365627a7a7231582023afae924c4368bc5fe69738e7bc560e8b18d12f0ca867e33d05686b677806206c6578706572696d656e74616cf564736f6c63430005110040",
  "source": "/**\r\n * COPYRIGHT  2020 RARI CAPITAL, INC. ALL RIGHTS RESERVED.\r\n * Anyone is free to integrate the public APIs (described in `API.md` of the `rari-contracts` package) of the official smart contract instances deployed by Rari Capital, Inc. in any application (commercial or noncommercial and under any license) benefitting Rari Capital, Inc.\r\n * Only those with explicit permission from a co-founder of Rari Capital (Jai Bhavnani, Jack Lipstone, or David Lucid) are permitted to study, review, or analyze any part of the source code contained in the `rari-contracts` package.\r\n * Reuse (including deployment of smart contracts other than private testing on a private network), modification, redistribution, or sublicensing of any source code contained in the `rari-contracts` package is not permitted without the explicit permission of David Lucid of Rari Capital, Inc.\r\n * No one is permitted to use the software for any purpose other than those allowed by this license.\r\n * This license is liable to change at any time at the sole discretion of David Lucid of Rari Capital, Inc.\r\n */\r\n\r\npragma solidity ^0.5.7;\r\npragma experimental ABIEncoderV2;\r\n\r\nimport \"@openzeppelin/contracts/math/SafeMath.sol\";\r\nimport \"@openzeppelin/contracts/drafts/SignedSafeMath.sol\";\r\nimport \"@openzeppelin/contracts/ownership/Ownable.sol\";\r\nimport \"@openzeppelin/contracts/token/ERC20/IERC20.sol\";\r\nimport \"@openzeppelin/contracts/token/ERC20/SafeERC20.sol\";\r\n\r\nimport \"@0x/contracts-exchange-libs/contracts/src/LibOrder.sol\";\r\n\r\nimport \"./RariFundManager.sol\";\r\nimport \"./lib/pools/DydxPoolController.sol\";\r\nimport \"./lib/pools/CompoundPoolController.sol\";\r\nimport \"./lib/pools/AavePoolController.sol\";\r\nimport \"./lib/exchanges/ZeroExExchangeController.sol\";\r\n\r\n/**\r\n * @title RariFundController\r\n * @author David Lucid <david@rari.capital> (https://github.com/davidlucid)\r\n * @notice This contract handles deposits to and withdrawals from the liquidity pools that power RariFund as well as currency exchanges via 0x.\r\n */\r\ncontract RariFundController is Ownable {\r\n    using SafeMath for uint256;\r\n    using SignedSafeMath for int256;\r\n    using SafeERC20 for IERC20;\r\n\r\n    /**\r\n     * @notice Package version of `rari-contracts` when this contract was deployed.\r\n     */\r\n    string public constant VERSION = \"2.0.0\";\r\n\r\n    /**\r\n     * @dev Boolean that, if true, disables the primary functionality of this RariFundController.\r\n     */\r\n    bool private _fundDisabled;\r\n\r\n    /**\r\n     * @dev Address of the RariFundManager.\r\n     */\r\n    address private _rariFundManagerContract;\r\n\r\n    /**\r\n     * @dev Contract of the RariFundManager.\r\n     */\r\n    RariFundManager private _rariFundManager;\r\n\r\n    /**\r\n     * @dev Address of the rebalancer.\r\n     */\r\n    address private _rariFundRebalancerAddress;\r\n\r\n    /**\r\n     * @dev Array of currencies supported by the fund.\r\n     */\r\n    string[] private _supportedCurrencies;\r\n\r\n    /**\r\n     * @dev Maps decimal precisions (number of digits after the decimal point) to supported currency codes.\r\n     */\r\n    mapping(string => uint256) private _currencyDecimals;\r\n\r\n    /**\r\n     * @dev Maps ERC20 token contract addresses to supported currency codes.\r\n     */\r\n    mapping(string => address) private _erc20Contracts;\r\n\r\n    /**\r\n     * @dev Maps arrays of supported pools to currency codes.\r\n     */\r\n    mapping(string => uint8[]) private _poolsByCurrency;\r\n\r\n    /**\r\n     * @dev Constructor that sets supported ERC20 token contract addresses and supported pools for each supported token.\r\n     */\r\n    constructor () public {\r\n        // Add supported currencies\r\n        addSupportedCurrency(\"DAI\", 0x6B175474E89094C44Da98b954EedeAC495271d0F, 18);\r\n        addPoolToCurrency(\"DAI\", 0); // dYdX\r\n        addPoolToCurrency(\"DAI\", 1); // Compound\r\n        addPoolToCurrency(\"DAI\", 2); // Aave\r\n        addSupportedCurrency(\"USDC\", 0xA0b86991c6218b36c1d19D4a2e9Eb0cE3606eB48, 6);\r\n        addPoolToCurrency(\"USDC\", 0); // dYdX\r\n        addPoolToCurrency(\"USDC\", 1); // Compound\r\n        addPoolToCurrency(\"USDC\", 2); // Aave\r\n        addSupportedCurrency(\"USDT\", 0xdAC17F958D2ee523a2206206994597C13D831ec7, 6);\r\n        addPoolToCurrency(\"USDT\", 1); // Compound\r\n        addPoolToCurrency(\"USDT\", 2); // Aave\r\n        addSupportedCurrency(\"TUSD\", 0x0000000000085d4780B73119b644AE5ecd22b376, 18);\r\n        addPoolToCurrency(\"TUSD\", 2); // Aave\r\n        addSupportedCurrency(\"BUSD\", 0x4Fabb145d64652a948d72533023f6E7A623C7C53, 18);\r\n        addPoolToCurrency(\"BUSD\", 2); // Aave\r\n        addSupportedCurrency(\"sUSD\", 0x57Ab1ec28D129707052df4dF418D58a2D46d5f51, 18);\r\n        addPoolToCurrency(\"sUSD\", 2); // Aave\r\n    }\r\n\r\n    /**\r\n     * @dev Marks a token as supported by the fund and stores its decimal precision and ERC20 contract address.\r\n     * @param currencyCode The currency code of the token.\r\n     * @param erc20Contract The ERC20 contract address of the token.\r\n     * @param decimals The decimal precision (number of digits after the decimal point) of the token.\r\n     */\r\n    function addSupportedCurrency(string memory currencyCode, address erc20Contract, uint256 decimals) internal {\r\n        _supportedCurrencies.push(currencyCode);\r\n        _erc20Contracts[currencyCode] = erc20Contract;\r\n        _currencyDecimals[currencyCode] = decimals;\r\n    }\r\n\r\n    /**\r\n     * @dev Adds a supported pool for a token.\r\n     * @param currencyCode The currency code of the token.\r\n     * @param pool Pool ID to be supported.\r\n     */\r\n    function addPoolToCurrency(string memory currencyCode, uint8 pool) internal {\r\n        _poolsByCurrency[currencyCode].push(pool);\r\n    }\r\n\r\n    /**\r\n     * @dev Payable fallback function called by 0x exchange to refund unspent protocol fee.\r\n     */\r\n    function () external payable { }\r\n\r\n    /**\r\n     * @dev Sets or upgrades RariFundController by withdrawing all tokens from all pools and forwarding them from the old to the new.\r\n     * @param newContract The address of the new RariFundController contract.\r\n     */\r\n    function upgradeFundController(address payable newContract) external onlyOwner {\r\n        for (uint256 i = 0; i < _supportedCurrencies.length; i++) {\r\n            string memory currencyCode = _supportedCurrencies[i];\r\n\r\n            for (uint256 j = 0; j < _poolsByCurrency[currencyCode].length; j++)\r\n                if (hasCurrencyInPool(_poolsByCurrency[currencyCode][j], currencyCode))\r\n                    _withdrawAllFromPool(_poolsByCurrency[currencyCode][j], currencyCode);\r\n\r\n            IERC20 token = IERC20(_erc20Contracts[currencyCode]);\r\n            uint256 balance = token.balanceOf(address(this));\r\n            if (balance > 0) token.safeTransfer(newContract, balance);\r\n        }\r\n    }\r\n\r\n    /**\r\n     * @dev Sets or upgrades RariFundController by forwarding tokens from the old to the new.\r\n     * @param newContract The address of the new RariFundController contract.\r\n     * @param erc20Contract The ERC20 contract address of the token to forward.\r\n     */\r\n    function upgradeFundController(address payable newContract, address erc20Contract) external onlyOwner returns (bool) {\r\n        IERC20 token = IERC20(erc20Contract);\r\n        uint256 balance = token.balanceOf(address(this));\r\n        if (balance <= 0) return false;\r\n        token.safeTransfer(newContract, balance);\r\n        return true;\r\n    }\r\n\r\n    /**\r\n     * @dev Emitted when the RariFundManager of the RariFundController is set.\r\n     */\r\n    event FundManagerSet(address newAddress);\r\n\r\n    /**\r\n     * @dev Sets or upgrades the RariFundManager of the RariFundController.\r\n     * @param newContract The address of the new RariFundManager contract.\r\n     */\r\n    function setFundManager(address newContract) external onlyOwner {\r\n        // Approve maximum output tokens to RariFundManager\r\n        for (uint256 i = 0; i < _supportedCurrencies.length; i++) {\r\n            IERC20 token = IERC20(_erc20Contracts[_supportedCurrencies[i]]);\r\n            if (_rariFundManagerContract != address(0)) token.safeApprove(_rariFundManagerContract, 0);\r\n            if (newContract != address(0)) token.safeApprove(newContract, uint256(-1));\r\n        }\r\n\r\n        _rariFundManagerContract = newContract;\r\n        _rariFundManager = RariFundManager(_rariFundManagerContract);\r\n        emit FundManagerSet(newContract);\r\n    }\r\n\r\n    /**\r\n     * @dev Throws if called by any account other than the RariFundManager.\r\n     */\r\n    modifier onlyManager() {\r\n        require(_rariFundManagerContract == msg.sender, \"Caller is not the fund manager.\");\r\n        _;\r\n    }\r\n\r\n    /**\r\n     * @dev Emitted when the rebalancer of the RariFundController is set.\r\n     */\r\n    event FundRebalancerSet(address newAddress);\r\n\r\n    /**\r\n     * @dev Sets or upgrades the rebalancer of the RariFundController.\r\n     * @param newAddress The Ethereum address of the new rebalancer server.\r\n     */\r\n    function setFundRebalancer(address newAddress) external onlyOwner {\r\n        _rariFundRebalancerAddress = newAddress;\r\n        emit FundRebalancerSet(newAddress);\r\n    }\r\n\r\n    /**\r\n     * @dev Throws if called by any account other than the rebalancer.\r\n     */\r\n    modifier onlyRebalancer() {\r\n        require(_rariFundRebalancerAddress == msg.sender, \"Caller is not the rebalancer.\");\r\n        _;\r\n    }\r\n\r\n    /**\r\n     * @dev Emitted when the primary functionality of this RariFundController contract has been disabled.\r\n     */\r\n    event FundDisabled();\r\n\r\n    /**\r\n     * @dev Emitted when the primary functionality of this RariFundController contract has been enabled.\r\n     */\r\n    event FundEnabled();\r\n\r\n    /**\r\n     * @dev Disables primary functionality of this RariFundController so contract(s) can be upgraded.\r\n     */\r\n    function disableFund() external onlyOwner {\r\n        require(!_fundDisabled, \"Fund already disabled.\");\r\n        _fundDisabled = true;\r\n        emit FundDisabled();\r\n    }\r\n\r\n    /**\r\n     * @dev Enables primary functionality of this RariFundController once contract(s) are upgraded.\r\n     */\r\n    function enableFund() external onlyOwner {\r\n        require(_fundDisabled, \"Fund already enabled.\");\r\n        _fundDisabled = false;\r\n        emit FundEnabled();\r\n    }\r\n\r\n    /**\r\n     * @dev Throws if fund is disabled.\r\n     */\r\n    modifier fundEnabled() {\r\n        require(!_fundDisabled, \"This fund controller contract is disabled. This may be due to an upgrade.\");\r\n        _;\r\n    }\r\n\r\n    /**\r\n     * @dev Returns the balances of all currencies supported by dYdX.\r\n     * @return An array of ERC20 token contract addresses and a corresponding array of balances.\r\n     */\r\n    function getDydxBalances() external view returns (address[] memory, uint256[] memory) {\r\n        return DydxPoolController.getBalances();\r\n    }\r\n\r\n    /**\r\n     * @dev Returns the fund controller's balance of the specified currency in the specified pool (without checking `_poolsWithFunds` first).\r\n     * @dev Ideally, we can add the view modifier, but Compound's `getUnderlyingBalance` function (called by `CompoundPoolController.getBalance`) potentially modifies the state.\r\n     * @param pool The index of the pool.\r\n     * @param currencyCode The currency code of the token.\r\n     */\r\n    function _getPoolBalance(uint8 pool, string memory currencyCode) public returns (uint256) {\r\n        address erc20Contract = _erc20Contracts[currencyCode];\r\n        require(erc20Contract != address(0), \"Invalid currency code.\");\r\n        if (pool == 0) return DydxPoolController.getBalance(erc20Contract);\r\n        else if (pool == 1) return CompoundPoolController.getBalance(erc20Contract);\r\n        else if (pool == 2) return AavePoolController.getBalance(erc20Contract);\r\n        else revert(\"Invalid pool index.\");\r\n    }\r\n\r\n    /**\r\n     * @dev Returns the fund controller's balance of the specified currency in the specified pool (checking `_poolsWithFunds` first to save gas).\r\n     * @dev Ideally, we can add the view modifier, but Compound's `getUnderlyingBalance` function (called by `CompoundPoolController.getBalance`) potentially modifies the state.\r\n     * @param pool The index of the pool.\r\n     * @param currencyCode The currency code of the token.\r\n     */\r\n    function getPoolBalance(uint8 pool, string memory currencyCode) public returns (uint256) {\r\n        if (!_poolsWithFunds[currencyCode][pool]) return 0;\r\n        return _getPoolBalance(pool, currencyCode);\r\n    }\r\n\r\n    /**\r\n     * @notice Returns the fund controller's contract balance of each currency and balance of each pool of each currency (checking `_poolsWithFunds` first to save gas).\r\n     * @dev Ideally, we can add the view modifier, but Compound's `getUnderlyingBalance` function (called by `getPoolBalance`) potentially modifies the state.\r\n     * @return An array of currency codes, an array of corresponding fund controller contract balances for each currency code, an array of arrays of pool indexes for each currency code, and an array of arrays of corresponding balances at each pool index for each currency code.\r\n     */\r\n    function getAllBalances() external returns (string[] memory, uint256[] memory, uint256[][] memory, uint256[][] memory) {\r\n        uint256[] memory contractBalances = new uint256[](_supportedCurrencies.length);\r\n        uint256[][] memory pools = new uint256[][](_supportedCurrencies.length);\r\n        uint256[][] memory poolBalances = new uint256[][](_supportedCurrencies.length);\r\n\r\n        for (uint256 i = 0; i < _supportedCurrencies.length; i++) {\r\n            string memory currencyCode = _supportedCurrencies[i];\r\n            contractBalances[i] = IERC20(_erc20Contracts[currencyCode]).balanceOf(address(this));\r\n            pools[i] = new uint256[](_poolsByCurrency[currencyCode].length);\r\n            poolBalances[i] = new uint256[](_poolsByCurrency[currencyCode].length);\r\n\r\n            for (uint256 j = 0; j < _poolsByCurrency[currencyCode].length; j++) {\r\n                pools[i][j] = _poolsByCurrency[currencyCode][j];\r\n                poolBalances[i][j] = getPoolBalance(_poolsByCurrency[currencyCode][j], currencyCode);\r\n            }\r\n        }\r\n\r\n        return (_supportedCurrencies, contractBalances, pools, poolBalances);\r\n    }\r\n\r\n    /**\r\n     * @dev Approves tokens to the specified pool without spending gas on every deposit.\r\n     * @param pool The index of the pool.\r\n     * @param currencyCode The currency code of the token to be approved.\r\n     * @param amount The amount of tokens to be approved.\r\n     */\r\n    function approveToPool(uint8 pool, string calldata currencyCode, uint256 amount) external fundEnabled onlyRebalancer {\r\n        address erc20Contract = _erc20Contracts[currencyCode];\r\n        require(erc20Contract != address(0), \"Invalid currency code.\");\r\n        if (pool == 0) DydxPoolController.approve(erc20Contract, amount);\r\n        else if (pool == 1) CompoundPoolController.approve(erc20Contract, amount);\r\n        else if (pool == 2) AavePoolController.approve(erc20Contract, amount);\r\n        else revert(\"Invalid pool index.\");\r\n    }\r\n\r\n    /**\r\n     * @dev Mapping of bools indicating the presence of funds to pool indexes to currency codes.\r\n     */\r\n    mapping(string => mapping(uint8 => bool)) _poolsWithFunds;\r\n\r\n    /**\r\n     * @dev Return a boolean indicating if the fund controller has funds in `currencyCode` in `pool`.\r\n     * @param pool The index of the pool to check.\r\n     * @param currencyCode The currency code of the token to check.\r\n     */\r\n    function hasCurrencyInPool(uint8 pool, string memory currencyCode) public view returns (bool) {\r\n        return _poolsWithFunds[currencyCode][pool];\r\n    }\r\n\r\n    /**\r\n     * @dev Referral code for Aave deposits.\r\n     */\r\n    uint16 _aaveReferralCode = 86;\r\n\r\n    /**\r\n     * @dev Sets the referral code for Aave deposits.\r\n     * @param referralCode The referral code.\r\n     */\r\n    function setAaveReferralCode(uint16 referralCode) external onlyOwner {\r\n        _aaveReferralCode = referralCode;\r\n    }\r\n\r\n    /**\r\n     * @dev Deposits funds to the specified pool.\r\n     * @param pool The index of the pool.\r\n     * @param currencyCode The currency code of the token to be deposited.\r\n     * @param amount The amount of tokens to be deposited.\r\n     */\r\n    function depositToPool(uint8 pool, string calldata currencyCode, uint256 amount) external fundEnabled onlyRebalancer {\r\n        address erc20Contract = _erc20Contracts[currencyCode];\r\n        require(erc20Contract != address(0), \"Invalid currency code.\");\r\n        if (pool == 0) DydxPoolController.deposit(erc20Contract, amount);\r\n        else if (pool == 1) CompoundPoolController.deposit(erc20Contract, amount);\r\n        else if (pool == 2) AavePoolController.deposit(erc20Contract, amount, _aaveReferralCode);\r\n        else revert(\"Invalid pool index.\");\r\n        _poolsWithFunds[currencyCode][pool] = true;\r\n    }\r\n\r\n    /**\r\n     * @dev Internal function to withdraw funds from the specified pool.\r\n     * @param pool The index of the pool.\r\n     * @param currencyCode The currency code of the token to be withdrawn.\r\n     * @param amount The amount of tokens to be withdrawn.\r\n     */\r\n    function _withdrawFromPool(uint8 pool, string memory currencyCode, uint256 amount) internal {\r\n        address erc20Contract = _erc20Contracts[currencyCode];\r\n        require(erc20Contract != address(0), \"Invalid currency code.\");\r\n        if (pool == 0) DydxPoolController.withdraw(erc20Contract, amount);\r\n        else if (pool == 1) CompoundPoolController.withdraw(erc20Contract, amount);\r\n        else if (pool == 2) AavePoolController.withdraw(erc20Contract, amount);\r\n        else revert(\"Invalid pool index.\");\r\n    }\r\n\r\n    /**\r\n     * @dev Withdraws funds from the specified pool.\r\n     * @param pool The index of the pool.\r\n     * @param currencyCode The currency code of the token to be withdrawn.\r\n     * @param amount The amount of tokens to be withdrawn.\r\n     */\r\n    function withdrawFromPool(uint8 pool, string calldata currencyCode, uint256 amount) external fundEnabled onlyRebalancer {\r\n        _withdrawFromPool(pool, currencyCode, amount);\r\n        _poolsWithFunds[currencyCode][pool] = _getPoolBalance(pool, currencyCode) > 0;\r\n    }\r\n\r\n    /**\r\n     * @dev Withdraws funds from the specified pool (caching the `initialBalance` parameter).\r\n     * @param pool The index of the pool.\r\n     * @param currencyCode The currency code of the token to be withdrawn.\r\n     * @param amount The amount of tokens to be withdrawn.\r\n     * @param initialBalance The fund's balance of the specified currency in the specified pool before the withdrawal.\r\n     */\r\n    function withdrawFromPoolKnowingBalance(uint8 pool, string calldata currencyCode, uint256 amount, uint256 initialBalance) external fundEnabled onlyManager {\r\n        _withdrawFromPool(pool, currencyCode, amount);\r\n        if (amount == initialBalance) _poolsWithFunds[currencyCode][pool] = false;\r\n    }\r\n\r\n    /**\r\n     * @dev Internal function to withdraw all funds from the specified pool.\r\n     * @param pool The index of the pool.\r\n     * @param currencyCode The ERC20 contract of the token to be withdrawn.\r\n     */\r\n    function _withdrawAllFromPool(uint8 pool, string memory currencyCode) internal {\r\n        address erc20Contract = _erc20Contracts[currencyCode];\r\n        require(erc20Contract != address(0), \"Invalid currency code.\");\r\n        if (pool == 0) DydxPoolController.withdrawAll(erc20Contract);\r\n        else if (pool == 1) require(CompoundPoolController.withdrawAll(erc20Contract), \"No Compound balance to withdraw from.\");\r\n        else if (pool == 2) require(AavePoolController.withdrawAll(erc20Contract), \"No Aave balance to withdraw from.\");\r\n        else revert(\"Invalid pool index.\");\r\n        _poolsWithFunds[currencyCode][pool] = false;\r\n    }\r\n\r\n    /**\r\n     * @dev Withdraws all funds from the specified pool.\r\n     * @param pool The index of the pool.\r\n     * @param currencyCode The ERC20 contract of the token to be withdrawn.\r\n    */\r\n    function withdrawAllFromPool(uint8 pool, string calldata currencyCode) external fundEnabled onlyRebalancer {\r\n        _withdrawAllFromPool(pool, currencyCode);\r\n    }\r\n\r\n    /**\r\n     * @dev Withdraws all funds from the specified pool (without requiring the fund to be enabled).\r\n     * @param pool The index of the pool.\r\n     * @param currencyCode The ERC20 contract of the token to be withdrawn.\r\n     */\r\n    function withdrawAllFromPoolOnUpgrade(uint8 pool, string calldata currencyCode) external onlyOwner {\r\n        _withdrawAllFromPool(pool, currencyCode);\r\n    }\r\n\r\n    /**\r\n     * @dev Approves tokens to 0x without spending gas on every deposit.\r\n     * @param erc20Contract The ERC20 contract address of the token to be approved.\r\n     * @param amount The amount of tokens to be approved.\r\n     * @return Boolean indicating success.\r\n     */\r\n    function approveTo0x(address erc20Contract, uint256 amount) external fundEnabled onlyRebalancer {\r\n        ZeroExExchangeController.approve(erc20Contract, amount);\r\n    }\r\n\r\n    /**\r\n     * @dev Emitted when currencies are exchanged via 0x.\r\n     */\r\n    event CurrencyExchange(string inputCurrencyCode, string outputCurrencyCode);\r\n\r\n    /**\r\n     * @dev Daily limit on 0x exchange order slippage (scaled by 1e18).\r\n     */\r\n    uint256 private _dailyLossRateLimit;\r\n\r\n    /**\r\n     * @dev Sets or upgrades the daily limit on 0x exchange order loss over raw total fund balance.\r\n     * @param limit The daily limit on 0x exchange order loss over raw total fund balance (scaled by 1e18).\r\n     */\r\n    function setDailyLossRateLimit(uint256 limit) external onlyOwner {\r\n        _dailyLossRateLimit = limit;\r\n    }\r\n\r\n    /**\r\n     * @dev Struct for a loss of funds due to a currency exchange (loss could be negative).\r\n     */\r\n    struct CurrencyExchangeLoss {\r\n        uint256 timestamp;\r\n        int256 lossRate;\r\n    }\r\n\r\n    /**\r\n     * @dev Array of arrays containing 0x exchange order time and slippage (scaled by 1e18).\r\n     */\r\n    CurrencyExchangeLoss[] private _lossRateHistory;\r\n\r\n    /**\r\n     * @dev Market sell to 0x exchange orders (reverting if `takerAssetFillAmount` is not filled or the 24-hour slippage limit is surpassed).\r\n     * We should be able to make this function external and use calldata for all parameters, but Solidity does not support calldata structs (https://github.com/ethereum/solidity/issues/5479).\r\n     * @param inputCurrencyCode The currency code of the token to be sold.\r\n     * @param outputCurrencyCode The currency code of the token to be bought.\r\n     * @param orders The limit orders to be filled in ascending order of price.\r\n     * @param signatures The signatures for the orders.\r\n     * @param takerAssetFillAmount The amount of the taker asset to sell (excluding taker fees).\r\n     */\r\n    function marketSell0xOrdersFillOrKill(string memory inputCurrencyCode, string memory outputCurrencyCode, LibOrder.Order[] memory orders, bytes[] memory signatures, uint256 takerAssetFillAmount) public payable fundEnabled onlyRebalancer {\r\n        // Check if input is a supported stablecoin and make sure output is a supported stablecoin\r\n        address inputErc20Contract = _erc20Contracts[inputCurrencyCode];\r\n        address outputErc20Contract = _erc20Contracts[outputCurrencyCode];\r\n        require(outputErc20Contract != address(0), \"Invalid output currency code.\");\r\n\r\n        // Check orders (if inputting a supported stablecoin)\r\n        if (inputErc20Contract != address(0)) for (uint256 i = 0; i < orders.length; i++) {\r\n            address takerAssetAddress = ZeroExExchangeController.decodeTokenAddress(orders[i].takerAssetData);\r\n            require(inputErc20Contract == takerAssetAddress, \"Not all input assets correspond to input currency code.\");\r\n            address makerAssetAddress = ZeroExExchangeController.decodeTokenAddress(orders[i].makerAssetData);\r\n            require(outputErc20Contract == makerAssetAddress, \"Not all output assets correspond to output currency code.\");\r\n            if (orders[i].takerFee > 0) require(orders[i].takerFeeAssetData.length == 0, \"Taker fees are not supported.\"); // TODO: Support orders with taker fees (need to include taker fees in loss calculation)\r\n        }\r\n\r\n        // Market sell\r\n        uint256[2] memory filledAmounts = ZeroExExchangeController.marketSellOrdersFillOrKill(orders, signatures, takerAssetFillAmount, msg.value);\r\n\r\n        // Check 24-hour loss rate limit (if inputting a supported stablecoin)\r\n        if (inputErc20Contract != address(0)) {\r\n            uint256 inputDecimals = _currencyDecimals[inputCurrencyCode];\r\n            uint256 inputFilledAmountUsd = 18 >= inputDecimals ? filledAmounts[0].mul(10 ** (uint256(18).sub(inputDecimals))) : filledAmounts[0].div(10 ** (inputDecimals.sub(18))); // TODO: Factor in prices; for now we assume the value of all supported currencies = $1\r\n            uint256 outputDecimals = _currencyDecimals[outputCurrencyCode];\r\n            uint256 outputFilledAmountUsd = 18 >= outputDecimals ? filledAmounts[1].mul(10 ** (uint256(18).sub(outputDecimals))) : filledAmounts[1].div(10 ** (outputDecimals.sub(18))); // TODO: Factor in prices; for now we assume the value of all supported currencies = $1\r\n            int256 lossUsd = int256(inputFilledAmountUsd).sub(int256(outputFilledAmountUsd));\r\n            int256 lossRate = lossUsd.mul(1e18).div(int256(_rariFundManager.getRawFundBalance()));\r\n            require(checkLossRateLimit(lossRate), \"This exchange would violate the 24-hour loss rate limit.\");\r\n            _lossRateHistory.push(CurrencyExchangeLoss(block.timestamp, lossRate));\r\n        }\r\n\r\n        // Emit event\r\n        emit CurrencyExchange(inputCurrencyCode, outputCurrencyCode);\r\n\r\n        // Refund unused ETH\r\n        uint256 ethBalance = address(this).balance;\r\n        if (ethBalance > 0) msg.sender.transfer(ethBalance);\r\n    }\r\n\r\n    /**\r\n     * @dev Checks the 24-hour loss rate limit.\r\n     * This function was separated from the `marketSell0xOrdersFillOrKill` function to avoid the stack getting too deep.\r\n     * @param lossRate The loss rate of the next hypothetical currency exchange (scaled by 1e18).\r\n     * @return Boolean indicating success.\r\n     */\r\n    function checkLossRateLimit(int256 lossRate) internal view returns (bool) {\r\n        int256 lossRateLastDay = 0;\r\n\r\n        for (uint256 i = _lossRateHistory.length; i > 0; i--) {\r\n            if (_lossRateHistory[i - 1].timestamp < block.timestamp.sub(86400)) break;\r\n            lossRateLastDay = lossRateLastDay.add(_lossRateHistory[i - 1].lossRate);\r\n        }\r\n\r\n        return lossRateLastDay.add(lossRate) <= int256(_dailyLossRateLimit);\r\n    }\r\n}\r\n",
  "sourcePath": "/home/david/rari-contracts-v2.0.0/contracts/RariFundController.sol",
  "compiler": {
    "name": "solc",
    "version": "0.5.17+commit.d19bba13.Emscripten.clang"
  },
  "schemaVersion": "3.2.3",
  "updatedAt": "2020-08-11T17:25:25.812Z",
  "devdoc": {
    "author": "David Lucid <david@rari.capital> (https://github.com/davidlucid)",
    "methods": {
      "_getPoolBalance(uint8,string)": {
        "details": "Returns the fund controller's balance of the specified currency in the specified pool (without checking `_poolsWithFunds` first).Ideally, we can add the view modifier, but Compound's `getUnderlyingBalance` function (called by `CompoundPoolController.getBalance`) potentially modifies the state.",
        "params": {
          "currencyCode": "The currency code of the token.",
          "pool": "The index of the pool."
        }
      },
      "approveTo0x(address,uint256)": {
        "details": "Approves tokens to 0x without spending gas on every deposit.",
        "params": {
          "amount": "The amount of tokens to be approved.",
          "erc20Contract": "The ERC20 contract address of the token to be approved."
        },
        "return": "Boolean indicating success."
      },
      "approveToPool(uint8,string,uint256)": {
        "details": "Approves tokens to the specified pool without spending gas on every deposit.",
        "params": {
          "amount": "The amount of tokens to be approved.",
          "currencyCode": "The currency code of the token to be approved.",
          "pool": "The index of the pool."
        }
      },
      "constructor": {
        "details": "Constructor that sets supported ERC20 token contract addresses and supported pools for each supported token."
      },
      "depositToPool(uint8,string,uint256)": {
        "details": "Deposits funds to the specified pool.",
        "params": {
          "amount": "The amount of tokens to be deposited.",
          "currencyCode": "The currency code of the token to be deposited.",
          "pool": "The index of the pool."
        }
      },
      "disableFund()": {
        "details": "Disables primary functionality of this RariFundController so contract(s) can be upgraded."
      },
      "enableFund()": {
        "details": "Enables primary functionality of this RariFundController once contract(s) are upgraded."
      },
      "getAllBalances()": {
        "details": "Ideally, we can add the view modifier, but Compound's `getUnderlyingBalance` function (called by `getPoolBalance`) potentially modifies the state.",
        "return": "An array of currency codes, an array of corresponding fund controller contract balances for each currency code, an array of arrays of pool indexes for each currency code, and an array of arrays of corresponding balances at each pool index for each currency code."
      },
      "getDydxBalances()": {
        "details": "Returns the balances of all currencies supported by dYdX.",
        "return": "An array of ERC20 token contract addresses and a corresponding array of balances."
      },
      "getPoolBalance(uint8,string)": {
        "details": "Returns the fund controller's balance of the specified currency in the specified pool (checking `_poolsWithFunds` first to save gas).Ideally, we can add the view modifier, but Compound's `getUnderlyingBalance` function (called by `CompoundPoolController.getBalance`) potentially modifies the state.",
        "params": {
          "currencyCode": "The currency code of the token.",
          "pool": "The index of the pool."
        }
      },
      "hasCurrencyInPool(uint8,string)": {
        "details": "Return a boolean indicating if the fund controller has funds in `currencyCode` in `pool`.",
        "params": {
          "currencyCode": "The currency code of the token to check.",
          "pool": "The index of the pool to check."
        }
      },
      "isOwner()": {
        "details": "Returns true if the caller is the current owner."
      },
      "marketSell0xOrdersFillOrKill(string,string,(address,address,address,address,uint256,uint256,uint256,uint256,uint256,uint256,bytes,bytes,bytes,bytes)[],bytes[],uint256)": {
        "details": "Market sell to 0x exchange orders (reverting if `takerAssetFillAmount` is not filled or the 24-hour slippage limit is surpassed). We should be able to make this function external and use calldata for all parameters, but Solidity does not support calldata structs (https://github.com/ethereum/solidity/issues/5479).",
        "params": {
          "inputCurrencyCode": "The currency code of the token to be sold.",
          "orders": "The limit orders to be filled in ascending order of price.",
          "outputCurrencyCode": "The currency code of the token to be bought.",
          "signatures": "The signatures for the orders.",
          "takerAssetFillAmount": "The amount of the taker asset to sell (excluding taker fees)."
        }
      },
      "owner()": {
        "details": "Returns the address of the current owner."
      },
      "renounceOwnership()": {
        "details": "Leaves the contract without owner. It will not be possible to call `onlyOwner` functions anymore. Can only be called by the current owner.     * NOTE: Renouncing ownership will leave the contract without an owner, thereby removing any functionality that is only available to the owner."
      },
      "setAaveReferralCode(uint16)": {
        "details": "Sets the referral code for Aave deposits.",
        "params": {
          "referralCode": "The referral code."
        }
      },
      "setDailyLossRateLimit(uint256)": {
        "details": "Sets or upgrades the daily limit on 0x exchange order loss over raw total fund balance.",
        "params": {
          "limit": "The daily limit on 0x exchange order loss over raw total fund balance (scaled by 1e18)."
        }
      },
      "setFundManager(address)": {
        "details": "Sets or upgrades the RariFundManager of the RariFundController.",
        "params": {
          "newContract": "The address of the new RariFundManager contract."
        }
      },
      "setFundRebalancer(address)": {
        "details": "Sets or upgrades the rebalancer of the RariFundController.",
        "params": {
          "newAddress": "The Ethereum address of the new rebalancer server."
        }
      },
      "transferOwnership(address)": {
        "details": "Transfers ownership of the contract to a new account (`newOwner`). Can only be called by the current owner."
      },
      "upgradeFundController(address)": {
        "details": "Sets or upgrades RariFundController by withdrawing all tokens from all pools and forwarding them from the old to the new.",
        "params": {
          "newContract": "The address of the new RariFundController contract."
        }
      },
      "upgradeFundController(address,address)": {
        "details": "Sets or upgrades RariFundController by forwarding tokens from the old to the new.",
        "params": {
          "erc20Contract": "The ERC20 contract address of the token to forward.",
          "newContract": "The address of the new RariFundController contract."
        }
      },
      "withdrawAllFromPool(uint8,string)": {
        "details": "Withdraws all funds from the specified pool.",
        "params": {
          "currencyCode": "The ERC20 contract of the token to be withdrawn.",
          "pool": "The index of the pool."
        }
      },
      "withdrawAllFromPoolOnUpgrade(uint8,string)": {
        "details": "Withdraws all funds from the specified pool (without requiring the fund to be enabled).",
        "params": {
          "currencyCode": "The ERC20 contract of the token to be withdrawn.",
          "pool": "The index of the pool."
        }
      },
      "withdrawFromPool(uint8,string,uint256)": {
        "details": "Withdraws funds from the specified pool.",
        "params": {
          "amount": "The amount of tokens to be withdrawn.",
          "currencyCode": "The currency code of the token to be withdrawn.",
          "pool": "The index of the pool."
        }
      },
      "withdrawFromPoolKnowingBalance(uint8,string,uint256,uint256)": {
        "details": "Withdraws funds from the specified pool (caching the `initialBalance` parameter).",
        "params": {
          "amount": "The amount of tokens to be withdrawn.",
          "currencyCode": "The currency code of the token to be withdrawn.",
          "initialBalance": "The fund's balance of the specified currency in the specified pool before the withdrawal.",
          "pool": "The index of the pool."
        }
      }
    },
    "title": "RariFundController"
  },
  "userdoc": {
    "methods": {
      "getAllBalances()": {
        "notice": "Returns the fund controller's contract balance of each currency and balance of each pool of each currency (checking `_poolsWithFunds` first to save gas)."
      }
    },
    "notice": "This contract handles deposits to and withdrawals from the liquidity pools that power RariFund as well as currency exchanges via 0x."
  }
}