{
  "contractName": "ZeroExExchangeController",
  "abi": [
    {
      "constant": true,
      "inputs": [],
      "name": "VERSION",
      "outputs": [
        {
          "internalType": "string",
          "name": "",
          "type": "string"
        }
      ],
      "payable": false,
      "stateMutability": "view",
      "type": "function"
    },
    {
      "constant": true,
      "inputs": [
        {
          "internalType": "bytes",
          "name": "assetData",
          "type": "bytes"
        }
      ],
      "name": "decodeTokenAddress",
      "outputs": [
        {
          "internalType": "address",
          "name": "",
          "type": "address"
        }
      ],
      "payable": false,
      "stateMutability": "pure",
      "type": "function"
    },
    {
      "constant": true,
      "inputs": [
        {
          "internalType": "address",
          "name": "erc20Contract",
          "type": "address"
        }
      ],
      "name": "allowance",
      "outputs": [
        {
          "internalType": "uint256",
          "name": "",
          "type": "uint256"
        }
      ],
      "payable": false,
      "stateMutability": "view",
      "type": "function"
    }
  ],
  "bytecode": "0x6116f3610026600b82828239805160001a60731461001957fe5b30600052607381538281f3fe730000000000000000000000000000000000000000301460806040526004361061006c5760003560e01c8063095ea7b3146100715780633e5beab9146100935780635917cc31146100bc5780637a8c15f1146100dc578063bf05554014610109578063ffa1ad7414610129575b600080fd5b81801561007d57600080fd5b5061009161008c366004610d03565b61013e565b005b6100a66100a1366004610ce5565b61025f565b6040516100b39190611570565b60405180910390f35b6100cf6100ca366004610deb565b6102fc565b6040516100b39190611423565b8180156100e857600080fd5b506100fc6100f7366004610d3d565b6103f8565b6040516100b39190611499565b81801561011557600080fd5b506100fc610124366004610d3d565b610524565b6101316105d3565b6040516100b391906114cf565b604051636eb1769f60e11b815282906000906001600160a01b0383169063dd62ed3e906101859030907395e6f48254609a6ee006f7d493c8e5fb97094cef90600401611431565b60206040518083038186803b15801561019d57600080fd5b505afa1580156101b1573d6000803e3d6000fd5b505050506040513d601f19601f820116820180604052506101d59190810190610e4b565b9050828114156101e657505061025b565b6000831180156101f65750600081115b1561022a5761022a6001600160a01b0383167395e6f48254609a6ee006f7d493c8e5fb97094cef600063ffffffff6105f416565b6102586001600160a01b0383167395e6f48254609a6ee006f7d493c8e5fb97094cef8563ffffffff6105f416565b50505b5050565b604051636eb1769f60e11b81526000906001600160a01b0383169063dd62ed3e906102a49030907395e6f48254609a6ee006f7d493c8e5fb97094cef90600401611431565b60206040518083038186803b1580156102bc57600080fd5b505afa1580156102d0573d6000803e3d6000fd5b505050506040513d601f19601f820116820180604052506102f49190810190610e4b565b90505b919050565b600080610349600085858080601f016020809104026020016040519081016040528093929190818152602001838380828437600092019190915250929392505063ffffffff6106f6169050565b9050630f47261b60e41b6001600160e01b03198216148061037a575063dc1600f360e01b6001600160e01b03198216145b156103d1576103c9601085858080601f016020809104026020016040519081016040528093929190818152602001838380828437600092019190915250929392505063ffffffff61072f169050565b9150506103f2565b60405162461bcd60e51b81526004016103e990611530565b60405180910390fd5b92915050565b6104006108e3565b60008551116104215760405162461bcd60e51b81526004016103e9906114e0565b83518551146104425760405162461bcd60e51b81526004016103e990611500565b600083116104625760405162461bcd60e51b81526004016103e990611510565b61046a610901565b60405163a6c3bf3360e01b81527361935cbdd02287b511119ddb11aeb42f1593b7ef9063a6c3bf339085906104a7908a9089908b90600401611467565b60a0604051808303818588803b1580156104c057600080fd5b505af11580156104d4573d6000803e3d6000fd5b50505050506040513d601f19601f820116820180604052506104f99190810190610e2d565b905060405180604001604052808260200151815260200182600001518152509150505b949350505050565b61052c6108e3565b600085511161054d5760405162461bcd60e51b81526004016103e9906114e0565b835185511461056e5760405162461bcd60e51b81526004016103e990611500565b6000831161058e5760405162461bcd60e51b81526004016103e990611550565b610596610901565b604051638bc8efb360e01b81527361935cbdd02287b511119ddb11aeb42f1593b7ef90638bc8efb39085906104a7908a9089908b90600401611467565b604051806040016040528060058152602001640322e302e360dc1b81525081565b80158061067c5750604051636eb1769f60e11b81526001600160a01b0384169063dd62ed3e9061062a9030908690600401611431565b60206040518083038186803b15801561064257600080fd5b505afa158015610656573d6000803e3d6000fd5b505050506040513d601f19601f8201168201806040525061067a9190810190610e4b565b155b6106985760405162461bcd60e51b81526004016103e990611540565b6040516106f190849063095ea7b360e01b906106ba908690869060240161144c565b60408051601f198184030181529190526020810180516001600160e01b03166001600160e01b031990931692909217909152610762565b505050565b6000816004018351101561071c5761071c6107176003855185600401610847565b6108a2565b5001602001516001600160e01b03191690565b60008160140183511015610750576107506107176004855185601401610847565b5001601401516001600160a01b031690565b610774826001600160a01b03166108aa565b6107905760405162461bcd60e51b81526004016103e990611560565b60006060836001600160a01b0316836040516107ac9190611417565b6000604051808303816000865af19150503d80600081146107e9576040519150601f19603f3d011682016040523d82523d6000602084013e6107ee565b606091505b5091509150816108105760405162461bcd60e51b81526004016103e9906114f0565b805115610258578080602001905161082b9190810190610dcd565b6102585760405162461bcd60e51b81526004016103e990611520565b6060632800659560e01b848484604051602401610866939291906114a7565b60408051601f198184030181529190526020810180516001600160e01b03166001600160e01b03199093169290921790915290505b9392505050565b805160208201fd5b6000813f7fc5d2460186f7233c927e7db2dcc703c0e500b653ca82273b7bfad8045d85a47081811480159061051c575050151592915050565b60405180604001604052806002906020820280388339509192915050565b6040518060a0016040528060008152602001600081526020016000815260200160008152602001600081525090565b80356103f28161168a565b600082601f83011261094c57600080fd5b813561095f61095a826115a5565b61157e565b81815260209384019390925082018360005b8381101561099d57813586016109878882610a58565b8452506020928301929190910190600101610971565b5050505092915050565b600082601f8301126109b857600080fd5b81356109c661095a826115a5565b81815260209384019390925082018360005b8381101561099d57813586016109ee8882610b2a565b84525060209283019291909101906001016109d8565b80516103f28161169e565b60008083601f840112610a2157600080fd5b50813567ffffffffffffffff811115610a3957600080fd5b602083019150836001820283011115610a5157600080fd5b9250929050565b600082601f830112610a6957600080fd5b8135610a7761095a826115c6565b91508082526020830160208301858383011115610a9357600080fd5b610a9e83828461163b565b50505092915050565b600060a08284031215610ab957600080fd5b610ac360a061157e565b90506000610ad18484610cda565b8252506020610ae284848301610cda565b6020830152506040610af684828501610cda565b6040830152506060610b0a84828501610cda565b6060830152506080610b1e84828501610cda565b60808301525092915050565b60006101c08284031215610b3d57600080fd5b610b486101c061157e565b90506000610b568484610930565b8252506020610b6784848301610930565b6020830152506040610b7b84828501610930565b6040830152506060610b8f84828501610930565b6060830152506080610ba384828501610ccf565b60808301525060a0610bb784828501610ccf565b60a08301525060c0610bcb84828501610ccf565b60c08301525060e0610bdf84828501610ccf565b60e083015250610100610bf484828501610ccf565b61010083015250610120610c0a84828501610ccf565b6101208301525061014082013567ffffffffffffffff811115610c2c57600080fd5b610c3884828501610a58565b6101408301525061016082013567ffffffffffffffff811115610c5a57600080fd5b610c6684828501610a58565b6101608301525061018082013567ffffffffffffffff811115610c8857600080fd5b610c9484828501610a58565b610180830152506101a082013567ffffffffffffffff811115610cb657600080fd5b610cc284828501610a58565b6101a08301525092915050565b80356103f2816116a7565b80516103f2816116a7565b600060208284031215610cf757600080fd5b600061051c8484610930565b60008060408385031215610d1657600080fd5b6000610d228585610930565b9250506020610d3385828601610ccf565b9150509250929050565b60008060008060808587031215610d5357600080fd5b843567ffffffffffffffff811115610d6a57600080fd5b610d76878288016109a7565b945050602085013567ffffffffffffffff811115610d9357600080fd5b610d9f8782880161093b565b9350506040610db087828801610ccf565b9250506060610dc187828801610ccf565b91505092959194509250565b600060208284031215610ddf57600080fd5b600061051c8484610a04565b60008060208385031215610dfe57600080fd5b823567ffffffffffffffff811115610e1557600080fd5b610e2185828601610a0f565b92509250509250929050565b600060a08284031215610e3f57600080fd5b600061051c8484610aa7565b600060208284031215610e5d57600080fd5b600061051c8484610cda565b600061089b8383610ff6565b600061089b83836112d3565b6000610e8d838361140e565b505060200190565b610e9e8161160a565b82525050565b6000610eaf826115f7565b610eb98185611601565b935083602082028501610ecb856115ee565b8060005b85811015610f055784840389528151610ee88582610e69565b9450610ef3836115ee565b60209a909a0199925050600101610ecf565b5091979650505050505050565b6000610f1d826115f7565b610f278185611601565b935083602082028501610f39856115ee565b8060005b85811015610f055784840389528151610f568582610e75565b9450610f61836115ee565b60209a909a0199925050600101610f3d565b610f7c816115fb565b610f8681846102f7565b9250610f91826115f4565b8060005b83811015610fbf578151610fa98782610e81565b9650610fb4836115ee565b925050600101610f95565b505050505050565b6000610fd2826115f7565b610fdc81856102f7565b9350610fec818560208601611647565b9290920192915050565b6000611001826115f7565b61100b8185611601565b935061101b818560208601611647565b61102481611673565b9093019392505050565b610e9e81611630565b6000611044603683611601565b7f4174206c65617374206f6e65206f7264657220616e64206d61746368696e672081527539b4b3b730ba3ab9329034b9903932b8bab4b932b21760511b602082015260400192915050565b600061109c602083611601565b7f5361666545524332303a206c6f772d6c6576656c2063616c6c206661696c6564815260200192915050565b60006110d5603183611601565b7f4d69736d61746368206265747765656e206e756d626572206f66206f72646572815270399030b7321039b4b3b730ba3ab932b99760791b602082015260400192915050565b6000611128602f83611601565b7f54616b65722061737365742066696c6c20616d6f756e74206d7573742062652081526e33b932b0ba32b9103a3430b710181760891b602082015260400192915050565b6000611179602a83611601565b7f5361666545524332303a204552433230206f7065726174696f6e20646964206e8152691bdd081cdd58d8d9595960b21b602082015260400192915050565b60006111c5601783611601565b7f496e76616c69642061737365742070726f78792049442e000000000000000000815260200192915050565b60006111fe603683611601565b7f5361666545524332303a20617070726f76652066726f6d206e6f6e2d7a65726f81527520746f206e6f6e2d7a65726f20616c6c6f77616e636560501b602082015260400192915050565b6000611256602f83611601565b7f4d616b65722061737365742066696c6c20616d6f756e74206d7573742062652081526e33b932b0ba32b9103a3430b710181760891b602082015260400192915050565b60006112a7601f83611601565b7f5361666545524332303a2063616c6c20746f206e6f6e2d636f6e747261637400815260200192915050565b80516000906101c08401906112e88582610e95565b5060208301516112fb6020860182610e95565b50604083015161130e6040860182610e95565b5060608301516113216060860182610e95565b506080830151611334608086018261140e565b5060a083015161134760a086018261140e565b5060c083015161135a60c086018261140e565b5060e083015161136d60e086018261140e565b5061010083015161138261010086018261140e565b5061012083015161139761012086018261140e565b506101408301518482036101408601526113b18282610ff6565b9150506101608301518482036101608601526113cd8282610ff6565b9150506101808301518482036101808601526113e98282610ff6565b9150506101a08301518482036101a08601526114058282610ff6565b95945050505050565b610e9e816115f4565b600061089b8284610fc7565b602081016103f28284610e95565b6040810161143f8285610e95565b61089b6020830184610e95565b6040810161145a8285610e95565b61089b602083018461140e565b606080825281016114788186610f12565b9050611487602083018561140e565b81810360408301526114058184610ea4565b604081016103f28284610f73565b606081016114b5828661102e565b6114c2602083018561140e565b61051c604083018461140e565b6020808252810161089b8184610ff6565b602080825281016102f481611037565b602080825281016102f48161108f565b602080825281016102f4816110c8565b602080825281016102f48161111b565b602080825281016102f48161116c565b602080825281016102f4816111b8565b602080825281016102f4816111f1565b602080825281016102f481611249565b602080825281016102f48161129a565b602081016103f2828461140e565b60405181810167ffffffffffffffff8111828210171561159d57600080fd5b604052919050565b600067ffffffffffffffff8211156115bc57600080fd5b5060209081020190565b600067ffffffffffffffff8211156115dd57600080fd5b506020601f91909101601f19160190565b60200190565b90565b5190565b50600290565b90815260200190565b60006102f482611624565b151590565b806102f78161167d565b6001600160a01b031690565b60006102f48261161a565b82818337506000910152565b60005b8381101561166257818101518382015260200161164a565b838111156102585750506000910152565b601f01601f191690565b6008811061168757fe5b50565b6116938161160a565b811461168757600080fd5b61169381611615565b611693816115f456fea365627a7a723158203459bd59d53d01c1fbaee8848c926d9e7b115aa9c9aaa03810c37f59c08543e96c6578706572696d656e74616cf564736f6c63430005110040",
  "source": "/**\r\n * COPYRIGHT  2020 RARI CAPITAL, INC. ALL RIGHTS RESERVED.\r\n * Anyone is free to integrate the public APIs (described in `API.md` of the `rari-contracts` package) of the official smart contract instances deployed by Rari Capital, Inc. in any application (commercial or noncommercial and under any license) benefitting Rari Capital, Inc.\r\n * Only those with explicit permission from a co-founder of Rari Capital (Jai Bhavnani, Jack Lipstone, or David Lucid) are permitted to study, review, or analyze any part of the source code contained in the `rari-contracts` package.\r\n * Reuse (including deployment of smart contracts other than private testing on a private network), modification, redistribution, or sublicensing of any source code contained in the `rari-contracts` package is not permitted without the explicit permission of David Lucid of Rari Capital, Inc.\r\n * No one is permitted to use the software for any purpose other than those allowed by this license.\r\n * This license is liable to change at any time at the sole discretion of David Lucid of Rari Capital, Inc.\r\n */\r\n\r\npragma solidity ^0.5.7;\r\npragma experimental ABIEncoderV2;\r\n\r\nimport \"@openzeppelin/contracts/math/SafeMath.sol\";\r\nimport \"@openzeppelin/contracts/token/ERC20/SafeERC20.sol\";\r\n\r\nimport \"@0x/contracts-exchange-libs/contracts/src/LibFillResults.sol\";\r\nimport \"@0x/contracts-exchange-libs/contracts/src/LibOrder.sol\";\r\nimport \"@0x/contracts-exchange/contracts/src/interfaces/IExchange.sol\";\r\nimport \"@0x/contracts-utils/contracts/src/LibBytes.sol\";\r\n\r\n/**\r\n * @title ZeroExExchangeController\r\n * @author David Lucid <david@rari.capital> (https://github.com/davidlucid)\r\n * @dev This library handles exchanges via 0x.\r\n */\r\nlibrary ZeroExExchangeController {\r\n    using SafeMath for uint256;\r\n    using SafeERC20 for IERC20;\r\n    using LibBytes for bytes;\r\n\r\n    /**\r\n     * @notice Package version of `rari-contracts` when this contract was deployed.\r\n     */\r\n    string public constant VERSION = \"2.0.0\";\r\n\r\n    /**\r\n     * @dev 0x v3 Exchange contract address.\r\n     */\r\n    address constant private EXCHANGE_CONTRACT = 0x61935CbDd02287B511119DDb11Aeb42F1593b7Ef;\r\n\r\n    /**\r\n     * @dev 0x v3 Exchange contract object.\r\n     */\r\n    IExchange constant private _exchange = IExchange(EXCHANGE_CONTRACT);\r\n\r\n    /**\r\n     * @dev 0x v3 ERC20Proxy contract address.\r\n     */\r\n    address constant private ERC20_PROXY_CONTRACT = 0x95E6F48254609A6ee006F7D493c8e5fB97094ceF;\r\n\r\n    /**\r\n     * @dev Decodes ERC20 or ERC20Bridge asset data.\r\n     * @param assetData The ERC20 or ERC20Bridge asset data.\r\n     * @return The asset token address.\r\n     */\r\n    function decodeTokenAddress(bytes calldata assetData) external pure returns (address) {\r\n        bytes4 assetProxyId = assetData.readBytes4(0);\r\n        if (assetProxyId == 0xf47261b0 || assetProxyId == 0xdc1600f3) return assetData.readAddress(16);\r\n        revert(\"Invalid asset proxy ID.\");\r\n    }\r\n\r\n    /**\r\n     * @dev Gets allowance of the specified token to 0x.\r\n     * @param erc20Contract The ERC20 contract address of the token.\r\n     */\r\n    function allowance(address erc20Contract) external view returns (uint256) {\r\n        return IERC20(erc20Contract).allowance(address(this), ERC20_PROXY_CONTRACT);\r\n    }\r\n\r\n    /**\r\n     * @dev Approves tokens to 0x without spending gas on every deposit.\r\n     * @param erc20Contract The ERC20 contract address of the token.\r\n     * @param amount Amount of the specified token to approve to dYdX.\r\n     */\r\n    function approve(address erc20Contract, uint256 amount) external {\r\n        IERC20 token = IERC20(erc20Contract);\r\n        uint256 _allowance = token.allowance(address(this), ERC20_PROXY_CONTRACT);\r\n        if (_allowance == amount) return;\r\n        if (amount > 0 && _allowance > 0) token.safeApprove(ERC20_PROXY_CONTRACT, 0);\r\n        token.safeApprove(ERC20_PROXY_CONTRACT, amount);\r\n        return;\r\n    }\r\n\r\n    /**\r\n     * @dev Market sells to 0x exchange orders up to a certain amount of input.\r\n     * @param orders The limit orders to be filled in ascending order of price.\r\n     * @param signatures The signatures for the orders.\r\n     * @param takerAssetFillAmount The amount of the taker asset to sell (excluding taker fees).\r\n     * @param protocolFee The protocol fee in ETH to pay to 0x.\r\n     * @return Array containing the taker asset filled amount (sold) and maker asset filled amount (bought).\r\n     */\r\n    function marketSellOrdersFillOrKill(LibOrder.Order[] memory orders, bytes[] memory signatures, uint256 takerAssetFillAmount, uint256 protocolFee) public returns (uint256[2] memory) {\r\n        require(orders.length > 0, \"At least one order and matching signature is required.\");\r\n        require(orders.length == signatures.length, \"Mismatch between number of orders and signatures.\");\r\n        require(takerAssetFillAmount > 0, \"Taker asset fill amount must be greater than 0.\");\r\n        LibFillResults.FillResults memory fillResults = _exchange.marketSellOrdersFillOrKill.value(protocolFee)(orders, takerAssetFillAmount, signatures);\r\n        return [fillResults.takerAssetFilledAmount, fillResults.makerAssetFilledAmount];\r\n    }\r\n\r\n    /**\r\n     * @dev Market buys from 0x exchange orders up to a certain amount of output.\r\n     * @param orders The limit orders to be filled in ascending order of price.\r\n     * @param signatures The signatures for the orders.\r\n     * @param makerAssetFillAmount The amount of the maker asset to buy.\r\n     * @param protocolFee The protocol fee in ETH to pay to 0x.\r\n     * @return Array containing the taker asset filled amount (sold) and maker asset filled amount (bought).\r\n     */\r\n    function marketBuyOrdersFillOrKill(LibOrder.Order[] memory orders, bytes[] memory signatures, uint256 makerAssetFillAmount, uint256 protocolFee) public returns (uint256[2] memory) {\r\n        require(orders.length > 0, \"At least one order and matching signature is required.\");\r\n        require(orders.length == signatures.length, \"Mismatch between number of orders and signatures.\");\r\n        require(makerAssetFillAmount > 0, \"Maker asset fill amount must be greater than 0.\");\r\n        LibFillResults.FillResults memory fillResults = _exchange.marketBuyOrdersFillOrKill.value(protocolFee)(orders, makerAssetFillAmount, signatures);\r\n        return [fillResults.takerAssetFilledAmount, fillResults.makerAssetFilledAmount];\r\n    }\r\n}\r\n",
  "sourcePath": "/home/david/rari-contracts-v2.0.0/contracts/lib/exchanges/ZeroExExchangeController.sol",
  "compiler": {
    "name": "solc",
    "version": "0.5.17+commit.d19bba13.Emscripten.clang"
  },
  "schemaVersion": "3.2.3",
  "updatedAt": "2020-08-11T17:25:25.910Z",
  "devdoc": {
    "author": "David Lucid <david@rari.capital> (https://github.com/davidlucid)",
    "details": "This library handles exchanges via 0x.",
    "methods": {
      "allowance(address)": {
        "details": "Gets allowance of the specified token to 0x.",
        "params": {
          "erc20Contract": "The ERC20 contract address of the token."
        }
      },
      "approve(address,uint256)": {
        "details": "Approves tokens to 0x without spending gas on every deposit.",
        "params": {
          "amount": "Amount of the specified token to approve to dYdX.",
          "erc20Contract": "The ERC20 contract address of the token."
        }
      },
      "decodeTokenAddress(bytes)": {
        "details": "Decodes ERC20 or ERC20Bridge asset data.",
        "params": {
          "assetData": "The ERC20 or ERC20Bridge asset data."
        },
        "return": "The asset token address."
      },
      "marketBuyOrdersFillOrKill(LibOrder.Order[],bytes[],uint256,uint256)": {
        "details": "Market buys from 0x exchange orders up to a certain amount of output.",
        "params": {
          "makerAssetFillAmount": "The amount of the maker asset to buy.",
          "orders": "The limit orders to be filled in ascending order of price.",
          "protocolFee": "The protocol fee in ETH to pay to 0x.",
          "signatures": "The signatures for the orders."
        },
        "return": "Array containing the taker asset filled amount (sold) and maker asset filled amount (bought)."
      },
      "marketSellOrdersFillOrKill(LibOrder.Order[],bytes[],uint256,uint256)": {
        "details": "Market sells to 0x exchange orders up to a certain amount of input.",
        "params": {
          "orders": "The limit orders to be filled in ascending order of price.",
          "protocolFee": "The protocol fee in ETH to pay to 0x.",
          "signatures": "The signatures for the orders.",
          "takerAssetFillAmount": "The amount of the taker asset to sell (excluding taker fees)."
        },
        "return": "Array containing the taker asset filled amount (sold) and maker asset filled amount (bought)."
      }
    },
    "title": "ZeroExExchangeController"
  },
  "userdoc": {
    "methods": {}
  }
}