{
  "contractName": "ZeroExExchangeController",
  "abi": [
    {
      "constant": true,
      "inputs": [],
      "name": "VERSION",
      "outputs": [
        {
          "internalType": "string",
          "name": "",
          "type": "string"
        }
      ],
      "payable": false,
      "stateMutability": "view",
      "type": "function"
    },
    {
      "constant": true,
      "inputs": [
        {
          "internalType": "bytes",
          "name": "assetData",
          "type": "bytes"
        }
      ],
      "name": "decodeTokenAddress",
      "outputs": [
        {
          "internalType": "address",
          "name": "",
          "type": "address"
        }
      ],
      "payable": false,
      "stateMutability": "pure",
      "type": "function"
    },
    {
      "constant": true,
      "inputs": [
        {
          "internalType": "address",
          "name": "erc20Contract",
          "type": "address"
        }
      ],
      "name": "allowance",
      "outputs": [
        {
          "internalType": "uint256",
          "name": "",
          "type": "uint256"
        }
      ],
      "payable": false,
      "stateMutability": "view",
      "type": "function"
    }
  ],
  "bytecode": "0x611721610026600b82828239805160001a60731461001957fe5b30600052607381538281f3fe730000000000000000000000000000000000000000301460806040526004361061006c5760003560e01c8063095ea7b3146100715780633e5beab9146100a75780635917cc31146100c75780637a8c15f1146100e7578063bf05554014610114578063ffa1ad7414610134575b600080fd5b81801561007d57600080fd5b5061009161008c366004610d1a565b610149565b60405161009e91906114c7565b60405180910390f35b6100ba6100b5366004610cfc565b610276565b60405161009e919061159e565b6100da6100d5366004610e02565b610313565b60405161009e9190611443565b8180156100f357600080fd5b50610107610102366004610d54565b610409565b60405161009e91906114b9565b81801561012057600080fd5b5061010761012f366004610d54565b610535565b61013c6105e4565b60405161009e91906114fd565b604051636eb1769f60e11b8152600090839082906001600160a01b0383169063dd62ed3e906101929030907395e6f48254609a6ee006f7d493c8e5fb97094cef90600401611451565b60206040518083038186803b1580156101aa57600080fd5b505afa1580156101be573d6000803e3d6000fd5b505050506040513d601f19601f820116820180604052506101e29190810190610e62565b9050838114156101f757600192505050610270565b6000841180156102075750600081115b1561023b5761023b6001600160a01b0383167395e6f48254609a6ee006f7d493c8e5fb97094cef600063ffffffff61060516565b6102696001600160a01b0383167395e6f48254609a6ee006f7d493c8e5fb97094cef8663ffffffff61060516565b6001925050505b92915050565b604051636eb1769f60e11b81526000906001600160a01b0383169063dd62ed3e906102bb9030907395e6f48254609a6ee006f7d493c8e5fb97094cef90600401611451565b60206040518083038186803b1580156102d357600080fd5b505afa1580156102e7573d6000803e3d6000fd5b505050506040513d601f19601f8201168201806040525061030b9190810190610e62565b90505b919050565b600080610360600085858080601f016020809104026020016040519081016040528093929190818152602001838380828437600092019190915250929392505063ffffffff610707169050565b9050630f47261b60e41b6001600160e01b031982161480610391575063dc1600f360e01b6001600160e01b03198216145b156103e8576103e0601085858080601f016020809104026020016040519081016040528093929190818152602001838380828437600092019190915250929392505063ffffffff610740169050565b915050610270565b60405162461bcd60e51b81526004016104009061155e565b60405180910390fd5b6104116108fa565b60008551116104325760405162461bcd60e51b81526004016104009061150e565b83518551146104535760405162461bcd60e51b81526004016104009061152e565b600083116104735760405162461bcd60e51b81526004016104009061153e565b61047b610918565b60405163a6c3bf3360e01b81527361935cbdd02287b511119ddb11aeb42f1593b7ef9063a6c3bf339085906104b8908a9089908b90600401611487565b60a0604051808303818588803b1580156104d157600080fd5b505af11580156104e5573d6000803e3d6000fd5b50505050506040513d601f19601f8201168201806040525061050a9190810190610e44565b905060405180604001604052808260200151815260200182600001518152509150505b949350505050565b61053d6108fa565b600085511161055e5760405162461bcd60e51b81526004016104009061150e565b835185511461057f5760405162461bcd60e51b81526004016104009061152e565b6000831161059f5760405162461bcd60e51b81526004016104009061157e565b6105a7610918565b604051638bc8efb360e01b81527361935cbdd02287b511119ddb11aeb42f1593b7ef90638bc8efb39085906104b8908a9089908b90600401611487565b604051806040016040528060058152602001640322e302e360dc1b81525081565b80158061068d5750604051636eb1769f60e11b81526001600160a01b0384169063dd62ed3e9061063b9030908690600401611451565b60206040518083038186803b15801561065357600080fd5b505afa158015610667573d6000803e3d6000fd5b505050506040513d601f19601f8201168201806040525061068b9190810190610e62565b155b6106a95760405162461bcd60e51b81526004016104009061156e565b60405161070290849063095ea7b360e01b906106cb908690869060240161146c565b60408051601f198184030181529190526020810180516001600160e01b03166001600160e01b031990931692909217909152610773565b505050565b6000816004018351101561072d5761072d610728600385518560040161085e565b6108b9565b5001602001516001600160e01b03191690565b6000816014018351101561076157610761610728600485518560140161085e565b5001601401516001600160a01b031690565b610785826001600160a01b03166108c1565b6107a15760405162461bcd60e51b81526004016104009061158e565b60006060836001600160a01b0316836040516107bd9190611437565b6000604051808303816000865af19150503d80600081146107fa576040519150601f19603f3d011682016040523d82523d6000602084013e6107ff565b606091505b5091509150816108215760405162461bcd60e51b81526004016104009061151e565b805115610858578080602001905161083c9190810190610de4565b6108585760405162461bcd60e51b81526004016104009061154e565b50505050565b6060632800659560e01b84848460405160240161087d939291906114d5565b60408051601f198184030181529190526020810180516001600160e01b03166001600160e01b03199093169290921790915290505b9392505050565b805160208201fd5b6000813f7fc5d2460186f7233c927e7db2dcc703c0e500b653ca82273b7bfad8045d85a47081811480159061052d575050151592915050565b60405180604001604052806002906020820280388339509192915050565b6040518060a0016040528060008152602001600081526020016000815260200160008152602001600081525090565b8035610270816116b8565b600082601f83011261096357600080fd5b8135610976610971826115d3565b6115ac565b81815260209384019390925082018360005b838110156109b4578135860161099e8882610a6f565b8452506020928301929190910190600101610988565b5050505092915050565b600082601f8301126109cf57600080fd5b81356109dd610971826115d3565b81815260209384019390925082018360005b838110156109b45781358601610a058882610b41565b84525060209283019291909101906001016109ef565b8051610270816116cc565b60008083601f840112610a3857600080fd5b50813567ffffffffffffffff811115610a5057600080fd5b602083019150836001820283011115610a6857600080fd5b9250929050565b600082601f830112610a8057600080fd5b8135610a8e610971826115f4565b91508082526020830160208301858383011115610aaa57600080fd5b610ab5838284611669565b50505092915050565b600060a08284031215610ad057600080fd5b610ada60a06115ac565b90506000610ae88484610cf1565b8252506020610af984848301610cf1565b6020830152506040610b0d84828501610cf1565b6040830152506060610b2184828501610cf1565b6060830152506080610b3584828501610cf1565b60808301525092915050565b60006101c08284031215610b5457600080fd5b610b5f6101c06115ac565b90506000610b6d8484610947565b8252506020610b7e84848301610947565b6020830152506040610b9284828501610947565b6040830152506060610ba684828501610947565b6060830152506080610bba84828501610ce6565b60808301525060a0610bce84828501610ce6565b60a08301525060c0610be284828501610ce6565b60c08301525060e0610bf684828501610ce6565b60e083015250610100610c0b84828501610ce6565b61010083015250610120610c2184828501610ce6565b6101208301525061014082013567ffffffffffffffff811115610c4357600080fd5b610c4f84828501610a6f565b6101408301525061016082013567ffffffffffffffff811115610c7157600080fd5b610c7d84828501610a6f565b6101608301525061018082013567ffffffffffffffff811115610c9f57600080fd5b610cab84828501610a6f565b610180830152506101a082013567ffffffffffffffff811115610ccd57600080fd5b610cd984828501610a6f565b6101a08301525092915050565b8035610270816116d5565b8051610270816116d5565b600060208284031215610d0e57600080fd5b600061052d8484610947565b60008060408385031215610d2d57600080fd5b6000610d398585610947565b9250506020610d4a85828601610ce6565b9150509250929050565b60008060008060808587031215610d6a57600080fd5b843567ffffffffffffffff811115610d8157600080fd5b610d8d878288016109be565b945050602085013567ffffffffffffffff811115610daa57600080fd5b610db687828801610952565b9350506040610dc787828801610ce6565b9250506060610dd887828801610ce6565b91505092959194509250565b600060208284031215610df657600080fd5b600061052d8484610a1b565b60008060208385031215610e1557600080fd5b823567ffffffffffffffff811115610e2c57600080fd5b610e3885828601610a26565b92509250509250929050565b600060a08284031215610e5657600080fd5b600061052d8484610abe565b600060208284031215610e7457600080fd5b600061052d8484610cf1565b60006108b28383611016565b60006108b283836112f3565b6000610ea4838361142e565b505060200190565b610eb581611638565b82525050565b6000610ec682611625565b610ed0818561162f565b935083602082028501610ee28561161c565b8060005b85811015610f1c5784840389528151610eff8582610e80565b9450610f0a8361161c565b60209a909a0199925050600101610ee6565b5091979650505050505050565b6000610f3482611625565b610f3e818561162f565b935083602082028501610f508561161c565b8060005b85811015610f1c5784840389528151610f6d8582610e8c565b9450610f788361161c565b60209a909a0199925050600101610f54565b610f9381611629565b610f9d818461030e565b9250610fa882611622565b8060005b83811015610fd6578151610fc08782610e98565b9650610fcb8361161c565b925050600101610fac565b505050505050565b610eb581611643565b6000610ff282611625565b610ffc818561030e565b935061100c818560208601611675565b9290920192915050565b600061102182611625565b61102b818561162f565b935061103b818560208601611675565b611044816116a1565b9093019392505050565b610eb58161165e565b600061106460368361162f565b7f4174206c65617374206f6e65206f7264657220616e64206d61746368696e672081527539b4b3b730ba3ab9329034b9903932b8bab4b932b21760511b602082015260400192915050565b60006110bc60208361162f565b7f5361666545524332303a206c6f772d6c6576656c2063616c6c206661696c6564815260200192915050565b60006110f560318361162f565b7f4d69736d61746368206265747765656e206e756d626572206f66206f72646572815270399030b7321039b4b3b730ba3ab932b99760791b602082015260400192915050565b6000611148602f8361162f565b7f54616b65722061737365742066696c6c20616d6f756e74206d7573742062652081526e33b932b0ba32b9103a3430b710181760891b602082015260400192915050565b6000611199602a8361162f565b7f5361666545524332303a204552433230206f7065726174696f6e20646964206e8152691bdd081cdd58d8d9595960b21b602082015260400192915050565b60006111e560178361162f565b7f496e76616c69642061737365742070726f78792049442e000000000000000000815260200192915050565b600061121e60368361162f565b7f5361666545524332303a20617070726f76652066726f6d206e6f6e2d7a65726f81527520746f206e6f6e2d7a65726f20616c6c6f77616e636560501b602082015260400192915050565b6000611276602f8361162f565b7f4d616b65722061737365742066696c6c20616d6f756e74206d7573742062652081526e33b932b0ba32b9103a3430b710181760891b602082015260400192915050565b60006112c7601f8361162f565b7f5361666545524332303a2063616c6c20746f206e6f6e2d636f6e747261637400815260200192915050565b80516000906101c08401906113088582610eac565b50602083015161131b6020860182610eac565b50604083015161132e6040860182610eac565b5060608301516113416060860182610eac565b506080830151611354608086018261142e565b5060a083015161136760a086018261142e565b5060c083015161137a60c086018261142e565b5060e083015161138d60e086018261142e565b506101008301516113a261010086018261142e565b506101208301516113b761012086018261142e565b506101408301518482036101408601526113d18282611016565b9150506101608301518482036101608601526113ed8282611016565b9150506101808301518482036101808601526114098282611016565b9150506101a08301518482036101a08601526114258282611016565b95945050505050565b610eb581611622565b60006108b28284610fe7565b602081016102708284610eac565b6040810161145f8285610eac565b6108b26020830184610eac565b6040810161147a8285610eac565b6108b2602083018461142e565b606080825281016114988186610f29565b90506114a7602083018561142e565b81810360408301526114258184610ebb565b604081016102708284610f8a565b602081016102708284610fde565b606081016114e3828661104e565b6114f0602083018561142e565b61052d604083018461142e565b602080825281016108b28184611016565b6020808252810161030b81611057565b6020808252810161030b816110af565b6020808252810161030b816110e8565b6020808252810161030b8161113b565b6020808252810161030b8161118c565b6020808252810161030b816111d8565b6020808252810161030b81611211565b6020808252810161030b81611269565b6020808252810161030b816112ba565b60208101610270828461142e565b60405181810167ffffffffffffffff811182821017156115cb57600080fd5b604052919050565b600067ffffffffffffffff8211156115ea57600080fd5b5060209081020190565b600067ffffffffffffffff82111561160b57600080fd5b506020601f91909101601f19160190565b60200190565b90565b5190565b50600290565b90815260200190565b600061030b82611652565b151590565b8061030e816116ab565b6001600160a01b031690565b600061030b82611648565b82818337506000910152565b60005b83811015611690578181015183820152602001611678565b838111156108585750506000910152565b601f01601f191690565b600881106116b557fe5b50565b6116c181611638565b81146116b557600080fd5b6116c181611643565b6116c18161162256fea365627a7a72315820320625b14b3f19a6be82be3388b25f627738ddf9d059c6cc37d27524ddb93d0c6c6578706572696d656e74616cf564736f6c63430005110040",
  "source": "/**\r\n * COPYRIGHT  2020 RARI CAPITAL, INC. ALL RIGHTS RESERVED.\r\n * Anyone is free to integrate the public APIs (described in `API.md` of the `rari-contracts` package) of the official smart contract instances deployed by Rari Capital, Inc. in any application (commercial or noncommercial and under any license) benefitting Rari Capital, Inc.\r\n * Only those with explicit permission from a co-founder of Rari Capital (Jai Bhavnani, Jack Lipstone, or David Lucid) are permitted to study, review, or analyze any part of the source code contained in the `rari-contracts` package.\r\n * Reuse (including deployment of smart contracts other than private testing on a private network), modification, redistribution, or sublicensing of any source code contained in the `rari-contracts` package is not permitted without the explicit permission of David Lucid of Rari Capital, Inc.\r\n * No one is permitted to use the software for any purpose other than those allowed by this license.\r\n * This license is liable to change at any time at the sole discretion of David Lucid of Rari Capital, Inc.\r\n */\r\n\r\npragma solidity ^0.5.7;\r\npragma experimental ABIEncoderV2;\r\n\r\nimport \"@openzeppelin/contracts/math/SafeMath.sol\";\r\nimport \"@openzeppelin/contracts/token/ERC20/SafeERC20.sol\";\r\n\r\nimport \"@0x/contracts-exchange-libs/contracts/src/LibFillResults.sol\";\r\nimport \"@0x/contracts-exchange-libs/contracts/src/LibOrder.sol\";\r\nimport \"@0x/contracts-exchange/contracts/src/interfaces/IExchange.sol\";\r\nimport \"@0x/contracts-utils/contracts/src/LibBytes.sol\";\r\n\r\n/**\r\n * @title ZeroExExchangeController\r\n * @author David Lucid <david@rari.capital> (https://github.com/davidlucid)\r\n * @dev This library handles exchanges via 0x.\r\n */\r\nlibrary ZeroExExchangeController {\r\n    using SafeMath for uint256;\r\n    using SafeERC20 for IERC20;\r\n    using LibBytes for bytes;\r\n\r\n    /**\r\n     * @notice Package version of `rari-contracts` when this contract was deployed.\r\n     */\r\n    string public constant VERSION = \"2.0.0\";\r\n\r\n    /**\r\n     * @dev 0x v3 Exchange contract address.\r\n     */\r\n    address constant private EXCHANGE_CONTRACT = 0x61935CbDd02287B511119DDb11Aeb42F1593b7Ef;\r\n\r\n    /**\r\n     * @dev 0x v3 Exchange contract object.\r\n     */\r\n    IExchange constant private _exchange = IExchange(EXCHANGE_CONTRACT);\r\n\r\n    /**\r\n     * @dev 0x v3 ERC20Proxy contract address.\r\n     */\r\n    address constant private ERC20_PROXY_CONTRACT = 0x95E6F48254609A6ee006F7D493c8e5fB97094ceF;\r\n\r\n    /**\r\n     * @dev Decodes ERC20 or ERC20Bridge asset data.\r\n     * @param assetData The ERC20 or ERC20Bridge asset data.\r\n     * @return The asset token address.\r\n     */\r\n    function decodeTokenAddress(bytes calldata assetData) external pure returns (address) {\r\n        bytes4 assetProxyId = assetData.readBytes4(0);\r\n        if (assetProxyId == 0xf47261b0 || assetProxyId == 0xdc1600f3) return assetData.readAddress(16);\r\n        revert(\"Invalid asset proxy ID.\");\r\n    }\r\n\r\n    /**\r\n     * @dev Gets allowance of the specified token to 0x.\r\n     * @param erc20Contract The ERC20 contract address of the token.\r\n     */\r\n    function allowance(address erc20Contract) external view returns (uint256) {\r\n        return IERC20(erc20Contract).allowance(address(this), ERC20_PROXY_CONTRACT);\r\n    }\r\n\r\n    /**\r\n     * @dev Approves tokens to 0x without spending gas on every deposit.\r\n     * @param erc20Contract The ERC20 contract address of the token.\r\n     * @param amount Amount of the specified token to approve to dYdX.\r\n     * @return Boolean indicating success.\r\n     */\r\n    function approve(address erc20Contract, uint256 amount) external returns (bool) {\r\n        IERC20 token = IERC20(erc20Contract);\r\n        uint256 _allowance = token.allowance(address(this), ERC20_PROXY_CONTRACT);\r\n        if (_allowance == amount) return true;\r\n        if (amount > 0 && _allowance > 0) token.safeApprove(ERC20_PROXY_CONTRACT, 0);\r\n        token.safeApprove(ERC20_PROXY_CONTRACT, amount);\r\n        return true;\r\n    }\r\n\r\n    /**\r\n     * @dev Market sells to 0x exchange orders up to a certain amount of input.\r\n     * @param orders The limit orders to be filled in ascending order of price.\r\n     * @param signatures The signatures for the orders.\r\n     * @param takerAssetFillAmount The amount of the taker asset to sell (excluding taker fees).\r\n     * @param protocolFee The protocol fee in ETH to pay to 0x.\r\n     * @return Array containing the taker asset filled amount (sold) and maker asset filled amount (bought).\r\n     */\r\n    function marketSellOrdersFillOrKill(LibOrder.Order[] memory orders, bytes[] memory signatures, uint256 takerAssetFillAmount, uint256 protocolFee) public returns (uint256[2] memory) {\r\n        require(orders.length > 0, \"At least one order and matching signature is required.\");\r\n        require(orders.length == signatures.length, \"Mismatch between number of orders and signatures.\");\r\n        require(takerAssetFillAmount > 0, \"Taker asset fill amount must be greater than 0.\");\r\n        LibFillResults.FillResults memory fillResults = _exchange.marketSellOrdersFillOrKill.value(protocolFee)(orders, takerAssetFillAmount, signatures);\r\n        return [fillResults.takerAssetFilledAmount, fillResults.makerAssetFilledAmount];\r\n    }\r\n\r\n    /**\r\n     * @dev Market buys from 0x exchange orders up to a certain amount of output.\r\n     * @param orders The limit orders to be filled in ascending order of price.\r\n     * @param signatures The signatures for the orders.\r\n     * @param makerAssetFillAmount The amount of the maker asset to buy.\r\n     * @param protocolFee The protocol fee in ETH to pay to 0x.\r\n     * @return Array containing the taker asset filled amount (sold) and maker asset filled amount (bought).\r\n     */\r\n    function marketBuyOrdersFillOrKill(LibOrder.Order[] memory orders, bytes[] memory signatures, uint256 makerAssetFillAmount, uint256 protocolFee) public returns (uint256[2] memory) {\r\n        require(orders.length > 0, \"At least one order and matching signature is required.\");\r\n        require(orders.length == signatures.length, \"Mismatch between number of orders and signatures.\");\r\n        require(makerAssetFillAmount > 0, \"Maker asset fill amount must be greater than 0.\");\r\n        LibFillResults.FillResults memory fillResults = _exchange.marketBuyOrdersFillOrKill.value(protocolFee)(orders, makerAssetFillAmount, signatures);\r\n        return [fillResults.takerAssetFilledAmount, fillResults.makerAssetFilledAmount];\r\n    }\r\n}\r\n",
  "sourcePath": "/home/david/rari-contracts-v2.0.0/contracts/lib/exchanges/ZeroExExchangeController.sol",
  "compiler": {
    "name": "solc",
    "version": "0.5.17+commit.d19bba13.Emscripten.clang"
  },
  "schemaVersion": "3.2.3",
  "updatedAt": "2020-08-11T13:51:04.207Z",
  "devdoc": {
    "author": "David Lucid <david@rari.capital> (https://github.com/davidlucid)",
    "details": "This library handles exchanges via 0x.",
    "methods": {
      "allowance(address)": {
        "details": "Gets allowance of the specified token to 0x.",
        "params": {
          "erc20Contract": "The ERC20 contract address of the token."
        }
      },
      "approve(address,uint256)": {
        "details": "Approves tokens to 0x without spending gas on every deposit.",
        "params": {
          "amount": "Amount of the specified token to approve to dYdX.",
          "erc20Contract": "The ERC20 contract address of the token."
        },
        "return": "Boolean indicating success."
      },
      "decodeTokenAddress(bytes)": {
        "details": "Decodes ERC20 or ERC20Bridge asset data.",
        "params": {
          "assetData": "The ERC20 or ERC20Bridge asset data."
        },
        "return": "The asset token address."
      },
      "marketBuyOrdersFillOrKill(LibOrder.Order[],bytes[],uint256,uint256)": {
        "details": "Market buys from 0x exchange orders up to a certain amount of output.",
        "params": {
          "makerAssetFillAmount": "The amount of the maker asset to buy.",
          "orders": "The limit orders to be filled in ascending order of price.",
          "protocolFee": "The protocol fee in ETH to pay to 0x.",
          "signatures": "The signatures for the orders."
        },
        "return": "Array containing the taker asset filled amount (sold) and maker asset filled amount (bought)."
      },
      "marketSellOrdersFillOrKill(LibOrder.Order[],bytes[],uint256,uint256)": {
        "details": "Market sells to 0x exchange orders up to a certain amount of input.",
        "params": {
          "orders": "The limit orders to be filled in ascending order of price.",
          "protocolFee": "The protocol fee in ETH to pay to 0x.",
          "signatures": "The signatures for the orders.",
          "takerAssetFillAmount": "The amount of the taker asset to sell (excluding taker fees)."
        },
        "return": "Array containing the taker asset filled amount (sold) and maker asset filled amount (bought)."
      }
    },
    "title": "ZeroExExchangeController"
  },
  "userdoc": {
    "methods": {}
  }
}